{
  "contractName": "Elections",
  "abi": [
    {
      "constant": true,
      "inputs": [
        {
          "name": "",
          "type": "uint256"
        }
      ],
      "name": "candidates",
      "outputs": [
        {
          "name": "id",
          "type": "uint256"
        },
        {
          "name": "name",
          "type": "string"
        },
        {
          "name": "department",
          "type": "string"
        },
        {
          "name": "level",
          "type": "uint256"
        },
        {
          "name": "voteCount",
          "type": "uint256"
        }
      ],
      "payable": false,
      "stateMutability": "view",
      "type": "function",
      "signature": "0x3477ee2e"
    },
    {
      "constant": true,
      "inputs": [
        {
          "name": "",
          "type": "address"
        }
      ],
      "name": "voters",
      "outputs": [
        {
          "name": "",
          "type": "bool"
        }
      ],
      "payable": false,
      "stateMutability": "view",
      "type": "function",
      "signature": "0xa3ec138d"
    },
    {
      "constant": true,
      "inputs": [],
      "name": "candidateCount",
      "outputs": [
        {
          "name": "",
          "type": "uint256"
        }
      ],
      "payable": false,
      "stateMutability": "view",
      "type": "function",
      "signature": "0xa9a981a3"
    },
    {
      "inputs": [],
      "payable": false,
      "stateMutability": "nonpayable",
      "type": "constructor",
      "signature": "constructor"
    },
    {
      "anonymous": false,
      "inputs": [
        {
          "indexed": false,
          "name": "id",
          "type": "uint256"
        },
        {
          "indexed": false,
          "name": "name",
          "type": "string"
        },
        {
          "indexed": false,
          "name": "department",
          "type": "string"
        },
        {
          "indexed": false,
          "name": "level",
          "type": "uint256"
        },
        {
          "indexed": false,
          "name": "voteCount",
          "type": "uint256"
        }
      ],
      "name": "NewCandidate",
      "type": "event",
      "signature": "0xb3403b72c6e43e2d4ab03438e072eddee23b1ccd0b0b4e38fc1ad1baecc55d47"
    },
    {
      "anonymous": false,
      "inputs": [
        {
          "indexed": false,
          "name": "voter",
          "type": "address"
        },
        {
          "indexed": false,
          "name": "voted",
          "type": "bool"
        }
      ],
      "name": "Voted",
      "type": "event",
      "signature": "0x8eb81cb806dbb3d8a2f94981614331a55dfd90e06a42fdc362ca3ca96981d92f"
    },
    {
      "constant": false,
      "inputs": [
        {
          "name": "_name",
          "type": "string"
        },
        {
          "name": "_department",
          "type": "string"
        },
        {
          "name": "_level",
          "type": "uint256"
        }
      ],
      "name": "createCandidate",
      "outputs": [],
      "payable": false,
      "stateMutability": "nonpayable",
      "type": "function",
      "signature": "0xe5c23c59"
    },
    {
      "constant": false,
      "inputs": [
        {
          "name": "_candidateId",
          "type": "uint256"
        }
      ],
      "name": "voteCandidate",
      "outputs": [],
      "payable": false,
      "stateMutability": "nonpayable",
      "type": "function",
      "signature": "0x8c08a4dc"
    }
  ],
  "bytecode": "0x608060405234801561001057600080fd5b50610976806100206000396000f3fe60806040526004361061006d576000357c0100000000000000000000000000000000000000000000000000000000900463ffffffff1680633477ee2e146100725780638c08a4dc146101a7578063a3ec138d146101e2578063a9a981a31461024b578063e5c23c5914610276575b600080fd5b34801561007e57600080fd5b506100ab6004803603602081101561009557600080fd5b81019080803590602001909291905050506103df565b604051808681526020018060200180602001858152602001848152602001838103835287818151815260200191508051906020019080838360005b838110156101015780820151818401526020810190506100e6565b50505050905090810190601f16801561012e5780820380516001836020036101000a031916815260200191505b50838103825286818151815260200191508051906020019080838360005b8381101561016757808201518184015260208101905061014c565b50505050905090810190601f1680156101945780820380516001836020036101000a031916815260200191505b5097505050505050505060405180910390f35b3480156101b357600080fd5b506101e0600480360360208110156101ca57600080fd5b8101908080359060200190929190505050610545565b005b3480156101ee57600080fd5b506102316004803603602081101561020557600080fd5b81019080803573ffffffffffffffffffffffffffffffffffffffff1690602001909291905050506106aa565b604051808215151515815260200191505060405180910390f35b34801561025757600080fd5b506102606106ca565b6040518082815260200191505060405180910390f35b34801561028257600080fd5b506103dd6004803603606081101561029957600080fd5b81019080803590602001906401000000008111156102b657600080fd5b8201836020820111156102c857600080fd5b803590602001918460018302840111640100000000831117156102ea57600080fd5b91908080601f016020809104026020016040519081016040528093929190818152602001838380828437600081840152601f19601f8201169050808301925050505050505091929192908035906020019064010000000081111561034d57600080fd5b82018360208201111561035f57600080fd5b8035906020019184600183028401116401000000008311171561038157600080fd5b91908080601f016020809104026020016040519081016040528093929190818152602001838380828437600081840152601f19601f820116905080830192505050505050509192919290803590602001909291905050506106d0565b005b6000602052806000526040600020600091509050806000015490806001018054600181600116156101000203166002900480601f0160208091040260200160405190810160405280929190818152602001828054600181600116156101000203166002900480156104915780601f1061046657610100808354040283529160200191610491565b820191906000526020600020905b81548152906001019060200180831161047457829003601f168201915b505050505090806002018054600181600116156101000203166002900480601f01602080910402602001604051908101604052809291908181526020018280546001816001161561010002031660029004801561052f5780601f106105045761010080835404028352916020019161052f565b820191906000526020600020905b81548152906001019060200180831161051257829003601f168201915b5050505050908060030154908060040154905085565b600160003373ffffffffffffffffffffffffffffffffffffffff1673ffffffffffffffffffffffffffffffffffffffff16815260200190815260200160002060009054906101000a900460ff1615151561059e57600080fd5b6000811180156105b057506002548111155b15156105bb57600080fd5b60018060003373ffffffffffffffffffffffffffffffffffffffff1673ffffffffffffffffffffffffffffffffffffffff16815260200190815260200160002060006101000a81548160ff021916908315150217905550600080828152602001908152602001600020600401600081548092919060010191905055507f8eb81cb806dbb3d8a2f94981614331a55dfd90e06a42fdc362ca3ca96981d92f336001604051808373ffffffffffffffffffffffffffffffffffffffff1673ffffffffffffffffffffffffffffffffffffffff168152602001821515151581526020019250505060405180910390a150565b60016020528060005260406000206000915054906101000a900460ff1681565b60025481565b60026000815480929190600101919050555060a0604051908101604052806002548152602001848152602001838152602001828152602001600081525060008060025481526020019081526020016000206000820151816000015560208201518160010190805190602001906107479291906108a5565b5060408201518160020190805190602001906107649291906108a5565b5060608201518160030155608082015181600401559050507fb3403b72c6e43e2d4ab03438e072eddee23b1ccd0b0b4e38fc1ad1baecc55d476002548484846000604051808681526020018060200180602001858152602001848152602001838103835287818151815260200191508051906020019080838360005b838110156107fb5780820151818401526020810190506107e0565b50505050905090810190601f1680156108285780820380516001836020036101000a031916815260200191505b50838103825286818151815260200191508051906020019080838360005b83811015610861578082015181840152602081019050610846565b50505050905090810190601f16801561088e5780820380516001836020036101000a031916815260200191505b5097505050505050505060405180910390a1505050565b828054600181600116156101000203166002900490600052602060002090601f016020900481019282601f106108e657805160ff1916838001178555610914565b82800160010185558215610914579182015b828111156109135782518255916020019190600101906108f8565b5b5090506109219190610925565b5090565b61094791905b8082111561094357600081600090555060010161092b565b5090565b9056fea165627a7a723058202dd1625d2ac56fe17dd83fa89d3b4bb89eda2fd9a41c519a22a8a947546a5f320029",
  "source": "pragma solidity 0.5.0;\r\n\r\ncontract Elections {\r\n\r\n    // Maps candidates to an int\r\n    mapping(uint=>Candidate) public candidates;\r\n\r\n    mapping(address=>bool) public voters;\r\n\r\n\r\n\r\n\r\n    uint public candidateCount;\r\n    // constructor\r\n    constructor() public {\r\n\r\n    }\r\n\r\n    struct Candidate {\r\n        uint id;\r\n        string name;\r\n        string department;\r\n        uint level;\r\n        uint voteCount;\r\n\r\n    }\r\n\r\n    event NewCandidate(\r\n        uint id,\r\n        string name,\r\n        string department,\r\n        uint level,\r\n        uint voteCount\r\n    );\r\n\r\n    event Voted(\r\n        address voter,\r\n        bool voted\r\n    );\r\n\r\n    // function to create a candidate which will be restricted to the deployer only in the future\r\n\r\n    function createCandidate(string memory _name, string memory  _department, uint _level) public {\r\n        candidateCount ++;\r\n\r\n        candidates[candidateCount] = Candidate(candidateCount,_name,_department,_level, 0);\r\n        emit NewCandidate(candidateCount,_name,_department,_level, 0);\r\n    }\r\n\r\n    // Function to enable users vote\r\n\r\n    function voteCandidate(uint _candidateId) public {\r\n\r\n        // require that they haven't voted before\r\n        require(!voters[msg.sender]);\r\n\r\n            // Ensures the candidate exists\r\n        require(_candidateId > 0 && _candidateId <= candidateCount);\r\n\r\n        // record that voter has voted\r\n        voters[msg.sender] = true;\r\n\r\n        // update candidate vote Count\r\n        candidates[_candidateId].voteCount ++;\r\n\r\n        emit Voted(msg.sender,true);\r\n\r\n\r\n    }\r\n}",
  "sourcePath": "C:/Users/ALEX PC/Desktop/Univote/uniVote-2/client/src/contracts/Elections.sol",
  "compiler": {
    "name": "solc",
    "version": "0.5.0+commit.1d4f565a.Emscripten.clang"
  },
  "schemaVersion": "3.0.2",
  "updatedAt": "2020-01-02T21:21:06.810Z",
  "devdoc": {
    "methods": {}
  },
  "userdoc": {
    "methods": {}
  }
}