{
  "contractName": "Elections",
  "abi": [
    {
      "constant": true,
      "inputs": [],
      "name": "candidateCount",
      "outputs": [
        {
          "name": "",
          "type": "uint256"
        }
      ],
      "payable": false,
      "stateMutability": "view",
      "type": "function"
    },
    {
      "inputs": [],
      "payable": false,
      "stateMutability": "nonpayable",
      "type": "constructor"
    },
    {
      "anonymous": false,
      "inputs": [
        {
          "indexed": false,
          "name": "id",
          "type": "uint256"
        },
        {
          "indexed": false,
          "name": "name",
          "type": "string"
        },
        {
          "indexed": false,
          "name": "department",
          "type": "string"
        },
        {
          "indexed": false,
          "name": "level",
          "type": "uint256"
        },
        {
          "indexed": false,
          "name": "voteCount",
          "type": "uint256"
        }
      ],
      "name": "NewCandidate",
      "type": "event"
    },
    {
      "anonymous": false,
      "inputs": [
        {
          "indexed": false,
          "name": "voter",
          "type": "address"
        },
        {
          "indexed": false,
          "name": "voted",
          "type": "bool"
        }
      ],
      "name": "Voted",
      "type": "event"
    },
    {
      "constant": false,
      "inputs": [
        {
          "name": "_name",
          "type": "string"
        },
        {
          "name": "_department",
          "type": "string"
        },
        {
          "name": "_level",
          "type": "uint256"
        }
      ],
      "name": "createCandidate",
      "outputs": [],
      "payable": false,
      "stateMutability": "nonpayable",
      "type": "function"
    },
    {
      "constant": false,
      "inputs": [
        {
          "name": "_candidateId",
          "type": "uint256"
        }
      ],
      "name": "voteCandidate",
      "outputs": [],
      "payable": false,
      "stateMutability": "nonpayable",
      "type": "function"
    },
    {
      "constant": false,
      "inputs": [
        {
          "name": "duration",
          "type": "uint256"
        }
      ],
      "name": "start_election",
      "outputs": [],
      "payable": false,
      "stateMutability": "nonpayable",
      "type": "function"
    }
  ],
  "bytecode": "0x608060405234801561001057600080fd5b50336000806101000a81548173ffffffffffffffffffffffffffffffffffffffff021916908373ffffffffffffffffffffffffffffffffffffffff160217905550610812806100606000396000f3fe608060405260043610610062576000357c0100000000000000000000000000000000000000000000000000000000900463ffffffff1680632de096ff146100675780638c08a4dc146100a2578063a9a981a3146100dd578063e5c23c5914610108575b600080fd5b34801561007357600080fd5b506100a06004803603602081101561008a57600080fd5b8101908080359060200190929190505050610271565b005b3480156100ae57600080fd5b506100db600480360360208110156100c557600080fd5b81019080803590602001909291905050506102d8565b005b3480156100e957600080fd5b506100f261050a565b6040518082815260200191505060405180910390f35b34801561011457600080fd5b5061026f6004803603606081101561012b57600080fd5b810190808035906020019064010000000081111561014857600080fd5b82018360208201111561015a57600080fd5b8035906020019184600183028401116401000000008311171561017c57600080fd5b91908080601f016020809104026020016040519081016040528093929190818152602001838380828437600081840152601f19601f820116905080830192505050505050509192919290803590602001906401000000008111156101df57600080fd5b8201836020820111156101f157600080fd5b8035906020019184600183028401116401000000008311171561021357600080fd5b91908080601f016020809104026020016040519081016040528093929190818152602001838380828437600081840152601f19601f82011690508083019250505050505050919291929080359060200190929190505050610510565b005b6000809054906101000a900473ffffffffffffffffffffffffffffffffffffffff1673ffffffffffffffffffffffffffffffffffffffff163373ffffffffffffffffffffffffffffffffffffffff161415156102cc57600080fd5b80420160018190555050565b600460003373ffffffffffffffffffffffffffffffffffffffff1673ffffffffffffffffffffffffffffffffffffffff16815260200190815260200160002060009054906101000a900460ff16151561033057600080fd5b60006001541480610342575042600154115b1561034c57600080fd5b600560003373ffffffffffffffffffffffffffffffffffffffff1673ffffffffffffffffffffffffffffffffffffffff16815260200190815260200160002060009054906101000a900460ff16156103a357600080fd5b600460003373ffffffffffffffffffffffffffffffffffffffff1673ffffffffffffffffffffffffffffffffffffffff16815260200190815260200160002060009054906101000a900460ff161515156103fc57600080fd5b60008111801561040e57506006548111155b151561041957600080fd5b6001600460003373ffffffffffffffffffffffffffffffffffffffff1673ffffffffffffffffffffffffffffffffffffffff16815260200190815260200160002060006101000a81548160ff02191690831515021790555060026000828152602001908152602001600020600401600081548092919060010191905055507f8eb81cb806dbb3d8a2f94981614331a55dfd90e06a42fdc362ca3ca96981d92f336001604051808373ffffffffffffffffffffffffffffffffffffffff1673ffffffffffffffffffffffffffffffffffffffff168152602001821515151581526020019250505060405180910390a150565b60065481565b6000809054906101000a900473ffffffffffffffffffffffffffffffffffffffff1673ffffffffffffffffffffffffffffffffffffffff163373ffffffffffffffffffffffffffffffffffffffff1614151561056b57600080fd5b60066000815480929190600101919050555060a060405190810160405280600654815260200184815260200183815260200182815260200160008152506002600060065481526020019081526020016000206000820151816000015560208201518160010190805190602001906105e3929190610741565b506040820151816002019080519060200190610600929190610741565b5060608201518160030155608082015181600401559050507fb3403b72c6e43e2d4ab03438e072eddee23b1ccd0b0b4e38fc1ad1baecc55d476006548484846000604051808681526020018060200180602001858152602001848152602001838103835287818151815260200191508051906020019080838360005b8381101561069757808201518184015260208101905061067c565b50505050905090810190601f1680156106c45780820380516001836020036101000a031916815260200191505b50838103825286818151815260200191508051906020019080838360005b838110156106fd5780820151818401526020810190506106e2565b50505050905090810190601f16801561072a5780820380516001836020036101000a031916815260200191505b5097505050505050505060405180910390a1505050565b828054600181600116156101000203166002900490600052602060002090601f016020900481019282601f1061078257805160ff19168380011785556107b0565b828001600101855582156107b0579182015b828111156107af578251825591602001919060010190610794565b5b5090506107bd91906107c1565b5090565b6107e391905b808211156107df5760008160009055506001016107c7565b5090565b9056fea165627a7a72305820989c48ede4c209adbded42f1860c7256467f2d20196933d683ddbfb2960db9ea0029",
  "source": "pragma solidity 0.5.0;\r\n\r\ncontract Elections {\r\n\r\n    address electionAuthority;\r\n    uint electionEndTime;\r\n\r\n    // Maps candidates to an int\r\n    //  string[] candidates; // Registered candidates\r\n\r\n\r\n    mapping (uint => Candidate) candidates; // Candidate ID to number of votes\r\n    mapping (string => uint) votes; // Candidate ID to number of votes\r\n    mapping (address => bool) voters; // Registered voters\r\n    mapping (address => bool) hasVoted; // If a registered voter has voted or not\r\n\r\n\r\n\r\n\r\n    uint public candidateCount;\r\n    // constructor\r\n    constructor() public {\r\n        electionAuthority = msg.sender;\r\n    }\r\n\r\n    // Modifiers\r\n\r\n    modifier only_election_authority() {\r\n        if (msg.sender != electionAuthority) revert();\r\n        _;\r\n    }\r\n\r\n     modifier only_registered_voters() {\r\n        if (!voters[msg.sender]) revert();\r\n        _;\r\n    }\r\n\r\n    modifier vote_only_once() {\r\n        if (hasVoted[msg.sender]) revert();\r\n        _;\r\n    }\r\n\r\n      modifier only_during_election_time() {\r\n        if (electionEndTime == 0 || electionEndTime > block.timestamp) revert();\r\n        _;\r\n    }\r\n\r\n\r\n    struct Candidate {\r\n        uint id;\r\n        string name;\r\n        string department;\r\n        uint level;\r\n        uint voteCount;\r\n\r\n    }\r\n\r\n    event NewCandidate(\r\n        uint id,\r\n        string name,\r\n        string department,\r\n        uint level,\r\n        uint voteCount\r\n    );\r\n\r\n    event Voted(\r\n        address voter,\r\n        bool voted\r\n    );\r\n\r\n\r\n    \r\n\r\n    // function to create a candidate which will be restricted to the deployer only in the future\r\n\r\n    function createCandidate(string memory _name, string memory  _department, uint _level) public only_election_authority {\r\n        candidateCount ++;\r\n\r\n        candidates[candidateCount] = Candidate(candidateCount,_name,_department,_level, 0);\r\n        emit NewCandidate(candidateCount,_name,_department,_level, 0);\r\n    }\r\n\r\n    // Function to enable users vote\r\n\r\n    function voteCandidate(uint _candidateId) public \r\n    \r\n        only_registered_voters\r\n        only_during_election_time\r\n        vote_only_once\r\n        {\r\n     \r\n\r\n\r\n        // require that they haven't voted before\r\n        require(!voters[msg.sender]);\r\n\r\n            // Ensures the candidate exists\r\n        require(_candidateId > 0 && _candidateId <= candidateCount);\r\n\r\n        // record that voter has voted\r\n        voters[msg.sender] = true;\r\n\r\n        // update candidate vote Count\r\n        candidates[_candidateId].voteCount ++;\r\n\r\n        emit Voted(msg.sender,true);\r\n\r\n\r\n    }\r\n\r\n     \r\n\r\n     function start_election(uint duration) public\r\n        only_election_authority\r\n    {\r\n        electionEndTime = block.timestamp + duration;\r\n    }\r\n  \r\n}\r\n",
  "sourcePath": "C:/Users/ALEX PC/Desktop/Univote/uniVote-2/client/src/contracts/Elections.sol",
  "compiler": {
    "name": "solc",
    "version": "0.5.0+commit.1d4f565a.Emscripten.clang"
  },
  "schemaVersion": "3.0.2",
  "updatedAt": "2020-01-02T21:51:24.782Z",
  "devdoc": {
    "methods": {}
  },
  "userdoc": {
    "methods": {}
  }
}