{
  "contractName": "Elections",
  "abi": [
    {
      "inputs": [],
      "payable": false,
      "stateMutability": "nonpayable",
      "type": "constructor"
    },
    {
      "anonymous": false,
      "inputs": [
        {
          "indexed": false,
          "internalType": "uint256",
          "name": "id",
          "type": "uint256"
        },
        {
          "indexed": false,
          "internalType": "string",
          "name": "name",
          "type": "string"
        },
        {
          "indexed": false,
          "internalType": "string",
          "name": "department",
          "type": "string"
        },
        {
          "indexed": false,
          "internalType": "uint256",
          "name": "level",
          "type": "uint256"
        },
        {
          "indexed": false,
          "internalType": "uint256",
          "name": "voteCount",
          "type": "uint256"
        }
      ],
      "name": "NewCandidate",
      "type": "event"
    },
    {
      "anonymous": false,
      "inputs": [
        {
          "indexed": false,
          "internalType": "address",
          "name": "voter",
          "type": "address"
        },
        {
          "indexed": false,
          "internalType": "bool",
          "name": "voted",
          "type": "bool"
        }
      ],
      "name": "Voted",
      "type": "event"
    },
    {
      "constant": true,
      "inputs": [],
      "name": "candidateCount",
      "outputs": [
        {
          "internalType": "uint256",
          "name": "",
          "type": "uint256"
        }
      ],
      "payable": false,
      "stateMutability": "view",
      "type": "function"
    },
    {
      "constant": true,
      "inputs": [
        {
          "internalType": "uint256",
          "name": "",
          "type": "uint256"
        }
      ],
      "name": "candidates",
      "outputs": [
        {
          "internalType": "uint256",
          "name": "id",
          "type": "uint256"
        },
        {
          "internalType": "string",
          "name": "name",
          "type": "string"
        },
        {
          "internalType": "string",
          "name": "department",
          "type": "string"
        },
        {
          "internalType": "uint256",
          "name": "level",
          "type": "uint256"
        },
        {
          "internalType": "uint256",
          "name": "voteCount",
          "type": "uint256"
        }
      ],
      "payable": false,
      "stateMutability": "view",
      "type": "function"
    },
    {
      "constant": true,
      "inputs": [],
      "name": "electionAuthority",
      "outputs": [
        {
          "internalType": "address",
          "name": "",
          "type": "address"
        }
      ],
      "payable": false,
      "stateMutability": "view",
      "type": "function"
    },
    {
      "constant": true,
      "inputs": [
        {
          "internalType": "address",
          "name": "",
          "type": "address"
        }
      ],
      "name": "hasVoted",
      "outputs": [
        {
          "internalType": "bool",
          "name": "",
          "type": "bool"
        }
      ],
      "payable": false,
      "stateMutability": "view",
      "type": "function"
    },
    {
      "constant": true,
      "inputs": [
        {
          "internalType": "address",
          "name": "",
          "type": "address"
        }
      ],
      "name": "voters",
      "outputs": [
        {
          "internalType": "bool",
          "name": "",
          "type": "bool"
        }
      ],
      "payable": false,
      "stateMutability": "view",
      "type": "function"
    },
    {
      "constant": false,
      "inputs": [
        {
          "internalType": "address",
          "name": "addr",
          "type": "address"
        }
      ],
      "name": "register_voter",
      "outputs": [],
      "payable": false,
      "stateMutability": "nonpayable",
      "type": "function"
    },
    {
      "constant": false,
      "inputs": [
        {
          "internalType": "uint256",
          "name": "duration",
          "type": "uint256"
        }
      ],
      "name": "start_election",
      "outputs": [],
      "payable": false,
      "stateMutability": "nonpayable",
      "type": "function"
    },
    {
      "constant": false,
      "inputs": [
        {
          "internalType": "string",
          "name": "_name",
          "type": "string"
        },
        {
          "internalType": "string",
          "name": "_department",
          "type": "string"
        },
        {
          "internalType": "uint256",
          "name": "_level",
          "type": "uint256"
        }
      ],
      "name": "createCandidate",
      "outputs": [],
      "payable": false,
      "stateMutability": "nonpayable",
      "type": "function"
    },
    {
      "constant": false,
      "inputs": [
        {
          "internalType": "uint256",
          "name": "_candidateId",
          "type": "uint256"
        }
      ],
      "name": "voteCandidate",
      "outputs": [],
      "payable": false,
      "stateMutability": "nonpayable",
      "type": "function"
    }
  ],
  "bytecode": "0x608060405234801561001057600080fd5b50336000806101000a81548173ffffffffffffffffffffffffffffffffffffffff021916908373ffffffffffffffffffffffffffffffffffffffff160217905550610c87806100606000396000f3fe608060405234801561001057600080fd5b50600436106100935760003560e01c80638c08a4dc116100665780638c08a4dc1461028e578063a3ec138d146102bc578063a9a981a314610318578063dc46d6ea14610336578063e5c23c591461038057610093565b806309eef43e146100985780632de096ff146100f45780633477ee2e146101225780634f2c51b91461024a575b600080fd5b6100da600480360360208110156100ae57600080fd5b81019080803573ffffffffffffffffffffffffffffffffffffffff1690602001909291905050506104dc565b604051808215151515815260200191505060405180910390f35b6101206004803603602081101561010a57600080fd5b81019080803590602001909291905050506104fc565b005b61014e6004803603602081101561013857600080fd5b8101908080359060200190929190505050610561565b604051808681526020018060200180602001858152602001848152602001838103835287818151815260200191508051906020019080838360005b838110156101a4578082015181840152602081019050610189565b50505050905090810190601f1680156101d15780820380516001836020036101000a031916815260200191505b50838103825286818151815260200191508051906020019080838360005b8381101561020a5780820151818401526020810190506101ef565b50505050905090810190601f1680156102375780820380516001836020036101000a031916815260200191505b5097505050505050505060405180910390f35b61028c6004803603602081101561026057600080fd5b81019080803573ffffffffffffffffffffffffffffffffffffffff1690602001909291905050506106c7565b005b6102ba600480360360208110156102a457600080fd5b810190808035906020019092919050505061077b565b005b6102fe600480360360208110156102d257600080fd5b81019080803573ffffffffffffffffffffffffffffffffffffffff169060200190929190505050610934565b604051808215151515815260200191505060405180910390f35b610320610954565b6040518082815260200191505060405180910390f35b61033e61095a565b604051808273ffffffffffffffffffffffffffffffffffffffff1673ffffffffffffffffffffffffffffffffffffffff16815260200191505060405180910390f35b6104da6004803603606081101561039657600080fd5b81019080803590602001906401000000008111156103b357600080fd5b8201836020820111156103c557600080fd5b803590602001918460018302840111640100000000831117156103e757600080fd5b91908080601f016020809104026020016040519081016040528093929190818152602001838380828437600081840152601f19601f8201169050808301925050505050505091929192908035906020019064010000000081111561044a57600080fd5b82018360208201111561045c57600080fd5b8035906020019184600183028401116401000000008311171561047e57600080fd5b91908080601f016020809104026020016040519081016040528093929190818152602001838380828437600081840152601f19601f8201169050808301925050505050505091929192908035906020019092919050505061097f565b005b60046020528060005260406000206000915054906101000a900460ff1681565b6000809054906101000a900473ffffffffffffffffffffffffffffffffffffffff1673ffffffffffffffffffffffffffffffffffffffff163373ffffffffffffffffffffffffffffffffffffffff161461055557600080fd5b80420160018190555050565b6002602052806000526040600020600091509050806000015490806001018054600181600116156101000203166002900480601f0160208091040260200160405190810160405280929190818152602001828054600181600116156101000203166002900480156106135780601f106105e857610100808354040283529160200191610613565b820191906000526020600020905b8154815290600101906020018083116105f657829003601f168201915b505050505090806002018054600181600116156101000203166002900480601f0160208091040260200160405190810160405280929190818152602001828054600181600116156101000203166002900480156106b15780601f10610686576101008083540402835291602001916106b1565b820191906000526020600020905b81548152906001019060200180831161069457829003601f168201915b5050505050908060030154908060040154905085565b6000809054906101000a900473ffffffffffffffffffffffffffffffffffffffff1673ffffffffffffffffffffffffffffffffffffffff163373ffffffffffffffffffffffffffffffffffffffff161461072057600080fd5b6001600360008373ffffffffffffffffffffffffffffffffffffffff1673ffffffffffffffffffffffffffffffffffffffff16815260200190815260200160002060006101000a81548160ff02191690831515021790555050565b600360003373ffffffffffffffffffffffffffffffffffffffff1673ffffffffffffffffffffffffffffffffffffffff16815260200190815260200160002060009054906101000a900460ff166107d157600080fd5b600460003373ffffffffffffffffffffffffffffffffffffffff1673ffffffffffffffffffffffffffffffffffffffff16815260200190815260200160002060009054906101000a900460ff161561082857600080fd5b60008111801561083a57506005548111155b61084357600080fd5b6001600460003373ffffffffffffffffffffffffffffffffffffffff1673ffffffffffffffffffffffffffffffffffffffff16815260200190815260200160002060006101000a81548160ff02191690831515021790555060026000828152602001908152602001600020600401600081548092919060010191905055507f8eb81cb806dbb3d8a2f94981614331a55dfd90e06a42fdc362ca3ca96981d92f336001604051808373ffffffffffffffffffffffffffffffffffffffff1673ffffffffffffffffffffffffffffffffffffffff168152602001821515151581526020019250505060405180910390a150565b60036020528060005260406000206000915054906101000a900460ff1681565b60055481565b6000809054906101000a900473ffffffffffffffffffffffffffffffffffffffff1681565b6000809054906101000a900473ffffffffffffffffffffffffffffffffffffffff1673ffffffffffffffffffffffffffffffffffffffff163373ffffffffffffffffffffffffffffffffffffffff16146109d857600080fd5b6005600081548092919060010191905055506040518060a0016040528060055481526020018481526020018381526020018281526020016000815250600260006005548152602001908152602001600020600082015181600001556020820151816001019080519060200190610a4f929190610bad565b506040820151816002019080519060200190610a6c929190610bad565b5060608201518160030155608082015181600401559050507fb3403b72c6e43e2d4ab03438e072eddee23b1ccd0b0b4e38fc1ad1baecc55d476005548484846000604051808681526020018060200180602001858152602001848152602001838103835287818151815260200191508051906020019080838360005b83811015610b03578082015181840152602081019050610ae8565b50505050905090810190601f168015610b305780820380516001836020036101000a031916815260200191505b50838103825286818151815260200191508051906020019080838360005b83811015610b69578082015181840152602081019050610b4e565b50505050905090810190601f168015610b965780820380516001836020036101000a031916815260200191505b5097505050505050505060405180910390a1505050565b828054600181600116156101000203166002900490600052602060002090601f016020900481019282601f10610bee57805160ff1916838001178555610c1c565b82800160010185558215610c1c579182015b82811115610c1b578251825591602001919060010190610c00565b5b509050610c299190610c2d565b5090565b610c4f91905b80821115610c4b576000816000905550600101610c33565b5090565b9056fea265627a7a7231582068e50b7b4511999399fa533c713d5d3afd7db86e2aefe92aa2bd5605a3beb71464736f6c634300050c0032",
  "source": "pragma solidity ^0.5.0;\n\ncontract Elections {\n\n    address public electionAuthority;\n    uint electionEndTime;\n\n    // Maps candidates to an int\n    //  string[] candidates; // Registered candidates\n\n\n    mapping (uint => Candidate) public candidates; // Candidate ID to number of votes\n    // mapping (string => uint) public votes; // Candidate ID to number of votes\n    mapping (address => bool) public voters; // Registered voters\n    mapping (address => bool) public hasVoted; // If a registered voter has voted or not\n\n\n\n\n    uint public candidateCount;\n    // constructor\n    constructor() public {\n        electionAuthority = msg.sender;\n    }\n\n    // Modifiers\n\n    // Ensures only owners can call a function\n    modifier only_election_authority() {\n        if (msg.sender != electionAuthority) revert();\n        _;\n    }\n\n    // Ensures only registered voters can vote\n     modifier only_registered_voters() {\n        if (!voters[msg.sender]) revert();\n        _;\n    }\n\n    // Ensures voters can vote just once!!! Their fada\n    modifier vote_only_once() {\n        if (hasVoted[msg.sender]) revert();\n        _;\n    }   \n\n    // Only Vote during election time and We make cash\n\n      modifier only_during_election_time() {\n        if (electionEndTime == 0 || electionEndTime > block.timestamp) revert();\n        _;\n    }\n\n\n    struct Candidate {\n        uint id;\n        string name;\n        string department;\n        uint level;\n        uint voteCount;\n\n    }\n\n    event NewCandidate(\n        uint id,\n        string name,\n        string department,\n        uint level,\n        uint voteCount\n    );\n\n    event Voted(\n        address voter,\n        bool voted\n    );\n\n    // Register a voter for when we using the UJ API to register voters\n    function register_voter(address addr) public\n        only_election_authority\n    {\n        voters[addr] = true;\n    }\n\n      function start_election(uint duration) public\n        only_election_authority\n    {\n        electionEndTime =   block.timestamp + duration;\n    }\n  \n    \n\n    // function to create a candidate which will be restricted to the deployer only in the future\n\n    function createCandidate(string memory _name, string memory  _department, uint _level) public only_election_authority {\n        candidateCount ++;\n\n        candidates[candidateCount] = Candidate(candidateCount,_name,_department,_level, 0);\n        emit NewCandidate(candidateCount,_name,_department,_level, 0);\n    }\n\n\n    // Function to enable users vote\n\n    function voteCandidate(uint _candidateId) public \n    \n        only_registered_voters\n\n        // Remember to check why time fails in tests!!\n        // only_during_election_time\n        vote_only_once\n        {\n     \n\n\n        // // require that they haven't voted before\n        // require(!voters[msg.sender]);\n\n            // Ensures the candidate exists\n        require(_candidateId > 0 && _candidateId <= candidateCount);\n\n        // record that voter has voted\n        hasVoted[msg.sender] = true;\n\n        // update candidate vote Count\n        candidates[_candidateId].voteCount ++;\n\n        emit Voted(msg.sender,true);\n\n\n    }\n\n     \n\n   \n}\n",
  "sourcePath": "/home/goodness/Development/ethereum/UniVote/client/src/contracts/Elections.sol",
  "compiler": {
    "name": "solc",
    "version": "0.5.12+commit.7709ece9.Emscripten.clang"
  },
  "schemaVersion": "3.0.19",
  "updatedAt": "2020-01-04T10:01:20.894Z",
  "networkType": "ethereum",
  "devdoc": {
    "methods": {}
  },
  "userdoc": {
    "methods": {}
  }
}