{
  "contractName": "Voting",
  "abi": [
    {
      "constant": true,
      "inputs": [
        {
          "name": "",
          "type": "address"
        }
      ],
      "name": "hasVoted",
      "outputs": [
        {
          "name": "",
          "type": "bool"
        }
      ],
      "payable": false,
      "stateMutability": "view",
      "type": "function",
      "signature": "0x09eef43e"
    },
    {
      "constant": true,
      "inputs": [
        {
          "name": "",
          "type": "uint256"
        }
      ],
      "name": "candidates",
      "outputs": [
        {
          "name": "id",
          "type": "uint256"
        },
        {
          "name": "name",
          "type": "string"
        },
        {
          "name": "department",
          "type": "string"
        },
        {
          "name": "level",
          "type": "string"
        },
        {
          "name": "post",
          "type": "string"
        },
        {
          "name": "voteCount",
          "type": "uint256"
        }
      ],
      "payable": false,
      "stateMutability": "view",
      "type": "function",
      "signature": "0x3477ee2e"
    },
    {
      "constant": true,
      "inputs": [
        {
          "name": "",
          "type": "uint256"
        }
      ],
      "name": "elections",
      "outputs": [
        {
          "name": "id",
          "type": "uint256"
        },
        {
          "name": "name_of_election",
          "type": "string"
        },
        {
          "name": "description_of_election",
          "type": "string"
        },
        {
          "name": "duration",
          "type": "uint256"
        },
        {
          "name": "startTime",
          "type": "uint256"
        },
        {
          "name": "timestamp",
          "type": "uint256"
        }
      ],
      "payable": false,
      "stateMutability": "view",
      "type": "function",
      "signature": "0x5e6fef01"
    },
    {
      "constant": true,
      "inputs": [],
      "name": "electionCount",
      "outputs": [
        {
          "name": "",
          "type": "uint256"
        }
      ],
      "payable": false,
      "stateMutability": "view",
      "type": "function",
      "signature": "0x997d2830"
    },
    {
      "constant": true,
      "inputs": [],
      "name": "electionEndTime",
      "outputs": [
        {
          "name": "",
          "type": "uint256"
        }
      ],
      "payable": false,
      "stateMutability": "view",
      "type": "function",
      "signature": "0x9e136e64"
    },
    {
      "constant": true,
      "inputs": [
        {
          "name": "",
          "type": "address"
        }
      ],
      "name": "voters",
      "outputs": [
        {
          "name": "",
          "type": "bool"
        }
      ],
      "payable": false,
      "stateMutability": "view",
      "type": "function",
      "signature": "0xa3ec138d"
    },
    {
      "constant": true,
      "inputs": [],
      "name": "candidateCount",
      "outputs": [
        {
          "name": "",
          "type": "uint256"
        }
      ],
      "payable": false,
      "stateMutability": "view",
      "type": "function",
      "signature": "0xa9a981a3"
    },
    {
      "constant": true,
      "inputs": [],
      "name": "dapp_name",
      "outputs": [
        {
          "name": "",
          "type": "string"
        }
      ],
      "payable": false,
      "stateMutability": "view",
      "type": "function",
      "signature": "0xb3ea346b"
    },
    {
      "constant": true,
      "inputs": [],
      "name": "dapp_developer",
      "outputs": [
        {
          "name": "",
          "type": "string"
        }
      ],
      "payable": false,
      "stateMutability": "view",
      "type": "function",
      "signature": "0xc9559252"
    },
    {
      "constant": true,
      "inputs": [],
      "name": "electionAuthority",
      "outputs": [
        {
          "name": "",
          "type": "address"
        }
      ],
      "payable": false,
      "stateMutability": "view",
      "type": "function",
      "signature": "0xdc46d6ea"
    },
    {
      "inputs": [],
      "payable": false,
      "stateMutability": "nonpayable",
      "type": "constructor",
      "signature": "constructor"
    },
    {
      "anonymous": false,
      "inputs": [
        {
          "indexed": false,
          "name": "id",
          "type": "uint256"
        },
        {
          "indexed": false,
          "name": "name_of_election",
          "type": "string"
        },
        {
          "indexed": false,
          "name": "description_of_election",
          "type": "string"
        },
        {
          "indexed": false,
          "name": "duration",
          "type": "uint256"
        },
        {
          "indexed": false,
          "name": "startTime",
          "type": "uint256"
        },
        {
          "indexed": false,
          "name": "timestamp",
          "type": "uint256"
        }
      ],
      "name": "NewElection",
      "type": "event",
      "signature": "0x8b59edb9f4e30a463afccefae6a372c4cee3648e91466f14caca75ba52d9bb1e"
    },
    {
      "anonymous": false,
      "inputs": [
        {
          "indexed": false,
          "name": "election_name",
          "type": "string"
        },
        {
          "indexed": false,
          "name": "election_description",
          "type": "string"
        },
        {
          "indexed": false,
          "name": "id",
          "type": "uint256"
        },
        {
          "indexed": false,
          "name": "name",
          "type": "string"
        },
        {
          "indexed": false,
          "name": "department",
          "type": "string"
        },
        {
          "indexed": false,
          "name": "level",
          "type": "string"
        },
        {
          "indexed": false,
          "name": "post",
          "type": "string"
        },
        {
          "indexed": false,
          "name": "voteCount",
          "type": "uint256"
        }
      ],
      "name": "NewCandidate",
      "type": "event",
      "signature": "0x68864f8e99f8652c74ddb8af86fc4da941013d9103e9e05c34d415f85f6eae6f"
    },
    {
      "anonymous": false,
      "inputs": [
        {
          "indexed": false,
          "name": "voter",
          "type": "address"
        },
        {
          "indexed": false,
          "name": "voted",
          "type": "bool"
        }
      ],
      "name": "Voted",
      "type": "event",
      "signature": "0x8eb81cb806dbb3d8a2f94981614331a55dfd90e06a42fdc362ca3ca96981d92f"
    },
    {
      "constant": false,
      "inputs": [
        {
          "name": "_name_of_election",
          "type": "string"
        },
        {
          "name": "_description_of_election",
          "type": "string"
        },
        {
          "name": "_duration",
          "type": "uint256"
        },
        {
          "name": "_startTime",
          "type": "uint256"
        }
      ],
      "name": "createElection",
      "outputs": [],
      "payable": false,
      "stateMutability": "nonpayable",
      "type": "function",
      "signature": "0x7ad36e84"
    },
    {
      "constant": false,
      "inputs": [
        {
          "name": "_id",
          "type": "uint256"
        },
        {
          "name": "_name",
          "type": "string"
        },
        {
          "name": "_department",
          "type": "string"
        },
        {
          "name": "_level",
          "type": "string"
        },
        {
          "name": "_post",
          "type": "string"
        }
      ],
      "name": "createCandidate",
      "outputs": [],
      "payable": false,
      "stateMutability": "nonpayable",
      "type": "function",
      "signature": "0xf2504a6a"
    },
    {
      "constant": false,
      "inputs": [
        {
          "name": "addr",
          "type": "address"
        }
      ],
      "name": "register_voter",
      "outputs": [],
      "payable": false,
      "stateMutability": "nonpayable",
      "type": "function",
      "signature": "0x4f2c51b9"
    },
    {
      "constant": false,
      "inputs": [
        {
          "name": "duration",
          "type": "uint256"
        }
      ],
      "name": "start_election",
      "outputs": [],
      "payable": false,
      "stateMutability": "nonpayable",
      "type": "function",
      "signature": "0x2de096ff"
    },
    {
      "constant": false,
      "inputs": [
        {
          "name": "_candidateId",
          "type": "uint256"
        }
      ],
      "name": "voteCandidate",
      "outputs": [],
      "payable": false,
      "stateMutability": "nonpayable",
      "type": "function",
      "signature": "0x8c08a4dc"
    },
    {
      "constant": true,
      "inputs": [
        {
          "name": "_id",
          "type": "uint256"
        }
      ],
      "name": "getElectionCandidates",
      "outputs": [
        {
          "name": "",
          "type": "string"
        },
        {
          "name": "",
          "type": "string"
        }
      ],
      "payable": false,
      "stateMutability": "view",
      "type": "function",
      "signature": "0x5e12845e"
    }
  ],
  "bytecode": "0x60806040526040805190810160405280600781526020017f556e69566f746500000000000000000000000000000000000000000000000000815250600090805190602001906200005192919062000130565b50606060405190810160405280602481526020017f40476f6f646e657373457a656f6b61666f7220616e642040456d6d616e75656c81526020017f556d65680000000000000000000000000000000000000000000000000000000081525060019080519060200190620000c692919062000130565b50348015620000d457600080fd5b50731a98ca9788077b83b6c6ffd56e4ecdee00bdd2c7600560006101000a81548173ffffffffffffffffffffffffffffffffffffffff021916908373ffffffffffffffffffffffffffffffffffffffff160217905550620001df565b828054600181600116156101000203166002900490600052602060002090601f016020900481019282601f106200017357805160ff1916838001178555620001a4565b82800160010185558215620001a4579182015b82811115620001a357825182559160200191906001019062000186565b5b509050620001b39190620001b7565b5090565b620001dc91905b80821115620001d8576000816000905550600101620001be565b5090565b90565b61191c80620001ef6000396000f3fe6080604052600436106100e6576000357c0100000000000000000000000000000000000000000000000000000000900463ffffffff16806309eef43e146100eb5780632de096ff146101285780633477ee2e146101515780634f2c51b9146101935780635e12845e146101bc5780635e6fef01146101fa5780637ad36e841461023c5780638c08a4dc14610265578063997d28301461028e5780639e136e64146102b9578063a3ec138d146102e4578063a9a981a314610321578063b3ea346b1461034c578063c955925214610377578063dc46d6ea146103a2578063f2504a6a146103cd575b600080fd5b3480156100f757600080fd5b50610112600480360361010d91908101906112f4565b6103f6565b60405161011f919061159c565b60405180910390f35b34801561013457600080fd5b5061014f600480360361014a91908101906113b0565b610416565b005b34801561015d57600080fd5b50610178600480360361017391908101906113b0565b61047e565b60405161018a9695949392919061169a565b60405180910390f35b34801561019f57600080fd5b506101ba60048036036101b591908101906112f4565b61071a565b005b3480156101c857600080fd5b506101e360048036036101de91908101906113b0565b6107d1565b6040516101f19291906115d9565b60405180910390f35b34801561020657600080fd5b50610221600480360361021c91908101906113b0565b610983565b60405161023396959493929190611717565b60405180910390f35b34801561024857600080fd5b50610263600480360361025e919081019061131d565b610aef565b005b34801561027157600080fd5b5061028c600480360361028791908101906113b0565b610c76565b005b34801561029a57600080fd5b506102a3610dfd565b6040516102b09190611610565b60405180910390f35b3480156102c557600080fd5b506102ce610e03565b6040516102db9190611610565b60405180910390f35b3480156102f057600080fd5b5061030b600480360361030691908101906112f4565b610e09565b604051610318919061159c565b60405180910390f35b34801561032d57600080fd5b50610336610e29565b6040516103439190611610565b60405180910390f35b34801561035857600080fd5b50610361610e2f565b60405161036e91906115b7565b60405180910390f35b34801561038357600080fd5b5061038c610ecd565b60405161039991906115b7565b60405180910390f35b3480156103ae57600080fd5b506103b7610f6b565b6040516103c49190611558565b60405180910390f35b3480156103d957600080fd5b506103f460048036036103ef91908101906113d9565b610f91565b005b60086020528060005260406000206000915054906101000a900460ff1681565b600560009054906101000a900473ffffffffffffffffffffffffffffffffffffffff1673ffffffffffffffffffffffffffffffffffffffff163373ffffffffffffffffffffffffffffffffffffffff1614151561047257600080fd5b80420160028190555050565b6009602052806000526040600020600091509050806000015490806001018054600181600116156101000203166002900480601f0160208091040260200160405190810160405280929190818152602001828054600181600116156101000203166002900480156105305780601f1061050557610100808354040283529160200191610530565b820191906000526020600020905b81548152906001019060200180831161051357829003601f168201915b505050505090806002018054600181600116156101000203166002900480601f0160208091040260200160405190810160405280929190818152602001828054600181600116156101000203166002900480156105ce5780601f106105a3576101008083540402835291602001916105ce565b820191906000526020600020905b8154815290600101906020018083116105b157829003601f168201915b505050505090806003018054600181600116156101000203166002900480601f01602080910402602001604051908101604052809291908181526020018280546001816001161561010002031660029004801561066c5780601f106106415761010080835404028352916020019161066c565b820191906000526020600020905b81548152906001019060200180831161064f57829003601f168201915b505050505090806004018054600181600116156101000203166002900480601f01602080910402602001604051908101604052809291908181526020018280546001816001161561010002031660029004801561070a5780601f106106df5761010080835404028352916020019161070a565b820191906000526020600020905b8154815290600101906020018083116106ed57829003601f168201915b5050505050908060050154905086565b600560009054906101000a900473ffffffffffffffffffffffffffffffffffffffff1673ffffffffffffffffffffffffffffffffffffffff163373ffffffffffffffffffffffffffffffffffffffff1614151561077657600080fd5b6001600760008373ffffffffffffffffffffffffffffffffffffffff1673ffffffffffffffffffffffffffffffffffffffff16815260200190815260200160002060006101000a81548160ff02191690831515021790555050565b6060806107dc6110e3565b6006600085815260200190815260200160002060c0604051908101604052908160008201548152602001600182018054600181600116156101000203166002900480601f01602080910402602001604051908101604052809291908181526020018280546001816001161561010002031660029004801561089e5780601f106108735761010080835404028352916020019161089e565b820191906000526020600020905b81548152906001019060200180831161088157829003601f168201915b50505050508152602001600282018054600181600116156101000203166002900480601f0160208091040260200160405190810160405280929190818152602001828054600181600116156101000203166002900480156109405780601f1061091557610100808354040283529160200191610940565b820191906000526020600020905b81548152906001019060200180831161092357829003601f168201915b5050505050815260200160038201548152602001600482015481526020016005820154815250509050806020015181604001518191508090509250925050915091565b6006602052806000526040600020600091509050806000015490806001018054600181600116156101000203166002900480601f016020809104026020016040519081016040528092919081815260200182805460018160011615610100020316600290048015610a355780601f10610a0a57610100808354040283529160200191610a35565b820191906000526020600020905b815481529060010190602001808311610a1857829003601f168201915b505050505090806002018054600181600116156101000203166002900480601f016020809104026020016040519081016040528092919081815260200182805460018160011615610100020316600290048015610ad35780601f10610aa857610100808354040283529160200191610ad3565b820191906000526020600020905b815481529060010190602001808311610ab657829003601f168201915b5050505050908060030154908060040154908060050154905086565b600560009054906101000a900473ffffffffffffffffffffffffffffffffffffffff1673ffffffffffffffffffffffffffffffffffffffff163373ffffffffffffffffffffffffffffffffffffffff16141515610b4b57600080fd5b60036000815480929190600101919050555060035460066000600354815260200190815260200160002060000181905550836006600060035481526020019081526020016000206001019080519060200190610ba892919061111a565b50826006600060035481526020019081526020016000206002019080519060200190610bd592919061111a565b508160066000600354815260200190815260200160002060030181905550806006600060035481526020019081526020016000206004018190555042600660006003548152602001908152602001600020600501819055507f8b59edb9f4e30a463afccefae6a372c4cee3648e91466f14caca75ba52d9bb1e6003548585858542604051610c689695949392919061162b565b60405180910390a150505050565b600760003373ffffffffffffffffffffffffffffffffffffffff1673ffffffffffffffffffffffffffffffffffffffff16815260200190815260200160002060009054906101000a900460ff161515610cce57600080fd5b600860003373ffffffffffffffffffffffffffffffffffffffff1673ffffffffffffffffffffffffffffffffffffffff16815260200190815260200160002060009054906101000a900460ff1615610d2557600080fd5b600081118015610d3757506004548111155b1515610d4257600080fd5b6001600860003373ffffffffffffffffffffffffffffffffffffffff1673ffffffffffffffffffffffffffffffffffffffff16815260200190815260200160002060006101000a81548160ff02191690831515021790555060096000828152602001908152602001600020600501600081548092919060010191905055507f8eb81cb806dbb3d8a2f94981614331a55dfd90e06a42fdc362ca3ca96981d92f336001604051610df2929190611573565b60405180910390a150565b60035481565b60025481565b60076020528060005260406000206000915054906101000a900460ff1681565b60045481565b60008054600181600116156101000203166002900480601f016020809104026020016040519081016040528092919081815260200182805460018160011615610100020316600290048015610ec55780601f10610e9a57610100808354040283529160200191610ec5565b820191906000526020600020905b815481529060010190602001808311610ea857829003601f168201915b505050505081565b60018054600181600116156101000203166002900480601f016020809104026020016040519081016040528092919081815260200182805460018160011615610100020316600290048015610f635780601f10610f3857610100808354040283529160200191610f63565b820191906000526020600020905b815481529060010190602001808311610f4657829003601f168201915b505050505081565b600560009054906101000a900473ffffffffffffffffffffffffffffffffffffffff1681565b600560009054906101000a900473ffffffffffffffffffffffffffffffffffffffff1673ffffffffffffffffffffffffffffffffffffffff163373ffffffffffffffffffffffffffffffffffffffff16141515610fed57600080fd5b60046000815480929190600101919050555061100761119a565b60c060405190810160405280600454815260200186815260200185815260200184815260200183815260200160008152509050806009600060045481526020019081526020016000206000820151816000015560208201518160010190805190602001906110769291906111d1565b5060408201518160020190805190602001906110939291906111d1565b5060608201518160030190805190602001906110b09291906111d1565b5060808201518160040190805190602001906110cd9291906111d1565b5060a08201518160050155905050505050505050565b60c0604051908101604052806000815260200160608152602001606081526020016000815260200160008152602001600081525090565b828054600181600116156101000203166002900490600052602060002090601f016020900481019282601f1061115b57805160ff1916838001178555611189565b82800160010185558215611189579182015b8281111561118857825182559160200191906001019061116d565b5b5090506111969190611251565b5090565b60c0604051908101604052806000815260200160608152602001606081526020016060815260200160608152602001600081525090565b828054600181600116156101000203166002900490600052602060002090601f016020900481019282601f1061121257805160ff1916838001178555611240565b82800160010185558215611240579182015b8281111561123f578251825591602001919060010190611224565b5b50905061124d9190611251565b5090565b61127391905b8082111561126f576000816000905550600101611257565b5090565b90565b6000611282823561183d565b905092915050565b600082601f830112151561129d57600080fd5b81356112b06112ab826117b3565b611786565b915080825260208301602083018583830111156112cc57600080fd5b6112d783828461188f565b50505092915050565b60006112ec823561184f565b905092915050565b60006020828403121561130657600080fd5b600061131484828501611276565b91505092915050565b6000806000806080858703121561133357600080fd5b600085013567ffffffffffffffff81111561134d57600080fd5b6113598782880161128a565b945050602085013567ffffffffffffffff81111561137657600080fd5b6113828782880161128a565b9350506040611393878288016112e0565b92505060606113a4878288016112e0565b91505092959194509250565b6000602082840312156113c257600080fd5b60006113d0848285016112e0565b91505092915050565b600080600080600060a086880312156113f157600080fd5b60006113ff888289016112e0565b955050602086013567ffffffffffffffff81111561141c57600080fd5b6114288882890161128a565b945050604086013567ffffffffffffffff81111561144557600080fd5b6114518882890161128a565b935050606086013567ffffffffffffffff81111561146e57600080fd5b61147a8882890161128a565b925050608086013567ffffffffffffffff81111561149757600080fd5b6114a38882890161128a565b9150509295509295909350565b6114b981611859565b82525050565b6114c8816117f5565b82525050565b6114d781611807565b82525050565b60006114e8826117ea565b8084526114fc81602086016020860161189e565b611505816118d1565b602085010191505092915050565b600061151e826117df565b80845261153281602086016020860161189e565b61153b816118d1565b602085010191505092915050565b61155281611833565b82525050565b600060208201905061156d60008301846114bf565b92915050565b600060408201905061158860008301856114b0565b61159560208301846114ce565b9392505050565b60006020820190506115b160008301846114ce565b92915050565b600060208201905081810360008301526115d18184611513565b905092915050565b600060408201905081810360008301526115f381856114dd565b9050818103602083015261160781846114dd565b90509392505050565b60006020820190506116256000830184611549565b92915050565b600060c0820190506116406000830189611549565b818103602083015261165281886114dd565b9050818103604083015261166681876114dd565b90506116756060830186611549565b6116826080830185611549565b61168f60a0830184611549565b979650505050505050565b600060c0820190506116af6000830189611549565b81810360208301526116c18188611513565b905081810360408301526116d58187611513565b905081810360608301526116e98186611513565b905081810360808301526116fd8185611513565b905061170c60a0830184611549565b979650505050505050565b600060c08201905061172c6000830189611549565b818103602083015261173e8188611513565b905081810360408301526117528187611513565b90506117616060830186611549565b61176e6080830185611549565b61177b60a0830184611549565b979650505050505050565b6000604051905081810181811067ffffffffffffffff821117156117a957600080fd5b8060405250919050565b600067ffffffffffffffff8211156117ca57600080fd5b601f19601f8301169050602081019050919050565b600081519050919050565b600081519050919050565b600061180082611813565b9050919050565b60008115159050919050565b600073ffffffffffffffffffffffffffffffffffffffff82169050919050565b6000819050919050565b600061184882611813565b9050919050565b6000819050919050565b60006118648261186b565b9050919050565b60006118768261187d565b9050919050565b600061188882611813565b9050919050565b82818337600083830152505050565b60005b838110156118bc5780820151818401526020810190506118a1565b838111156118cb576000848401525b50505050565b6000601f19601f830116905091905056fea265627a7a723058209b6ef7825123d5212fc4b281f165af96baf8ee478f7ab3f6dd5331cd38aee3b06c6578706572696d656e74616cf50037",
  "source": "pragma solidity ^0.5.0;\r\npragma experimental ABIEncoderV2;\r\n\r\n\r\ncontract Voting{\r\n    string public dapp_name=\"UniVote\";  // name of dapp\r\n    string public dapp_developer=\"@GoodnessEzeokafor and @EmmanuelUmeh\"; // smart contract developer\r\n    uint public electionEndTime; // electionENdTIme\r\n    uint public electionCount; //total number of election\r\n    uint public candidateCount; // totalnumber of candidates\r\n    address public electionAuthority;  // election creator\r\n    mapping(uint => Election) public elections;  //GET ELECTION LIST\r\n    // mapping (uint => Candidate) public candidates; // Candidate ID to number of votes\r\n    mapping (address => bool) public voters; // Registered voters\r\n    mapping (address => bool) public hasVoted; // If a registered voter has voted or not\r\n    mapping(uint => Candidate) public candidates;  //GET ELECTION LIST\r\n\r\n    // Candidate[] public candidates;\r\n    /* MODIFIERS */\r\n        // Modifiers\r\n\r\n    // Ensures only owners can call a function\r\n    modifier only_election_authority() {\r\n        if (msg.sender != electionAuthority) revert();\r\n        _;\r\n    }\r\n\r\n    // // Ensures only registered voters can vote\r\n     modifier only_registered_voters() {\r\n        if (!voters[msg.sender]) revert();\r\n        _;\r\n    }\r\n\r\n    // // Ensures voters can vote just once!!! Their fada\r\n    modifier vote_only_once() {\r\n        if (hasVoted[msg.sender]) revert();\r\n        _;\r\n    }   \r\n\r\n    // // Only Vote during election time and We make cash\r\n\r\n      modifier only_during_election_time() {\r\n        if (electionEndTime == 0 || electionEndTime > block.timestamp) revert();\r\n        _;\r\n    }\r\n    constructor() public {\r\n        electionAuthority = 0x1A98cA9788077B83b6C6ffd56E4ECDEe00bdd2c7;\r\n    }\r\n\r\n\r\n    /*  CANDIDATE STRUCT */\r\n    struct Candidate {\r\n        uint id;\r\n        string name;\r\n        string department;\r\n        string level;\r\n        string post;\r\n        uint voteCount;\r\n    }\r\n    /* END CANDIDATE STRUCT */\r\n\r\n\r\n    /*  ELECTION STRUCT */\r\n    struct Election{\r\n        uint id;\r\n        string name_of_election;\r\n        string description_of_election;\r\n        uint duration; // in minutes\r\n        uint startTime; // \r\n        uint timestamp; \r\n        // mapping (uint => Candidate)  candidates; // Candidate ID to number of votes\r\n        // Candidate[] candidates;\r\n    }\r\n    /* END ELECTION STRUCT */\r\n\r\n\r\n    event NewElection(\r\n        uint id,\r\n        string name_of_election,\r\n        string description_of_election,\r\n        uint duration,\r\n        uint startTime,\r\n        uint timestamp\r\n        // Candidate candidates // Candidate ID to number of votes\r\n    );\r\n\r\n    event NewCandidate(\r\n        string election_name,\r\n        string election_description,\r\n        uint id,\r\n        string name,\r\n        string department,\r\n        string level,\r\n        string post,\r\n        uint voteCount\r\n    );\r\n\r\n    event Voted(\r\n        address voter,\r\n        bool voted\r\n    );\r\n\r\n\r\n\r\n\r\n    // methods\r\n\r\n    function createElection(\r\n                string memory _name_of_election, \r\n                string memory  _description_of_election,\r\n                 uint _duration,\r\n                 uint _startTime\r\n                 ) public only_election_authority {\r\n        \r\n        electionCount ++;\r\n        // Candidate memory new_candidate = Candidate(0,\"Not A Candidate\",\"Not A Candidate\", \"Not A Candidate\",\"NOT A CANDIDATE\",0);\r\n        elections[electionCount].id = electionCount;\r\n        elections[electionCount].name_of_election = _name_of_election;\r\n        elections[electionCount].description_of_election = _description_of_election;\r\n        elections[electionCount].duration = _duration;\r\n        elections[electionCount].startTime = _startTime;\r\n        elections[electionCount].timestamp = now;\r\n        // elections[electionCount].candidates.push(new_candidate);\r\n        emit NewElection(\r\n            electionCount,\r\n            _name_of_election,\r\n            _description_of_election,\r\n            _duration,\r\n            _startTime,\r\n            now\r\n            // new_candidate        \r\n        );\r\n    }\r\n\r\n\r\n    function createCandidate(\r\n                            uint _id,\r\n                            string memory  _name,\r\n                            string memory _department,\r\n                            string memory  _level,\r\n                            string memory _post\r\n                            ) public only_election_authority{\r\n        // Election memory e = elections[_id];\r\n        candidateCount++;\r\n        Candidate memory new_candidate = Candidate(candidateCount,_name,_department,_level,_post, 0);\r\n        // elections[_id].candidates.push(new_candidate);\r\n        candidates[candidateCount] = new_candidate;\r\n        // emit NewCandidate(\r\n        //         e.name_of_election,\r\n        //         e.description_of_election,\r\n        //         candidateCount,\r\n        //         _name,\r\n        //         _department,\r\n        //         _level, 0);\r\n    }\r\n\r\n// Register a voter for when we using the UJ API to register voters\r\n    function register_voter(address addr) public only_election_authority{\r\n        voters[addr] = true;\r\n    }\r\n\r\n      function start_election(uint duration) public only_election_authority{\r\n        electionEndTime =   block.timestamp + duration;\r\n    }\r\n  \r\n\r\n      function voteCandidate(uint _candidateId) public only_registered_voters\r\n\r\n        // Remember to check why time fails in tests!!\r\n        // only_during_election_time\r\n        vote_only_once\r\n        {\r\n        // // require that they haven't voted before\r\n        // require(!voters[msg.sender]);\r\n\r\n            // Ensures the candidate exists\r\n        require(_candidateId > 0 && _candidateId <= candidateCount);\r\n        // require(_electionId > 0 && _electionId <= electionCount);\r\n\r\n        // record that voter has voted\r\n        hasVoted[msg.sender] = true;\r\n\r\n        // update candidate vote Count\r\n        // elections[_electionId].candidates[_candidateId].voteCount ++;\r\n        candidates[_candidateId].voteCount ++;\r\n        emit Voted(msg.sender,true);\r\n    }\r\n\r\n    function getElectionCandidates(uint _id) public view returns(\r\n                                string memory,\r\n                                string memory\r\n                                // Candidate[] memory\r\n                                ){\r\n        // return elections[_id].candidates;  \r\n        Election memory e = elections[_id];\r\n\r\n        // return elections[_id];\r\n        return(\r\n            e.name_of_election,\r\n            e.description_of_election\r\n            // e.candidates\r\n        );\r\n\r\n    }\r\n\r\n}\r\n\r\n\r\n\r\n    ",
  "sourcePath": "C:/Users/ALEX PC/Desktop/Univote/uniVote-2/client/src/contracts/Voting.sol",
  "compiler": {
    "name": "solc",
    "version": "0.5.0+commit.1d4f565a.Emscripten.clang"
  },
  "schemaVersion": "3.0.2",
  "updatedAt": "2020-01-10T19:32:23.414Z",
  "devdoc": {
    "methods": {}
  },
  "userdoc": {
    "methods": {}
  }
}