{
  "contractName": "Voting",
  "abi": [
    {
      "inputs": [],
      "payable": false,
      "stateMutability": "nonpayable",
      "type": "constructor"
    },
    {
      "anonymous": false,
      "inputs": [
        {
          "indexed": false,
          "internalType": "string",
          "name": "election_name",
          "type": "string"
        },
        {
          "indexed": false,
          "internalType": "string",
          "name": "election_description",
          "type": "string"
        },
        {
          "indexed": false,
          "internalType": "uint256",
          "name": "id",
          "type": "uint256"
        },
        {
          "indexed": false,
          "internalType": "string",
          "name": "name",
          "type": "string"
        },
        {
          "indexed": false,
          "internalType": "string",
          "name": "department",
          "type": "string"
        },
        {
          "indexed": false,
          "internalType": "string",
          "name": "level",
          "type": "string"
        },
        {
          "indexed": false,
          "internalType": "uint256",
          "name": "voteCount",
          "type": "uint256"
        }
      ],
      "name": "NewCandidate",
      "type": "event"
    },
    {
      "anonymous": false,
      "inputs": [
        {
          "indexed": false,
          "internalType": "uint256",
          "name": "id",
          "type": "uint256"
        },
        {
          "indexed": false,
          "internalType": "string",
          "name": "name_of_election",
          "type": "string"
        },
        {
          "indexed": false,
          "internalType": "string",
          "name": "description_of_election",
          "type": "string"
        },
        {
          "indexed": false,
          "internalType": "uint256",
          "name": "duration",
          "type": "uint256"
        },
        {
          "indexed": false,
          "internalType": "uint256",
          "name": "startTime",
          "type": "uint256"
        },
        {
          "indexed": false,
          "internalType": "uint256",
          "name": "timestamp",
          "type": "uint256"
        }
      ],
      "name": "NewElection",
      "type": "event"
    },
    {
      "anonymous": false,
      "inputs": [
        {
          "indexed": false,
          "internalType": "address",
          "name": "voter",
          "type": "address"
        },
        {
          "indexed": false,
          "internalType": "bool",
          "name": "voted",
          "type": "bool"
        },
        {
          "indexed": false,
          "internalType": "uint256",
          "name": "timestamp",
          "type": "uint256"
        }
      ],
      "name": "Voted",
      "type": "event"
    },
    {
      "constant": true,
      "inputs": [],
      "name": "candidateCount",
      "outputs": [
        {
          "internalType": "uint256",
          "name": "",
          "type": "uint256"
        }
      ],
      "payable": false,
      "stateMutability": "view",
      "type": "function"
    },
    {
      "constant": true,
      "inputs": [],
      "name": "dapp_developer",
      "outputs": [
        {
          "internalType": "string",
          "name": "",
          "type": "string"
        }
      ],
      "payable": false,
      "stateMutability": "view",
      "type": "function"
    },
    {
      "constant": true,
      "inputs": [],
      "name": "dapp_name",
      "outputs": [
        {
          "internalType": "string",
          "name": "",
          "type": "string"
        }
      ],
      "payable": false,
      "stateMutability": "view",
      "type": "function"
    },
    {
      "constant": true,
      "inputs": [],
      "name": "electionAuthority",
      "outputs": [
        {
          "internalType": "address",
          "name": "",
          "type": "address"
        }
      ],
      "payable": false,
      "stateMutability": "view",
      "type": "function"
    },
    {
      "constant": true,
      "inputs": [],
      "name": "electionCount",
      "outputs": [
        {
          "internalType": "uint256",
          "name": "",
          "type": "uint256"
        }
      ],
      "payable": false,
      "stateMutability": "view",
      "type": "function"
    },
    {
      "constant": true,
      "inputs": [],
      "name": "electionEndTime",
      "outputs": [
        {
          "internalType": "uint256",
          "name": "",
          "type": "uint256"
        }
      ],
      "payable": false,
      "stateMutability": "view",
      "type": "function"
    },
    {
      "constant": true,
      "inputs": [
        {
          "internalType": "uint256",
          "name": "",
          "type": "uint256"
        }
      ],
      "name": "elections",
      "outputs": [
        {
          "internalType": "uint256",
          "name": "id",
          "type": "uint256"
        },
        {
          "internalType": "string",
          "name": "name_of_election",
          "type": "string"
        },
        {
          "internalType": "string",
          "name": "description_of_election",
          "type": "string"
        },
        {
          "internalType": "uint256",
          "name": "duration",
          "type": "uint256"
        },
        {
          "internalType": "uint256",
          "name": "startTime",
          "type": "uint256"
        },
        {
          "internalType": "uint256",
          "name": "timestamp",
          "type": "uint256"
        }
      ],
      "payable": false,
      "stateMutability": "view",
      "type": "function"
    },
    {
      "constant": true,
      "inputs": [],
      "name": "registerVoterCount",
      "outputs": [
        {
          "internalType": "uint256",
          "name": "",
          "type": "uint256"
        }
      ],
      "payable": false,
      "stateMutability": "view",
      "type": "function"
    },
    {
      "constant": true,
      "inputs": [
        {
          "internalType": "address",
          "name": "",
          "type": "address"
        }
      ],
      "name": "votedStruct",
      "outputs": [
        {
          "internalType": "uint256",
          "name": "id",
          "type": "uint256"
        }
      ],
      "payable": false,
      "stateMutability": "view",
      "type": "function"
    },
    {
      "constant": true,
      "inputs": [
        {
          "internalType": "address",
          "name": "",
          "type": "address"
        }
      ],
      "name": "voters",
      "outputs": [
        {
          "internalType": "bool",
          "name": "",
          "type": "bool"
        }
      ],
      "payable": false,
      "stateMutability": "view",
      "type": "function"
    },
    {
      "constant": false,
      "inputs": [
        {
          "internalType": "string",
          "name": "_name_of_election",
          "type": "string"
        },
        {
          "internalType": "string",
          "name": "_description_of_election",
          "type": "string"
        },
        {
          "internalType": "uint256",
          "name": "_duration",
          "type": "uint256"
        },
        {
          "internalType": "uint256",
          "name": "_startTime",
          "type": "uint256"
        }
      ],
      "name": "createElection",
      "outputs": [],
      "payable": false,
      "stateMutability": "nonpayable",
      "type": "function"
    },
    {
      "constant": false,
      "inputs": [
        {
          "internalType": "uint256",
          "name": "_electionId",
          "type": "uint256"
        },
        {
          "internalType": "string",
          "name": "_name",
          "type": "string"
        },
        {
          "internalType": "string",
          "name": "_department",
          "type": "string"
        },
        {
          "internalType": "string",
          "name": "_level",
          "type": "string"
        },
        {
          "internalType": "string",
          "name": "_post",
          "type": "string"
        }
      ],
      "name": "createCandidate",
      "outputs": [],
      "payable": false,
      "stateMutability": "nonpayable",
      "type": "function"
    },
    {
      "constant": false,
      "inputs": [
        {
          "internalType": "address",
          "name": "addr",
          "type": "address"
        }
      ],
      "name": "register_voter",
      "outputs": [],
      "payable": false,
      "stateMutability": "nonpayable",
      "type": "function"
    },
    {
      "constant": false,
      "inputs": [
        {
          "internalType": "uint256",
          "name": "duration",
          "type": "uint256"
        }
      ],
      "name": "start_election",
      "outputs": [],
      "payable": false,
      "stateMutability": "nonpayable",
      "type": "function"
    },
    {
      "constant": false,
      "inputs": [
        {
          "internalType": "uint256",
          "name": "_electionId",
          "type": "uint256"
        },
        {
          "internalType": "uint256",
          "name": "_candidateId",
          "type": "uint256"
        }
      ],
      "name": "voteCandidate",
      "outputs": [],
      "payable": false,
      "stateMutability": "nonpayable",
      "type": "function"
    },
    {
      "constant": true,
      "inputs": [
        {
          "internalType": "uint256",
          "name": "_id",
          "type": "uint256"
        }
      ],
      "name": "getElectionCandidates",
      "outputs": [
        {
          "components": [
            {
              "internalType": "uint256",
              "name": "id",
              "type": "uint256"
            },
            {
              "internalType": "string",
              "name": "name",
              "type": "string"
            },
            {
              "internalType": "string",
              "name": "department",
              "type": "string"
            },
            {
              "internalType": "string",
              "name": "level",
              "type": "string"
            },
            {
              "internalType": "string",
              "name": "post",
              "type": "string"
            },
            {
              "internalType": "uint256",
              "name": "voteCount",
              "type": "uint256"
            }
          ],
          "internalType": "struct Voting.Candidate[]",
          "name": "",
          "type": "tuple[]"
        }
      ],
      "payable": false,
      "stateMutability": "view",
      "type": "function"
    }
  ],
  "bytecode": "0x60806040526040518060400160405280600781526020017f556e69566f7465000000000000000000000000000000000000000000000000008152506000908051906020019062000051929190620000ed565b5060405180606001604052806024815260200162002336602491396001908051906020019062000083929190620000ed565b503480156200009157600080fd5b50736cf0c47d66c9d2b273ed0c4f276353520625c073600660006101000a81548173ffffffffffffffffffffffffffffffffffffffff021916908373ffffffffffffffffffffffffffffffffffffffff1602179055506200019c565b828054600181600116156101000203166002900490600052602060002090601f016020900481019282601f106200013057805160ff191683800117855562000161565b8280016001018555821562000161579182015b828111156200016057825182559160200191906001019062000143565b5b50905062000170919062000174565b5090565b6200019991905b80821115620001955760008160009055506001016200017b565b5090565b90565b61218a80620001ac6000396000f3fe608060405234801561001057600080fd5b50600436106101005760003560e01c8063a3ec138d11610097578063cdb822fe11610066578063cdb822fe146102b4578063dc46d6ea146102d2578063eb1e6270146102f0578063f2504a6a1461030c57610100565b8063a3ec138d1461022a578063a9a981a31461025a578063b3ea346b14610278578063c95592521461029657610100565b80635e6fef01116100d35780635e6fef011461019d5780637ad36e84146101d2578063997d2830146101ee5780639e136e641461020c57610100565b80630a466e5a146101055780632de096ff146101355780634f2c51b9146101515780635e12845e1461016d575b600080fd5b61011f600480360361011a919081019061190c565b610328565b60405161012c9190611e73565b60405180910390f35b61014f600480360361014a91908101906119c8565b610346565b005b61016b6004803603610166919081019061190c565b6103ac565b005b610187600480360361018291908101906119c8565b610419565b6040516101949190611d82565b60405180910390f35b6101b760048036036101b291908101906119c8565b6108b7565b6040516101c996959493929190611efd565b60405180910390f35b6101ec60048036036101e79190810190611935565b610a23565b005b6101f6610ba8565b6040516102039190611e73565b60405180910390f35b610214610bae565b6040516102219190611e73565b60405180910390f35b610244600480360361023f919081019061190c565b610bb4565b6040516102519190611da4565b60405180910390f35b610262610bd4565b60405161026f9190611e73565b60405180910390f35b610280610bda565b60405161028d9190611dbf565b60405180910390f35b61029e610c78565b6040516102ab9190611dbf565b60405180910390f35b6102bc610d16565b6040516102c99190611e73565b60405180910390f35b6102da610d1c565b6040516102e79190611d30565b60405180910390f35b61030a60048036036103059190810190611ac8565b610d42565b005b610326600480360361032191908101906119f1565b61109d565b005b60086020528060005260406000206000915090508060000154905081565b600660009054906101000a900473ffffffffffffffffffffffffffffffffffffffff1673ffffffffffffffffffffffffffffffffffffffff163373ffffffffffffffffffffffffffffffffffffffff16146103a057600080fd5b80420160028190555050565b6001600960008373ffffffffffffffffffffffffffffffffffffffff1673ffffffffffffffffffffffffffffffffffffffff16815260200190815260200160002060006101000a81548160ff02191690831515021790555060056000815480929190600101919050555050565b60606104236116f6565b600760008481526020019081526020016000206040518060e001604052908160008201548152602001600182018054600181600116156101000203166002900480601f0160208091040260200160405190810160405280929190818152602001828054600181600116156101000203166002900480156104e45780601f106104b9576101008083540402835291602001916104e4565b820191906000526020600020905b8154815290600101906020018083116104c757829003601f168201915b50505050508152602001600282018054600181600116156101000203166002900480601f0160208091040260200160405190810160405280929190818152602001828054600181600116156101000203166002900480156105865780601f1061055b57610100808354040283529160200191610586565b820191906000526020600020905b81548152906001019060200180831161056957829003601f168201915b5050505050815260200160038201548152602001600482015481526020016005820154815260200160068201805480602002602001604051908101604052809291908181526020016000905b828210156108a057838290600052602060002090600602016040518060c001604052908160008201548152602001600182018054600181600116156101000203166002900480601f0160208091040260200160405190810160405280929190818152602001828054600181600116156101000203166002900480156106985780601f1061066d57610100808354040283529160200191610698565b820191906000526020600020905b81548152906001019060200180831161067b57829003601f168201915b50505050508152602001600282018054600181600116156101000203166002900480601f01602080910402602001604051908101604052809291908181526020018280546001816001161561010002031660029004801561073a5780601f1061070f5761010080835404028352916020019161073a565b820191906000526020600020905b81548152906001019060200180831161071d57829003601f168201915b50505050508152602001600382018054600181600116156101000203166002900480601f0160208091040260200160405190810160405280929190818152602001828054600181600116156101000203166002900480156107dc5780601f106107b1576101008083540402835291602001916107dc565b820191906000526020600020905b8154815290600101906020018083116107bf57829003601f168201915b50505050508152602001600482018054600181600116156101000203166002900480601f01602080910402602001604051908101604052809291908181526020018280546001816001161561010002031660029004801561087e5780601f106108535761010080835404028352916020019161087e565b820191906000526020600020905b81548152906001019060200180831161086157829003601f168201915b50505050508152602001600582015481525050815260200190600101906105d2565b505050508152505090508060c00151915050919050565b6007602052806000526040600020600091509050806000015490806001018054600181600116156101000203166002900480601f0160208091040260200160405190810160405280929190818152602001828054600181600116156101000203166002900480156109695780601f1061093e57610100808354040283529160200191610969565b820191906000526020600020905b81548152906001019060200180831161094c57829003601f168201915b505050505090806002018054600181600116156101000203166002900480601f016020809104026020016040519081016040528092919081815260200182805460018160011615610100020316600290048015610a075780601f106109dc57610100808354040283529160200191610a07565b820191906000526020600020905b8154815290600101906020018083116109ea57829003601f168201915b5050505050908060030154908060040154908060050154905086565b600660009054906101000a900473ffffffffffffffffffffffffffffffffffffffff1673ffffffffffffffffffffffffffffffffffffffff163373ffffffffffffffffffffffffffffffffffffffff1614610a7d57600080fd5b60036000815480929190600101919050555060035460076000600354815260200190815260200160002060000181905550836007600060035481526020019081526020016000206001019080519060200190610ada929190611733565b50826007600060035481526020019081526020016000206002019080519060200190610b07929190611733565b508160076000600354815260200190815260200160002060030181905550806007600060035481526020019081526020016000206004018190555042600760006003548152602001908152602001600020600501819055507f8b59edb9f4e30a463afccefae6a372c4cee3648e91466f14caca75ba52d9bb1e6003548585858542604051610b9a96959493929190611e8e565b60405180910390a150505050565b60035481565b60025481565b60096020528060005260406000206000915054906101000a900460ff1681565b60045481565b60008054600181600116156101000203166002900480601f016020809104026020016040519081016040528092919081815260200182805460018160011615610100020316600290048015610c705780601f10610c4557610100808354040283529160200191610c70565b820191906000526020600020905b815481529060010190602001808311610c5357829003601f168201915b505050505081565b60018054600181600116156101000203166002900480601f016020809104026020016040519081016040528092919081815260200182805460018160011615610100020316600290048015610d0e5780601f10610ce357610100808354040283529160200191610d0e565b820191906000526020600020905b815481529060010190602001808311610cf157829003601f168201915b505050505081565b60055481565b600660009054906101000a900473ffffffffffffffffffffffffffffffffffffffff1681565b600960003373ffffffffffffffffffffffffffffffffffffffff1673ffffffffffffffffffffffffffffffffffffffff16815260200190815260200160002060009054906101000a900460ff16610d9857600080fd5b600081118015610daa57506004548111155b610db357600080fd5b6060600860003373ffffffffffffffffffffffffffffffffffffffff1673ffffffffffffffffffffffffffffffffffffffff168152602001908152602001600020600101805480602002602001604051908101604052809291908181526020018280548015610e4157602002820191906000526020600020905b815481526020019060010190808311610e2d575b505050505090506000815190506000811415610f4957600760008581526020019081526020016000206006016001840381548110610e7b57fe5b906000526020600020906006020160050160008154809291906001019190505550600860003373ffffffffffffffffffffffffffffffffffffffff1673ffffffffffffffffffffffffffffffffffffffff1681526020019081526020016000206001018490806001815401808255809150509060018203906000526020600020016000909192909190915055507f591a89b27b3057021df052ec15caa0a817c1894bcb52243ed0c8cdaa83f322be33600142604051610f3c93929190611d4b565b60405180910390a1611097565b600081146110965760008090505b818110156110945784838281518110610f6c57fe5b60200260200101511415610f9a576001600a60006101000a81548160ff021916908315150217905550600080fd5b600760008681526020019081526020016000206006016001850381548110610fbe57fe5b906000526020600020906006020160050160008154809291906001019190505550600860003373ffffffffffffffffffffffffffffffffffffffff1673ffffffffffffffffffffffffffffffffffffffff1681526020019081526020016000206001018590806001815401808255809150509060018203906000526020600020016000909192909190915055507f591a89b27b3057021df052ec15caa0a817c1894bcb52243ed0c8cdaa83f322be3360014260405161107f93929190611d4b565b60405180910390a18080600101915050610f57565b505b5b50505050565b600660009054906101000a900473ffffffffffffffffffffffffffffffffffffffff1673ffffffffffffffffffffffffffffffffffffffff163373ffffffffffffffffffffffffffffffffffffffff16146110f757600080fd5b6110ff6116f6565b600760008781526020019081526020016000206040518060e001604052908160008201548152602001600182018054600181600116156101000203166002900480601f0160208091040260200160405190810160405280929190818152602001828054600181600116156101000203166002900480156111c05780601f10611195576101008083540402835291602001916111c0565b820191906000526020600020905b8154815290600101906020018083116111a357829003601f168201915b50505050508152602001600282018054600181600116156101000203166002900480601f0160208091040260200160405190810160405280929190818152602001828054600181600116156101000203166002900480156112625780601f1061123757610100808354040283529160200191611262565b820191906000526020600020905b81548152906001019060200180831161124557829003601f168201915b5050505050815260200160038201548152602001600482015481526020016005820154815260200160068201805480602002602001604051908101604052809291908181526020016000905b8282101561157c57838290600052602060002090600602016040518060c001604052908160008201548152602001600182018054600181600116156101000203166002900480601f0160208091040260200160405190810160405280929190818152602001828054600181600116156101000203166002900480156113745780601f1061134957610100808354040283529160200191611374565b820191906000526020600020905b81548152906001019060200180831161135757829003601f168201915b50505050508152602001600282018054600181600116156101000203166002900480601f0160208091040260200160405190810160405280929190818152602001828054600181600116156101000203166002900480156114165780601f106113eb57610100808354040283529160200191611416565b820191906000526020600020905b8154815290600101906020018083116113f957829003601f168201915b50505050508152602001600382018054600181600116156101000203166002900480601f0160208091040260200160405190810160405280929190818152602001828054600181600116156101000203166002900480156114b85780601f1061148d576101008083540402835291602001916114b8565b820191906000526020600020905b81548152906001019060200180831161149b57829003601f168201915b50505050508152602001600482018054600181600116156101000203166002900480601f01602080910402602001604051908101604052809291908181526020018280546001816001161561010002031660029004801561155a5780601f1061152f5761010080835404028352916020019161155a565b820191906000526020600020905b81548152906001019060200180831161153d57829003601f168201915b50505050508152602001600582015481525050815260200190600101906112ae565b505050508152505090506004600081548092919060010191905055506115a06117b3565b6040518060c0016040528060045481526020018781526020018681526020018581526020018481526020016000815250905060076000888152602001908152602001600020600601819080600181540180825580915050906001820390600052602060002090600602016000909192909190915060008201518160000155602082015181600101908051906020019061163a9291906117e9565b5060408201518160020190805190602001906116579291906117e9565b5060608201518160030190805190602001906116749291906117e9565b5060808201518160040190805190602001906116919291906117e9565b5060a082015181600501555050507f24107f57307d59c1340861409bb1693828565458d05804c1040dfd8f9dd9eb198260200151836040015160045489898960006040516116e59796959493929190611de1565b60405180910390a150505050505050565b6040518060e00160405280600081526020016060815260200160608152602001600081526020016000815260200160008152602001606081525090565b828054600181600116156101000203166002900490600052602060002090601f016020900481019282601f1061177457805160ff19168380011785556117a2565b828001600101855582156117a2579182015b828111156117a1578251825591602001919060010190611786565b5b5090506117af9190611869565b5090565b6040518060c001604052806000815260200160608152602001606081526020016060815260200160608152602001600081525090565b828054600181600116156101000203166002900490600052602060002090601f016020900481019282601f1061182a57805160ff1916838001178555611858565b82800160010185558215611858579182015b8281111561185757825182559160200191906001019061183c565b5b5090506118659190611869565b5090565b61188b91905b8082111561188757600081600090555060010161186f565b5090565b90565b60008135905061189d81612119565b92915050565b600082601f8301126118b457600080fd5b81356118c76118c282611f99565b611f6c565b915080825260208301602083018583830111156118e357600080fd5b6118ee8382846120c6565b50505092915050565b60008135905061190681612130565b92915050565b60006020828403121561191e57600080fd5b600061192c8482850161188e565b91505092915050565b6000806000806080858703121561194b57600080fd5b600085013567ffffffffffffffff81111561196557600080fd5b611971878288016118a3565b945050602085013567ffffffffffffffff81111561198e57600080fd5b61199a878288016118a3565b93505060406119ab878288016118f7565b92505060606119bc878288016118f7565b91505092959194509250565b6000602082840312156119da57600080fd5b60006119e8848285016118f7565b91505092915050565b600080600080600060a08688031215611a0957600080fd5b6000611a17888289016118f7565b955050602086013567ffffffffffffffff811115611a3457600080fd5b611a40888289016118a3565b945050604086013567ffffffffffffffff811115611a5d57600080fd5b611a69888289016118a3565b935050606086013567ffffffffffffffff811115611a8657600080fd5b611a92888289016118a3565b925050608086013567ffffffffffffffff811115611aaf57600080fd5b611abb888289016118a3565b9150509295509295909350565b60008060408385031215611adb57600080fd5b6000611ae9858286016118f7565b9250506020611afa858286016118f7565b9150509250929050565b6000611b108383611c74565b905092915050565b611b218161207e565b82525050565b611b3081612036565b82525050565b6000611b4182611fd5565b611b4b8185612003565b935083602082028501611b5d85611fc5565b8060005b85811015611b995784840389528151611b7a8582611b04565b9450611b8583611ff6565b925060208a01995050600181019050611b61565b50829750879550505050505092915050565b611bb481612048565b82525050565b611bc381612090565b82525050565b6000611bd482611feb565b611bde8185612025565b9350611bee8185602086016120d5565b611bf781612108565b840191505092915050565b6000611c0d82611fe0565b611c178185612014565b9350611c278185602086016120d5565b611c3081612108565b840191505092915050565b6000611c4682611fe0565b611c508185612025565b9350611c608185602086016120d5565b611c6981612108565b840191505092915050565b600060c083016000830151611c8c6000860182611d12565b5060208301518482036020860152611ca48282611c02565b91505060408301518482036040860152611cbe8282611c02565b91505060608301518482036060860152611cd88282611c02565b91505060808301518482036080860152611cf28282611c02565b91505060a0830151611d0760a0860182611d12565b508091505092915050565b611d1b81612074565b82525050565b611d2a81612074565b82525050565b6000602082019050611d456000830184611b27565b92915050565b6000606082019050611d606000830186611b18565b611d6d6020830185611bab565b611d7a6040830184611d21565b949350505050565b60006020820190508181036000830152611d9c8184611b36565b905092915050565b6000602082019050611db96000830184611bab565b92915050565b60006020820190508181036000830152611dd98184611c3b565b905092915050565b600060e0820190508181036000830152611dfb818a611c3b565b90508181036020830152611e0f8189611c3b565b9050611e1e6040830188611d21565b8181036060830152611e308187611bc9565b90508181036080830152611e448186611bc9565b905081810360a0830152611e588185611bc9565b9050611e6760c0830184611bba565b98975050505050505050565b6000602082019050611e886000830184611d21565b92915050565b600060c082019050611ea36000830189611d21565b8181036020830152611eb58188611bc9565b90508181036040830152611ec98187611bc9565b9050611ed86060830186611d21565b611ee56080830185611d21565b611ef260a0830184611d21565b979650505050505050565b600060c082019050611f126000830189611d21565b8181036020830152611f248188611c3b565b90508181036040830152611f388187611c3b565b9050611f476060830186611d21565b611f546080830185611d21565b611f6160a0830184611d21565b979650505050505050565b6000604051905081810181811067ffffffffffffffff82111715611f8f57600080fd5b8060405250919050565b600067ffffffffffffffff821115611fb057600080fd5b601f19601f8301169050602081019050919050565b6000819050602082019050919050565b600081519050919050565b600081519050919050565b600081519050919050565b6000602082019050919050565b600082825260208201905092915050565b600082825260208201905092915050565b600082825260208201905092915050565b600061204182612054565b9050919050565b60008115159050919050565b600073ffffffffffffffffffffffffffffffffffffffff82169050919050565b6000819050919050565b6000612089826120a2565b9050919050565b600061209b82612074565b9050919050565b60006120ad826120b4565b9050919050565b60006120bf82612054565b9050919050565b82818337600083830152505050565b60005b838110156120f35780820151818401526020810190506120d8565b83811115612102576000848401525b50505050565b6000601f19601f8301169050919050565b61212281612036565b811461212d57600080fd5b50565b61213981612074565b811461214457600080fd5b5056fea365627a7a7231582094c43d2c1568ceb9b26071ecd53a58f462f77b2b826522d131ac3b1c7062b08f6c6578706572696d656e74616cf564736f6c634300050c004040476f6f646e657373457a656f6b61666f7220616e642040456d6d616e75656c556d6568",
  "source": "pragma solidity ^0.5.0;\npragma experimental ABIEncoderV2;\n\n\ncontract Voting{\n    string public dapp_name=\"UniVote\";  // name of dapp\n    string public dapp_developer=\"@GoodnessEzeokafor and @EmmanuelUmeh\"; // smart contract developer\n    uint public electionEndTime; // electionENdTIme\n    uint public electionCount; //total number of election\n    uint public candidateCount; // totalnumber of candidates\n    uint public registerVoterCount; // totalnumber of candidates\n    \n    address public electionAuthority;  // election creator\n    mapping(uint => Election) public elections;  //GET ELECTION LIST\n    // mapping (uint => Candidate) public candidates; // Candidate ID to number of votes\n     mapping (address => Voter) public votedStruct; // Elections one has Voted on\n    mapping (address => bool) public voters; // Registered voters\n    // mapping (address => []) public hasVoted; // If a registered voter has voted or not\n\n    \n    // mapping(uint => Candidate) public candidates;  //GET ELECTION LIST\n\n    bool found;\n\n    // Candidate[] public candidates;\n    /* MODIFIERS */\n        // Modifiers\n\n    // Ensures only owners can call a function\n    modifier only_election_authority() {\n        if (msg.sender != electionAuthority) revert();\n        _;\n    }\n\n    // // Ensures only registered voters can vote\n     modifier only_registered_voters() {\n        if (!voters[msg.sender]) revert();\n        _;\n    }\n\n    // // Ensures voters can vote just once!!! Their fada\n    // modifier vote_only_once() {\n    //     if (hasVoted[msg.sender]) revert();\n    //     _;\n    // }   \n\n    // // Only Vote during election time and We make cash\n\n      modifier only_during_election_time() {\n        if (electionEndTime == 0 || electionEndTime > block.timestamp) revert();\n        _;\n    }\n    constructor() public {\n        \n        electionAuthority =  0x6cF0C47D66C9d2b273ED0C4f276353520625c073;\n        \n        // electionAuthority =  0x6415d68373647F99270E24eB145be4d6E0141Ab2;\n\n    }\n\n\n    /*  CANDIDATE STRUCT */\n    struct Candidate {\n        uint id;\n        string name;\n        string department;\n        string level;\n        string post;\n        uint voteCount;\n    }\n\n\n    /* END CANDIDATE STRUCT */\n\n\n    // Voter Struct\n\n    struct Voter{\n        uint id;\n        uint[] votedElections;\n        // mapping (uint => Candidate)  candidates; // Candidate ID to number of votes\n        // Candidate[] candidates;\n    }\n\n\n    /*  ELECTION STRUCT */\n    struct Election{\n        uint id;\n        string name_of_election;\n        string description_of_election;\n        uint duration; // in minutes\n        uint startTime; // \n        uint timestamp; \n        // mapping (uint => Candidate)  candidates; // Candidate ID to number of votes\n        Candidate[] candidates;\n    }\n    /* END ELECTION STRUCT */\n\n\n    event NewElection(\n        uint id,\n        string name_of_election,\n        string description_of_election,\n        uint duration,\n        uint startTime,\n        uint timestamp\n        // Candidate candidates // Candidate ID to number of votes\n    );\n\n    event NewCandidate(\n        string election_name,\n        string election_description,\n        uint id,\n        string name,\n        string department,\n        string level,\n        uint voteCount\n    );\n\n    event Voted(\n        address voter,\n        bool voted,\n        uint timestamp\n    );\n\n\n\n\n    // methods\n\n    function createElection(\n                string memory _name_of_election, \n                string memory  _description_of_election,\n                 uint _duration,\n                 uint _startTime\n                 ) public only_election_authority {\n        \n        electionCount ++;\n        // Candidate memory new_candidate = Candidate(0,\"Not A Candidate\",\"Not A Candidate\", \"Not A Candidate\",\"NOT A CANDIDATE\",0);\n        elections[electionCount].id = electionCount;\n        elections[electionCount].name_of_election = _name_of_election;\n        elections[electionCount].description_of_election = _description_of_election;\n        elections[electionCount].duration = _duration;\n        elections[electionCount].startTime = _startTime;\n        elections[electionCount].timestamp = now;\n        // elections[electionCount].candidates.push(new_candidate);\n        emit NewElection(\n            electionCount,\n            _name_of_election,\n            _description_of_election,\n            _duration,\n            _startTime,\n            now\n            // new_candidate        \n        );\n    }\n\n\n    function createCandidate(\n                        \n                            uint _electionId,\n                            string memory  _name,\n                            string memory _department,\n                            string memory  _level,\n                            string memory _post\n                            ) public only_election_authority{\n        Election memory e = elections[_electionId];\n        \n        candidateCount++;\n        Candidate memory new_candidate = Candidate(candidateCount,_name,_department,_level,_post, 0);\n        elections[_electionId].candidates.push(new_candidate);\n        // elections[_id].candidates.push(new_candidate);\n        // candidates[candidateCount] = new_candidate;\n\n\n\n\n        emit NewCandidate(\n                e.name_of_election,\n                e.description_of_election,\n                candidateCount,\n                _name,\n                _department,\n                _level,\n                0);\n    }\n\n// Register a voter for when we using the UJ API to register voters\n    function register_voter(address addr) public {\n        voters[addr] = true;\n        registerVoterCount++;\n    }\n\n      function start_election(uint duration) public only_election_authority{\n        electionEndTime =   block.timestamp + duration; \n    }\n  \n\n      function voteCandidate(uint _electionId, uint _candidateId) public only_registered_voters\n\n        // Remember to check why time fails in tests!!\n        // only_during_election_time\n        // vote_only_once\n        {\n        // // require that they haven't voted before\n        // require(!voters[msg.sender]);\n\n            // Ensures the candidate exists\n        require(_candidateId > 0 && _candidateId <= candidateCount);\n        // require(_electionId > 0 && _electionId <= electionCount);\n\n        // record that voter has voted\n\n        // require(hasVoted[])\n        // hasVoted[msg.sender] = _electionId;\n\n        // update candidate vote Count\n        // elections[_electionId].candidates[_candidateId].voteCount ++;\n         uint[] memory votersElections = votedStruct[msg.sender].votedElections;\n\n        uint arrayLength = votersElections.length;\n        if(arrayLength == 0){\n            elections[_electionId].candidates[_candidateId - 1].voteCount ++;\n            votedStruct[msg.sender].votedElections.push(_electionId);\n             \n            emit Voted(msg.sender,true,now);\n        }\n        else if(arrayLength !=0 ){\n        for(uint i=0; i<arrayLength; i++){\n            if(votersElections[i]==_electionId){\n                found=true;\n                // break;\n                revert();\n            }\n            else {\n\n                elections[_electionId].candidates[_candidateId - 1].voteCount ++;\n                votedStruct[msg.sender].votedElections.push(_electionId);\n                \n                emit Voted(msg.sender,true,now);\n            }\n         \n            \n        }\n        // if(!found){\n           \n        //     elections[_electionId].candidates[_candidateId - 1].voteCount ++;\n        //      votedStruct[msg.sender].votedElections.push(_electionId);\n        //     emit Voted(msg.sender,true);\n        // }\n\n\n        }\n\n        \n        \n        \n\n\n         \n        \n        // singleElection.voteCount ++;\n        // emit Voted(msg.sender,true);\n    }\n\n    function getElectionCandidates(uint _id) public view returns(\n                                // string memory,\n                                // // string memory,\n                                Candidate[] memory\n                                ){\n        // return elections[_id].candidates;  \n        Election memory e = elections[_id];\n\n        // return elections[_id];\n        return(\n            // e.name_of_election,\n            // e.description_of_election,\n            e.candidates\n        );\n\n    }\n\n}\n\n\n\n    ",
  "sourcePath": "/home/goodness/Development/ethereum/UniVote/client/src/contracts/Voting.sol",
  "compiler": {
    "name": "solc",
    "version": "0.5.12+commit.7709ece9.Emscripten.clang"
  },
  "schemaVersion": "3.0.19",
  "updatedAt": "2020-01-15T18:59:12.970Z",
  "networkType": "ethereum",
  "devdoc": {
    "methods": {}
  },
  "userdoc": {
    "methods": {}
  }
}