{
  "contractName": "Voting",
  "abi": [
    {
      "constant": true,
      "inputs": [
        {
          "name": "",
          "type": "address"
        }
      ],
      "name": "hasVoted",
      "outputs": [
        {
          "name": "",
          "type": "bool"
        }
      ],
      "payable": false,
      "stateMutability": "view",
      "type": "function",
      "signature": "0x09eef43e"
    },
    {
      "constant": true,
      "inputs": [
        {
          "name": "",
          "type": "uint256"
        }
      ],
      "name": "candidates",
      "outputs": [
        {
          "name": "id",
          "type": "uint256"
        },
        {
          "name": "name",
          "type": "string"
        },
        {
          "name": "department",
          "type": "string"
        },
        {
          "name": "level",
          "type": "string"
        },
        {
          "name": "voteCount",
          "type": "uint256"
        }
      ],
      "payable": false,
      "stateMutability": "view",
      "type": "function",
      "signature": "0x3477ee2e"
    },
    {
      "constant": true,
      "inputs": [
        {
          "name": "",
          "type": "uint256"
        }
      ],
      "name": "elections",
      "outputs": [
        {
          "name": "id",
          "type": "uint256"
        },
        {
          "name": "name_of_election",
          "type": "string"
        },
        {
          "name": "description_of_election",
          "type": "string"
        },
        {
          "name": "duration",
          "type": "uint256"
        },
        {
          "name": "startTime",
          "type": "uint256"
        },
        {
          "name": "timestamp",
          "type": "uint256"
        }
      ],
      "payable": false,
      "stateMutability": "view",
      "type": "function",
      "signature": "0x5e6fef01"
    },
    {
      "constant": true,
      "inputs": [],
      "name": "electionCount",
      "outputs": [
        {
          "name": "",
          "type": "uint256"
        }
      ],
      "payable": false,
      "stateMutability": "view",
      "type": "function",
      "signature": "0x997d2830"
    },
    {
      "constant": true,
      "inputs": [],
      "name": "electionEndTime",
      "outputs": [
        {
          "name": "",
          "type": "uint256"
        }
      ],
      "payable": false,
      "stateMutability": "view",
      "type": "function",
      "signature": "0x9e136e64"
    },
    {
      "constant": true,
      "inputs": [
        {
          "name": "",
          "type": "address"
        }
      ],
      "name": "voters",
      "outputs": [
        {
          "name": "",
          "type": "bool"
        }
      ],
      "payable": false,
      "stateMutability": "view",
      "type": "function",
      "signature": "0xa3ec138d"
    },
    {
      "constant": true,
      "inputs": [],
      "name": "candidateCount",
      "outputs": [
        {
          "name": "",
          "type": "uint256"
        }
      ],
      "payable": false,
      "stateMutability": "view",
      "type": "function",
      "signature": "0xa9a981a3"
    },
    {
      "constant": true,
      "inputs": [],
      "name": "dapp_name",
      "outputs": [
        {
          "name": "",
          "type": "string"
        }
      ],
      "payable": false,
      "stateMutability": "view",
      "type": "function",
      "signature": "0xb3ea346b"
    },
    {
      "constant": true,
      "inputs": [],
      "name": "dapp_developer",
      "outputs": [
        {
          "name": "",
          "type": "string"
        }
      ],
      "payable": false,
      "stateMutability": "view",
      "type": "function",
      "signature": "0xc9559252"
    },
    {
      "constant": true,
      "inputs": [],
      "name": "electionAuthority",
      "outputs": [
        {
          "name": "",
          "type": "address"
        }
      ],
      "payable": false,
      "stateMutability": "view",
      "type": "function",
      "signature": "0xdc46d6ea"
    },
    {
      "inputs": [],
      "payable": false,
      "stateMutability": "nonpayable",
      "type": "constructor",
      "signature": "constructor"
    },
    {
      "anonymous": false,
      "inputs": [
        {
          "indexed": false,
          "name": "id",
          "type": "uint256"
        },
        {
          "indexed": false,
          "name": "name_of_election",
          "type": "string"
        },
        {
          "indexed": false,
          "name": "description_of_election",
          "type": "string"
        },
        {
          "indexed": false,
          "name": "duration",
          "type": "uint256"
        },
        {
          "indexed": false,
          "name": "startTime",
          "type": "uint256"
        },
        {
          "indexed": false,
          "name": "timestamp",
          "type": "uint256"
        },
        {
          "components": [
            {
              "name": "id",
              "type": "uint256"
            },
            {
              "name": "name",
              "type": "string"
            },
            {
              "name": "department",
              "type": "string"
            },
            {
              "name": "level",
              "type": "string"
            },
            {
              "name": "voteCount",
              "type": "uint256"
            }
          ],
          "indexed": false,
          "name": "candidates",
          "type": "tuple"
        }
      ],
      "name": "NewElection",
      "type": "event",
      "signature": "0xfd961357c64af9a29e50fd9a208bcedd0f78ca1d78c467d5f0ffd9be5233a4f7"
    },
    {
      "anonymous": false,
      "inputs": [
        {
          "indexed": false,
          "name": "election_name",
          "type": "string"
        },
        {
          "indexed": false,
          "name": "election_description",
          "type": "string"
        },
        {
          "indexed": false,
          "name": "id",
          "type": "uint256"
        },
        {
          "indexed": false,
          "name": "name",
          "type": "string"
        },
        {
          "indexed": false,
          "name": "department",
          "type": "string"
        },
        {
          "indexed": false,
          "name": "level",
          "type": "string"
        },
        {
          "indexed": false,
          "name": "voteCount",
          "type": "uint256"
        }
      ],
      "name": "NewCandidate",
      "type": "event",
      "signature": "0x24107f57307d59c1340861409bb1693828565458d05804c1040dfd8f9dd9eb19"
    },
    {
      "anonymous": false,
      "inputs": [
        {
          "indexed": false,
          "name": "voter",
          "type": "address"
        },
        {
          "indexed": false,
          "name": "voted",
          "type": "bool"
        }
      ],
      "name": "Voted",
      "type": "event",
      "signature": "0x8eb81cb806dbb3d8a2f94981614331a55dfd90e06a42fdc362ca3ca96981d92f"
    },
    {
      "constant": false,
      "inputs": [
        {
          "name": "_name_of_election",
          "type": "string"
        },
        {
          "name": "_description_of_election",
          "type": "string"
        },
        {
          "name": "_duration",
          "type": "uint256"
        },
        {
          "name": "_startTime",
          "type": "uint256"
        }
      ],
      "name": "createElection",
      "outputs": [],
      "payable": false,
      "stateMutability": "nonpayable",
      "type": "function",
      "signature": "0x7ad36e84"
    },
    {
      "constant": false,
      "inputs": [
        {
          "name": "_id",
          "type": "uint256"
        },
        {
          "name": "_name",
          "type": "string"
        },
        {
          "name": "_department",
          "type": "string"
        },
        {
          "name": "_level",
          "type": "string"
        }
      ],
      "name": "createCandidate",
      "outputs": [],
      "payable": false,
      "stateMutability": "nonpayable",
      "type": "function",
      "signature": "0x3086e71c"
    },
    {
      "constant": false,
      "inputs": [
        {
          "name": "addr",
          "type": "address"
        }
      ],
      "name": "register_voter",
      "outputs": [],
      "payable": false,
      "stateMutability": "nonpayable",
      "type": "function",
      "signature": "0x4f2c51b9"
    },
    {
      "constant": false,
      "inputs": [
        {
          "name": "duration",
          "type": "uint256"
        }
      ],
      "name": "start_election",
      "outputs": [],
      "payable": false,
      "stateMutability": "nonpayable",
      "type": "function",
      "signature": "0x2de096ff"
    },
    {
      "constant": false,
      "inputs": [
        {
          "name": "_electionId",
          "type": "uint256"
        },
        {
          "name": "_candidateId",
          "type": "uint256"
        }
      ],
      "name": "voteCandidate",
      "outputs": [],
      "payable": false,
      "stateMutability": "nonpayable",
      "type": "function",
      "signature": "0xeb1e6270"
    },
    {
      "constant": true,
      "inputs": [
        {
          "name": "_id",
          "type": "uint256"
        }
      ],
      "name": "getElectionCandidates",
      "outputs": [
        {
          "components": [
            {
              "name": "id",
              "type": "uint256"
            },
            {
              "name": "name",
              "type": "string"
            },
            {
              "name": "department",
              "type": "string"
            },
            {
              "name": "level",
              "type": "string"
            },
            {
              "name": "voteCount",
              "type": "uint256"
            }
          ],
          "name": "",
          "type": "tuple[]"
        }
      ],
      "payable": false,
      "stateMutability": "view",
      "type": "function",
      "signature": "0x5e12845e"
    }
  ],
  "bytecode": "0x60806040526040805190810160405280600781526020017f556e69566f74650000000000000000000000000000000000000000000000000081525060009080519060200190620000519291906200011c565b50606060405190810160405280602481526020017f40476f6f646e657373457a656f6b61666f7220616e642040456d6d616e75656c81526020017f556d65680000000000000000000000000000000000000000000000000000000081525060019080519060200190620000c69291906200011c565b50348015620000d457600080fd5b5033600560006101000a81548173ffffffffffffffffffffffffffffffffffffffff021916908373ffffffffffffffffffffffffffffffffffffffff160217905550620001cb565b828054600181600116156101000203166002900490600052602060002090601f016020900481019282601f106200015f57805160ff191683800117855562000190565b8280016001018555821562000190579182015b828111156200018f57825182559160200191906001019062000172565b5b5090506200019f9190620001a3565b5090565b620001c891905b80821115620001c4576000816000905550600101620001aa565b5090565b90565b61219c80620001db6000396000f3fe6080604052600436106100e6576000357c0100000000000000000000000000000000000000000000000000000000900463ffffffff16806309eef43e146100eb5780632de096ff146101285780633086e71c146101515780633477ee2e1461017a5780634f2c51b9146101bb5780635e12845e146101e45780635e6fef01146102215780637ad36e8414610263578063997d28301461028c5780639e136e64146102b7578063a3ec138d146102e2578063a9a981a31461031f578063b3ea346b1461034a578063c955925214610375578063dc46d6ea146103a0578063eb1e6270146103cb575b600080fd5b3480156100f757600080fd5b50610112600480360361010d919081019061192b565b6103f4565b60405161011f9190611d8a565b60405180910390f35b34801561013457600080fd5b5061014f600480360361014a91908101906119e7565b610414565b005b34801561015d57600080fd5b5061017860048036036101739190810190611a10565b61047c565b005b34801561018657600080fd5b506101a1600480360361019c91908101906119e7565b610a14565b6040516101b2959493929190611ef8565b60405180910390f35b3480156101c757600080fd5b506101e260048036036101dd919081019061192b565b610c21565b005b3480156101f057600080fd5b5061020b600480360361020691908101906119e7565b610cd8565b6040516102189190611d68565b60405180910390f35b34801561022d57600080fd5b50610248600480360361024391908101906119e7565b610f48565b60405161025a96959493929190611f60565b60405180910390f35b34801561026f57600080fd5b5061028a60048036036102859190810190611954565b6110b4565b005b34801561029857600080fd5b506102a16113c3565b6040516102ae9190611e59565b60405180910390f35b3480156102c357600080fd5b506102cc6113c9565b6040516102d99190611e59565b60405180910390f35b3480156102ee57600080fd5b506103096004803603610304919081019061192b565b6113cf565b6040516103169190611d8a565b60405180910390f35b34801561032b57600080fd5b506103346113ef565b6040516103419190611e59565b60405180910390f35b34801561035657600080fd5b5061035f6113f5565b60405161036c9190611da5565b60405180910390f35b34801561038157600080fd5b5061038a611493565b6040516103979190611da5565b60405180910390f35b3480156103ac57600080fd5b506103b5611531565b6040516103c29190611d24565b60405180910390f35b3480156103d757600080fd5b506103f260048036036103ed9190810190611abb565b611557565b005b60086020528060005260406000206000915054906101000a900460ff1681565b600560009054906101000a900473ffffffffffffffffffffffffffffffffffffffff1673ffffffffffffffffffffffffffffffffffffffff163373ffffffffffffffffffffffffffffffffffffffff1614151561047057600080fd5b80420160028190555050565b600560009054906101000a900473ffffffffffffffffffffffffffffffffffffffff1673ffffffffffffffffffffffffffffffffffffffff163373ffffffffffffffffffffffffffffffffffffffff161415156104d857600080fd5b6104e061171a565b6006600086815260200190815260200160002060e0604051908101604052908160008201548152602001600182018054600181600116156101000203166002900480601f0160208091040260200160405190810160405280929190818152602001828054600181600116156101000203166002900480156105a25780601f10610577576101008083540402835291602001916105a2565b820191906000526020600020905b81548152906001019060200180831161058557829003601f168201915b50505050508152602001600282018054600181600116156101000203166002900480601f0160208091040260200160405190810160405280929190818152602001828054600181600116156101000203166002900480156106445780601f1061061957610100808354040283529160200191610644565b820191906000526020600020905b81548152906001019060200180831161062757829003601f168201915b5050505050815260200160038201548152602001600482015481526020016005820154815260200160068201805480602002602001604051908101604052809291908181526020016000905b828210156108bd578382906000526020600020906005020160a0604051908101604052908160008201548152602001600182018054600181600116156101000203166002900480601f0160208091040260200160405190810160405280929190818152602001828054600181600116156101000203166002900480156107575780601f1061072c57610100808354040283529160200191610757565b820191906000526020600020905b81548152906001019060200180831161073a57829003601f168201915b50505050508152602001600282018054600181600116156101000203166002900480601f0160208091040260200160405190810160405280929190818152602001828054600181600116156101000203166002900480156107f95780601f106107ce576101008083540402835291602001916107f9565b820191906000526020600020905b8154815290600101906020018083116107dc57829003601f168201915b50505050508152602001600382018054600181600116156101000203166002900480601f01602080910402602001604051908101604052809291908181526020018280546001816001161561010002031660029004801561089b5780601f106108705761010080835404028352916020019161089b565b820191906000526020600020905b81548152906001019060200180831161087e57829003601f168201915b5050505050815260200160048201548152505081526020019060010190610690565b505050508152505090506004600081548092919060010191905055506108e1611758565b60a060405190810160405280600454815260200186815260200185815260200184815260200160008152509050600660008781526020019081526020016000206006018190806001815401808255809150509060018203906000526020600020906005020160009091929091909150600082015181600001556020820151816001019080519060200190610976929190611788565b506040820151816002019080519060200190610993929190611788565b5060608201518160030190805190602001906109b0929190611788565b50608082015181600401555050507f24107f57307d59c1340861409bb1693828565458d05804c1040dfd8f9dd9eb19826020015183604001516004548888886000604051610a049796959493929190611dc7565b60405180910390a1505050505050565b600981815481101515610a2357fe5b9060005260206000209060050201600091509050806000015490806001018054600181600116156101000203166002900480601f016020809104026020016040519081016040528092919081815260200182805460018160011615610100020316600290048015610ad55780601f10610aaa57610100808354040283529160200191610ad5565b820191906000526020600020905b815481529060010190602001808311610ab857829003601f168201915b505050505090806002018054600181600116156101000203166002900480601f016020809104026020016040519081016040528092919081815260200182805460018160011615610100020316600290048015610b735780601f10610b4857610100808354040283529160200191610b73565b820191906000526020600020905b815481529060010190602001808311610b5657829003601f168201915b505050505090806003018054600181600116156101000203166002900480601f016020809104026020016040519081016040528092919081815260200182805460018160011615610100020316600290048015610c115780601f10610be657610100808354040283529160200191610c11565b820191906000526020600020905b815481529060010190602001808311610bf457829003601f168201915b5050505050908060040154905085565b600560009054906101000a900473ffffffffffffffffffffffffffffffffffffffff1673ffffffffffffffffffffffffffffffffffffffff163373ffffffffffffffffffffffffffffffffffffffff16141515610c7d57600080fd5b6001600760008373ffffffffffffffffffffffffffffffffffffffff1673ffffffffffffffffffffffffffffffffffffffff16815260200190815260200160002060006101000a81548160ff02191690831515021790555050565b606060066000838152602001908152602001600020600601805480602002602001604051908101604052809291908181526020016000905b82821015610f3d578382906000526020600020906005020160a0604051908101604052908160008201548152602001600182018054600181600116156101000203166002900480601f016020809104026020016040519081016040528092919081815260200182805460018160011615610100020316600290048015610dd75780601f10610dac57610100808354040283529160200191610dd7565b820191906000526020600020905b815481529060010190602001808311610dba57829003601f168201915b50505050508152602001600282018054600181600116156101000203166002900480601f016020809104026020016040519081016040528092919081815260200182805460018160011615610100020316600290048015610e795780601f10610e4e57610100808354040283529160200191610e79565b820191906000526020600020905b815481529060010190602001808311610e5c57829003601f168201915b50505050508152602001600382018054600181600116156101000203166002900480601f016020809104026020016040519081016040528092919081815260200182805460018160011615610100020316600290048015610f1b5780601f10610ef057610100808354040283529160200191610f1b565b820191906000526020600020905b815481529060010190602001808311610efe57829003601f168201915b5050505050815260200160048201548152505081526020019060010190610d10565b505050509050919050565b6006602052806000526040600020600091509050806000015490806001018054600181600116156101000203166002900480601f016020809104026020016040519081016040528092919081815260200182805460018160011615610100020316600290048015610ffa5780601f10610fcf57610100808354040283529160200191610ffa565b820191906000526020600020905b815481529060010190602001808311610fdd57829003601f168201915b505050505090806002018054600181600116156101000203166002900480601f0160208091040260200160405190810160405280929190818152602001828054600181600116156101000203166002900480156110985780601f1061106d57610100808354040283529160200191611098565b820191906000526020600020905b81548152906001019060200180831161107b57829003601f168201915b5050505050908060030154908060040154908060050154905086565b600560009054906101000a900473ffffffffffffffffffffffffffffffffffffffff1673ffffffffffffffffffffffffffffffffffffffff163373ffffffffffffffffffffffffffffffffffffffff1614151561111057600080fd5b60036000815480929190600101919050555061112a611758565b60a060405190810160405280600081526020016040805190810160405280600f81526020017f4e6f7420412043616e646964617465000000000000000000000000000000000081525081526020016040805190810160405280600f81526020017f4e6f7420412043616e646964617465000000000000000000000000000000000081525081526020016040805190810160405280600f81526020017f4e6f7420412043616e646964617465000000000000000000000000000000000081525081526020016000815250905060035460066000600354815260200190815260200160002060000181905550846006600060035481526020019081526020016000206001019080519060200190611240929190611808565b5083600660006003548152602001908152602001600020600201908051906020019061126d929190611808565b50826006600060035481526020019081526020016000206003018190555081600660006003548152602001908152602001600020600401819055504260066000600354815260200190815260200160002060050181905550600660006003548152602001908152602001600020600601819080600181540180825580915050906001820390600052602060002090600502016000909192909190915060008201518160000155602082015181600101908051906020019061132f929190611788565b50604082015181600201908051906020019061134c929190611788565b506060820151816003019080519060200190611369929190611788565b50608082015181600401555050507ffd961357c64af9a29e50fd9a208bcedd0f78ca1d78c467d5f0ffd9be5233a4f76003548686868642876040516113b49796959493929190611e74565b60405180910390a15050505050565b60035481565b60025481565b60076020528060005260406000206000915054906101000a900460ff1681565b60045481565b60008054600181600116156101000203166002900480601f01602080910402602001604051908101604052809291908181526020018280546001816001161561010002031660029004801561148b5780601f106114605761010080835404028352916020019161148b565b820191906000526020600020905b81548152906001019060200180831161146e57829003601f168201915b505050505081565b60018054600181600116156101000203166002900480601f0160208091040260200160405190810160405280929190818152602001828054600181600116156101000203166002900480156115295780601f106114fe57610100808354040283529160200191611529565b820191906000526020600020905b81548152906001019060200180831161150c57829003601f168201915b505050505081565b600560009054906101000a900473ffffffffffffffffffffffffffffffffffffffff1681565b600760003373ffffffffffffffffffffffffffffffffffffffff1673ffffffffffffffffffffffffffffffffffffffff16815260200190815260200160002060009054906101000a900460ff1615156115af57600080fd5b600860003373ffffffffffffffffffffffffffffffffffffffff1673ffffffffffffffffffffffffffffffffffffffff16815260200190815260200160002060009054906101000a900460ff161561160657600080fd5b60008111801561161857506004548111155b151561162357600080fd5b60008211801561163557506003548211155b151561164057600080fd5b6001600860003373ffffffffffffffffffffffffffffffffffffffff1673ffffffffffffffffffffffffffffffffffffffff16815260200190815260200160002060006101000a81548160ff02191690831515021790555060066000838152602001908152602001600020600601818154811015156116bb57fe5b9060005260206000209060050201600401600081548092919060010191905055507f8eb81cb806dbb3d8a2f94981614331a55dfd90e06a42fdc362ca3ca96981d92f33600160405161170e929190611d3f565b60405180910390a15050565b60e060405190810160405280600081526020016060815260200160608152602001600081526020016000815260200160008152602001606081525090565b60a06040519081016040528060008152602001606081526020016060815260200160608152602001600081525090565b828054600181600116156101000203166002900490600052602060002090601f016020900481019282601f106117c957805160ff19168380011785556117f7565b828001600101855582156117f7579182015b828111156117f65782518255916020019190600101906117db565b5b5090506118049190611888565b5090565b828054600181600116156101000203166002900490600052602060002090601f016020900481019282601f1061184957805160ff1916838001178555611877565b82800160010185558215611877579182015b8281111561187657825182559160200191906001019061185b565b5b5090506118849190611888565b5090565b6118aa91905b808211156118a657600081600090555060010161188e565b5090565b90565b60006118b982356120ab565b905092915050565b600082601f83011215156118d457600080fd5b81356118e76118e282611ffc565b611fcf565b9150808252602083016020830185838301111561190357600080fd5b61190e83828461210f565b50505092915050565b600061192382356120bd565b905092915050565b60006020828403121561193d57600080fd5b600061194b848285016118ad565b91505092915050565b6000806000806080858703121561196a57600080fd5b600085013567ffffffffffffffff81111561198457600080fd5b611990878288016118c1565b945050602085013567ffffffffffffffff8111156119ad57600080fd5b6119b9878288016118c1565b93505060406119ca87828801611917565b92505060606119db87828801611917565b91505092959194509250565b6000602082840312156119f957600080fd5b6000611a0784828501611917565b91505092915050565b60008060008060808587031215611a2657600080fd5b6000611a3487828801611917565b945050602085013567ffffffffffffffff811115611a5157600080fd5b611a5d878288016118c1565b935050604085013567ffffffffffffffff811115611a7a57600080fd5b611a86878288016118c1565b925050606085013567ffffffffffffffff811115611aa357600080fd5b611aaf878288016118c1565b91505092959194509250565b60008060408385031215611ace57600080fd5b6000611adc85828601611917565b9250506020611aed85828601611917565b9150509250929050565b611b00816120c7565b82525050565b611b0f81612063565b82525050565b6000611b2082612035565b80845260208401935083602082028501611b3985612028565b60005b84811015611b72578383038852611b54838351611c91565b9250611b5f82612056565b9150602088019750600181019050611b3c565b508196508694505050505092915050565b611b8c81612075565b82525050565b611b9b816120d9565b82525050565b6000611bac8261204b565b808452611bc081602086016020860161211e565b611bc981612151565b602085010191505092915050565b6000611be282612040565b808452611bf681602086016020860161211e565b611bff81612151565b602085010191505092915050565b600060a083016000830151611c256000860182611d15565b5060208301518482036020860152611c3d8282611bd7565b91505060408301518482036040860152611c578282611bd7565b91505060608301518482036060860152611c718282611bd7565b9150506080830151611c866080860182611d15565b508091505092915050565b600060a083016000830151611ca96000860182611d15565b5060208301518482036020860152611cc18282611bd7565b91505060408301518482036040860152611cdb8282611bd7565b91505060608301518482036060860152611cf58282611bd7565b9150506080830151611d0a6080860182611d15565b508091505092915050565b611d1e816120a1565b82525050565b6000602082019050611d396000830184611b06565b92915050565b6000604082019050611d546000830185611af7565b611d616020830184611b83565b9392505050565b60006020820190508181036000830152611d828184611b15565b905092915050565b6000602082019050611d9f6000830184611b83565b92915050565b60006020820190508181036000830152611dbf8184611bd7565b905092915050565b600060e0820190508181036000830152611de1818a611bd7565b90508181036020830152611df58189611bd7565b9050611e046040830188611d15565b8181036060830152611e168187611ba1565b90508181036080830152611e2a8186611ba1565b905081810360a0830152611e3e8185611ba1565b9050611e4d60c0830184611b92565b98975050505050505050565b6000602082019050611e6e6000830184611d15565b92915050565b600060e082019050611e89600083018a611d15565b8181036020830152611e9b8189611ba1565b90508181036040830152611eaf8188611ba1565b9050611ebe6060830187611d15565b611ecb6080830186611d15565b611ed860a0830185611d15565b81810360c0830152611eea8184611c0d565b905098975050505050505050565b600060a082019050611f0d6000830188611d15565b8181036020830152611f1f8187611bd7565b90508181036040830152611f338186611bd7565b90508181036060830152611f478185611bd7565b9050611f566080830184611d15565b9695505050505050565b600060c082019050611f756000830189611d15565b8181036020830152611f878188611bd7565b90508181036040830152611f9b8187611bd7565b9050611faa6060830186611d15565b611fb76080830185611d15565b611fc460a0830184611d15565b979650505050505050565b6000604051905081810181811067ffffffffffffffff82111715611ff257600080fd5b8060405250919050565b600067ffffffffffffffff82111561201357600080fd5b601f19601f8301169050602081019050919050565b6000602082019050919050565b600081519050919050565b600081519050919050565b600081519050919050565b6000602082019050919050565b600061206e82612081565b9050919050565b60008115159050919050565b600073ffffffffffffffffffffffffffffffffffffffff82169050919050565b6000819050919050565b60006120b682612081565b9050919050565b6000819050919050565b60006120d2826120eb565b9050919050565b60006120e4826120a1565b9050919050565b60006120f6826120fd565b9050919050565b600061210882612081565b9050919050565b82818337600083830152505050565b60005b8381101561213c578082015181840152602081019050612121565b8381111561214b576000848401525b50505050565b6000601f19601f830116905091905056fea265627a7a7230582011a22eb7290c1eb4912813a88b50ee1dc7fae2f29c4d47396ccd866b098ed1d06c6578706572696d656e74616cf50037",
  "source": "pragma solidity ^0.5.0;\r\npragma experimental ABIEncoderV2;\r\n\r\n\r\ncontract Voting{\r\n    string public dapp_name=\"UniVote\";  // name of dapp\r\n    string public dapp_developer=\"@GoodnessEzeokafor and @EmmanuelUmeh\"; // smart contract developer\r\n    uint public electionEndTime; // electionENdTIme\r\n    uint public electionCount; //total number of election\r\n    uint public candidateCount; // totalnumber of candidates\r\n    address public electionAuthority;  // election creator\r\n    mapping(uint => Election) public elections;  //GET ELECTION LIST\r\n    // mapping (uint => Candidate) public candidates; // Candidate ID to number of votes\r\n    mapping (address => bool) public voters; // Registered voters\r\n    mapping (address => bool) public hasVoted; // If a registered voter has voted or not\r\n    Candidate[] public candidates;\r\n    /* MODIFIERS */\r\n        // Modifiers\r\n\r\n    // Ensures only owners can call a function\r\n    modifier only_election_authority() {\r\n        if (msg.sender != electionAuthority) revert();\r\n        _;\r\n    }\r\n\r\n    // // Ensures only registered voters can vote\r\n     modifier only_registered_voters() {\r\n        if (!voters[msg.sender]) revert();\r\n        _;\r\n    }\r\n\r\n    // // Ensures voters can vote just once!!! Their fada\r\n    modifier vote_only_once() {\r\n        if (hasVoted[msg.sender]) revert();\r\n        _;\r\n    }   \r\n\r\n    // // Only Vote during election time and We make cash\r\n\r\n      modifier only_during_election_time() {\r\n        if (electionEndTime == 0 || electionEndTime > block.timestamp) revert();\r\n        _;\r\n    }\r\n    constructor() public {\r\n        electionAuthority = msg.sender;\r\n    }\r\n\r\n\r\n    /*  CANDIDATE STRUCT */\r\n    struct Candidate {\r\n        uint id;\r\n        string name;\r\n        string department;\r\n        string level;\r\n        uint voteCount;\r\n    }\r\n    /* END CANDIDATE STRUCT */\r\n\r\n\r\n    /*  ELECTION STRUCT */\r\n    struct Election{\r\n        uint id;\r\n        string name_of_election;\r\n        string description_of_election;\r\n        uint duration; // in minutes\r\n        uint startTime; // \r\n        uint timestamp; \r\n        // mapping (uint => Candidate)  candidates; // Candidate ID to number of votes\r\n        Candidate[] candidates;\r\n    }\r\n    /* END ELECTION STRUCT */\r\n\r\n\r\n    event NewElection(\r\n        uint id,\r\n        string name_of_election,\r\n        string description_of_election,\r\n        uint duration,\r\n        uint startTime,\r\n        uint timestamp,\r\n        Candidate candidates // Candidate ID to number of votes\r\n    );\r\n\r\n    event NewCandidate(\r\n        string election_name,\r\n        string election_description,\r\n        uint id,\r\n        string name,\r\n        string department,\r\n        string level,\r\n        uint voteCount\r\n    );\r\n\r\n    event Voted(\r\n        address voter,\r\n        bool voted\r\n    );\r\n\r\n\r\n\r\n\r\n    // methods\r\n\r\n    function createElection(\r\n                string memory _name_of_election, \r\n                string memory  _description_of_election,\r\n                 uint _duration,\r\n                 uint _startTime\r\n                 ) public only_election_authority {\r\n        \r\n        electionCount ++;\r\n        Candidate memory new_candidate = Candidate(0,\"Not A Candidate\",\"Not A Candidate\", \"Not A Candidate\",0);\r\n        elections[electionCount].id = electionCount;\r\n        elections[electionCount].name_of_election = _name_of_election;\r\n        elections[electionCount].description_of_election = _description_of_election;\r\n        elections[electionCount].duration = _duration;\r\n        elections[electionCount].startTime = _startTime;\r\n        elections[electionCount].timestamp = now;\r\n        elections[electionCount].candidates.push(new_candidate);\r\n        emit NewElection(\r\n            electionCount,\r\n            _name_of_election,\r\n            _description_of_election,\r\n            _duration,\r\n            _startTime,\r\n            now,\r\n            new_candidate        \r\n        );\r\n    }\r\n\r\n\r\n    function createCandidate(\r\n                            uint _id,\r\n                            string memory  _name,\r\n                            string memory _department,\r\n                            string memory  _level\r\n                            ) public only_election_authority{\r\n        Election memory e = elections[_id];\r\n        candidateCount++;\r\n        Candidate memory new_candidate = Candidate(candidateCount,_name,_department,_level, 0);\r\n        elections[_id].candidates.push(new_candidate);\r\n        emit NewCandidate(\r\n                e.name_of_election,\r\n                e.description_of_election,\r\n                candidateCount,\r\n                _name,\r\n                _department,\r\n                _level, 0);\r\n    }\r\n\r\n// Register a voter for when we using the UJ API to register voters\r\n    function register_voter(address addr) public only_election_authority{\r\n        voters[addr] = true;\r\n    }\r\n\r\n      function start_election(uint duration) public only_election_authority{\r\n        electionEndTime =   block.timestamp + duration;\r\n    }\r\n  \r\n\r\n      function voteCandidate(uint _electionId, uint _candidateId) public only_registered_voters\r\n\r\n        // Remember to check why time fails in tests!!\r\n        // only_during_election_time\r\n        vote_only_once\r\n        {\r\n        // // require that they haven't voted before\r\n        // require(!voters[msg.sender]);\r\n\r\n            // Ensures the candidate exists\r\n        require(_candidateId > 0 && _candidateId <= candidateCount);\r\n        require(_electionId > 0 && _electionId <= electionCount);\r\n\r\n        // record that voter has voted\r\n        hasVoted[msg.sender] = true;\r\n\r\n        // update candidate vote Count\r\n        elections[_electionId].candidates[_candidateId].voteCount ++;\r\n\r\n        emit Voted(msg.sender,true);\r\n    }\r\n\r\n    function getElectionCandidates(uint _id) public view returns(Candidate[] memory){\r\n        return elections[_id].candidates;\r\n    }\r\n\r\n}\r\n\r\n\r\n\r\n    ",
  "sourcePath": "C:/Users/ALEX PC/Desktop/Univote/uniVote-2/client/src/contracts/Voting.sol",
  "compiler": {
    "name": "solc",
    "version": "0.5.0+commit.1d4f565a.Emscripten.clang"
  },
  "schemaVersion": "3.0.2",
  "updatedAt": "2020-01-04T23:03:17.042Z",
  "devdoc": {
    "methods": {}
  },
  "userdoc": {
    "methods": {}
  }
}