{
  "contractName": "Voting",
  "abi": [
    {
      "inputs": [],
      "payable": false,
      "stateMutability": "nonpayable",
      "type": "constructor"
    },
    {
      "anonymous": false,
      "inputs": [
        {
          "indexed": false,
          "internalType": "uint256",
          "name": "id",
          "type": "uint256"
        },
        {
          "indexed": false,
          "internalType": "string",
          "name": "name",
          "type": "string"
        },
        {
          "indexed": false,
          "internalType": "string",
          "name": "department",
          "type": "string"
        },
        {
          "indexed": false,
          "internalType": "string",
          "name": "level",
          "type": "string"
        },
        {
          "indexed": false,
          "internalType": "uint256",
          "name": "voteCount",
          "type": "uint256"
        }
      ],
      "name": "NewCandidate",
      "type": "event"
    },
    {
      "anonymous": false,
      "inputs": [
        {
          "indexed": false,
          "internalType": "uint256",
          "name": "id",
          "type": "uint256"
        },
        {
          "indexed": false,
          "internalType": "string",
          "name": "name_of_election",
          "type": "string"
        },
        {
          "indexed": false,
          "internalType": "string",
          "name": "description_of_election",
          "type": "string"
        },
        {
          "indexed": false,
          "internalType": "uint256",
          "name": "duration",
          "type": "uint256"
        },
        {
          "indexed": false,
          "internalType": "uint256",
          "name": "startTime",
          "type": "uint256"
        },
        {
          "indexed": false,
          "internalType": "uint256",
          "name": "timestamp",
          "type": "uint256"
        },
        {
          "components": [
            {
              "internalType": "uint256",
              "name": "id",
              "type": "uint256"
            },
            {
              "internalType": "string",
              "name": "name",
              "type": "string"
            },
            {
              "internalType": "string",
              "name": "department",
              "type": "string"
            },
            {
              "internalType": "string",
              "name": "level",
              "type": "string"
            },
            {
              "internalType": "uint256",
              "name": "voteCount",
              "type": "uint256"
            }
          ],
          "indexed": false,
          "internalType": "struct Voting.Candidate",
          "name": "candidates",
          "type": "tuple"
        }
      ],
      "name": "NewElection",
      "type": "event"
    },
    {
      "constant": true,
      "inputs": [],
      "name": "candidateCount",
      "outputs": [
        {
          "internalType": "uint256",
          "name": "",
          "type": "uint256"
        }
      ],
      "payable": false,
      "stateMutability": "view",
      "type": "function"
    },
    {
      "constant": true,
      "inputs": [],
      "name": "dapp_developer",
      "outputs": [
        {
          "internalType": "string",
          "name": "",
          "type": "string"
        }
      ],
      "payable": false,
      "stateMutability": "view",
      "type": "function"
    },
    {
      "constant": true,
      "inputs": [],
      "name": "dapp_name",
      "outputs": [
        {
          "internalType": "string",
          "name": "",
          "type": "string"
        }
      ],
      "payable": false,
      "stateMutability": "view",
      "type": "function"
    },
    {
      "constant": true,
      "inputs": [],
      "name": "electionAuthority",
      "outputs": [
        {
          "internalType": "address",
          "name": "",
          "type": "address"
        }
      ],
      "payable": false,
      "stateMutability": "view",
      "type": "function"
    },
    {
      "constant": true,
      "inputs": [],
      "name": "electionCount",
      "outputs": [
        {
          "internalType": "uint256",
          "name": "",
          "type": "uint256"
        }
      ],
      "payable": false,
      "stateMutability": "view",
      "type": "function"
    },
    {
      "constant": true,
      "inputs": [],
      "name": "electionEndTime",
      "outputs": [
        {
          "internalType": "uint256",
          "name": "",
          "type": "uint256"
        }
      ],
      "payable": false,
      "stateMutability": "view",
      "type": "function"
    },
    {
      "constant": true,
      "inputs": [
        {
          "internalType": "uint256",
          "name": "",
          "type": "uint256"
        }
      ],
      "name": "elections",
      "outputs": [
        {
          "internalType": "uint256",
          "name": "id",
          "type": "uint256"
        },
        {
          "internalType": "string",
          "name": "name_of_election",
          "type": "string"
        },
        {
          "internalType": "string",
          "name": "description_of_election",
          "type": "string"
        },
        {
          "internalType": "uint256",
          "name": "duration",
          "type": "uint256"
        },
        {
          "internalType": "uint256",
          "name": "startTime",
          "type": "uint256"
        },
        {
          "internalType": "uint256",
          "name": "timestamp",
          "type": "uint256"
        }
      ],
      "payable": false,
      "stateMutability": "view",
      "type": "function"
    },
    {
      "constant": false,
      "inputs": [
        {
          "internalType": "string",
          "name": "_name_of_election",
          "type": "string"
        },
        {
          "internalType": "string",
          "name": "_description_of_election",
          "type": "string"
        },
        {
          "internalType": "uint256",
          "name": "_duration",
          "type": "uint256"
        },
        {
          "internalType": "uint256",
          "name": "_startTime",
          "type": "uint256"
        }
      ],
      "name": "createElection",
      "outputs": [],
      "payable": false,
      "stateMutability": "nonpayable",
      "type": "function"
    },
    {
      "constant": false,
      "inputs": [
        {
          "internalType": "uint256",
          "name": "_id",
          "type": "uint256"
        },
        {
          "internalType": "string",
          "name": "_name",
          "type": "string"
        },
        {
          "internalType": "string",
          "name": "_department",
          "type": "string"
        },
        {
          "internalType": "string",
          "name": "_level",
          "type": "string"
        }
      ],
      "name": "createCandidate",
      "outputs": [],
      "payable": false,
      "stateMutability": "nonpayable",
      "type": "function"
    }
  ],
  "bytecode": "0x60806040526040518060400160405280600781526020017f556e69566f7465000000000000000000000000000000000000000000000000008152506000908051906020019062000051929190620000d9565b50604051806060016040528060248152602001620012a4602491396001908051906020019062000083929190620000d9565b503480156200009157600080fd5b5033600560006101000a81548173ffffffffffffffffffffffffffffffffffffffff021916908373ffffffffffffffffffffffffffffffffffffffff16021790555062000188565b828054600181600116156101000203166002900490600052602060002090601f016020900481019282601f106200011c57805160ff19168380011785556200014d565b828001600101855582156200014d579182015b828111156200014c5782518255916020019190600101906200012f565b5b5090506200015c919062000160565b5090565b6200018591905b808211156200018157600081600090555060010162000167565b5090565b90565b61110c80620001986000396000f3fe608060405234801561001057600080fd5b50600436106100935760003560e01c80639e136e64116100665780639e136e6414610123578063a9a981a314610141578063b3ea346b1461015f578063c95592521461017d578063dc46d6ea1461019b57610093565b80633086e71c146100985780635e6fef01146100b45780637ad36e84146100e9578063997d283014610105575b600080fd5b6100b260048036036100ad9190810190610bb7565b6101b9565b005b6100ce60048036036100c99190810190610b8e565b610352565b6040516100e096959493929190610f11565b60405180910390f35b61010360048036036100fe9190810190610afb565b6104be565b005b61010d6107ca565b60405161011a9190610e0a565b60405180910390f35b61012b6107d0565b6040516101389190610e0a565b60405180910390f35b6101496107d6565b6040516101569190610e0a565b60405180910390f35b6101676107dc565b6040516101749190610de8565b60405180910390f35b61018561087a565b6040516101929190610de8565b60405180910390f35b6101a3610918565b6040516101b09190610dcd565b60405180910390f35b600560009054906101000a900473ffffffffffffffffffffffffffffffffffffffff1673ffffffffffffffffffffffffffffffffffffffff163373ffffffffffffffffffffffffffffffffffffffff161461021357600080fd5b60046000815480929190600101919050555061022d61093e565b6040518060a001604052806004548152602001858152602001848152602001838152602001600081525090506006600086815260200190815260200160002060060181908060018154018082558091505090600182039060005260206000209060050201600090919290919091506000820151816000015560208201518160010190805190602001906102c192919061096d565b5060408201518160020190805190602001906102de92919061096d565b5060608201518160030190805190602001906102fb92919061096d565b50608082015181600401555050507fc78f89860db9f5b2cc9d5ce32f44a84d63127beebfcaf596da259a7e10296ac56004548585856000604051610343959493929190610e25565b60405180910390a15050505050565b6006602052806000526040600020600091509050806000015490806001018054600181600116156101000203166002900480601f0160208091040260200160405190810160405280929190818152602001828054600181600116156101000203166002900480156104045780601f106103d957610100808354040283529160200191610404565b820191906000526020600020905b8154815290600101906020018083116103e757829003601f168201915b505050505090806002018054600181600116156101000203166002900480601f0160208091040260200160405190810160405280929190818152602001828054600181600116156101000203166002900480156104a25780601f10610477576101008083540402835291602001916104a2565b820191906000526020600020905b81548152906001019060200180831161048557829003601f168201915b5050505050908060030154908060040154908060050154905086565b600560009054906101000a900473ffffffffffffffffffffffffffffffffffffffff1673ffffffffffffffffffffffffffffffffffffffff163373ffffffffffffffffffffffffffffffffffffffff161461051857600080fd5b60036000815480929190600101919050555061053261093e565b6040518060a00160405280600081526020016040518060400160405280600f81526020017f4e6f7420412043616e646964617465000000000000000000000000000000000081525081526020016040518060400160405280600f81526020017f4e6f7420412043616e646964617465000000000000000000000000000000000081525081526020016040518060400160405280600f81526020017f4e6f7420412043616e6469646174650000000000000000000000000000000000815250815260200160008152509050600354600660006003548152602001908152602001600020600001819055508460066000600354815260200190815260200160002060010190805190602001906106479291906109ed565b508360066000600354815260200190815260200160002060020190805190602001906106749291906109ed565b50826006600060035481526020019081526020016000206003018190555081600660006003548152602001908152602001600020600401819055504260066000600354815260200190815260200160002060050181905550600660006003548152602001908152602001600020600601819080600181540180825580915050906001820390600052602060002090600502016000909192909190915060008201518160000155602082015181600101908051906020019061073692919061096d565b50604082015181600201908051906020019061075392919061096d565b50606082015181600301908051906020019061077092919061096d565b50608082015181600401555050507ffd961357c64af9a29e50fd9a208bcedd0f78ca1d78c467d5f0ffd9be5233a4f76003548686868642876040516107bb9796959493929190610e8d565b60405180910390a15050505050565b60035481565b60025481565b60045481565b60008054600181600116156101000203166002900480601f0160208091040260200160405190810160405280929190818152602001828054600181600116156101000203166002900480156108725780601f1061084757610100808354040283529160200191610872565b820191906000526020600020905b81548152906001019060200180831161085557829003601f168201915b505050505081565b60018054600181600116156101000203166002900480601f0160208091040260200160405190810160405280929190818152602001828054600181600116156101000203166002900480156109105780601f106108e557610100808354040283529160200191610910565b820191906000526020600020905b8154815290600101906020018083116108f357829003601f168201915b505050505081565b600560009054906101000a900473ffffffffffffffffffffffffffffffffffffffff1681565b6040518060a0016040528060008152602001606081526020016060815260200160608152602001600081525090565b828054600181600116156101000203166002900490600052602060002090601f016020900481019282601f106109ae57805160ff19168380011785556109dc565b828001600101855582156109dc579182015b828111156109db5782518255916020019190600101906109c0565b5b5090506109e99190610a6d565b5090565b828054600181600116156101000203166002900490600052602060002090601f016020900481019282601f10610a2e57805160ff1916838001178555610a5c565b82800160010185558215610a5c579182015b82811115610a5b578251825591602001919060010190610a40565b5b509050610a699190610a6d565b5090565b610a8f91905b80821115610a8b576000816000905550600101610a73565b5090565b90565b600082601f830112610aa357600080fd5b8135610ab6610ab182610fad565b610f80565b91508082526020830160208301858383011115610ad257600080fd5b610add83828461105f565b50505092915050565b600081359050610af5816110b2565b92915050565b60008060008060808587031215610b1157600080fd5b600085013567ffffffffffffffff811115610b2b57600080fd5b610b3787828801610a92565b945050602085013567ffffffffffffffff811115610b5457600080fd5b610b6087828801610a92565b9350506040610b7187828801610ae6565b9250506060610b8287828801610ae6565b91505092959194509250565b600060208284031215610ba057600080fd5b6000610bae84828501610ae6565b91505092915050565b60008060008060808587031215610bcd57600080fd5b6000610bdb87828801610ae6565b945050602085013567ffffffffffffffff811115610bf857600080fd5b610c0487828801610a92565b935050604085013567ffffffffffffffff811115610c2157600080fd5b610c2d87828801610a92565b925050606085013567ffffffffffffffff811115610c4a57600080fd5b610c5687828801610a92565b91505092959194509250565b610c6b81611011565b82525050565b610c7a8161104d565b82525050565b6000610c8b82610fe4565b610c958185611000565b9350610ca581856020860161106e565b610cae816110a1565b840191505092915050565b6000610cc482610fd9565b610cce8185610fef565b9350610cde81856020860161106e565b610ce7816110a1565b840191505092915050565b6000610cfd82610fd9565b610d078185611000565b9350610d1781856020860161106e565b610d20816110a1565b840191505092915050565b600060a083016000830151610d436000860182610daf565b5060208301518482036020860152610d5b8282610cb9565b91505060408301518482036040860152610d758282610cb9565b91505060608301518482036060860152610d8f8282610cb9565b9150506080830151610da46080860182610daf565b508091505092915050565b610db881611043565b82525050565b610dc781611043565b82525050565b6000602082019050610de26000830184610c62565b92915050565b60006020820190508181036000830152610e028184610cf2565b905092915050565b6000602082019050610e1f6000830184610dbe565b92915050565b600060a082019050610e3a6000830188610dbe565b8181036020830152610e4c8187610c80565b90508181036040830152610e608186610c80565b90508181036060830152610e748185610c80565b9050610e836080830184610c71565b9695505050505050565b600060e082019050610ea2600083018a610dbe565b8181036020830152610eb48189610c80565b90508181036040830152610ec88188610c80565b9050610ed76060830187610dbe565b610ee46080830186610dbe565b610ef160a0830185610dbe565b81810360c0830152610f038184610d2b565b905098975050505050505050565b600060c082019050610f266000830189610dbe565b8181036020830152610f388188610cf2565b90508181036040830152610f4c8187610cf2565b9050610f5b6060830186610dbe565b610f686080830185610dbe565b610f7560a0830184610dbe565b979650505050505050565b6000604051905081810181811067ffffffffffffffff82111715610fa357600080fd5b8060405250919050565b600067ffffffffffffffff821115610fc457600080fd5b601f19601f8301169050602081019050919050565b600081519050919050565b600081519050919050565b600082825260208201905092915050565b600082825260208201905092915050565b600061101c82611023565b9050919050565b600073ffffffffffffffffffffffffffffffffffffffff82169050919050565b6000819050919050565b600061105882611043565b9050919050565b82818337600083830152505050565b60005b8381101561108c578082015181840152602081019050611071565b8381111561109b576000848401525b50505050565b6000601f19601f8301169050919050565b6110bb81611043565b81146110c657600080fd5b5056fea365627a7a7231582077e32ed96000b89b7a544e98877969396dbf09b6a41fc53d84f96d422cf552fb6c6578706572696d656e74616cf564736f6c634300050c004040476f6f646e657373457a656f6b61666f7220616e642040456d6d616e75656c556d6568",
  "source": "pragma solidity ^0.5.0;\npragma experimental ABIEncoderV2;\n\n\ncontract Voting{\n    string public dapp_name=\"UniVote\";  // name of dapp\n    string public dapp_developer=\"@GoodnessEzeokafor and @EmmanuelUmeh\"; // smart contract developer\n    uint public electionEndTime; // electionENdTIme\n    uint public electionCount; //total number of election\n    uint public candidateCount;\n    address public electionAuthority;  // election creator\n    mapping(uint => Election) public elections;  //GET ELECTION LIST\n    // mapping (uint => Candidate) public candidates; // Candidate ID to number of votes\n\n    /* MODIFIERS */\n        // Modifiers\n\n    // Ensures only owners can call a function\n    modifier only_election_authority() {\n        if (msg.sender != electionAuthority) revert();\n        _;\n    }\n\n    // // Ensures only registered voters can vote\n    //  modifier only_registered_voters() {\n    //     if (!voters[msg.sender]) revert();\n    //     _;\n    // }\n\n    // // Ensures voters can vote just once!!! Their fada\n    // modifier vote_only_once() {\n    //     if (hasVoted[msg.sender]) revert();\n    //     _;\n    // }   \n\n    // // Only Vote during election time and We make cash\n\n    //   modifier only_during_election_time() {\n    //     if (electionEndTime == 0 || electionEndTime > block.timestamp) revert();\n    //     _;\n    // }\n    constructor() public {\n        electionAuthority = msg.sender;\n    }\n\n\n    /*  CANDIDATE STRUCT */\n    struct Candidate {\n        uint id;\n        string name;\n        string department;\n        string level;\n        uint voteCount;\n    }\n    /* END CANDIDATE STRUCT */\n\n\n    /*  ELECTION STRUCT */\n    struct Election{\n        uint id;\n        string name_of_election;\n        string description_of_election;\n        uint duration; // in minutes\n        uint startTime; // \n        uint timestamp; \n        // mapping (uint => Candidate)  candidates; // Candidate ID to number of votes\n        Candidate[] candidates;\n    }\n    /* END ELECTION STRUCT */\n\n\n    event NewElection(\n        uint id,\n        string name_of_election,\n        string description_of_election,\n        uint duration,\n        uint startTime,\n        uint timestamp,\n        Candidate candidates // Candidate ID to number of votes\n    );\n\n    event NewCandidate(\n        uint id,\n        string name,\n        string department,\n        string level,\n        uint voteCount\n    );\n\n\n\n\n\n    // methods\n\n    function createElection(\n                string memory _name_of_election, \n                string memory  _description_of_election,\n                 uint _duration,\n                 uint _startTime\n                 ) public only_election_authority {\n        \n        electionCount ++;\n        // Candidate memory new_candidate = Candidate(\"\",\"\",\"\",0,0);\n        // elections[electionCount] = Election({\n        //     id:electionCount,\n        //     name_of_election:_name_of_election,\n        //     description_of_election:_description_of_election,\n        //     duration:_duration,\n        //     startTime:_startTime,\n        //     timestamp:now\n        //     // candidates:Candidate(electionCount, \"\", \"\",\"\", 0,0)\n        //     // candidates:\"\"\n        // });\n        Candidate memory new_candidate = Candidate(0,\"Not A Candidate\",\"Not A Candidate\", \"Not A Candidate\",0);\n        elections[electionCount].id = electionCount;\n        elections[electionCount].name_of_election = _name_of_election;\n        elections[electionCount].description_of_election = _description_of_election;\n        elections[electionCount].duration = _duration;\n        elections[electionCount].startTime = _startTime;\n        elections[electionCount].timestamp = now;\n        elections[electionCount].candidates.push(new_candidate);\n        emit NewElection(\n            electionCount,\n            _name_of_election,\n            _description_of_election,\n            _duration,\n            _startTime,\n            now,\n            new_candidate        \n        );\n    }\n\n\n    function createCandidate(\n                            uint _id,\n                            string memory  _name,\n                            string memory _department,\n                            string memory  _level\n                            ) public only_election_authority{\n        // Election memory e = elections[_id];\n        candidateCount++;\n        Candidate memory new_candidate = Candidate(candidateCount,_name,_department,_level, 0);\n        elections[_id].candidates.push(new_candidate);\n        emit NewCandidate(candidateCount,_name,_department,_level, 0);\n    }\n\n}",
  "sourcePath": "/home/goodness/Development/ethereum/UniVote/client/src/contracts/Voting.sol",
  "compiler": {
    "name": "solc",
    "version": "0.5.12+commit.7709ece9.Emscripten.clang"
  },
  "schemaVersion": "3.0.19",
  "updatedAt": "2020-01-04T15:05:12.128Z",
  "networkType": "ethereum",
  "devdoc": {
    "methods": {}
  },
  "userdoc": {
    "methods": {}
  }
}