{
  "contractName": "Voting",
  "abi": [
    {
      "inputs": [],
      "payable": false,
      "stateMutability": "nonpayable",
      "type": "constructor"
    },
    {
      "anonymous": false,
      "inputs": [
        {
          "indexed": false,
          "internalType": "string",
          "name": "election_name",
          "type": "string"
        },
        {
          "indexed": false,
          "internalType": "string",
          "name": "election_description",
          "type": "string"
        },
        {
          "indexed": false,
          "internalType": "uint256",
          "name": "id",
          "type": "uint256"
        },
        {
          "indexed": false,
          "internalType": "string",
          "name": "name",
          "type": "string"
        },
        {
          "indexed": false,
          "internalType": "string",
          "name": "department",
          "type": "string"
        },
        {
          "indexed": false,
          "internalType": "string",
          "name": "level",
          "type": "string"
        },
        {
          "indexed": false,
          "internalType": "uint256",
          "name": "voteCount",
          "type": "uint256"
        }
      ],
      "name": "NewCandidate",
      "type": "event"
    },
    {
      "anonymous": false,
      "inputs": [
        {
          "indexed": false,
          "internalType": "uint256",
          "name": "id",
          "type": "uint256"
        },
        {
          "indexed": false,
          "internalType": "string",
          "name": "name_of_election",
          "type": "string"
        },
        {
          "indexed": false,
          "internalType": "string",
          "name": "description_of_election",
          "type": "string"
        },
        {
          "indexed": false,
          "internalType": "uint256",
          "name": "duration",
          "type": "uint256"
        },
        {
          "indexed": false,
          "internalType": "uint256",
          "name": "startTime",
          "type": "uint256"
        },
        {
          "indexed": false,
          "internalType": "uint256",
          "name": "timestamp",
          "type": "uint256"
        },
        {
          "components": [
            {
              "internalType": "uint256",
              "name": "id",
              "type": "uint256"
            },
            {
              "internalType": "string",
              "name": "name",
              "type": "string"
            },
            {
              "internalType": "string",
              "name": "department",
              "type": "string"
            },
            {
              "internalType": "string",
              "name": "level",
              "type": "string"
            },
            {
              "internalType": "uint256",
              "name": "voteCount",
              "type": "uint256"
            }
          ],
          "indexed": false,
          "internalType": "struct Voting.Candidate",
          "name": "candidates",
          "type": "tuple"
        }
      ],
      "name": "NewElection",
      "type": "event"
    },
    {
      "anonymous": false,
      "inputs": [
        {
          "indexed": false,
          "internalType": "address",
          "name": "voter",
          "type": "address"
        },
        {
          "indexed": false,
          "internalType": "bool",
          "name": "voted",
          "type": "bool"
        }
      ],
      "name": "Voted",
      "type": "event"
    },
    {
      "constant": true,
      "inputs": [],
      "name": "candidateCount",
      "outputs": [
        {
          "internalType": "uint256",
          "name": "",
          "type": "uint256"
        }
      ],
      "payable": false,
      "stateMutability": "view",
      "type": "function"
    },
    {
      "constant": true,
      "inputs": [
        {
          "internalType": "uint256",
          "name": "",
          "type": "uint256"
        }
      ],
      "name": "candidates",
      "outputs": [
        {
          "internalType": "uint256",
          "name": "id",
          "type": "uint256"
        },
        {
          "internalType": "string",
          "name": "name",
          "type": "string"
        },
        {
          "internalType": "string",
          "name": "department",
          "type": "string"
        },
        {
          "internalType": "string",
          "name": "level",
          "type": "string"
        },
        {
          "internalType": "uint256",
          "name": "voteCount",
          "type": "uint256"
        }
      ],
      "payable": false,
      "stateMutability": "view",
      "type": "function"
    },
    {
      "constant": true,
      "inputs": [],
      "name": "dapp_developer",
      "outputs": [
        {
          "internalType": "string",
          "name": "",
          "type": "string"
        }
      ],
      "payable": false,
      "stateMutability": "view",
      "type": "function"
    },
    {
      "constant": true,
      "inputs": [],
      "name": "dapp_name",
      "outputs": [
        {
          "internalType": "string",
          "name": "",
          "type": "string"
        }
      ],
      "payable": false,
      "stateMutability": "view",
      "type": "function"
    },
    {
      "constant": true,
      "inputs": [],
      "name": "electionAuthority",
      "outputs": [
        {
          "internalType": "address",
          "name": "",
          "type": "address"
        }
      ],
      "payable": false,
      "stateMutability": "view",
      "type": "function"
    },
    {
      "constant": true,
      "inputs": [],
      "name": "electionCount",
      "outputs": [
        {
          "internalType": "uint256",
          "name": "",
          "type": "uint256"
        }
      ],
      "payable": false,
      "stateMutability": "view",
      "type": "function"
    },
    {
      "constant": true,
      "inputs": [],
      "name": "electionEndTime",
      "outputs": [
        {
          "internalType": "uint256",
          "name": "",
          "type": "uint256"
        }
      ],
      "payable": false,
      "stateMutability": "view",
      "type": "function"
    },
    {
      "constant": true,
      "inputs": [
        {
          "internalType": "uint256",
          "name": "",
          "type": "uint256"
        }
      ],
      "name": "elections",
      "outputs": [
        {
          "internalType": "uint256",
          "name": "id",
          "type": "uint256"
        },
        {
          "internalType": "string",
          "name": "name_of_election",
          "type": "string"
        },
        {
          "internalType": "string",
          "name": "description_of_election",
          "type": "string"
        },
        {
          "internalType": "uint256",
          "name": "duration",
          "type": "uint256"
        },
        {
          "internalType": "uint256",
          "name": "startTime",
          "type": "uint256"
        },
        {
          "internalType": "uint256",
          "name": "timestamp",
          "type": "uint256"
        }
      ],
      "payable": false,
      "stateMutability": "view",
      "type": "function"
    },
    {
      "constant": true,
      "inputs": [
        {
          "internalType": "address",
          "name": "",
          "type": "address"
        }
      ],
      "name": "hasVoted",
      "outputs": [
        {
          "internalType": "bool",
          "name": "",
          "type": "bool"
        }
      ],
      "payable": false,
      "stateMutability": "view",
      "type": "function"
    },
    {
      "constant": true,
      "inputs": [
        {
          "internalType": "address",
          "name": "",
          "type": "address"
        }
      ],
      "name": "voters",
      "outputs": [
        {
          "internalType": "bool",
          "name": "",
          "type": "bool"
        }
      ],
      "payable": false,
      "stateMutability": "view",
      "type": "function"
    },
    {
      "constant": false,
      "inputs": [
        {
          "internalType": "string",
          "name": "_name_of_election",
          "type": "string"
        },
        {
          "internalType": "string",
          "name": "_description_of_election",
          "type": "string"
        },
        {
          "internalType": "uint256",
          "name": "_duration",
          "type": "uint256"
        },
        {
          "internalType": "uint256",
          "name": "_startTime",
          "type": "uint256"
        }
      ],
      "name": "createElection",
      "outputs": [],
      "payable": false,
      "stateMutability": "nonpayable",
      "type": "function"
    },
    {
      "constant": false,
      "inputs": [
        {
          "internalType": "uint256",
          "name": "_id",
          "type": "uint256"
        },
        {
          "internalType": "string",
          "name": "_name",
          "type": "string"
        },
        {
          "internalType": "string",
          "name": "_department",
          "type": "string"
        },
        {
          "internalType": "string",
          "name": "_level",
          "type": "string"
        }
      ],
      "name": "createCandidate",
      "outputs": [],
      "payable": false,
      "stateMutability": "nonpayable",
      "type": "function"
    },
    {
      "constant": false,
      "inputs": [
        {
          "internalType": "address",
          "name": "addr",
          "type": "address"
        }
      ],
      "name": "register_voter",
      "outputs": [],
      "payable": false,
      "stateMutability": "nonpayable",
      "type": "function"
    },
    {
      "constant": false,
      "inputs": [
        {
          "internalType": "uint256",
          "name": "duration",
          "type": "uint256"
        }
      ],
      "name": "start_election",
      "outputs": [],
      "payable": false,
      "stateMutability": "nonpayable",
      "type": "function"
    },
    {
      "constant": false,
      "inputs": [
        {
          "internalType": "uint256",
          "name": "_electionId",
          "type": "uint256"
        },
        {
          "internalType": "uint256",
          "name": "_candidateId",
          "type": "uint256"
        }
      ],
      "name": "voteCandidate",
      "outputs": [],
      "payable": false,
      "stateMutability": "nonpayable",
      "type": "function"
    },
    {
      "constant": true,
      "inputs": [
        {
          "internalType": "uint256",
          "name": "_id",
          "type": "uint256"
        }
      ],
      "name": "getElectionCandidates",
      "outputs": [
        {
          "components": [
            {
              "internalType": "uint256",
              "name": "id",
              "type": "uint256"
            },
            {
              "internalType": "string",
              "name": "name",
              "type": "string"
            },
            {
              "internalType": "string",
              "name": "department",
              "type": "string"
            },
            {
              "internalType": "string",
              "name": "level",
              "type": "string"
            },
            {
              "internalType": "uint256",
              "name": "voteCount",
              "type": "uint256"
            }
          ],
          "internalType": "struct Voting.Candidate[]",
          "name": "",
          "type": "tuple[]"
        }
      ],
      "payable": false,
      "stateMutability": "view",
      "type": "function"
    }
  ],
  "bytecode": "0x60806040526040518060400160405280600781526020017f556e69566f7465000000000000000000000000000000000000000000000000008152506000908051906020019062000051929190620000d9565b5060405180606001604052806024815260200162002304602491396001908051906020019062000083929190620000d9565b503480156200009157600080fd5b5033600560006101000a81548173ffffffffffffffffffffffffffffffffffffffff021916908373ffffffffffffffffffffffffffffffffffffffff16021790555062000188565b828054600181600116156101000203166002900490600052602060002090601f016020900481019282601f106200011c57805160ff19168380011785556200014d565b828001600101855582156200014d579182015b828111156200014c5782518255916020019190600101906200012f565b5b5090506200015c919062000160565b5090565b6200018591905b808211156200018157600081600090555060010162000167565b5090565b90565b61216c80620001986000396000f3fe608060405234801561001057600080fd5b50600436106101005760003560e01c8063997d283011610097578063b3ea346b11610066578063b3ea346b146102c8578063c9559252146102e6578063dc46d6ea14610304578063eb1e62701461032257610100565b8063997d28301461023e5780639e136e641461025c578063a3ec138d1461027a578063a9a981a3146102aa57610100565b80634f2c51b9116100d35780634f2c51b9146101a15780635e12845e146101bd5780635e6fef01146101ed5780637ad36e841461022257610100565b806309eef43e146101055780632de096ff146101355780633086e71c146101515780633477ee2e1461016d575b600080fd5b61011f600480360361011a9190810190611841565b61033e565b60405161012c9190611d09565b60405180910390f35b61014f600480360361014a91908101906118fd565b61035e565b005b61016b60048036036101669190810190611926565b6103c4565b005b610187600480360361018291908101906118fd565b610957565b604051610198959493929190611e77565b60405180910390f35b6101bb60048036036101b69190810190611841565b610b62565b005b6101d760048036036101d291908101906118fd565b610c17565b6040516101e49190611ce7565b60405180910390f35b610207600480360361020291908101906118fd565b610e86565b60405161021996959493929190611edf565b60405180910390f35b61023c6004803603610237919081019061186a565b610ff2565b005b6102466112fe565b6040516102539190611dd8565b60405180910390f35b610264611304565b6040516102719190611dd8565b60405180910390f35b610294600480360361028f9190810190611841565b61130a565b6040516102a19190611d09565b60405180910390f35b6102b261132a565b6040516102bf9190611dd8565b60405180910390f35b6102d0611330565b6040516102dd9190611d24565b60405180910390f35b6102ee6113ce565b6040516102fb9190611d24565b60405180910390f35b61030c61146c565b6040516103199190611ca3565b60405180910390f35b61033c600480360361033791908101906119d1565b611492565b005b60086020528060005260406000206000915054906101000a900460ff1681565b600560009054906101000a900473ffffffffffffffffffffffffffffffffffffffff1673ffffffffffffffffffffffffffffffffffffffff163373ffffffffffffffffffffffffffffffffffffffff16146103b857600080fd5b80420160028190555050565b600560009054906101000a900473ffffffffffffffffffffffffffffffffffffffff1673ffffffffffffffffffffffffffffffffffffffff163373ffffffffffffffffffffffffffffffffffffffff161461041e57600080fd5b610426611632565b600660008681526020019081526020016000206040518060e001604052908160008201548152602001600182018054600181600116156101000203166002900480601f0160208091040260200160405190810160405280929190818152602001828054600181600116156101000203166002900480156104e75780601f106104bc576101008083540402835291602001916104e7565b820191906000526020600020905b8154815290600101906020018083116104ca57829003601f168201915b50505050508152602001600282018054600181600116156101000203166002900480601f0160208091040260200160405190810160405280929190818152602001828054600181600116156101000203166002900480156105895780601f1061055e57610100808354040283529160200191610589565b820191906000526020600020905b81548152906001019060200180831161056c57829003601f168201915b5050505050815260200160038201548152602001600482015481526020016005820154815260200160068201805480602002602001604051908101604052809291908181526020016000905b8282101561080157838290600052602060002090600502016040518060a001604052908160008201548152602001600182018054600181600116156101000203166002900480601f01602080910402602001604051908101604052809291908181526020018280546001816001161561010002031660029004801561069b5780601f106106705761010080835404028352916020019161069b565b820191906000526020600020905b81548152906001019060200180831161067e57829003601f168201915b50505050508152602001600282018054600181600116156101000203166002900480601f01602080910402602001604051908101604052809291908181526020018280546001816001161561010002031660029004801561073d5780601f106107125761010080835404028352916020019161073d565b820191906000526020600020905b81548152906001019060200180831161072057829003601f168201915b50505050508152602001600382018054600181600116156101000203166002900480601f0160208091040260200160405190810160405280929190818152602001828054600181600116156101000203166002900480156107df5780601f106107b4576101008083540402835291602001916107df565b820191906000526020600020905b8154815290600101906020018083116107c257829003601f168201915b50505050508152602001600482015481525050815260200190600101906105d5565b5050505081525050905060046000815480929190600101919050555061082561166f565b6040518060a001604052806004548152602001868152602001858152602001848152602001600081525090506006600087815260200190815260200160002060060181908060018154018082558091505090600182039060005260206000209060050201600090919290919091506000820151816000015560208201518160010190805190602001906108b992919061169e565b5060408201518160020190805190602001906108d692919061169e565b5060608201518160030190805190602001906108f392919061169e565b50608082015181600401555050507f24107f57307d59c1340861409bb1693828565458d05804c1040dfd8f9dd9eb198260200151836040015160045488888860006040516109479796959493929190611d46565b60405180910390a1505050505050565b6009818154811061096457fe5b9060005260206000209060050201600091509050806000015490806001018054600181600116156101000203166002900480601f016020809104026020016040519081016040528092919081815260200182805460018160011615610100020316600290048015610a165780601f106109eb57610100808354040283529160200191610a16565b820191906000526020600020905b8154815290600101906020018083116109f957829003601f168201915b505050505090806002018054600181600116156101000203166002900480601f016020809104026020016040519081016040528092919081815260200182805460018160011615610100020316600290048015610ab45780601f10610a8957610100808354040283529160200191610ab4565b820191906000526020600020905b815481529060010190602001808311610a9757829003601f168201915b505050505090806003018054600181600116156101000203166002900480601f016020809104026020016040519081016040528092919081815260200182805460018160011615610100020316600290048015610b525780601f10610b2757610100808354040283529160200191610b52565b820191906000526020600020905b815481529060010190602001808311610b3557829003601f168201915b5050505050908060040154905085565b600560009054906101000a900473ffffffffffffffffffffffffffffffffffffffff1673ffffffffffffffffffffffffffffffffffffffff163373ffffffffffffffffffffffffffffffffffffffff1614610bbc57600080fd5b6001600760008373ffffffffffffffffffffffffffffffffffffffff1673ffffffffffffffffffffffffffffffffffffffff16815260200190815260200160002060006101000a81548160ff02191690831515021790555050565b606060066000838152602001908152602001600020600601805480602002602001604051908101604052809291908181526020016000905b82821015610e7b57838290600052602060002090600502016040518060a001604052908160008201548152602001600182018054600181600116156101000203166002900480601f016020809104026020016040519081016040528092919081815260200182805460018160011615610100020316600290048015610d155780601f10610cea57610100808354040283529160200191610d15565b820191906000526020600020905b815481529060010190602001808311610cf857829003601f168201915b50505050508152602001600282018054600181600116156101000203166002900480601f016020809104026020016040519081016040528092919081815260200182805460018160011615610100020316600290048015610db75780601f10610d8c57610100808354040283529160200191610db7565b820191906000526020600020905b815481529060010190602001808311610d9a57829003601f168201915b50505050508152602001600382018054600181600116156101000203166002900480601f016020809104026020016040519081016040528092919081815260200182805460018160011615610100020316600290048015610e595780601f10610e2e57610100808354040283529160200191610e59565b820191906000526020600020905b815481529060010190602001808311610e3c57829003601f168201915b5050505050815260200160048201548152505081526020019060010190610c4f565b505050509050919050565b6006602052806000526040600020600091509050806000015490806001018054600181600116156101000203166002900480601f016020809104026020016040519081016040528092919081815260200182805460018160011615610100020316600290048015610f385780601f10610f0d57610100808354040283529160200191610f38565b820191906000526020600020905b815481529060010190602001808311610f1b57829003601f168201915b505050505090806002018054600181600116156101000203166002900480601f016020809104026020016040519081016040528092919081815260200182805460018160011615610100020316600290048015610fd65780601f10610fab57610100808354040283529160200191610fd6565b820191906000526020600020905b815481529060010190602001808311610fb957829003601f168201915b5050505050908060030154908060040154908060050154905086565b600560009054906101000a900473ffffffffffffffffffffffffffffffffffffffff1673ffffffffffffffffffffffffffffffffffffffff163373ffffffffffffffffffffffffffffffffffffffff161461104c57600080fd5b60036000815480929190600101919050555061106661166f565b6040518060a00160405280600081526020016040518060400160405280600f81526020017f4e6f7420412043616e646964617465000000000000000000000000000000000081525081526020016040518060400160405280600f81526020017f4e6f7420412043616e646964617465000000000000000000000000000000000081525081526020016040518060400160405280600f81526020017f4e6f7420412043616e64696461746500000000000000000000000000000000008152508152602001600081525090506003546006600060035481526020019081526020016000206000018190555084600660006003548152602001908152602001600020600101908051906020019061117b92919061171e565b508360066000600354815260200190815260200160002060020190805190602001906111a892919061171e565b50826006600060035481526020019081526020016000206003018190555081600660006003548152602001908152602001600020600401819055504260066000600354815260200190815260200160002060050181905550600660006003548152602001908152602001600020600601819080600181540180825580915050906001820390600052602060002090600502016000909192909190915060008201518160000155602082015181600101908051906020019061126a92919061169e565b50604082015181600201908051906020019061128792919061169e565b5060608201518160030190805190602001906112a492919061169e565b50608082015181600401555050507ffd961357c64af9a29e50fd9a208bcedd0f78ca1d78c467d5f0ffd9be5233a4f76003548686868642876040516112ef9796959493929190611df3565b60405180910390a15050505050565b60035481565b60025481565b60076020528060005260406000206000915054906101000a900460ff1681565b60045481565b60008054600181600116156101000203166002900480601f0160208091040260200160405190810160405280929190818152602001828054600181600116156101000203166002900480156113c65780601f1061139b576101008083540402835291602001916113c6565b820191906000526020600020905b8154815290600101906020018083116113a957829003601f168201915b505050505081565b60018054600181600116156101000203166002900480601f0160208091040260200160405190810160405280929190818152602001828054600181600116156101000203166002900480156114645780601f1061143957610100808354040283529160200191611464565b820191906000526020600020905b81548152906001019060200180831161144757829003601f168201915b505050505081565b600560009054906101000a900473ffffffffffffffffffffffffffffffffffffffff1681565b600760003373ffffffffffffffffffffffffffffffffffffffff1673ffffffffffffffffffffffffffffffffffffffff16815260200190815260200160002060009054906101000a900460ff166114e857600080fd5b600860003373ffffffffffffffffffffffffffffffffffffffff1673ffffffffffffffffffffffffffffffffffffffff16815260200190815260200160002060009054906101000a900460ff161561153f57600080fd5b60008111801561155157506004548111155b61155a57600080fd5b6001600860003373ffffffffffffffffffffffffffffffffffffffff1673ffffffffffffffffffffffffffffffffffffffff16815260200190815260200160002060006101000a81548160ff0219169083151502179055506006600083815260200190815260200160002060060181815481106115d357fe5b9060005260206000209060050201600401600081548092919060010191905055507f8eb81cb806dbb3d8a2f94981614331a55dfd90e06a42fdc362ca3ca96981d92f336001604051611626929190611cbe565b60405180910390a15050565b6040518060e00160405280600081526020016060815260200160608152602001600081526020016000815260200160008152602001606081525090565b6040518060a0016040528060008152602001606081526020016060815260200160608152602001600081525090565b828054600181600116156101000203166002900490600052602060002090601f016020900481019282601f106116df57805160ff191683800117855561170d565b8280016001018555821561170d579182015b8281111561170c5782518255916020019190600101906116f1565b5b50905061171a919061179e565b5090565b828054600181600116156101000203166002900490600052602060002090601f016020900481019282601f1061175f57805160ff191683800117855561178d565b8280016001018555821561178d579182015b8281111561178c578251825591602001919060010190611771565b5b50905061179a919061179e565b5090565b6117c091905b808211156117bc5760008160009055506001016117a4565b5090565b90565b6000813590506117d2816120fb565b92915050565b600082601f8301126117e957600080fd5b81356117fc6117f782611f7b565b611f4e565b9150808252602083016020830185838301111561181857600080fd5b6118238382846120a8565b50505092915050565b60008135905061183b81612112565b92915050565b60006020828403121561185357600080fd5b6000611861848285016117c3565b91505092915050565b6000806000806080858703121561188057600080fd5b600085013567ffffffffffffffff81111561189a57600080fd5b6118a6878288016117d8565b945050602085013567ffffffffffffffff8111156118c357600080fd5b6118cf878288016117d8565b93505060406118e08782880161182c565b92505060606118f18782880161182c565b91505092959194509250565b60006020828403121561190f57600080fd5b600061191d8482850161182c565b91505092915050565b6000806000806080858703121561193c57600080fd5b600061194a8782880161182c565b945050602085013567ffffffffffffffff81111561196757600080fd5b611973878288016117d8565b935050604085013567ffffffffffffffff81111561199057600080fd5b61199c878288016117d8565b925050606085013567ffffffffffffffff8111156119b957600080fd5b6119c5878288016117d8565b91505092959194509250565b600080604083850312156119e457600080fd5b60006119f28582860161182c565b9250506020611a038582860161182c565b9150509250929050565b6000611a198383611c01565b905092915050565b611a2a81612060565b82525050565b611a3981612018565b82525050565b6000611a4a82611fb7565b611a548185611fe5565b935083602082028501611a6685611fa7565b8060005b85811015611aa25784840389528151611a838582611a0d565b9450611a8e83611fd8565b925060208a01995050600181019050611a6a565b50829750879550505050505092915050565b611abd8161202a565b82525050565b611acc81612072565b82525050565b6000611add82611fcd565b611ae78185612007565b9350611af78185602086016120b7565b611b00816120ea565b840191505092915050565b6000611b1682611fc2565b611b208185611ff6565b9350611b308185602086016120b7565b611b39816120ea565b840191505092915050565b6000611b4f82611fc2565b611b598185612007565b9350611b698185602086016120b7565b611b72816120ea565b840191505092915050565b600060a083016000830151611b956000860182611c85565b5060208301518482036020860152611bad8282611b0b565b91505060408301518482036040860152611bc78282611b0b565b91505060608301518482036060860152611be18282611b0b565b9150506080830151611bf66080860182611c85565b508091505092915050565b600060a083016000830151611c196000860182611c85565b5060208301518482036020860152611c318282611b0b565b91505060408301518482036040860152611c4b8282611b0b565b91505060608301518482036060860152611c658282611b0b565b9150506080830151611c7a6080860182611c85565b508091505092915050565b611c8e81612056565b82525050565b611c9d81612056565b82525050565b6000602082019050611cb86000830184611a30565b92915050565b6000604082019050611cd36000830185611a21565b611ce06020830184611ab4565b9392505050565b60006020820190508181036000830152611d018184611a3f565b905092915050565b6000602082019050611d1e6000830184611ab4565b92915050565b60006020820190508181036000830152611d3e8184611b44565b905092915050565b600060e0820190508181036000830152611d60818a611b44565b90508181036020830152611d748189611b44565b9050611d836040830188611c94565b8181036060830152611d958187611ad2565b90508181036080830152611da98186611ad2565b905081810360a0830152611dbd8185611ad2565b9050611dcc60c0830184611ac3565b98975050505050505050565b6000602082019050611ded6000830184611c94565b92915050565b600060e082019050611e08600083018a611c94565b8181036020830152611e1a8189611ad2565b90508181036040830152611e2e8188611ad2565b9050611e3d6060830187611c94565b611e4a6080830186611c94565b611e5760a0830185611c94565b81810360c0830152611e698184611b7d565b905098975050505050505050565b600060a082019050611e8c6000830188611c94565b8181036020830152611e9e8187611b44565b90508181036040830152611eb28186611b44565b90508181036060830152611ec68185611b44565b9050611ed56080830184611c94565b9695505050505050565b600060c082019050611ef46000830189611c94565b8181036020830152611f068188611b44565b90508181036040830152611f1a8187611b44565b9050611f296060830186611c94565b611f366080830185611c94565b611f4360a0830184611c94565b979650505050505050565b6000604051905081810181811067ffffffffffffffff82111715611f7157600080fd5b8060405250919050565b600067ffffffffffffffff821115611f9257600080fd5b601f19601f8301169050602081019050919050565b6000819050602082019050919050565b600081519050919050565b600081519050919050565b600081519050919050565b6000602082019050919050565b600082825260208201905092915050565b600082825260208201905092915050565b600082825260208201905092915050565b600061202382612036565b9050919050565b60008115159050919050565b600073ffffffffffffffffffffffffffffffffffffffff82169050919050565b6000819050919050565b600061206b82612084565b9050919050565b600061207d82612056565b9050919050565b600061208f82612096565b9050919050565b60006120a182612036565b9050919050565b82818337600083830152505050565b60005b838110156120d55780820151818401526020810190506120ba565b838111156120e4576000848401525b50505050565b6000601f19601f8301169050919050565b61210481612018565b811461210f57600080fd5b50565b61211b81612056565b811461212657600080fd5b5056fea365627a7a7231582043390d359620d0aba0268ea59ad876e00c58cfa09b04e1f4668832db1e7ee4cd6c6578706572696d656e74616cf564736f6c634300050c004040476f6f646e657373457a656f6b61666f7220616e642040456d6d616e75656c556d6568",
  "source": "pragma solidity ^0.5.0;\npragma experimental ABIEncoderV2;\n\n\ncontract Voting{\n    string public dapp_name=\"UniVote\";  // name of dapp\n    string public dapp_developer=\"@GoodnessEzeokafor and @EmmanuelUmeh\"; // smart contract developer\n    uint public electionEndTime; // electionENdTIme\n    uint public electionCount; //total number of election\n    uint public candidateCount; // totalnumber of candidates\n    address public electionAuthority;  // election creator\n    mapping(uint => Election) public elections;  //GET ELECTION LIST\n    // mapping (uint => Candidate) public candidates; // Candidate ID to number of votes\n    mapping (address => bool) public voters; // Registered voters\n    mapping (address => bool) public hasVoted; // If a registered voter has voted or not\n    Candidate[] public candidates;\n    /* MODIFIERS */\n        // Modifiers\n\n    // Ensures only owners can call a function\n    modifier only_election_authority() {\n        if (msg.sender != electionAuthority) revert();\n        _;\n    }\n\n    // // Ensures only registered voters can vote\n     modifier only_registered_voters() {\n        if (!voters[msg.sender]) revert();\n        _;\n    }\n\n    // // Ensures voters can vote just once!!! Their fada\n    modifier vote_only_once() {\n        if (hasVoted[msg.sender]) revert();\n        _;\n    }   \n\n    // // Only Vote during election time and We make cash\n\n      modifier only_during_election_time() {\n        if (electionEndTime == 0 || electionEndTime > block.timestamp) revert();\n        _;\n    }\n    constructor() public {\n        electionAuthority = msg.sender;\n    }\n\n\n    /*  CANDIDATE STRUCT */\n    struct Candidate {\n        uint id;\n        string name;\n        string department;\n        string level;\n        uint voteCount;\n    }\n    /* END CANDIDATE STRUCT */\n\n\n    /*  ELECTION STRUCT */\n    struct Election{\n        uint id;\n        string name_of_election;\n        string description_of_election;\n        uint duration; // in minutes\n        uint startTime; // \n        uint timestamp; \n        // mapping (uint => Candidate)  candidates; // Candidate ID to number of votes\n        Candidate[] candidates;\n    }\n    /* END ELECTION STRUCT */\n\n\n    event NewElection(\n        uint id,\n        string name_of_election,\n        string description_of_election,\n        uint duration,\n        uint startTime,\n        uint timestamp,\n        Candidate candidates // Candidate ID to number of votes\n    );\n\n    event NewCandidate(\n        string election_name,\n        string election_description,\n        uint id,\n        string name,\n        string department,\n        string level,\n        uint voteCount\n    );\n\n    event Voted(\n        address voter,\n        bool voted\n    );\n\n\n\n\n    // methods\n\n    function createElection(\n                string memory _name_of_election, \n                string memory  _description_of_election,\n                 uint _duration,\n                 uint _startTime\n                 ) public only_election_authority {\n        \n        electionCount ++;\n        Candidate memory new_candidate = Candidate(0,\"Not A Candidate\",\"Not A Candidate\", \"Not A Candidate\",0);\n        elections[electionCount].id = electionCount;\n        elections[electionCount].name_of_election = _name_of_election;\n        elections[electionCount].description_of_election = _description_of_election;\n        elections[electionCount].duration = _duration;\n        elections[electionCount].startTime = _startTime;\n        elections[electionCount].timestamp = now;\n        elections[electionCount].candidates.push(new_candidate);\n        emit NewElection(\n            electionCount,\n            _name_of_election,\n            _description_of_election,\n            _duration,\n            _startTime,\n            now,\n            new_candidate        \n        );\n    }\n\n\n    function createCandidate(\n                            uint _id,\n                            string memory  _name,\n                            string memory _department,\n                            string memory  _level\n                            ) public only_election_authority{\n        Election memory e = elections[_id];\n        candidateCount++;\n        Candidate memory new_candidate = Candidate(candidateCount,_name,_department,_level, 0);\n        elections[_id].candidates.push(new_candidate);\n        emit NewCandidate(\n                e.name_of_election,\n                e.description_of_election,\n                candidateCount,\n                _name,\n                _department,\n                _level, 0);\n    }\n\n// Register a voter for when we using the UJ API to register voters\n    function register_voter(address addr) public only_election_authority{\n        voters[addr] = true;\n    }\n\n      function start_election(uint duration) public only_election_authority{\n        electionEndTime =   block.timestamp + duration;\n    }\n  \n\n      function voteCandidate(uint _electionId, uint _candidateId) public only_registered_voters\n\n        // Remember to check why time fails in tests!!\n        // only_during_election_time\n        vote_only_once\n        {\n        // // require that they haven't voted before\n        // require(!voters[msg.sender]);\n\n            // Ensures the candidate exists\n        require(_candidateId > 0 && _candidateId <= candidateCount);\n\n        // record that voter has voted\n        hasVoted[msg.sender] = true;\n\n        // update candidate vote Count\n        elections[_electionId].candidates[_candidateId].voteCount ++;\n\n        emit Voted(msg.sender,true);\n    }\n\n    function getElectionCandidates(uint _id) public view returns(Candidate[] memory){\n        return elections[_id].candidates;\n    }\n\n}\n\n\n\n    ",
  "sourcePath": "/home/goodness/Development/ethereum/UniVote/client/src/contracts/Voting.sol",
  "compiler": {
    "name": "solc",
    "version": "0.5.12+commit.7709ece9.Emscripten.clang"
  },
  "schemaVersion": "3.0.19",
  "updatedAt": "2020-01-04T21:01:58.484Z",
  "networkType": "ethereum",
  "devdoc": {
    "methods": {}
  },
  "userdoc": {
    "methods": {}
  }
}