{
  "contractName": "Voting",
  "abi": [
    {
      "constant": true,
      "inputs": [
        {
          "name": "",
          "type": "address"
        }
      ],
      "name": "hasVoted",
      "outputs": [
        {
          "name": "",
          "type": "bool"
        }
      ],
      "payable": false,
      "stateMutability": "view",
      "type": "function",
      "signature": "0x09eef43e"
    },
    {
      "constant": true,
      "inputs": [
        {
          "name": "",
          "type": "uint256"
        }
      ],
      "name": "candidates",
      "outputs": [
        {
          "name": "id",
          "type": "uint256"
        },
        {
          "name": "name",
          "type": "string"
        },
        {
          "name": "department",
          "type": "string"
        },
        {
          "name": "level",
          "type": "string"
        },
        {
          "name": "post",
          "type": "string"
        },
        {
          "name": "voteCount",
          "type": "uint256"
        }
      ],
      "payable": false,
      "stateMutability": "view",
      "type": "function",
      "signature": "0x3477ee2e"
    },
    {
      "constant": true,
      "inputs": [
        {
          "name": "",
          "type": "uint256"
        }
      ],
      "name": "elections",
      "outputs": [
        {
          "name": "id",
          "type": "uint256"
        },
        {
          "name": "name_of_election",
          "type": "string"
        },
        {
          "name": "description_of_election",
          "type": "string"
        },
        {
          "name": "duration",
          "type": "uint256"
        },
        {
          "name": "startTime",
          "type": "uint256"
        },
        {
          "name": "timestamp",
          "type": "uint256"
        }
      ],
      "payable": false,
      "stateMutability": "view",
      "type": "function",
      "signature": "0x5e6fef01"
    },
    {
      "constant": true,
      "inputs": [],
      "name": "electionCount",
      "outputs": [
        {
          "name": "",
          "type": "uint256"
        }
      ],
      "payable": false,
      "stateMutability": "view",
      "type": "function",
      "signature": "0x997d2830"
    },
    {
      "constant": true,
      "inputs": [],
      "name": "electionEndTime",
      "outputs": [
        {
          "name": "",
          "type": "uint256"
        }
      ],
      "payable": false,
      "stateMutability": "view",
      "type": "function",
      "signature": "0x9e136e64"
    },
    {
      "constant": true,
      "inputs": [
        {
          "name": "",
          "type": "address"
        }
      ],
      "name": "voters",
      "outputs": [
        {
          "name": "",
          "type": "bool"
        }
      ],
      "payable": false,
      "stateMutability": "view",
      "type": "function",
      "signature": "0xa3ec138d"
    },
    {
      "constant": true,
      "inputs": [],
      "name": "candidateCount",
      "outputs": [
        {
          "name": "",
          "type": "uint256"
        }
      ],
      "payable": false,
      "stateMutability": "view",
      "type": "function",
      "signature": "0xa9a981a3"
    },
    {
      "constant": true,
      "inputs": [],
      "name": "dapp_name",
      "outputs": [
        {
          "name": "",
          "type": "string"
        }
      ],
      "payable": false,
      "stateMutability": "view",
      "type": "function",
      "signature": "0xb3ea346b"
    },
    {
      "constant": true,
      "inputs": [],
      "name": "dapp_developer",
      "outputs": [
        {
          "name": "",
          "type": "string"
        }
      ],
      "payable": false,
      "stateMutability": "view",
      "type": "function",
      "signature": "0xc9559252"
    },
    {
      "constant": true,
      "inputs": [],
      "name": "electionAuthority",
      "outputs": [
        {
          "name": "",
          "type": "address"
        }
      ],
      "payable": false,
      "stateMutability": "view",
      "type": "function",
      "signature": "0xdc46d6ea"
    },
    {
      "inputs": [],
      "payable": false,
      "stateMutability": "nonpayable",
      "type": "constructor",
      "signature": "constructor"
    },
    {
      "anonymous": false,
      "inputs": [
        {
          "indexed": false,
          "name": "id",
          "type": "uint256"
        },
        {
          "indexed": false,
          "name": "name_of_election",
          "type": "string"
        },
        {
          "indexed": false,
          "name": "description_of_election",
          "type": "string"
        },
        {
          "indexed": false,
          "name": "duration",
          "type": "uint256"
        },
        {
          "indexed": false,
          "name": "startTime",
          "type": "uint256"
        },
        {
          "indexed": false,
          "name": "timestamp",
          "type": "uint256"
        },
        {
          "components": [
            {
              "name": "id",
              "type": "uint256"
            },
            {
              "name": "name",
              "type": "string"
            },
            {
              "name": "department",
              "type": "string"
            },
            {
              "name": "level",
              "type": "string"
            },
            {
              "name": "post",
              "type": "string"
            },
            {
              "name": "voteCount",
              "type": "uint256"
            }
          ],
          "indexed": false,
          "name": "candidates",
          "type": "tuple"
        }
      ],
      "name": "NewElection",
      "type": "event",
      "signature": "0x780776a1766af02b1720da37bf589d5f618bd826df24386b66c5ba8a670e9469"
    },
    {
      "anonymous": false,
      "inputs": [
        {
          "indexed": false,
          "name": "election_name",
          "type": "string"
        },
        {
          "indexed": false,
          "name": "election_description",
          "type": "string"
        },
        {
          "indexed": false,
          "name": "id",
          "type": "uint256"
        },
        {
          "indexed": false,
          "name": "name",
          "type": "string"
        },
        {
          "indexed": false,
          "name": "department",
          "type": "string"
        },
        {
          "indexed": false,
          "name": "level",
          "type": "string"
        },
        {
          "indexed": false,
          "name": "voteCount",
          "type": "uint256"
        }
      ],
      "name": "NewCandidate",
      "type": "event",
      "signature": "0x24107f57307d59c1340861409bb1693828565458d05804c1040dfd8f9dd9eb19"
    },
    {
      "anonymous": false,
      "inputs": [
        {
          "indexed": false,
          "name": "voter",
          "type": "address"
        },
        {
          "indexed": false,
          "name": "voted",
          "type": "bool"
        }
      ],
      "name": "Voted",
      "type": "event",
      "signature": "0x8eb81cb806dbb3d8a2f94981614331a55dfd90e06a42fdc362ca3ca96981d92f"
    },
    {
      "constant": false,
      "inputs": [
        {
          "name": "_name_of_election",
          "type": "string"
        },
        {
          "name": "_description_of_election",
          "type": "string"
        },
        {
          "name": "_duration",
          "type": "uint256"
        },
        {
          "name": "_startTime",
          "type": "uint256"
        }
      ],
      "name": "createElection",
      "outputs": [],
      "payable": false,
      "stateMutability": "nonpayable",
      "type": "function",
      "signature": "0x7ad36e84"
    },
    {
      "constant": false,
      "inputs": [
        {
          "name": "_id",
          "type": "uint256"
        },
        {
          "name": "_name",
          "type": "string"
        },
        {
          "name": "_department",
          "type": "string"
        },
        {
          "name": "_level",
          "type": "string"
        },
        {
          "name": "_post",
          "type": "string"
        }
      ],
      "name": "createCandidate",
      "outputs": [],
      "payable": false,
      "stateMutability": "nonpayable",
      "type": "function",
      "signature": "0xf2504a6a"
    },
    {
      "constant": false,
      "inputs": [
        {
          "name": "addr",
          "type": "address"
        }
      ],
      "name": "register_voter",
      "outputs": [],
      "payable": false,
      "stateMutability": "nonpayable",
      "type": "function",
      "signature": "0x4f2c51b9"
    },
    {
      "constant": false,
      "inputs": [
        {
          "name": "duration",
          "type": "uint256"
        }
      ],
      "name": "start_election",
      "outputs": [],
      "payable": false,
      "stateMutability": "nonpayable",
      "type": "function",
      "signature": "0x2de096ff"
    },
    {
      "constant": false,
      "inputs": [
        {
          "name": "_electionId",
          "type": "uint256"
        },
        {
          "name": "_candidateId",
          "type": "uint256"
        }
      ],
      "name": "voteCandidate",
      "outputs": [],
      "payable": false,
      "stateMutability": "nonpayable",
      "type": "function",
      "signature": "0xeb1e6270"
    },
    {
      "constant": true,
      "inputs": [
        {
          "name": "_id",
          "type": "uint256"
        }
      ],
      "name": "getElectionCandidates",
      "outputs": [
        {
          "name": "",
          "type": "string"
        },
        {
          "name": "",
          "type": "string"
        },
        {
          "components": [
            {
              "name": "id",
              "type": "uint256"
            },
            {
              "name": "name",
              "type": "string"
            },
            {
              "name": "department",
              "type": "string"
            },
            {
              "name": "level",
              "type": "string"
            },
            {
              "name": "post",
              "type": "string"
            },
            {
              "name": "voteCount",
              "type": "uint256"
            }
          ],
          "name": "",
          "type": "tuple[]"
        }
      ],
      "payable": false,
      "stateMutability": "view",
      "type": "function",
      "signature": "0x5e12845e"
    }
  ],
  "bytecode": "0x60806040526040805190810160405280600781526020017f556e69566f74650000000000000000000000000000000000000000000000000081525060009080519060200190620000519291906200011c565b50606060405190810160405280602481526020017f40476f6f646e657373457a656f6b61666f7220616e642040456d6d616e75656c81526020017f556d65680000000000000000000000000000000000000000000000000000000081525060019080519060200190620000c69291906200011c565b50348015620000d457600080fd5b5033600560006101000a81548173ffffffffffffffffffffffffffffffffffffffff021916908373ffffffffffffffffffffffffffffffffffffffff160217905550620001cb565b828054600181600116156101000203166002900490600052602060002090601f016020900481019282601f106200015f57805160ff191683800117855562000190565b8280016001018555821562000190579182015b828111156200018f57825182559160200191906001019062000172565b5b5090506200019f9190620001a3565b5090565b620001c891905b80821115620001c4576000816000905550600101620001aa565b5090565b90565b6126df80620001db6000396000f3fe6080604052600436106100e6576000357c0100000000000000000000000000000000000000000000000000000000900463ffffffff16806309eef43e146100eb5780632de096ff146101285780633477ee2e146101515780634f2c51b9146101935780635e12845e146101bc5780635e6fef01146101fb5780637ad36e841461023d578063997d2830146102665780639e136e6414610291578063a3ec138d146102bc578063a9a981a3146102f9578063b3ea346b14610324578063c95592521461034f578063dc46d6ea1461037a578063eb1e6270146103a5578063f2504a6a146103ce575b600080fd5b3480156100f757600080fd5b50610112600480360361010d9190810190611dcf565b6103f7565b60405161011f919061226c565b60405180910390f35b34801561013457600080fd5b5061014f600480360361014a9190810190611e8b565b610417565b005b34801561015d57600080fd5b5061017860048036036101739190810190611e8b565b61047f565b60405161018a96959493929190612426565b60405180910390f35b34801561019f57600080fd5b506101ba60048036036101b59190810190611dcf565b61071b565b005b3480156101c857600080fd5b506101e360048036036101de9190810190611e8b565b6107d2565b6040516101f2939291906122a9565b60405180910390f35b34801561020757600080fd5b50610222600480360361021d9190810190611e8b565b610c8e565b604051610234969594939291906124a3565b60405180910390f35b34801561024957600080fd5b50610264600480360361025f9190810190611df8565b610dfa565b005b34801561027257600080fd5b5061027b611161565b6040516102889190612387565b60405180910390f35b34801561029d57600080fd5b506102a6611167565b6040516102b39190612387565b60405180910390f35b3480156102c857600080fd5b506102e360048036036102de9190810190611dcf565b61116d565b6040516102f0919061226c565b60405180910390f35b34801561030557600080fd5b5061030e61118d565b60405161031b9190612387565b60405180910390f35b34801561033057600080fd5b50610339611193565b6040516103469190612287565b60405180910390f35b34801561035b57600080fd5b50610364611231565b6040516103719190612287565b60405180910390f35b34801561038657600080fd5b5061038f6112cf565b60405161039c9190612228565b60405180910390f35b3480156103b157600080fd5b506103cc60048036036103c79190810190611f8b565b6112f5565b005b3480156103da57600080fd5b506103f560048036036103f09190810190611eb4565b6114b8565b005b60086020528060005260406000206000915054906101000a900460ff1681565b600560009054906101000a900473ffffffffffffffffffffffffffffffffffffffff1673ffffffffffffffffffffffffffffffffffffffff163373ffffffffffffffffffffffffffffffffffffffff1614151561047357600080fd5b80420160028190555050565b6009602052806000526040600020600091509050806000015490806001018054600181600116156101000203166002900480601f0160208091040260200160405190810160405280929190818152602001828054600181600116156101000203166002900480156105315780601f1061050657610100808354040283529160200191610531565b820191906000526020600020905b81548152906001019060200180831161051457829003601f168201915b505050505090806002018054600181600116156101000203166002900480601f0160208091040260200160405190810160405280929190818152602001828054600181600116156101000203166002900480156105cf5780601f106105a4576101008083540402835291602001916105cf565b820191906000526020600020905b8154815290600101906020018083116105b257829003601f168201915b505050505090806003018054600181600116156101000203166002900480601f01602080910402602001604051908101604052809291908181526020018280546001816001161561010002031660029004801561066d5780601f106106425761010080835404028352916020019161066d565b820191906000526020600020905b81548152906001019060200180831161065057829003601f168201915b505050505090806004018054600181600116156101000203166002900480601f01602080910402602001604051908101604052809291908181526020018280546001816001161561010002031660029004801561070b5780601f106106e05761010080835404028352916020019161070b565b820191906000526020600020905b8154815290600101906020018083116106ee57829003601f168201915b5050505050908060050154905086565b600560009054906101000a900473ffffffffffffffffffffffffffffffffffffffff1673ffffffffffffffffffffffffffffffffffffffff163373ffffffffffffffffffffffffffffffffffffffff1614151561077757600080fd5b6001600760008373ffffffffffffffffffffffffffffffffffffffff1673ffffffffffffffffffffffffffffffffffffffff16815260200190815260200160002060006101000a81548160ff02191690831515021790555050565b60608060606107df611bb7565b6006600086815260200190815260200160002060e0604051908101604052908160008201548152602001600182018054600181600116156101000203166002900480601f0160208091040260200160405190810160405280929190818152602001828054600181600116156101000203166002900480156108a15780601f10610876576101008083540402835291602001916108a1565b820191906000526020600020905b81548152906001019060200180831161088457829003601f168201915b50505050508152602001600282018054600181600116156101000203166002900480601f0160208091040260200160405190810160405280929190818152602001828054600181600116156101000203166002900480156109435780601f1061091857610100808354040283529160200191610943565b820191906000526020600020905b81548152906001019060200180831161092657829003601f168201915b5050505050815260200160038201548152602001600482015481526020016005820154815260200160068201805480602002602001604051908101604052809291908181526020016000905b82821015610c5e578382906000526020600020906006020160c0604051908101604052908160008201548152602001600182018054600181600116156101000203166002900480601f016020809104026020016040519081016040528092919081815260200182805460018160011615610100020316600290048015610a565780601f10610a2b57610100808354040283529160200191610a56565b820191906000526020600020905b815481529060010190602001808311610a3957829003601f168201915b50505050508152602001600282018054600181600116156101000203166002900480601f016020809104026020016040519081016040528092919081815260200182805460018160011615610100020316600290048015610af85780601f10610acd57610100808354040283529160200191610af8565b820191906000526020600020905b815481529060010190602001808311610adb57829003601f168201915b50505050508152602001600382018054600181600116156101000203166002900480601f016020809104026020016040519081016040528092919081815260200182805460018160011615610100020316600290048015610b9a5780601f10610b6f57610100808354040283529160200191610b9a565b820191906000526020600020905b815481529060010190602001808311610b7d57829003601f168201915b50505050508152602001600482018054600181600116156101000203166002900480601f016020809104026020016040519081016040528092919081815260200182805460018160011615610100020316600290048015610c3c5780601f10610c1157610100808354040283529160200191610c3c565b820191906000526020600020905b815481529060010190602001808311610c1f57829003601f168201915b505050505081526020016005820154815250508152602001906001019061098f565b50505050815250509050806020015181604001518260c00151829250819150809050935093509350509193909250565b6006602052806000526040600020600091509050806000015490806001018054600181600116156101000203166002900480601f016020809104026020016040519081016040528092919081815260200182805460018160011615610100020316600290048015610d405780601f10610d1557610100808354040283529160200191610d40565b820191906000526020600020905b815481529060010190602001808311610d2357829003601f168201915b505050505090806002018054600181600116156101000203166002900480601f016020809104026020016040519081016040528092919081815260200182805460018160011615610100020316600290048015610dde5780601f10610db357610100808354040283529160200191610dde565b820191906000526020600020905b815481529060010190602001808311610dc157829003601f168201915b5050505050908060030154908060040154908060050154905086565b600560009054906101000a900473ffffffffffffffffffffffffffffffffffffffff1673ffffffffffffffffffffffffffffffffffffffff163373ffffffffffffffffffffffffffffffffffffffff16141515610e5657600080fd5b600360008154809291906001019190505550610e70611bf5565b60c060405190810160405280600081526020016040805190810160405280600f81526020017f4e6f7420412043616e646964617465000000000000000000000000000000000081525081526020016040805190810160405280600f81526020017f4e6f7420412043616e646964617465000000000000000000000000000000000081525081526020016040805190810160405280600f81526020017f4e6f7420412043616e646964617465000000000000000000000000000000000081525081526020016040805190810160405280600f81526020017f4e4f5420412043414e444944415445000000000000000000000000000000000081525081526020016000815250905060035460066000600354815260200190815260200160002060000181905550846006600060035481526020019081526020016000206001019080519060200190610fc1929190611c2c565b50836006600060035481526020019081526020016000206002019080519060200190610fee929190611c2c565b5082600660006003548152602001908152602001600020600301819055508160066000600354815260200190815260200160002060040181905550426006600060035481526020019081526020016000206005018190555060066000600354815260200190815260200160002060060181908060018154018082558091505090600182039060005260206000209060060201600090919290919091506000820151816000015560208201518160010190805190602001906110b0929190611cac565b5060408201518160020190805190602001906110cd929190611cac565b5060608201518160030190805190602001906110ea929190611cac565b506080820151816004019080519060200190611107929190611cac565b5060a082015181600501555050507f780776a1766af02b1720da37bf589d5f618bd826df24386b66c5ba8a670e946960035486868686428760405161115297969594939291906123a2565b60405180910390a15050505050565b60035481565b60025481565b60076020528060005260406000206000915054906101000a900460ff1681565b60045481565b60008054600181600116156101000203166002900480601f0160208091040260200160405190810160405280929190818152602001828054600181600116156101000203166002900480156112295780601f106111fe57610100808354040283529160200191611229565b820191906000526020600020905b81548152906001019060200180831161120c57829003601f168201915b505050505081565b60018054600181600116156101000203166002900480601f0160208091040260200160405190810160405280929190818152602001828054600181600116156101000203166002900480156112c75780601f1061129c576101008083540402835291602001916112c7565b820191906000526020600020905b8154815290600101906020018083116112aa57829003601f168201915b505050505081565b600560009054906101000a900473ffffffffffffffffffffffffffffffffffffffff1681565b600760003373ffffffffffffffffffffffffffffffffffffffff1673ffffffffffffffffffffffffffffffffffffffff16815260200190815260200160002060009054906101000a900460ff16151561134d57600080fd5b600860003373ffffffffffffffffffffffffffffffffffffffff1673ffffffffffffffffffffffffffffffffffffffff16815260200190815260200160002060009054906101000a900460ff16156113a457600080fd5b6000811180156113b657506004548111155b15156113c157600080fd5b6000821180156113d357506003548211155b15156113de57600080fd5b6001600860003373ffffffffffffffffffffffffffffffffffffffff1673ffffffffffffffffffffffffffffffffffffffff16815260200190815260200160002060006101000a81548160ff021916908315150217905550600660008381526020019081526020016000206006018181548110151561145957fe5b9060005260206000209060060201600501600081548092919060010191905055507f8eb81cb806dbb3d8a2f94981614331a55dfd90e06a42fdc362ca3ca96981d92f3360016040516114ac929190612243565b60405180910390a15050565b600560009054906101000a900473ffffffffffffffffffffffffffffffffffffffff1673ffffffffffffffffffffffffffffffffffffffff163373ffffffffffffffffffffffffffffffffffffffff1614151561151457600080fd5b61151c611bb7565b6006600087815260200190815260200160002060e0604051908101604052908160008201548152602001600182018054600181600116156101000203166002900480601f0160208091040260200160405190810160405280929190818152602001828054600181600116156101000203166002900480156115de5780601f106115b3576101008083540402835291602001916115de565b820191906000526020600020905b8154815290600101906020018083116115c157829003601f168201915b50505050508152602001600282018054600181600116156101000203166002900480601f0160208091040260200160405190810160405280929190818152602001828054600181600116156101000203166002900480156116805780601f1061165557610100808354040283529160200191611680565b820191906000526020600020905b81548152906001019060200180831161166357829003601f168201915b5050505050815260200160038201548152602001600482015481526020016005820154815260200160068201805480602002602001604051908101604052809291908181526020016000905b8282101561199b578382906000526020600020906006020160c0604051908101604052908160008201548152602001600182018054600181600116156101000203166002900480601f0160208091040260200160405190810160405280929190818152602001828054600181600116156101000203166002900480156117935780601f1061176857610100808354040283529160200191611793565b820191906000526020600020905b81548152906001019060200180831161177657829003601f168201915b50505050508152602001600282018054600181600116156101000203166002900480601f0160208091040260200160405190810160405280929190818152602001828054600181600116156101000203166002900480156118355780601f1061180a57610100808354040283529160200191611835565b820191906000526020600020905b81548152906001019060200180831161181857829003601f168201915b50505050508152602001600382018054600181600116156101000203166002900480601f0160208091040260200160405190810160405280929190818152602001828054600181600116156101000203166002900480156118d75780601f106118ac576101008083540402835291602001916118d7565b820191906000526020600020905b8154815290600101906020018083116118ba57829003601f168201915b50505050508152602001600482018054600181600116156101000203166002900480601f0160208091040260200160405190810160405280929190818152602001828054600181600116156101000203166002900480156119795780601f1061194e57610100808354040283529160200191611979565b820191906000526020600020905b81548152906001019060200180831161195c57829003601f168201915b50505050508152602001600582015481525050815260200190600101906116cc565b505050508152505090506004600081548092919060010191905055506119bf611bf5565b60c060405190810160405280600454815260200187815260200186815260200185815260200184815260200160008152509050600660008881526020019081526020016000206006018190806001815401808255809150509060018203906000526020600020906006020160009091929091909150600082015181600001556020820151816001019080519060200190611a5a929190611cac565b506040820151816002019080519060200190611a77929190611cac565b506060820151816003019080519060200190611a94929190611cac565b506080820151816004019080519060200190611ab1929190611cac565b5060a0820151816005015550505080600960006004548152602001908152602001600020600082015181600001556020820151816001019080519060200190611afb929190611cac565b506040820151816002019080519060200190611b18929190611cac565b506060820151816003019080519060200190611b35929190611cac565b506080820151816004019080519060200190611b52929190611cac565b5060a082015181600501559050507f24107f57307d59c1340861409bb1693828565458d05804c1040dfd8f9dd9eb19826020015183604001516004548989896000604051611ba697969594939291906122f5565b60405180910390a150505050505050565b60e060405190810160405280600081526020016060815260200160608152602001600081526020016000815260200160008152602001606081525090565b60c0604051908101604052806000815260200160608152602001606081526020016060815260200160608152602001600081525090565b828054600181600116156101000203166002900490600052602060002090601f016020900481019282601f10611c6d57805160ff1916838001178555611c9b565b82800160010185558215611c9b579182015b82811115611c9a578251825591602001919060010190611c7f565b5b509050611ca89190611d2c565b5090565b828054600181600116156101000203166002900490600052602060002090601f016020900481019282601f10611ced57805160ff1916838001178555611d1b565b82800160010185558215611d1b579182015b82811115611d1a578251825591602001919060010190611cff565b5b509050611d289190611d2c565b5090565b611d4e91905b80821115611d4a576000816000905550600101611d32565b5090565b90565b6000611d5d82356125ee565b905092915050565b600082601f8301121515611d7857600080fd5b8135611d8b611d868261253f565b612512565b91508082526020830160208301858383011115611da757600080fd5b611db2838284612652565b50505092915050565b6000611dc78235612600565b905092915050565b600060208284031215611de157600080fd5b6000611def84828501611d51565b91505092915050565b60008060008060808587031215611e0e57600080fd5b600085013567ffffffffffffffff811115611e2857600080fd5b611e3487828801611d65565b945050602085013567ffffffffffffffff811115611e5157600080fd5b611e5d87828801611d65565b9350506040611e6e87828801611dbb565b9250506060611e7f87828801611dbb565b91505092959194509250565b600060208284031215611e9d57600080fd5b6000611eab84828501611dbb565b91505092915050565b600080600080600060a08688031215611ecc57600080fd5b6000611eda88828901611dbb565b955050602086013567ffffffffffffffff811115611ef757600080fd5b611f0388828901611d65565b945050604086013567ffffffffffffffff811115611f2057600080fd5b611f2c88828901611d65565b935050606086013567ffffffffffffffff811115611f4957600080fd5b611f5588828901611d65565b925050608086013567ffffffffffffffff811115611f7257600080fd5b611f7e88828901611d65565b9150509295509295909350565b60008060408385031215611f9e57600080fd5b6000611fac85828601611dbb565b9250506020611fbd85828601611dbb565b9150509250929050565b611fd08161260a565b82525050565b611fdf816125a6565b82525050565b6000611ff082612578565b808452602084019350836020820285016120098561256b565b60005b8481101561204257838303885261202483835161217b565b925061202f82612599565b915060208801975060018101905061200c565b508196508694505050505092915050565b61205c816125b8565b82525050565b61206b8161261c565b82525050565b600061207c8261258e565b808452612090816020860160208601612661565b61209981612694565b602085010191505092915050565b60006120b282612583565b8084526120c6816020860160208601612661565b6120cf81612694565b602085010191505092915050565b600060c0830160008301516120f56000860182612219565b506020830151848203602086015261210d82826120a7565b9150506040830151848203604086015261212782826120a7565b9150506060830151848203606086015261214182826120a7565b9150506080830151848203608086015261215b82826120a7565b91505060a083015161217060a0860182612219565b508091505092915050565b600060c0830160008301516121936000860182612219565b50602083015184820360208601526121ab82826120a7565b915050604083015184820360408601526121c582826120a7565b915050606083015184820360608601526121df82826120a7565b915050608083015184820360808601526121f982826120a7565b91505060a083015161220e60a0860182612219565b508091505092915050565b612222816125e4565b82525050565b600060208201905061223d6000830184611fd6565b92915050565b60006040820190506122586000830185611fc7565b6122656020830184612053565b9392505050565b60006020820190506122816000830184612053565b92915050565b600060208201905081810360008301526122a181846120a7565b905092915050565b600060608201905081810360008301526122c38186612071565b905081810360208301526122d78185612071565b905081810360408301526122eb8184611fe5565b9050949350505050565b600060e082019050818103600083015261230f818a6120a7565b9050818103602083015261232381896120a7565b90506123326040830188612219565b81810360608301526123448187612071565b905081810360808301526123588186612071565b905081810360a083015261236c8185612071565b905061237b60c0830184612062565b98975050505050505050565b600060208201905061239c6000830184612219565b92915050565b600060e0820190506123b7600083018a612219565b81810360208301526123c98189612071565b905081810360408301526123dd8188612071565b90506123ec6060830187612219565b6123f96080830186612219565b61240660a0830185612219565b81810360c083015261241881846120dd565b905098975050505050505050565b600060c08201905061243b6000830189612219565b818103602083015261244d81886120a7565b9050818103604083015261246181876120a7565b9050818103606083015261247581866120a7565b9050818103608083015261248981856120a7565b905061249860a0830184612219565b979650505050505050565b600060c0820190506124b86000830189612219565b81810360208301526124ca81886120a7565b905081810360408301526124de81876120a7565b90506124ed6060830186612219565b6124fa6080830185612219565b61250760a0830184612219565b979650505050505050565b6000604051905081810181811067ffffffffffffffff8211171561253557600080fd5b8060405250919050565b600067ffffffffffffffff82111561255657600080fd5b601f19601f8301169050602081019050919050565b6000602082019050919050565b600081519050919050565b600081519050919050565b600081519050919050565b6000602082019050919050565b60006125b1826125c4565b9050919050565b60008115159050919050565b600073ffffffffffffffffffffffffffffffffffffffff82169050919050565b6000819050919050565b60006125f9826125c4565b9050919050565b6000819050919050565b60006126158261262e565b9050919050565b6000612627826125e4565b9050919050565b600061263982612640565b9050919050565b600061264b826125c4565b9050919050565b82818337600083830152505050565b60005b8381101561267f578082015181840152602081019050612664565b8381111561268e576000848401525b50505050565b6000601f19601f830116905091905056fea265627a7a72305820b24ebe899a07b89edf92167cbbba81e7a388bc5f0c7c7031cd99c6835ba284bd6c6578706572696d656e74616cf50037",
  "source": "pragma solidity ^0.5.0;\r\npragma experimental ABIEncoderV2;\r\n\r\n\r\ncontract Voting{\r\n    string public dapp_name=\"UniVote\";  // name of dapp\r\n    string public dapp_developer=\"@GoodnessEzeokafor and @EmmanuelUmeh\"; // smart contract developer\r\n    uint public electionEndTime; // electionENdTIme\r\n    uint public electionCount; //total number of election\r\n    uint public candidateCount; // totalnumber of candidates\r\n    address public electionAuthority;  // election creator\r\n    mapping(uint => Election) public elections;  //GET ELECTION LIST\r\n    // mapping (uint => Candidate) public candidates; // Candidate ID to number of votes\r\n    mapping (address => bool) public voters; // Registered voters\r\n    mapping (address => bool) public hasVoted; // If a registered voter has voted or not\r\n    mapping(uint => Candidate) public candidates;  //GET ELECTION LIST\r\n\r\n    // Candidate[] public candidates;\r\n    /* MODIFIERS */\r\n        // Modifiers\r\n\r\n    // Ensures only owners can call a function\r\n    modifier only_election_authority() {\r\n        if (msg.sender != electionAuthority) revert();\r\n        _;\r\n    }\r\n\r\n    // // Ensures only registered voters can vote\r\n     modifier only_registered_voters() {\r\n        if (!voters[msg.sender]) revert();\r\n        _;\r\n    }\r\n\r\n    // // Ensures voters can vote just once!!! Their fada\r\n    modifier vote_only_once() {\r\n        if (hasVoted[msg.sender]) revert();\r\n        _;\r\n    }   \r\n\r\n    // // Only Vote during election time and We make cash\r\n\r\n      modifier only_during_election_time() {\r\n        if (electionEndTime == 0 || electionEndTime > block.timestamp) revert();\r\n        _;\r\n    }\r\n    constructor() public {\r\n        electionAuthority = msg.sender;\r\n    }\r\n\r\n\r\n    /*  CANDIDATE STRUCT */\r\n    struct Candidate {\r\n        uint id;\r\n        string name;\r\n        string department;\r\n        string level;\r\n        string post;\r\n        uint voteCount;\r\n    }\r\n    /* END CANDIDATE STRUCT */\r\n\r\n\r\n    /*  ELECTION STRUCT */\r\n    struct Election{\r\n        uint id;\r\n        string name_of_election;\r\n        string description_of_election;\r\n        uint duration; // in minutes\r\n        uint startTime; // \r\n        uint timestamp; \r\n        // mapping (uint => Candidate)  candidates; // Candidate ID to number of votes\r\n        Candidate[] candidates;\r\n    }\r\n    /* END ELECTION STRUCT */\r\n\r\n\r\n    event NewElection(\r\n        uint id,\r\n        string name_of_election,\r\n        string description_of_election,\r\n        uint duration,\r\n        uint startTime,\r\n        uint timestamp,\r\n        Candidate candidates // Candidate ID to number of votes\r\n    );\r\n\r\n    event NewCandidate(\r\n        string election_name,\r\n        string election_description,\r\n        uint id,\r\n        string name,\r\n        string department,\r\n        string level,\r\n        uint voteCount\r\n    );\r\n\r\n    event Voted(\r\n        address voter,\r\n        bool voted\r\n    );\r\n\r\n\r\n\r\n\r\n    // methods\r\n\r\n    function createElection(\r\n                string memory _name_of_election, \r\n                string memory  _description_of_election,\r\n                 uint _duration,\r\n                 uint _startTime\r\n                 ) public only_election_authority {\r\n        \r\n        electionCount ++;\r\n        Candidate memory new_candidate = Candidate(0,\"Not A Candidate\",\"Not A Candidate\", \"Not A Candidate\",\"NOT A CANDIDATE\",0);\r\n        elections[electionCount].id = electionCount;\r\n        elections[electionCount].name_of_election = _name_of_election;\r\n        elections[electionCount].description_of_election = _description_of_election;\r\n        elections[electionCount].duration = _duration;\r\n        elections[electionCount].startTime = _startTime;\r\n        elections[electionCount].timestamp = now;\r\n        elections[electionCount].candidates.push(new_candidate);\r\n        emit NewElection(\r\n            electionCount,\r\n            _name_of_election,\r\n            _description_of_election,\r\n            _duration,\r\n            _startTime,\r\n            now,\r\n            new_candidate        \r\n        );\r\n    }\r\n\r\n\r\n    function createCandidate(\r\n                            uint _id,\r\n                            string memory  _name,\r\n                            string memory _department,\r\n                            string memory  _level,\r\n                            string memory _post\r\n                            ) public only_election_authority{\r\n        Election memory e = elections[_id];\r\n        candidateCount++;\r\n        Candidate memory new_candidate = Candidate(candidateCount,_name,_department,_level,_post, 0);\r\n        elections[_id].candidates.push(new_candidate);\r\n        candidates[candidateCount] = new_candidate;\r\n        emit NewCandidate(\r\n                e.name_of_election,\r\n                e.description_of_election,\r\n                candidateCount,\r\n                _name,\r\n                _department,\r\n                _level, 0);\r\n    }\r\n\r\n// Register a voter for when we using the UJ API to register voters\r\n    function register_voter(address addr) public only_election_authority{\r\n        voters[addr] = true;\r\n    }\r\n\r\n      function start_election(uint duration) public only_election_authority{\r\n        electionEndTime =   block.timestamp + duration;\r\n    }\r\n  \r\n\r\n      function voteCandidate(uint _electionId, uint _candidateId) public only_registered_voters\r\n\r\n        // Remember to check why time fails in tests!!\r\n        // only_during_election_time\r\n        vote_only_once\r\n        {\r\n        // // require that they haven't voted before\r\n        // require(!voters[msg.sender]);\r\n\r\n            // Ensures the candidate exists\r\n        require(_candidateId > 0 && _candidateId <= candidateCount);\r\n        require(_electionId > 0 && _electionId <= electionCount);\r\n\r\n        // record that voter has voted\r\n        hasVoted[msg.sender] = true;\r\n\r\n        // update candidate vote Count\r\n        elections[_electionId].candidates[_candidateId].voteCount ++;\r\n\r\n        emit Voted(msg.sender,true);\r\n    }\r\n\r\n    function getElectionCandidates(uint _id) public view returns(\r\n                                string memory,\r\n                                string memory,\r\n                                Candidate[] memory){\r\n        // return elections[_id].candidates;  \r\n        Election memory e = elections[_id];\r\n\r\n        // return elections[_id];\r\n        return(\r\n            e.name_of_election,\r\n            e.description_of_election,\r\n            e.candidates\r\n        );\r\n\r\n    }\r\n\r\n}\r\n\r\n\r\n\r\n    ",
  "sourcePath": "C:/Users/ALEX PC/Desktop/Univote/uniVote-2/client/src/contracts/Voting.sol",
  "compiler": {
    "name": "solc",
    "version": "0.5.0+commit.1d4f565a.Emscripten.clang"
  },
  "schemaVersion": "3.0.2",
  "updatedAt": "2020-01-06T17:05:03.279Z",
  "devdoc": {
    "methods": {}
  },
  "userdoc": {
    "methods": {}
  }
}