{
  "contractName": "Voting",
  "abi": [
    {
      "constant": true,
      "inputs": [
        {
          "name": "",
          "type": "address"
        }
      ],
      "name": "hasVoted",
      "outputs": [
        {
          "name": "",
          "type": "bool"
        }
      ],
      "payable": false,
      "stateMutability": "view",
      "type": "function"
    },
    {
      "constant": true,
      "inputs": [
        {
          "name": "",
          "type": "uint256"
        }
      ],
      "name": "candidates",
      "outputs": [
        {
          "name": "id",
          "type": "uint256"
        },
        {
          "name": "name",
          "type": "string"
        },
        {
          "name": "department",
          "type": "string"
        },
        {
          "name": "level",
          "type": "string"
        },
        {
          "name": "post",
          "type": "string"
        },
        {
          "name": "voteCount",
          "type": "uint256"
        }
      ],
      "payable": false,
      "stateMutability": "view",
      "type": "function"
    },
    {
      "constant": true,
      "inputs": [
        {
          "name": "",
          "type": "uint256"
        }
      ],
      "name": "elections",
      "outputs": [
        {
          "name": "id",
          "type": "uint256"
        },
        {
          "name": "name_of_election",
          "type": "string"
        },
        {
          "name": "description_of_election",
          "type": "string"
        },
        {
          "name": "duration",
          "type": "uint256"
        },
        {
          "name": "startTime",
          "type": "uint256"
        },
        {
          "name": "timestamp",
          "type": "uint256"
        }
      ],
      "payable": false,
      "stateMutability": "view",
      "type": "function"
    },
    {
      "constant": true,
      "inputs": [],
      "name": "electionCount",
      "outputs": [
        {
          "name": "",
          "type": "uint256"
        }
      ],
      "payable": false,
      "stateMutability": "view",
      "type": "function"
    },
    {
      "constant": true,
      "inputs": [],
      "name": "electionEndTime",
      "outputs": [
        {
          "name": "",
          "type": "uint256"
        }
      ],
      "payable": false,
      "stateMutability": "view",
      "type": "function"
    },
    {
      "constant": true,
      "inputs": [
        {
          "name": "",
          "type": "address"
        }
      ],
      "name": "voters",
      "outputs": [
        {
          "name": "",
          "type": "bool"
        }
      ],
      "payable": false,
      "stateMutability": "view",
      "type": "function"
    },
    {
      "constant": true,
      "inputs": [],
      "name": "candidateCount",
      "outputs": [
        {
          "name": "",
          "type": "uint256"
        }
      ],
      "payable": false,
      "stateMutability": "view",
      "type": "function"
    },
    {
      "constant": true,
      "inputs": [],
      "name": "dapp_name",
      "outputs": [
        {
          "name": "",
          "type": "string"
        }
      ],
      "payable": false,
      "stateMutability": "view",
      "type": "function"
    },
    {
      "constant": true,
      "inputs": [],
      "name": "dapp_developer",
      "outputs": [
        {
          "name": "",
          "type": "string"
        }
      ],
      "payable": false,
      "stateMutability": "view",
      "type": "function"
    },
    {
      "constant": true,
      "inputs": [],
      "name": "electionAuthority",
      "outputs": [
        {
          "name": "",
          "type": "address"
        }
      ],
      "payable": false,
      "stateMutability": "view",
      "type": "function"
    },
    {
      "inputs": [],
      "payable": false,
      "stateMutability": "nonpayable",
      "type": "constructor"
    },
    {
      "anonymous": false,
      "inputs": [
        {
          "indexed": false,
          "name": "id",
          "type": "uint256"
        },
        {
          "indexed": false,
          "name": "name_of_election",
          "type": "string"
        },
        {
          "indexed": false,
          "name": "description_of_election",
          "type": "string"
        },
        {
          "indexed": false,
          "name": "duration",
          "type": "uint256"
        },
        {
          "indexed": false,
          "name": "startTime",
          "type": "uint256"
        },
        {
          "indexed": false,
          "name": "timestamp",
          "type": "uint256"
        }
      ],
      "name": "NewElection",
      "type": "event"
    },
    {
      "anonymous": false,
      "inputs": [
        {
          "indexed": false,
          "name": "election_name",
          "type": "string"
        },
        {
          "indexed": false,
          "name": "election_description",
          "type": "string"
        },
        {
          "indexed": false,
          "name": "id",
          "type": "uint256"
        },
        {
          "indexed": false,
          "name": "name",
          "type": "string"
        },
        {
          "indexed": false,
          "name": "department",
          "type": "string"
        },
        {
          "indexed": false,
          "name": "level",
          "type": "string"
        },
        {
          "indexed": false,
          "name": "post",
          "type": "string"
        },
        {
          "indexed": false,
          "name": "voteCount",
          "type": "uint256"
        }
      ],
      "name": "NewCandidate",
      "type": "event"
    },
    {
      "anonymous": false,
      "inputs": [
        {
          "indexed": false,
          "name": "voter",
          "type": "address"
        },
        {
          "indexed": false,
          "name": "voted",
          "type": "bool"
        }
      ],
      "name": "Voted",
      "type": "event"
    },
    {
      "constant": false,
      "inputs": [
        {
          "name": "_name_of_election",
          "type": "string"
        },
        {
          "name": "_description_of_election",
          "type": "string"
        },
        {
          "name": "_duration",
          "type": "uint256"
        },
        {
          "name": "_startTime",
          "type": "uint256"
        }
      ],
      "name": "createElection",
      "outputs": [],
      "payable": false,
      "stateMutability": "nonpayable",
      "type": "function"
    },
    {
      "constant": false,
      "inputs": [
        {
          "name": "_id",
          "type": "uint256"
        },
        {
          "name": "_name",
          "type": "string"
        },
        {
          "name": "_department",
          "type": "string"
        },
        {
          "name": "_level",
          "type": "string"
        },
        {
          "name": "_post",
          "type": "string"
        }
      ],
      "name": "createCandidate",
      "outputs": [],
      "payable": false,
      "stateMutability": "nonpayable",
      "type": "function"
    },
    {
      "constant": false,
      "inputs": [
        {
          "name": "addr",
          "type": "address"
        }
      ],
      "name": "register_voter",
      "outputs": [],
      "payable": false,
      "stateMutability": "nonpayable",
      "type": "function"
    },
    {
      "constant": false,
      "inputs": [
        {
          "name": "duration",
          "type": "uint256"
        }
      ],
      "name": "start_election",
      "outputs": [],
      "payable": false,
      "stateMutability": "nonpayable",
      "type": "function"
    },
    {
      "constant": false,
      "inputs": [
        {
          "name": "_electionId",
          "type": "uint256"
        },
        {
          "name": "_candidateId",
          "type": "uint256"
        }
      ],
      "name": "voteCandidate",
      "outputs": [],
      "payable": false,
      "stateMutability": "nonpayable",
      "type": "function"
    },
    {
      "constant": true,
      "inputs": [
        {
          "name": "_id",
          "type": "uint256"
        }
      ],
      "name": "getElectionCandidates",
      "outputs": [
        {
          "name": "",
          "type": "string"
        },
        {
          "name": "",
          "type": "string"
        }
      ],
      "payable": false,
      "stateMutability": "view",
      "type": "function"
    }
  ],
  "bytecode": "0x60806040526040805190810160405280600781526020017f556e69566f746500000000000000000000000000000000000000000000000000815250600090805190602001906200005192919062000130565b50606060405190810160405280602481526020017f40476f6f646e657373457a656f6b61666f7220616e642040456d6d616e75656c81526020017f556d65680000000000000000000000000000000000000000000000000000000081525060019080519060200190620000c692919062000130565b50348015620000d457600080fd5b50731a98ca9788077b83b6c6ffd56e4ecdee00bdd2c7600560006101000a81548173ffffffffffffffffffffffffffffffffffffffff021916908373ffffffffffffffffffffffffffffffffffffffff160217905550620001df565b828054600181600116156101000203166002900490600052602060002090601f016020900481019282601f106200017357805160ff1916838001178555620001a4565b82800160010185558215620001a4579182015b82811115620001a357825182559160200191906001019062000186565b5b509050620001b39190620001b7565b5090565b620001dc91905b80821115620001d8576000816000905550600101620001be565b5090565b90565b61195980620001ef6000396000f3fe6080604052600436106100e6576000357c0100000000000000000000000000000000000000000000000000000000900463ffffffff16806309eef43e146100eb5780632de096ff146101285780633477ee2e146101515780634f2c51b9146101935780635e12845e146101bc5780635e6fef01146101fa5780637ad36e841461023c578063997d2830146102655780639e136e6414610290578063a3ec138d146102bb578063a9a981a3146102f8578063b3ea346b14610323578063c95592521461034e578063dc46d6ea14610379578063eb1e6270146103a4578063f2504a6a146103cd575b600080fd5b3480156100f757600080fd5b50610112600480360361010d91908101906112f5565b6103f6565b60405161011f91906115d9565b60405180910390f35b34801561013457600080fd5b5061014f600480360361014a91908101906113b1565b610416565b005b34801561015d57600080fd5b50610178600480360361017391908101906113b1565b61047e565b60405161018a969594939291906116d7565b60405180910390f35b34801561019f57600080fd5b506101ba60048036036101b591908101906112f5565b61071a565b005b3480156101c857600080fd5b506101e360048036036101de91908101906113b1565b6107d1565b6040516101f1929190611616565b60405180910390f35b34801561020657600080fd5b50610221600480360361021c91908101906113b1565b610983565b60405161023396959493929190611754565b60405180910390f35b34801561024857600080fd5b50610263600480360361025e919081019061131e565b610aef565b005b34801561027157600080fd5b5061027a610c76565b604051610287919061164d565b60405180910390f35b34801561029c57600080fd5b506102a5610c7c565b6040516102b2919061164d565b60405180910390f35b3480156102c757600080fd5b506102e260048036036102dd91908101906112f5565b610c82565b6040516102ef91906115d9565b60405180910390f35b34801561030457600080fd5b5061030d610ca2565b60405161031a919061164d565b60405180910390f35b34801561032f57600080fd5b50610338610ca8565b60405161034591906115f4565b60405180910390f35b34801561035a57600080fd5b50610363610d46565b60405161037091906115f4565b60405180910390f35b34801561038557600080fd5b5061038e610de4565b60405161039b9190611595565b60405180910390f35b3480156103b057600080fd5b506103cb60048036036103c691908101906114b1565b610e0a565b005b3480156103d957600080fd5b506103f460048036036103ef91908101906113da565b610f92565b005b60086020528060005260406000206000915054906101000a900460ff1681565b600560009054906101000a900473ffffffffffffffffffffffffffffffffffffffff1673ffffffffffffffffffffffffffffffffffffffff163373ffffffffffffffffffffffffffffffffffffffff1614151561047257600080fd5b80420160028190555050565b6009602052806000526040600020600091509050806000015490806001018054600181600116156101000203166002900480601f0160208091040260200160405190810160405280929190818152602001828054600181600116156101000203166002900480156105305780601f1061050557610100808354040283529160200191610530565b820191906000526020600020905b81548152906001019060200180831161051357829003601f168201915b505050505090806002018054600181600116156101000203166002900480601f0160208091040260200160405190810160405280929190818152602001828054600181600116156101000203166002900480156105ce5780601f106105a3576101008083540402835291602001916105ce565b820191906000526020600020905b8154815290600101906020018083116105b157829003601f168201915b505050505090806003018054600181600116156101000203166002900480601f01602080910402602001604051908101604052809291908181526020018280546001816001161561010002031660029004801561066c5780601f106106415761010080835404028352916020019161066c565b820191906000526020600020905b81548152906001019060200180831161064f57829003601f168201915b505050505090806004018054600181600116156101000203166002900480601f01602080910402602001604051908101604052809291908181526020018280546001816001161561010002031660029004801561070a5780601f106106df5761010080835404028352916020019161070a565b820191906000526020600020905b8154815290600101906020018083116106ed57829003601f168201915b5050505050908060050154905086565b600560009054906101000a900473ffffffffffffffffffffffffffffffffffffffff1673ffffffffffffffffffffffffffffffffffffffff163373ffffffffffffffffffffffffffffffffffffffff1614151561077657600080fd5b6001600760008373ffffffffffffffffffffffffffffffffffffffff1673ffffffffffffffffffffffffffffffffffffffff16815260200190815260200160002060006101000a81548160ff02191690831515021790555050565b6060806107dc6110e4565b6006600085815260200190815260200160002060c0604051908101604052908160008201548152602001600182018054600181600116156101000203166002900480601f01602080910402602001604051908101604052809291908181526020018280546001816001161561010002031660029004801561089e5780601f106108735761010080835404028352916020019161089e565b820191906000526020600020905b81548152906001019060200180831161088157829003601f168201915b50505050508152602001600282018054600181600116156101000203166002900480601f0160208091040260200160405190810160405280929190818152602001828054600181600116156101000203166002900480156109405780601f1061091557610100808354040283529160200191610940565b820191906000526020600020905b81548152906001019060200180831161092357829003601f168201915b5050505050815260200160038201548152602001600482015481526020016005820154815250509050806020015181604001518191508090509250925050915091565b6006602052806000526040600020600091509050806000015490806001018054600181600116156101000203166002900480601f016020809104026020016040519081016040528092919081815260200182805460018160011615610100020316600290048015610a355780601f10610a0a57610100808354040283529160200191610a35565b820191906000526020600020905b815481529060010190602001808311610a1857829003601f168201915b505050505090806002018054600181600116156101000203166002900480601f016020809104026020016040519081016040528092919081815260200182805460018160011615610100020316600290048015610ad35780601f10610aa857610100808354040283529160200191610ad3565b820191906000526020600020905b815481529060010190602001808311610ab657829003601f168201915b5050505050908060030154908060040154908060050154905086565b600560009054906101000a900473ffffffffffffffffffffffffffffffffffffffff1673ffffffffffffffffffffffffffffffffffffffff163373ffffffffffffffffffffffffffffffffffffffff16141515610b4b57600080fd5b60036000815480929190600101919050555060035460066000600354815260200190815260200160002060000181905550836006600060035481526020019081526020016000206001019080519060200190610ba892919061111b565b50826006600060035481526020019081526020016000206002019080519060200190610bd592919061111b565b508160066000600354815260200190815260200160002060030181905550806006600060035481526020019081526020016000206004018190555042600660006003548152602001908152602001600020600501819055507f8b59edb9f4e30a463afccefae6a372c4cee3648e91466f14caca75ba52d9bb1e6003548585858542604051610c6896959493929190611668565b60405180910390a150505050565b60035481565b60025481565b60076020528060005260406000206000915054906101000a900460ff1681565b60045481565b60008054600181600116156101000203166002900480601f016020809104026020016040519081016040528092919081815260200182805460018160011615610100020316600290048015610d3e5780601f10610d1357610100808354040283529160200191610d3e565b820191906000526020600020905b815481529060010190602001808311610d2157829003601f168201915b505050505081565b60018054600181600116156101000203166002900480601f016020809104026020016040519081016040528092919081815260200182805460018160011615610100020316600290048015610ddc5780601f10610db157610100808354040283529160200191610ddc565b820191906000526020600020905b815481529060010190602001808311610dbf57829003601f168201915b505050505081565b600560009054906101000a900473ffffffffffffffffffffffffffffffffffffffff1681565b600760003373ffffffffffffffffffffffffffffffffffffffff1673ffffffffffffffffffffffffffffffffffffffff16815260200190815260200160002060009054906101000a900460ff161515610e6257600080fd5b600860003373ffffffffffffffffffffffffffffffffffffffff1673ffffffffffffffffffffffffffffffffffffffff16815260200190815260200160002060009054906101000a900460ff1615610eb957600080fd5b600081118015610ecb57506004548111155b1515610ed657600080fd5b6001600860003373ffffffffffffffffffffffffffffffffffffffff1673ffffffffffffffffffffffffffffffffffffffff16815260200190815260200160002060006101000a81548160ff02191690831515021790555060096000828152602001908152602001600020600501600081548092919060010191905055507f8eb81cb806dbb3d8a2f94981614331a55dfd90e06a42fdc362ca3ca96981d92f336001604051610f869291906115b0565b60405180910390a15050565b600560009054906101000a900473ffffffffffffffffffffffffffffffffffffffff1673ffffffffffffffffffffffffffffffffffffffff163373ffffffffffffffffffffffffffffffffffffffff16141515610fee57600080fd5b60046000815480929190600101919050555061100861119b565b60c060405190810160405280600454815260200186815260200185815260200184815260200183815260200160008152509050806009600060045481526020019081526020016000206000820151816000015560208201518160010190805190602001906110779291906111d2565b5060408201518160020190805190602001906110949291906111d2565b5060608201518160030190805190602001906110b19291906111d2565b5060808201518160040190805190602001906110ce9291906111d2565b5060a08201518160050155905050505050505050565b60c0604051908101604052806000815260200160608152602001606081526020016000815260200160008152602001600081525090565b828054600181600116156101000203166002900490600052602060002090601f016020900481019282601f1061115c57805160ff191683800117855561118a565b8280016001018555821561118a579182015b8281111561118957825182559160200191906001019061116e565b5b5090506111979190611252565b5090565b60c0604051908101604052806000815260200160608152602001606081526020016060815260200160608152602001600081525090565b828054600181600116156101000203166002900490600052602060002090601f016020900481019282601f1061121357805160ff1916838001178555611241565b82800160010185558215611241579182015b82811115611240578251825591602001919060010190611225565b5b50905061124e9190611252565b5090565b61127491905b80821115611270576000816000905550600101611258565b5090565b90565b6000611283823561187a565b905092915050565b600082601f830112151561129e57600080fd5b81356112b16112ac826117f0565b6117c3565b915080825260208301602083018583830111156112cd57600080fd5b6112d88382846118cc565b50505092915050565b60006112ed823561188c565b905092915050565b60006020828403121561130757600080fd5b600061131584828501611277565b91505092915050565b6000806000806080858703121561133457600080fd5b600085013567ffffffffffffffff81111561134e57600080fd5b61135a8782880161128b565b945050602085013567ffffffffffffffff81111561137757600080fd5b6113838782880161128b565b9350506040611394878288016112e1565b92505060606113a5878288016112e1565b91505092959194509250565b6000602082840312156113c357600080fd5b60006113d1848285016112e1565b91505092915050565b600080600080600060a086880312156113f257600080fd5b6000611400888289016112e1565b955050602086013567ffffffffffffffff81111561141d57600080fd5b6114298882890161128b565b945050604086013567ffffffffffffffff81111561144657600080fd5b6114528882890161128b565b935050606086013567ffffffffffffffff81111561146f57600080fd5b61147b8882890161128b565b925050608086013567ffffffffffffffff81111561149857600080fd5b6114a48882890161128b565b9150509295509295909350565b600080604083850312156114c457600080fd5b60006114d2858286016112e1565b92505060206114e3858286016112e1565b9150509250929050565b6114f681611896565b82525050565b61150581611832565b82525050565b61151481611844565b82525050565b600061152582611827565b8084526115398160208601602086016118db565b6115428161190e565b602085010191505092915050565b600061155b8261181c565b80845261156f8160208601602086016118db565b6115788161190e565b602085010191505092915050565b61158f81611870565b82525050565b60006020820190506115aa60008301846114fc565b92915050565b60006040820190506115c560008301856114ed565b6115d2602083018461150b565b9392505050565b60006020820190506115ee600083018461150b565b92915050565b6000602082019050818103600083015261160e8184611550565b905092915050565b60006040820190508181036000830152611630818561151a565b90508181036020830152611644818461151a565b90509392505050565b60006020820190506116626000830184611586565b92915050565b600060c08201905061167d6000830189611586565b818103602083015261168f818861151a565b905081810360408301526116a3818761151a565b90506116b26060830186611586565b6116bf6080830185611586565b6116cc60a0830184611586565b979650505050505050565b600060c0820190506116ec6000830189611586565b81810360208301526116fe8188611550565b905081810360408301526117128187611550565b905081810360608301526117268186611550565b9050818103608083015261173a8185611550565b905061174960a0830184611586565b979650505050505050565b600060c0820190506117696000830189611586565b818103602083015261177b8188611550565b9050818103604083015261178f8187611550565b905061179e6060830186611586565b6117ab6080830185611586565b6117b860a0830184611586565b979650505050505050565b6000604051905081810181811067ffffffffffffffff821117156117e657600080fd5b8060405250919050565b600067ffffffffffffffff82111561180757600080fd5b601f19601f8301169050602081019050919050565b600081519050919050565b600081519050919050565b600061183d82611850565b9050919050565b60008115159050919050565b600073ffffffffffffffffffffffffffffffffffffffff82169050919050565b6000819050919050565b600061188582611850565b9050919050565b6000819050919050565b60006118a1826118a8565b9050919050565b60006118b3826118ba565b9050919050565b60006118c582611850565b9050919050565b82818337600083830152505050565b60005b838110156118f95780820151818401526020810190506118de565b83811115611908576000848401525b50505050565b6000601f19601f830116905091905056fea265627a7a7230582001ab634bc89f111f8f72a2b5b25ebfc2d3ecc5d2e46ee7ef1fcf7520066c9fb06c6578706572696d656e74616cf50037",
  "source": "pragma solidity ^0.5.0;\r\npragma experimental ABIEncoderV2;\r\n\r\n\r\ncontract Voting{\r\n    string public dapp_name=\"UniVote\";  // name of dapp\r\n    string public dapp_developer=\"@GoodnessEzeokafor and @EmmanuelUmeh\"; // smart contract developer\r\n    uint public electionEndTime; // electionENdTIme\r\n    uint public electionCount; //total number of election\r\n    uint public candidateCount; // totalnumber of candidates\r\n    address public electionAuthority;  // election creator\r\n    mapping(uint => Election) public elections;  //GET ELECTION LIST\r\n    // mapping (uint => Candidate) public candidates; // Candidate ID to number of votes\r\n    mapping (address => bool) public voters; // Registered voters\r\n    mapping (address => bool) public hasVoted; // If a registered voter has voted or not\r\n    mapping(uint => Candidate) public candidates;  //GET ELECTION LIST\r\n\r\n    // Candidate[] public candidates;\r\n    /* MODIFIERS */\r\n        // Modifiers\r\n\r\n    // Ensures only owners can call a function\r\n    modifier only_election_authority() {\r\n        if (msg.sender != electionAuthority) revert();\r\n        _;\r\n    }\r\n\r\n    // // Ensures only registered voters can vote\r\n     modifier only_registered_voters() {\r\n        if (!voters[msg.sender]) revert();\r\n        _;\r\n    }\r\n\r\n    // // Ensures voters can vote just once!!! Their fada\r\n    modifier vote_only_once() {\r\n        if (hasVoted[msg.sender]) revert();\r\n        _;\r\n    }   \r\n\r\n    // // Only Vote during election time and We make cash\r\n\r\n      modifier only_during_election_time() {\r\n        if (electionEndTime == 0 || electionEndTime > block.timestamp) revert();\r\n        _;\r\n    }\r\n    constructor() public {\r\n        electionAuthority = 0x1A98cA9788077B83b6C6ffd56E4ECDEe00bdd2c7;\r\n    }\r\n\r\n\r\n    /*  CANDIDATE STRUCT */\r\n    struct Candidate {\r\n        uint id;\r\n        string name;\r\n        string department;\r\n        string level;\r\n        string post;\r\n        uint voteCount;\r\n    }\r\n    /* END CANDIDATE STRUCT */\r\n\r\n\r\n    /*  ELECTION STRUCT */\r\n    struct Election{\r\n        uint id;\r\n        string name_of_election;\r\n        string description_of_election;\r\n        uint duration; // in minutes\r\n        uint startTime; // \r\n        uint timestamp; \r\n        // mapping (uint => Candidate)  candidates; // Candidate ID to number of votes\r\n        // Candidate[] candidates;\r\n    }\r\n    /* END ELECTION STRUCT */\r\n\r\n\r\n    event NewElection(\r\n        uint id,\r\n        string name_of_election,\r\n        string description_of_election,\r\n        uint duration,\r\n        uint startTime,\r\n        uint timestamp\r\n        // Candidate candidates // Candidate ID to number of votes\r\n    );\r\n\r\n    event NewCandidate(\r\n        string election_name,\r\n        string election_description,\r\n        uint id,\r\n        string name,\r\n        string department,\r\n        string level,\r\n        string post,\r\n        uint voteCount\r\n    );\r\n\r\n    event Voted(\r\n        address voter,\r\n        bool voted\r\n    );\r\n\r\n\r\n\r\n\r\n    // methods\r\n\r\n    function createElection(\r\n                string memory _name_of_election, \r\n                string memory  _description_of_election,\r\n                 uint _duration,\r\n                 uint _startTime\r\n                 ) public only_election_authority {\r\n        \r\n        electionCount ++;\r\n        // Candidate memory new_candidate = Candidate(0,\"Not A Candidate\",\"Not A Candidate\", \"Not A Candidate\",\"NOT A CANDIDATE\",0);\r\n        elections[electionCount].id = electionCount;\r\n        elections[electionCount].name_of_election = _name_of_election;\r\n        elections[electionCount].description_of_election = _description_of_election;\r\n        elections[electionCount].duration = _duration;\r\n        elections[electionCount].startTime = _startTime;\r\n        elections[electionCount].timestamp = now;\r\n        // elections[electionCount].candidates.push(new_candidate);\r\n        emit NewElection(\r\n            electionCount,\r\n            _name_of_election,\r\n            _description_of_election,\r\n            _duration,\r\n            _startTime,\r\n            now\r\n            // new_candidate        \r\n        );\r\n    }\r\n\r\n\r\n    function createCandidate(\r\n                            uint _id,\r\n                            string memory  _name,\r\n                            string memory _department,\r\n                            string memory  _level,\r\n                            string memory _post\r\n                            ) public only_election_authority{\r\n        // Election memory e = elections[_id];\r\n        candidateCount++;\r\n        Candidate memory new_candidate = Candidate(candidateCount,_name,_department,_level,_post, 0);\r\n        // elections[_id].candidates.push(new_candidate);\r\n        candidates[candidateCount] = new_candidate;\r\n        // emit NewCandidate(\r\n        //         e.name_of_election,\r\n        //         e.description_of_election,\r\n        //         candidateCount,\r\n        //         _name,\r\n        //         _department,\r\n        //         _level, 0);\r\n    }\r\n\r\n// Register a voter for when we using the UJ API to register voters\r\n    function register_voter(address addr) public only_election_authority{\r\n        voters[addr] = true;\r\n    }\r\n\r\n      function start_election(uint duration) public only_election_authority{\r\n        electionEndTime =   block.timestamp + duration;\r\n    }\r\n  \r\n\r\n      function voteCandidate(uint _electionId, uint _candidateId) public only_registered_voters\r\n\r\n        // Remember to check why time fails in tests!!\r\n        // only_during_election_time\r\n        vote_only_once\r\n        {\r\n        // // require that they haven't voted before\r\n        // require(!voters[msg.sender]);\r\n\r\n            // Ensures the candidate exists\r\n        require(_candidateId > 0 && _candidateId <= candidateCount);\r\n        // require(_electionId > 0 && _electionId <= electionCount);\r\n\r\n        // record that voter has voted\r\n        hasVoted[msg.sender] = true;\r\n\r\n        // update candidate vote Count\r\n        // elections[_electionId].candidates[_candidateId].voteCount ++;\r\n        candidates[_candidateId].voteCount ++;\r\n        emit Voted(msg.sender,true);\r\n    }\r\n\r\n    function getElectionCandidates(uint _id) public view returns(\r\n                                string memory,\r\n                                string memory\r\n                                // Candidate[] memory\r\n                                ){\r\n        // return elections[_id].candidates;  \r\n        Election memory e = elections[_id];\r\n\r\n        // return elections[_id];\r\n        return(\r\n            e.name_of_election,\r\n            e.description_of_election\r\n            // e.candidates\r\n        );\r\n\r\n    }\r\n\r\n}\r\n\r\n\r\n\r\n    ",
  "sourcePath": "C:/Users/ALEX PC/Desktop/Univote/uniVote-2/client/src/contracts/Voting.sol",
  "compiler": {
    "name": "solc",
    "version": "0.5.0+commit.1d4f565a.Emscripten.clang"
  },
  "schemaVersion": "3.0.2",
  "updatedAt": "2020-01-08T19:00:24.313Z",
  "devdoc": {
    "methods": {}
  },
  "userdoc": {
    "methods": {}
  }
}