{
  "contractName": "Voting",
  "abi": [
    {
      "constant": true,
      "inputs": [
        {
          "name": "",
          "type": "address"
        }
      ],
      "name": "votedStruct",
      "outputs": [
        {
          "name": "id",
          "type": "uint256"
        }
      ],
      "payable": false,
      "stateMutability": "view",
      "type": "function",
      "signature": "0x0a466e5a"
    },
    {
      "constant": true,
      "inputs": [
        {
          "name": "",
          "type": "uint256"
        }
      ],
      "name": "elections",
      "outputs": [
        {
          "name": "id",
          "type": "uint256"
        },
        {
          "name": "name_of_election",
          "type": "string"
        },
        {
          "name": "description_of_election",
          "type": "string"
        },
        {
          "name": "duration",
          "type": "uint256"
        },
        {
          "name": "startTime",
          "type": "uint256"
        },
        {
          "name": "timestamp",
          "type": "uint256"
        }
      ],
      "payable": false,
      "stateMutability": "view",
      "type": "function",
      "signature": "0x5e6fef01"
    },
    {
      "constant": true,
      "inputs": [],
      "name": "electionCount",
      "outputs": [
        {
          "name": "",
          "type": "uint256"
        }
      ],
      "payable": false,
      "stateMutability": "view",
      "type": "function",
      "signature": "0x997d2830"
    },
    {
      "constant": true,
      "inputs": [],
      "name": "electionEndTime",
      "outputs": [
        {
          "name": "",
          "type": "uint256"
        }
      ],
      "payable": false,
      "stateMutability": "view",
      "type": "function",
      "signature": "0x9e136e64"
    },
    {
      "constant": true,
      "inputs": [
        {
          "name": "",
          "type": "address"
        }
      ],
      "name": "voters",
      "outputs": [
        {
          "name": "",
          "type": "bool"
        }
      ],
      "payable": false,
      "stateMutability": "view",
      "type": "function",
      "signature": "0xa3ec138d"
    },
    {
      "constant": true,
      "inputs": [],
      "name": "candidateCount",
      "outputs": [
        {
          "name": "",
          "type": "uint256"
        }
      ],
      "payable": false,
      "stateMutability": "view",
      "type": "function",
      "signature": "0xa9a981a3"
    },
    {
      "constant": true,
      "inputs": [],
      "name": "dapp_name",
      "outputs": [
        {
          "name": "",
          "type": "string"
        }
      ],
      "payable": false,
      "stateMutability": "view",
      "type": "function",
      "signature": "0xb3ea346b"
    },
    {
      "constant": true,
      "inputs": [],
      "name": "dapp_developer",
      "outputs": [
        {
          "name": "",
          "type": "string"
        }
      ],
      "payable": false,
      "stateMutability": "view",
      "type": "function",
      "signature": "0xc9559252"
    },
    {
      "constant": true,
      "inputs": [],
      "name": "electionAuthority",
      "outputs": [
        {
          "name": "",
          "type": "address"
        }
      ],
      "payable": false,
      "stateMutability": "view",
      "type": "function",
      "signature": "0xdc46d6ea"
    },
    {
      "inputs": [],
      "payable": false,
      "stateMutability": "nonpayable",
      "type": "constructor",
      "signature": "constructor"
    },
    {
      "anonymous": false,
      "inputs": [
        {
          "indexed": false,
          "name": "id",
          "type": "uint256"
        },
        {
          "indexed": false,
          "name": "name_of_election",
          "type": "string"
        },
        {
          "indexed": false,
          "name": "description_of_election",
          "type": "string"
        },
        {
          "indexed": false,
          "name": "duration",
          "type": "uint256"
        },
        {
          "indexed": false,
          "name": "startTime",
          "type": "uint256"
        },
        {
          "indexed": false,
          "name": "timestamp",
          "type": "uint256"
        }
      ],
      "name": "NewElection",
      "type": "event",
      "signature": "0x8b59edb9f4e30a463afccefae6a372c4cee3648e91466f14caca75ba52d9bb1e"
    },
    {
      "anonymous": false,
      "inputs": [
        {
          "indexed": false,
          "name": "election_name",
          "type": "string"
        },
        {
          "indexed": false,
          "name": "election_description",
          "type": "string"
        },
        {
          "indexed": false,
          "name": "id",
          "type": "uint256"
        },
        {
          "indexed": false,
          "name": "name",
          "type": "string"
        },
        {
          "indexed": false,
          "name": "department",
          "type": "string"
        },
        {
          "indexed": false,
          "name": "level",
          "type": "string"
        },
        {
          "indexed": false,
          "name": "voteCount",
          "type": "uint256"
        }
      ],
      "name": "NewCandidate",
      "type": "event",
      "signature": "0x24107f57307d59c1340861409bb1693828565458d05804c1040dfd8f9dd9eb19"
    },
    {
      "anonymous": false,
      "inputs": [
        {
          "indexed": false,
          "name": "voter",
          "type": "address"
        },
        {
          "indexed": false,
          "name": "voted",
          "type": "bool"
        }
      ],
      "name": "Voted",
      "type": "event",
      "signature": "0x8eb81cb806dbb3d8a2f94981614331a55dfd90e06a42fdc362ca3ca96981d92f"
    },
    {
      "constant": false,
      "inputs": [
        {
          "name": "_name_of_election",
          "type": "string"
        },
        {
          "name": "_description_of_election",
          "type": "string"
        },
        {
          "name": "_duration",
          "type": "uint256"
        },
        {
          "name": "_startTime",
          "type": "uint256"
        }
      ],
      "name": "createElection",
      "outputs": [],
      "payable": false,
      "stateMutability": "nonpayable",
      "type": "function",
      "signature": "0x7ad36e84"
    },
    {
      "constant": false,
      "inputs": [
        {
          "name": "_electionId",
          "type": "uint256"
        },
        {
          "name": "_name",
          "type": "string"
        },
        {
          "name": "_department",
          "type": "string"
        },
        {
          "name": "_level",
          "type": "string"
        },
        {
          "name": "_post",
          "type": "string"
        }
      ],
      "name": "createCandidate",
      "outputs": [],
      "payable": false,
      "stateMutability": "nonpayable",
      "type": "function",
      "signature": "0xf2504a6a"
    },
    {
      "constant": false,
      "inputs": [
        {
          "name": "addr",
          "type": "address"
        }
      ],
      "name": "register_voter",
      "outputs": [],
      "payable": false,
      "stateMutability": "nonpayable",
      "type": "function",
      "signature": "0x4f2c51b9"
    },
    {
      "constant": false,
      "inputs": [
        {
          "name": "duration",
          "type": "uint256"
        }
      ],
      "name": "start_election",
      "outputs": [],
      "payable": false,
      "stateMutability": "nonpayable",
      "type": "function",
      "signature": "0x2de096ff"
    },
    {
      "constant": false,
      "inputs": [
        {
          "name": "_electionId",
          "type": "uint256"
        },
        {
          "name": "_candidateId",
          "type": "uint256"
        }
      ],
      "name": "voteCandidate",
      "outputs": [],
      "payable": false,
      "stateMutability": "nonpayable",
      "type": "function",
      "signature": "0xeb1e6270"
    },
    {
      "constant": true,
      "inputs": [
        {
          "name": "_id",
          "type": "uint256"
        }
      ],
      "name": "getElectionCandidates",
      "outputs": [
        {
          "components": [
            {
              "name": "id",
              "type": "uint256"
            },
            {
              "name": "name",
              "type": "string"
            },
            {
              "name": "department",
              "type": "string"
            },
            {
              "name": "level",
              "type": "string"
            },
            {
              "name": "post",
              "type": "string"
            },
            {
              "name": "voteCount",
              "type": "uint256"
            }
          ],
          "name": "",
          "type": "tuple[]"
        }
      ],
      "payable": false,
      "stateMutability": "view",
      "type": "function",
      "signature": "0x5e12845e"
    }
  ],
  "bytecode": "0x60806040526040805190810160405280600781526020017f556e69566f746500000000000000000000000000000000000000000000000000815250600090805190602001906200005192919062000130565b50606060405190810160405280602481526020017f40476f6f646e657373457a656f6b61666f7220616e642040456d6d616e75656c81526020017f556d65680000000000000000000000000000000000000000000000000000000081525060019080519060200190620000c692919062000130565b50348015620000d457600080fd5b50734516df95e7f7985ff2806ab06cef1a9930662711600560006101000a81548173ffffffffffffffffffffffffffffffffffffffff021916908373ffffffffffffffffffffffffffffffffffffffff160217905550620001df565b828054600181600116156101000203166002900490600052602060002090601f016020900481019282601f106200017357805160ff1916838001178555620001a4565b82800160010185558215620001a4579182015b82811115620001a357825182559160200191906001019062000186565b5b509050620001b39190620001b7565b5090565b620001dc91905b80821115620001d8576000816000905550600101620001be565b5090565b90565b61208c80620001ef6000396000f3fe6080604052600436106100db576000357c0100000000000000000000000000000000000000000000000000000000900463ffffffff1680630a466e5a146100e05780632de096ff1461011d5780634f2c51b9146101465780635e12845e1461016f5780635e6fef01146101ac5780637ad36e84146101ee578063997d2830146102175780639e136e6414610242578063a3ec138d1461026d578063a9a981a3146102aa578063b3ea346b146102d5578063c955925214610300578063dc46d6ea1461032b578063eb1e627014610356578063f2504a6a1461037f575b600080fd5b3480156100ec57600080fd5b50610107600480360361010291908101906118d6565b6103a8565b6040516101149190611dc6565b60405180910390f35b34801561012957600080fd5b50610144600480360361013f9190810190611992565b6103c6565b005b34801561015257600080fd5b5061016d600480360361016891908101906118d6565b61042e565b005b34801561017b57600080fd5b5061019660048036036101919190810190611992565b610489565b6040516101a39190611cd5565b60405180910390f35b3480156101b857600080fd5b506101d360048036036101ce9190810190611992565b610929565b6040516101e596959493929190611e50565b60405180910390f35b3480156101fa57600080fd5b50610215600480360361021091908101906118ff565b610a95565b005b34801561022357600080fd5b5061022c610c1c565b6040516102399190611dc6565b60405180910390f35b34801561024e57600080fd5b50610257610c22565b6040516102649190611dc6565b60405180910390f35b34801561027957600080fd5b50610294600480360361028f91908101906118d6565b610c28565b6040516102a19190611cf7565b60405180910390f35b3480156102b657600080fd5b506102bf610c48565b6040516102cc9190611dc6565b60405180910390f35b3480156102e157600080fd5b506102ea610c4e565b6040516102f79190611d12565b60405180910390f35b34801561030c57600080fd5b50610315610cec565b6040516103229190611d12565b60405180910390f35b34801561033757600080fd5b50610340610d8a565b60405161034d9190611c91565b60405180910390f35b34801561036257600080fd5b5061037d60048036036103789190810190611a92565b610db0565b005b34801561038b57600080fd5b506103a660048036036103a191908101906119bb565b611060565b005b60076020528060005260406000206000915090508060000154905081565b600560009054906101000a900473ffffffffffffffffffffffffffffffffffffffff1673ffffffffffffffffffffffffffffffffffffffff163373ffffffffffffffffffffffffffffffffffffffff1614151561042257600080fd5b80420160028190555050565b6001600860008373ffffffffffffffffffffffffffffffffffffffff1673ffffffffffffffffffffffffffffffffffffffff16815260200190815260200160002060006101000a81548160ff02191690831515021790555050565b60606104936116be565b6006600084815260200190815260200160002060e0604051908101604052908160008201548152602001600182018054600181600116156101000203166002900480601f0160208091040260200160405190810160405280929190818152602001828054600181600116156101000203166002900480156105555780601f1061052a57610100808354040283529160200191610555565b820191906000526020600020905b81548152906001019060200180831161053857829003601f168201915b50505050508152602001600282018054600181600116156101000203166002900480601f0160208091040260200160405190810160405280929190818152602001828054600181600116156101000203166002900480156105f75780601f106105cc576101008083540402835291602001916105f7565b820191906000526020600020905b8154815290600101906020018083116105da57829003601f168201915b5050505050815260200160038201548152602001600482015481526020016005820154815260200160068201805480602002602001604051908101604052809291908181526020016000905b82821015610912578382906000526020600020906006020160c0604051908101604052908160008201548152602001600182018054600181600116156101000203166002900480601f01602080910402602001604051908101604052809291908181526020018280546001816001161561010002031660029004801561070a5780601f106106df5761010080835404028352916020019161070a565b820191906000526020600020905b8154815290600101906020018083116106ed57829003601f168201915b50505050508152602001600282018054600181600116156101000203166002900480601f0160208091040260200160405190810160405280929190818152602001828054600181600116156101000203166002900480156107ac5780601f10610781576101008083540402835291602001916107ac565b820191906000526020600020905b81548152906001019060200180831161078f57829003601f168201915b50505050508152602001600382018054600181600116156101000203166002900480601f01602080910402602001604051908101604052809291908181526020018280546001816001161561010002031660029004801561084e5780601f106108235761010080835404028352916020019161084e565b820191906000526020600020905b81548152906001019060200180831161083157829003601f168201915b50505050508152602001600482018054600181600116156101000203166002900480601f0160208091040260200160405190810160405280929190818152602001828054600181600116156101000203166002900480156108f05780601f106108c5576101008083540402835291602001916108f0565b820191906000526020600020905b8154815290600101906020018083116108d357829003601f168201915b5050505050815260200160058201548152505081526020019060010190610643565b505050508152505090508060c00151915050919050565b6006602052806000526040600020600091509050806000015490806001018054600181600116156101000203166002900480601f0160208091040260200160405190810160405280929190818152602001828054600181600116156101000203166002900480156109db5780601f106109b0576101008083540402835291602001916109db565b820191906000526020600020905b8154815290600101906020018083116109be57829003601f168201915b505050505090806002018054600181600116156101000203166002900480601f016020809104026020016040519081016040528092919081815260200182805460018160011615610100020316600290048015610a795780601f10610a4e57610100808354040283529160200191610a79565b820191906000526020600020905b815481529060010190602001808311610a5c57829003601f168201915b5050505050908060030154908060040154908060050154905086565b600560009054906101000a900473ffffffffffffffffffffffffffffffffffffffff1673ffffffffffffffffffffffffffffffffffffffff163373ffffffffffffffffffffffffffffffffffffffff16141515610af157600080fd5b60036000815480929190600101919050555060035460066000600354815260200190815260200160002060000181905550836006600060035481526020019081526020016000206001019080519060200190610b4e9291906116fc565b50826006600060035481526020019081526020016000206002019080519060200190610b7b9291906116fc565b508160066000600354815260200190815260200160002060030181905550806006600060035481526020019081526020016000206004018190555042600660006003548152602001908152602001600020600501819055507f8b59edb9f4e30a463afccefae6a372c4cee3648e91466f14caca75ba52d9bb1e6003548585858542604051610c0e96959493929190611de1565b60405180910390a150505050565b60035481565b60025481565b60086020528060005260406000206000915054906101000a900460ff1681565b60045481565b60008054600181600116156101000203166002900480601f016020809104026020016040519081016040528092919081815260200182805460018160011615610100020316600290048015610ce45780601f10610cb957610100808354040283529160200191610ce4565b820191906000526020600020905b815481529060010190602001808311610cc757829003601f168201915b505050505081565b60018054600181600116156101000203166002900480601f016020809104026020016040519081016040528092919081815260200182805460018160011615610100020316600290048015610d825780601f10610d5757610100808354040283529160200191610d82565b820191906000526020600020905b815481529060010190602001808311610d6557829003601f168201915b505050505081565b600560009054906101000a900473ffffffffffffffffffffffffffffffffffffffff1681565b600860003373ffffffffffffffffffffffffffffffffffffffff1673ffffffffffffffffffffffffffffffffffffffff16815260200190815260200160002060009054906101000a900460ff161515610e0857600080fd5b600081118015610e1a57506004548111155b1515610e2557600080fd5b6060600760003373ffffffffffffffffffffffffffffffffffffffff1673ffffffffffffffffffffffffffffffffffffffff168152602001908152602001600020600101805480602002602001604051908101604052809291908181526020018280548015610eb357602002820191906000526020600020905b815481526020019060010190808311610e9f575b5050505050905060008151905060008090505b8181111515610f1b57848382815181101515610ede57fe5b906020019060200201511415610f0e576001600960006101000a81548160ff021916908315150217905550610f1b565b8080600101915050610ec6565b50600960009054906101000a900460ff16151561102057600760003373ffffffffffffffffffffffffffffffffffffffff1673ffffffffffffffffffffffffffffffffffffffff1681526020019081526020016000206001018490806001815401808255809150509060018203906000526020600020016000909192909190915055506006600085815260200190815260200160002060060160018403815481101515610fc457fe5b9060005260206000209060060201600501600081548092919060010191905055507f8eb81cb806dbb3d8a2f94981614331a55dfd90e06a42fdc362ca3ca96981d92f336001604051611017929190611cac565b60405180910390a15b7f8eb81cb806dbb3d8a2f94981614331a55dfd90e06a42fdc362ca3ca96981d92f336001604051611052929190611cac565b60405180910390a150505050565b600560009054906101000a900473ffffffffffffffffffffffffffffffffffffffff1673ffffffffffffffffffffffffffffffffffffffff163373ffffffffffffffffffffffffffffffffffffffff161415156110bc57600080fd5b6110c46116be565b6006600087815260200190815260200160002060e0604051908101604052908160008201548152602001600182018054600181600116156101000203166002900480601f0160208091040260200160405190810160405280929190818152602001828054600181600116156101000203166002900480156111865780601f1061115b57610100808354040283529160200191611186565b820191906000526020600020905b81548152906001019060200180831161116957829003601f168201915b50505050508152602001600282018054600181600116156101000203166002900480601f0160208091040260200160405190810160405280929190818152602001828054600181600116156101000203166002900480156112285780601f106111fd57610100808354040283529160200191611228565b820191906000526020600020905b81548152906001019060200180831161120b57829003601f168201915b5050505050815260200160038201548152602001600482015481526020016005820154815260200160068201805480602002602001604051908101604052809291908181526020016000905b82821015611543578382906000526020600020906006020160c0604051908101604052908160008201548152602001600182018054600181600116156101000203166002900480601f01602080910402602001604051908101604052809291908181526020018280546001816001161561010002031660029004801561133b5780601f106113105761010080835404028352916020019161133b565b820191906000526020600020905b81548152906001019060200180831161131e57829003601f168201915b50505050508152602001600282018054600181600116156101000203166002900480601f0160208091040260200160405190810160405280929190818152602001828054600181600116156101000203166002900480156113dd5780601f106113b2576101008083540402835291602001916113dd565b820191906000526020600020905b8154815290600101906020018083116113c057829003601f168201915b50505050508152602001600382018054600181600116156101000203166002900480601f01602080910402602001604051908101604052809291908181526020018280546001816001161561010002031660029004801561147f5780601f106114545761010080835404028352916020019161147f565b820191906000526020600020905b81548152906001019060200180831161146257829003601f168201915b50505050508152602001600482018054600181600116156101000203166002900480601f0160208091040260200160405190810160405280929190818152602001828054600181600116156101000203166002900480156115215780601f106114f657610100808354040283529160200191611521565b820191906000526020600020905b81548152906001019060200180831161150457829003601f168201915b5050505050815260200160058201548152505081526020019060010190611274565b5050505081525050905060046000815480929190600101919050555061156761177c565b60c0604051908101604052806004548152602001878152602001868152602001858152602001848152602001600081525090506006600088815260200190815260200160002060060181908060018154018082558091505090600182039060005260206000209060060201600090919290919091506000820151816000015560208201518160010190805190602001906116029291906117b3565b50604082015181600201908051906020019061161f9291906117b3565b50606082015181600301908051906020019061163c9291906117b3565b5060808201518160040190805190602001906116599291906117b3565b5060a082015181600501555050507f24107f57307d59c1340861409bb1693828565458d05804c1040dfd8f9dd9eb198260200151836040015160045489898960006040516116ad9796959493929190611d34565b60405180910390a150505050505050565b60e060405190810160405280600081526020016060815260200160608152602001600081526020016000815260200160008152602001606081525090565b828054600181600116156101000203166002900490600052602060002090601f016020900481019282601f1061173d57805160ff191683800117855561176b565b8280016001018555821561176b579182015b8281111561176a57825182559160200191906001019061174f565b5b5090506117789190611833565b5090565b60c0604051908101604052806000815260200160608152602001606081526020016060815260200160608152602001600081525090565b828054600181600116156101000203166002900490600052602060002090601f016020900481019282601f106117f457805160ff1916838001178555611822565b82800160010185558215611822579182015b82811115611821578251825591602001919060010190611806565b5b50905061182f9190611833565b5090565b61185591905b80821115611851576000816000905550600101611839565b5090565b90565b60006118648235611f9b565b905092915050565b600082601f830112151561187f57600080fd5b813561189261188d82611eec565b611ebf565b915080825260208301602083018583830111156118ae57600080fd5b6118b9838284611fff565b50505092915050565b60006118ce8235611fad565b905092915050565b6000602082840312156118e857600080fd5b60006118f684828501611858565b91505092915050565b6000806000806080858703121561191557600080fd5b600085013567ffffffffffffffff81111561192f57600080fd5b61193b8782880161186c565b945050602085013567ffffffffffffffff81111561195857600080fd5b6119648782880161186c565b9350506040611975878288016118c2565b9250506060611986878288016118c2565b91505092959194509250565b6000602082840312156119a457600080fd5b60006119b2848285016118c2565b91505092915050565b600080600080600060a086880312156119d357600080fd5b60006119e1888289016118c2565b955050602086013567ffffffffffffffff8111156119fe57600080fd5b611a0a8882890161186c565b945050604086013567ffffffffffffffff811115611a2757600080fd5b611a338882890161186c565b935050606086013567ffffffffffffffff811115611a5057600080fd5b611a5c8882890161186c565b925050608086013567ffffffffffffffff811115611a7957600080fd5b611a858882890161186c565b9150509295509295909350565b60008060408385031215611aa557600080fd5b6000611ab3858286016118c2565b9250506020611ac4858286016118c2565b9150509250929050565b611ad781611fb7565b82525050565b611ae681611f53565b82525050565b6000611af782611f25565b80845260208401935083602082028501611b1085611f18565b60005b84811015611b49578383038852611b2b838351611be4565b9250611b3682611f46565b9150602088019750600181019050611b13565b508196508694505050505092915050565b611b6381611f65565b82525050565b611b7281611fc9565b82525050565b6000611b8382611f3b565b808452611b9781602086016020860161200e565b611ba081612041565b602085010191505092915050565b6000611bb982611f30565b808452611bcd81602086016020860161200e565b611bd681612041565b602085010191505092915050565b600060c083016000830151611bfc6000860182611c82565b5060208301518482036020860152611c148282611bae565b91505060408301518482036040860152611c2e8282611bae565b91505060608301518482036060860152611c488282611bae565b91505060808301518482036080860152611c628282611bae565b91505060a0830151611c7760a0860182611c82565b508091505092915050565b611c8b81611f91565b82525050565b6000602082019050611ca66000830184611add565b92915050565b6000604082019050611cc16000830185611ace565b611cce6020830184611b5a565b9392505050565b60006020820190508181036000830152611cef8184611aec565b905092915050565b6000602082019050611d0c6000830184611b5a565b92915050565b60006020820190508181036000830152611d2c8184611bae565b905092915050565b600060e0820190508181036000830152611d4e818a611bae565b90508181036020830152611d628189611bae565b9050611d716040830188611c82565b8181036060830152611d838187611b78565b90508181036080830152611d978186611b78565b905081810360a0830152611dab8185611b78565b9050611dba60c0830184611b69565b98975050505050505050565b6000602082019050611ddb6000830184611c82565b92915050565b600060c082019050611df66000830189611c82565b8181036020830152611e088188611b78565b90508181036040830152611e1c8187611b78565b9050611e2b6060830186611c82565b611e386080830185611c82565b611e4560a0830184611c82565b979650505050505050565b600060c082019050611e656000830189611c82565b8181036020830152611e778188611bae565b90508181036040830152611e8b8187611bae565b9050611e9a6060830186611c82565b611ea76080830185611c82565b611eb460a0830184611c82565b979650505050505050565b6000604051905081810181811067ffffffffffffffff82111715611ee257600080fd5b8060405250919050565b600067ffffffffffffffff821115611f0357600080fd5b601f19601f8301169050602081019050919050565b6000602082019050919050565b600081519050919050565b600081519050919050565b600081519050919050565b6000602082019050919050565b6000611f5e82611f71565b9050919050565b60008115159050919050565b600073ffffffffffffffffffffffffffffffffffffffff82169050919050565b6000819050919050565b6000611fa682611f71565b9050919050565b6000819050919050565b6000611fc282611fdb565b9050919050565b6000611fd482611f91565b9050919050565b6000611fe682611fed565b9050919050565b6000611ff882611f71565b9050919050565b82818337600083830152505050565b60005b8381101561202c578082015181840152602081019050612011565b8381111561203b576000848401525b50505050565b6000601f19601f830116905091905056fea265627a7a72305820b0e04a7b5d7746b493733079d3aaae41714deb3804e5ba38653c69e7294a86d76c6578706572696d656e74616cf50037",
  "source": "pragma solidity ^0.5.0;\r\npragma experimental ABIEncoderV2;\r\n\r\n\r\ncontract Voting{\r\n    string public dapp_name=\"UniVote\";  // name of dapp\r\n    string public dapp_developer=\"@GoodnessEzeokafor and @EmmanuelUmeh\"; // smart contract developer\r\n    uint public electionEndTime; // electionENdTIme\r\n    uint public electionCount; //total number of election\r\n    uint public candidateCount; // totalnumber of candidates\r\n    address public electionAuthority;  // election creator\r\n    mapping(uint => Election) public elections;  //GET ELECTION LIST\r\n    // mapping (uint => Candidate) public candidates; // Candidate ID to number of votes\r\n     mapping (address => Voter) public votedStruct; // Elections one has Voted on\r\n    mapping (address => bool) public voters; // Registered voters\r\n    // mapping (address => []) public hasVoted; // If a registered voter has voted or not\r\n\r\n    \r\n    // mapping(uint => Candidate) public candidates;  //GET ELECTION LIST\r\n\r\n    bool found;\r\n\r\n    // Candidate[] public candidates;\r\n    /* MODIFIERS */\r\n        // Modifiers\r\n\r\n    // Ensures only owners can call a function\r\n    modifier only_election_authority() {\r\n        if (msg.sender != electionAuthority) revert();\r\n        _;\r\n    }\r\n\r\n    // // Ensures only registered voters can vote\r\n     modifier only_registered_voters() {\r\n        if (!voters[msg.sender]) revert();\r\n        _;\r\n    }\r\n\r\n    // // Ensures voters can vote just once!!! Their fada\r\n    // modifier vote_only_once() {\r\n    //     if (hasVoted[msg.sender]) revert();\r\n    //     _;\r\n    // }   \r\n\r\n    // // Only Vote during election time and We make cash\r\n\r\n      modifier only_during_election_time() {\r\n        if (electionEndTime == 0 || electionEndTime > block.timestamp) revert();\r\n        _;\r\n    }\r\n    constructor() public {\r\n        electionAuthority =  0x4516dF95e7f7985FF2806AB06cEf1A9930662711;\r\n    }\r\n\r\n\r\n    /*  CANDIDATE STRUCT */\r\n    struct Candidate {\r\n        uint id;\r\n        string name;\r\n        string department;\r\n        string level;\r\n        string post;\r\n        uint voteCount;\r\n    }\r\n\r\n\r\n    /* END CANDIDATE STRUCT */\r\n\r\n\r\n    // Voter Struct\r\n\r\n    struct Voter{\r\n        uint id;\r\n        uint[] votedElections;\r\n        // mapping (uint => Candidate)  candidates; // Candidate ID to number of votes\r\n        // Candidate[] candidates;\r\n    }\r\n\r\n\r\n    /*  ELECTION STRUCT */\r\n    struct Election{\r\n        uint id;\r\n        string name_of_election;\r\n        string description_of_election;\r\n        uint duration; // in minutes\r\n        uint startTime; // \r\n        uint timestamp; \r\n        // mapping (uint => Candidate)  candidates; // Candidate ID to number of votes\r\n        Candidate[] candidates;\r\n    }\r\n    /* END ELECTION STRUCT */\r\n\r\n\r\n    event NewElection(\r\n        uint id,\r\n        string name_of_election,\r\n        string description_of_election,\r\n        uint duration,\r\n        uint startTime,\r\n        uint timestamp\r\n        // Candidate candidates // Candidate ID to number of votes\r\n    );\r\n\r\n    event NewCandidate(\r\n        string election_name,\r\n        string election_description,\r\n        uint id,\r\n        string name,\r\n        string department,\r\n        string level,\r\n        uint voteCount\r\n    );\r\n\r\n    event Voted(\r\n        address voter,\r\n        bool voted\r\n    );\r\n\r\n\r\n\r\n\r\n    // methods\r\n\r\n    function createElection(\r\n                string memory _name_of_election, \r\n                string memory  _description_of_election,\r\n                 uint _duration,\r\n                 uint _startTime\r\n                 ) public only_election_authority {\r\n        \r\n        electionCount ++;\r\n        // Candidate memory new_candidate = Candidate(0,\"Not A Candidate\",\"Not A Candidate\", \"Not A Candidate\",\"NOT A CANDIDATE\",0);\r\n        elections[electionCount].id = electionCount;\r\n        elections[electionCount].name_of_election = _name_of_election;\r\n        elections[electionCount].description_of_election = _description_of_election;\r\n        elections[electionCount].duration = _duration;\r\n        elections[electionCount].startTime = _startTime;\r\n        elections[electionCount].timestamp = now;\r\n        // elections[electionCount].candidates.push(new_candidate);\r\n        emit NewElection(\r\n            electionCount,\r\n            _name_of_election,\r\n            _description_of_election,\r\n            _duration,\r\n            _startTime,\r\n            now\r\n            // new_candidate        \r\n        );\r\n    }\r\n\r\n\r\n    function createCandidate(\r\n                        \r\n                            uint _electionId,\r\n                            string memory  _name,\r\n                            string memory _department,\r\n                            string memory  _level,\r\n                            string memory _post\r\n                            ) public only_election_authority{\r\n        Election memory e = elections[_electionId];\r\n        \r\n        candidateCount++;\r\n        Candidate memory new_candidate = Candidate(candidateCount,_name,_department,_level,_post, 0);\r\n        elections[_electionId].candidates.push(new_candidate);\r\n        // elections[_id].candidates.push(new_candidate);\r\n        // candidates[candidateCount] = new_candidate;\r\n\r\n\r\n\r\n\r\n        emit NewCandidate(\r\n                e.name_of_election,\r\n                e.description_of_election,\r\n                candidateCount,\r\n                _name,\r\n                _department,\r\n                _level,\r\n                0);\r\n    }\r\n\r\n// Register a voter for when we using the UJ API to register voters\r\n    function register_voter(address addr) public {\r\n        voters[addr] = true;\r\n    }\r\n\r\n      function start_election(uint duration) public only_election_authority{\r\n        electionEndTime =   block.timestamp + duration; \r\n    }\r\n  \r\n\r\n      function voteCandidate(uint _electionId, uint _candidateId) public only_registered_voters\r\n\r\n        // Remember to check why time fails in tests!!\r\n        // only_during_election_time\r\n        // vote_only_once\r\n        {\r\n        // // require that they haven't voted before\r\n        // require(!voters[msg.sender]);\r\n\r\n            // Ensures the candidate exists\r\n        require(_candidateId > 0 && _candidateId <= candidateCount);\r\n        // require(_electionId > 0 && _electionId <= electionCount);\r\n\r\n        // record that voter has voted\r\n\r\n        // require(hasVoted[])\r\n        // hasVoted[msg.sender] = _electionId;\r\n\r\n        // update candidate vote Count\r\n        // elections[_electionId].candidates[_candidateId].voteCount ++;\r\n         uint[] memory votersElections = votedStruct[msg.sender].votedElections;\r\n\r\n        uint arrayLength = votersElections.length;\r\n        for(uint i=0; i<=arrayLength; i++){\r\n            if(votersElections[i]==_electionId){\r\n                found=true;\r\n                break;\r\n            }\r\n        }\r\n\r\n         if(!found){\r\n            votedStruct[msg.sender].votedElections.push(_electionId);\r\n             elections[_electionId].candidates[_candidateId - 1].voteCount ++;\r\n            emit Voted(msg.sender,true);\r\n        }\r\n\r\n        \r\n        // singleElection.voteCount ++;\r\n        emit Voted(msg.sender,true);\r\n    }\r\n\r\n    function getElectionCandidates(uint _id) public view returns(\r\n                                // string memory,\r\n                                // string memory,\r\n                                Candidate[] memory\r\n                                ){\r\n        // return elections[_id].candidates;  \r\n        Election memory e = elections[_id];\r\n\r\n        // return elections[_id];\r\n        return(\r\n            // e.name_of_election,\r\n            // e.description_of_election,\r\n            e.candidates\r\n        );\r\n\r\n    }\r\n\r\n}\r\n\r\n\r\n\r\n    ",
  "sourcePath": "C:/Users/ALEX PC/Desktop/Univote/uniVote-2/client/src/contracts/Voting.sol",
  "compiler": {
    "name": "solc",
    "version": "0.5.0+commit.1d4f565a.Emscripten.clang"
  },
  "schemaVersion": "3.0.2",
  "updatedAt": "2020-01-14T21:22:19.035Z",
  "devdoc": {
    "methods": {}
  },
  "userdoc": {
    "methods": {}
  }
}