{
  "contractName": "Voting",
  "abi": [
    {
      "constant": true,
      "inputs": [
        {
          "name": "",
          "type": "address"
        }
      ],
      "name": "hasVoted",
      "outputs": [
        {
          "name": "",
          "type": "bool"
        }
      ],
      "payable": false,
      "stateMutability": "view",
      "type": "function"
    },
    {
      "constant": true,
      "inputs": [
        {
          "name": "",
          "type": "uint256"
        }
      ],
      "name": "candidates",
      "outputs": [
        {
          "name": "id",
          "type": "uint256"
        },
        {
          "name": "name",
          "type": "string"
        },
        {
          "name": "department",
          "type": "string"
        },
        {
          "name": "level",
          "type": "string"
        },
        {
          "name": "post",
          "type": "string"
        },
        {
          "name": "voteCount",
          "type": "uint256"
        }
      ],
      "payable": false,
      "stateMutability": "view",
      "type": "function"
    },
    {
      "constant": true,
      "inputs": [
        {
          "name": "",
          "type": "uint256"
        }
      ],
      "name": "elections",
      "outputs": [
        {
          "name": "id",
          "type": "uint256"
        },
        {
          "name": "name_of_election",
          "type": "string"
        },
        {
          "name": "description_of_election",
          "type": "string"
        },
        {
          "name": "duration",
          "type": "uint256"
        },
        {
          "name": "startTime",
          "type": "uint256"
        },
        {
          "name": "timestamp",
          "type": "uint256"
        }
      ],
      "payable": false,
      "stateMutability": "view",
      "type": "function"
    },
    {
      "constant": true,
      "inputs": [],
      "name": "electionCount",
      "outputs": [
        {
          "name": "",
          "type": "uint256"
        }
      ],
      "payable": false,
      "stateMutability": "view",
      "type": "function"
    },
    {
      "constant": true,
      "inputs": [],
      "name": "electionEndTime",
      "outputs": [
        {
          "name": "",
          "type": "uint256"
        }
      ],
      "payable": false,
      "stateMutability": "view",
      "type": "function"
    },
    {
      "constant": true,
      "inputs": [
        {
          "name": "",
          "type": "address"
        }
      ],
      "name": "voters",
      "outputs": [
        {
          "name": "",
          "type": "bool"
        }
      ],
      "payable": false,
      "stateMutability": "view",
      "type": "function"
    },
    {
      "constant": true,
      "inputs": [],
      "name": "candidateCount",
      "outputs": [
        {
          "name": "",
          "type": "uint256"
        }
      ],
      "payable": false,
      "stateMutability": "view",
      "type": "function"
    },
    {
      "constant": true,
      "inputs": [],
      "name": "dapp_name",
      "outputs": [
        {
          "name": "",
          "type": "string"
        }
      ],
      "payable": false,
      "stateMutability": "view",
      "type": "function"
    },
    {
      "constant": true,
      "inputs": [],
      "name": "dapp_developer",
      "outputs": [
        {
          "name": "",
          "type": "string"
        }
      ],
      "payable": false,
      "stateMutability": "view",
      "type": "function"
    },
    {
      "constant": true,
      "inputs": [],
      "name": "electionAuthority",
      "outputs": [
        {
          "name": "",
          "type": "address"
        }
      ],
      "payable": false,
      "stateMutability": "view",
      "type": "function"
    },
    {
      "inputs": [],
      "payable": false,
      "stateMutability": "nonpayable",
      "type": "constructor"
    },
    {
      "anonymous": false,
      "inputs": [
        {
          "indexed": false,
          "name": "id",
          "type": "uint256"
        },
        {
          "indexed": false,
          "name": "name_of_election",
          "type": "string"
        },
        {
          "indexed": false,
          "name": "description_of_election",
          "type": "string"
        },
        {
          "indexed": false,
          "name": "duration",
          "type": "uint256"
        },
        {
          "indexed": false,
          "name": "startTime",
          "type": "uint256"
        },
        {
          "indexed": false,
          "name": "timestamp",
          "type": "uint256"
        }
      ],
      "name": "NewElection",
      "type": "event"
    },
    {
      "anonymous": false,
      "inputs": [
        {
          "indexed": false,
          "name": "election_name",
          "type": "string"
        },
        {
          "indexed": false,
          "name": "election_description",
          "type": "string"
        },
        {
          "indexed": false,
          "name": "id",
          "type": "uint256"
        },
        {
          "indexed": false,
          "name": "name",
          "type": "string"
        },
        {
          "indexed": false,
          "name": "department",
          "type": "string"
        },
        {
          "indexed": false,
          "name": "level",
          "type": "string"
        },
        {
          "indexed": false,
          "name": "post",
          "type": "string"
        },
        {
          "indexed": false,
          "name": "voteCount",
          "type": "uint256"
        }
      ],
      "name": "NewCandidate",
      "type": "event"
    },
    {
      "anonymous": false,
      "inputs": [
        {
          "indexed": false,
          "name": "voter",
          "type": "address"
        },
        {
          "indexed": false,
          "name": "voted",
          "type": "bool"
        }
      ],
      "name": "Voted",
      "type": "event"
    },
    {
      "constant": false,
      "inputs": [
        {
          "name": "_name_of_election",
          "type": "string"
        },
        {
          "name": "_description_of_election",
          "type": "string"
        },
        {
          "name": "_duration",
          "type": "uint256"
        },
        {
          "name": "_startTime",
          "type": "uint256"
        }
      ],
      "name": "createElection",
      "outputs": [],
      "payable": false,
      "stateMutability": "nonpayable",
      "type": "function"
    },
    {
      "constant": false,
      "inputs": [
        {
          "name": "_id",
          "type": "uint256"
        },
        {
          "name": "_name",
          "type": "string"
        },
        {
          "name": "_department",
          "type": "string"
        },
        {
          "name": "_level",
          "type": "string"
        },
        {
          "name": "_post",
          "type": "string"
        }
      ],
      "name": "createCandidate",
      "outputs": [],
      "payable": false,
      "stateMutability": "nonpayable",
      "type": "function"
    },
    {
      "constant": false,
      "inputs": [
        {
          "name": "addr",
          "type": "address"
        }
      ],
      "name": "register_voter",
      "outputs": [],
      "payable": false,
      "stateMutability": "nonpayable",
      "type": "function"
    },
    {
      "constant": false,
      "inputs": [
        {
          "name": "duration",
          "type": "uint256"
        }
      ],
      "name": "start_election",
      "outputs": [],
      "payable": false,
      "stateMutability": "nonpayable",
      "type": "function"
    },
    {
      "constant": false,
      "inputs": [
        {
          "name": "_candidateId",
          "type": "uint256"
        }
      ],
      "name": "voteCandidate",
      "outputs": [],
      "payable": false,
      "stateMutability": "nonpayable",
      "type": "function"
    },
    {
      "constant": true,
      "inputs": [
        {
          "name": "_id",
          "type": "uint256"
        }
      ],
      "name": "getElectionCandidates",
      "outputs": [
        {
          "name": "",
          "type": "string"
        },
        {
          "name": "",
          "type": "string"
        }
      ],
      "payable": false,
      "stateMutability": "view",
      "type": "function"
    }
  ],
  "bytecode": "0x60806040526040805190810160405280600781526020017f556e69566f746500000000000000000000000000000000000000000000000000815250600090805190602001906200005192919062000130565b50606060405190810160405280602481526020017f40476f6f646e657373457a656f6b61666f7220616e642040456d6d616e75656c81526020017f556d65680000000000000000000000000000000000000000000000000000000081525060019080519060200190620000c692919062000130565b50348015620000d457600080fd5b50731a98ca9788077b83b6c6ffd56e4ecdee00bdd2c7600560006101000a81548173ffffffffffffffffffffffffffffffffffffffff021916908373ffffffffffffffffffffffffffffffffffffffff160217905550620001df565b828054600181600116156101000203166002900490600052602060002090601f016020900481019282601f106200017357805160ff1916838001178555620001a4565b82800160010185558215620001a4579182015b82811115620001a357825182559160200191906001019062000186565b5b509050620001b39190620001b7565b5090565b620001dc91905b80821115620001d8576000816000905550600101620001be565b5090565b90565b6118c080620001ef6000396000f3fe6080604052600436106100e6576000357c0100000000000000000000000000000000000000000000000000000000900463ffffffff16806309eef43e146100eb5780632de096ff146101285780633477ee2e146101515780634f2c51b9146101935780635e12845e146101bc5780635e6fef01146101fa5780637ad36e841461023c5780638c08a4dc14610265578063997d28301461028e5780639e136e64146102b9578063a3ec138d146102e4578063a9a981a314610321578063b3ea346b1461034c578063c955925214610377578063dc46d6ea146103a2578063f2504a6a146103cd575b600080fd5b3480156100f757600080fd5b50610112600480360361010d9190810190611298565b6103f6565b60405161011f9190611540565b60405180910390f35b34801561013457600080fd5b5061014f600480360361014a9190810190611354565b610416565b005b34801561015d57600080fd5b5061017860048036036101739190810190611354565b61047e565b60405161018a9695949392919061163e565b60405180910390f35b34801561019f57600080fd5b506101ba60048036036101b59190810190611298565b61071a565b005b3480156101c857600080fd5b506101e360048036036101de9190810190611354565b610775565b6040516101f192919061157d565b60405180910390f35b34801561020657600080fd5b50610221600480360361021c9190810190611354565b610927565b604051610233969594939291906116bb565b60405180910390f35b34801561024857600080fd5b50610263600480360361025e91908101906112c1565b610a93565b005b34801561027157600080fd5b5061028c60048036036102879190810190611354565b610c1a565b005b34801561029a57600080fd5b506102a3610da1565b6040516102b091906115b4565b60405180910390f35b3480156102c557600080fd5b506102ce610da7565b6040516102db91906115b4565b60405180910390f35b3480156102f057600080fd5b5061030b60048036036103069190810190611298565b610dad565b6040516103189190611540565b60405180910390f35b34801561032d57600080fd5b50610336610dcd565b60405161034391906115b4565b60405180910390f35b34801561035857600080fd5b50610361610dd3565b60405161036e919061155b565b60405180910390f35b34801561038357600080fd5b5061038c610e71565b604051610399919061155b565b60405180910390f35b3480156103ae57600080fd5b506103b7610f0f565b6040516103c491906114fc565b60405180910390f35b3480156103d957600080fd5b506103f460048036036103ef919081019061137d565b610f35565b005b60086020528060005260406000206000915054906101000a900460ff1681565b600560009054906101000a900473ffffffffffffffffffffffffffffffffffffffff1673ffffffffffffffffffffffffffffffffffffffff163373ffffffffffffffffffffffffffffffffffffffff1614151561047257600080fd5b80420160028190555050565b6009602052806000526040600020600091509050806000015490806001018054600181600116156101000203166002900480601f0160208091040260200160405190810160405280929190818152602001828054600181600116156101000203166002900480156105305780601f1061050557610100808354040283529160200191610530565b820191906000526020600020905b81548152906001019060200180831161051357829003601f168201915b505050505090806002018054600181600116156101000203166002900480601f0160208091040260200160405190810160405280929190818152602001828054600181600116156101000203166002900480156105ce5780601f106105a3576101008083540402835291602001916105ce565b820191906000526020600020905b8154815290600101906020018083116105b157829003601f168201915b505050505090806003018054600181600116156101000203166002900480601f01602080910402602001604051908101604052809291908181526020018280546001816001161561010002031660029004801561066c5780601f106106415761010080835404028352916020019161066c565b820191906000526020600020905b81548152906001019060200180831161064f57829003601f168201915b505050505090806004018054600181600116156101000203166002900480601f01602080910402602001604051908101604052809291908181526020018280546001816001161561010002031660029004801561070a5780601f106106df5761010080835404028352916020019161070a565b820191906000526020600020905b8154815290600101906020018083116106ed57829003601f168201915b5050505050908060050154905086565b6001600760008373ffffffffffffffffffffffffffffffffffffffff1673ffffffffffffffffffffffffffffffffffffffff16815260200190815260200160002060006101000a81548160ff02191690831515021790555050565b606080610780611087565b6006600085815260200190815260200160002060c0604051908101604052908160008201548152602001600182018054600181600116156101000203166002900480601f0160208091040260200160405190810160405280929190818152602001828054600181600116156101000203166002900480156108425780601f1061081757610100808354040283529160200191610842565b820191906000526020600020905b81548152906001019060200180831161082557829003601f168201915b50505050508152602001600282018054600181600116156101000203166002900480601f0160208091040260200160405190810160405280929190818152602001828054600181600116156101000203166002900480156108e45780601f106108b9576101008083540402835291602001916108e4565b820191906000526020600020905b8154815290600101906020018083116108c757829003601f168201915b5050505050815260200160038201548152602001600482015481526020016005820154815250509050806020015181604001518191508090509250925050915091565b6006602052806000526040600020600091509050806000015490806001018054600181600116156101000203166002900480601f0160208091040260200160405190810160405280929190818152602001828054600181600116156101000203166002900480156109d95780601f106109ae576101008083540402835291602001916109d9565b820191906000526020600020905b8154815290600101906020018083116109bc57829003601f168201915b505050505090806002018054600181600116156101000203166002900480601f016020809104026020016040519081016040528092919081815260200182805460018160011615610100020316600290048015610a775780601f10610a4c57610100808354040283529160200191610a77565b820191906000526020600020905b815481529060010190602001808311610a5a57829003601f168201915b5050505050908060030154908060040154908060050154905086565b600560009054906101000a900473ffffffffffffffffffffffffffffffffffffffff1673ffffffffffffffffffffffffffffffffffffffff163373ffffffffffffffffffffffffffffffffffffffff16141515610aef57600080fd5b60036000815480929190600101919050555060035460066000600354815260200190815260200160002060000181905550836006600060035481526020019081526020016000206001019080519060200190610b4c9291906110be565b50826006600060035481526020019081526020016000206002019080519060200190610b799291906110be565b508160066000600354815260200190815260200160002060030181905550806006600060035481526020019081526020016000206004018190555042600660006003548152602001908152602001600020600501819055507f8b59edb9f4e30a463afccefae6a372c4cee3648e91466f14caca75ba52d9bb1e6003548585858542604051610c0c969594939291906115cf565b60405180910390a150505050565b600760003373ffffffffffffffffffffffffffffffffffffffff1673ffffffffffffffffffffffffffffffffffffffff16815260200190815260200160002060009054906101000a900460ff161515610c7257600080fd5b600860003373ffffffffffffffffffffffffffffffffffffffff1673ffffffffffffffffffffffffffffffffffffffff16815260200190815260200160002060009054906101000a900460ff1615610cc957600080fd5b600081118015610cdb57506004548111155b1515610ce657600080fd5b6001600860003373ffffffffffffffffffffffffffffffffffffffff1673ffffffffffffffffffffffffffffffffffffffff16815260200190815260200160002060006101000a81548160ff02191690831515021790555060096000828152602001908152602001600020600501600081548092919060010191905055507f8eb81cb806dbb3d8a2f94981614331a55dfd90e06a42fdc362ca3ca96981d92f336001604051610d96929190611517565b60405180910390a150565b60035481565b60025481565b60076020528060005260406000206000915054906101000a900460ff1681565b60045481565b60008054600181600116156101000203166002900480601f016020809104026020016040519081016040528092919081815260200182805460018160011615610100020316600290048015610e695780601f10610e3e57610100808354040283529160200191610e69565b820191906000526020600020905b815481529060010190602001808311610e4c57829003601f168201915b505050505081565b60018054600181600116156101000203166002900480601f016020809104026020016040519081016040528092919081815260200182805460018160011615610100020316600290048015610f075780601f10610edc57610100808354040283529160200191610f07565b820191906000526020600020905b815481529060010190602001808311610eea57829003601f168201915b505050505081565b600560009054906101000a900473ffffffffffffffffffffffffffffffffffffffff1681565b600560009054906101000a900473ffffffffffffffffffffffffffffffffffffffff1673ffffffffffffffffffffffffffffffffffffffff163373ffffffffffffffffffffffffffffffffffffffff16141515610f9157600080fd5b600460008154809291906001019190505550610fab61113e565b60c0604051908101604052806004548152602001868152602001858152602001848152602001838152602001600081525090508060096000600454815260200190815260200160002060008201518160000155602082015181600101908051906020019061101a929190611175565b506040820151816002019080519060200190611037929190611175565b506060820151816003019080519060200190611054929190611175565b506080820151816004019080519060200190611071929190611175565b5060a08201518160050155905050505050505050565b60c0604051908101604052806000815260200160608152602001606081526020016000815260200160008152602001600081525090565b828054600181600116156101000203166002900490600052602060002090601f016020900481019282601f106110ff57805160ff191683800117855561112d565b8280016001018555821561112d579182015b8281111561112c578251825591602001919060010190611111565b5b50905061113a91906111f5565b5090565b60c0604051908101604052806000815260200160608152602001606081526020016060815260200160608152602001600081525090565b828054600181600116156101000203166002900490600052602060002090601f016020900481019282601f106111b657805160ff19168380011785556111e4565b828001600101855582156111e4579182015b828111156111e35782518255916020019190600101906111c8565b5b5090506111f191906111f5565b5090565b61121791905b808211156112135760008160009055506001016111fb565b5090565b90565b600061122682356117e1565b905092915050565b600082601f830112151561124157600080fd5b813561125461124f82611757565b61172a565b9150808252602083016020830185838301111561127057600080fd5b61127b838284611833565b50505092915050565b600061129082356117f3565b905092915050565b6000602082840312156112aa57600080fd5b60006112b88482850161121a565b91505092915050565b600080600080608085870312156112d757600080fd5b600085013567ffffffffffffffff8111156112f157600080fd5b6112fd8782880161122e565b945050602085013567ffffffffffffffff81111561131a57600080fd5b6113268782880161122e565b935050604061133787828801611284565b925050606061134887828801611284565b91505092959194509250565b60006020828403121561136657600080fd5b600061137484828501611284565b91505092915050565b600080600080600060a0868803121561139557600080fd5b60006113a388828901611284565b955050602086013567ffffffffffffffff8111156113c057600080fd5b6113cc8882890161122e565b945050604086013567ffffffffffffffff8111156113e957600080fd5b6113f58882890161122e565b935050606086013567ffffffffffffffff81111561141257600080fd5b61141e8882890161122e565b925050608086013567ffffffffffffffff81111561143b57600080fd5b6114478882890161122e565b9150509295509295909350565b61145d816117fd565b82525050565b61146c81611799565b82525050565b61147b816117ab565b82525050565b600061148c8261178e565b8084526114a0816020860160208601611842565b6114a981611875565b602085010191505092915050565b60006114c282611783565b8084526114d6816020860160208601611842565b6114df81611875565b602085010191505092915050565b6114f6816117d7565b82525050565b60006020820190506115116000830184611463565b92915050565b600060408201905061152c6000830185611454565b6115396020830184611472565b9392505050565b60006020820190506115556000830184611472565b92915050565b6000602082019050818103600083015261157581846114b7565b905092915050565b600060408201905081810360008301526115978185611481565b905081810360208301526115ab8184611481565b90509392505050565b60006020820190506115c960008301846114ed565b92915050565b600060c0820190506115e460008301896114ed565b81810360208301526115f68188611481565b9050818103604083015261160a8187611481565b905061161960608301866114ed565b61162660808301856114ed565b61163360a08301846114ed565b979650505050505050565b600060c08201905061165360008301896114ed565b818103602083015261166581886114b7565b9050818103604083015261167981876114b7565b9050818103606083015261168d81866114b7565b905081810360808301526116a181856114b7565b90506116b060a08301846114ed565b979650505050505050565b600060c0820190506116d060008301896114ed565b81810360208301526116e281886114b7565b905081810360408301526116f681876114b7565b905061170560608301866114ed565b61171260808301856114ed565b61171f60a08301846114ed565b979650505050505050565b6000604051905081810181811067ffffffffffffffff8211171561174d57600080fd5b8060405250919050565b600067ffffffffffffffff82111561176e57600080fd5b601f19601f8301169050602081019050919050565b600081519050919050565b600081519050919050565b60006117a4826117b7565b9050919050565b60008115159050919050565b600073ffffffffffffffffffffffffffffffffffffffff82169050919050565b6000819050919050565b60006117ec826117b7565b9050919050565b6000819050919050565b60006118088261180f565b9050919050565b600061181a82611821565b9050919050565b600061182c826117b7565b9050919050565b82818337600083830152505050565b60005b83811015611860578082015181840152602081019050611845565b8381111561186f576000848401525b50505050565b6000601f19601f830116905091905056fea265627a7a7230582013087bfc64d4d2f14effe01840275eb6167129d781fea6f9854536d5ea5ba2666c6578706572696d656e74616cf50037",
  "source": "pragma solidity ^0.5.0;\r\npragma experimental ABIEncoderV2;\r\n\r\n\r\ncontract Voting{\r\n    string public dapp_name=\"UniVote\";  // name of dapp\r\n    string public dapp_developer=\"@GoodnessEzeokafor and @EmmanuelUmeh\"; // smart contract developer\r\n    uint public electionEndTime; // electionENdTIme\r\n    uint public electionCount; //total number of election\r\n    uint public candidateCount; // totalnumber of candidates\r\n    address public electionAuthority;  // election creator\r\n    mapping(uint => Election) public elections;  //GET ELECTION LIST\r\n    // mapping (uint => Candidate) public candidates; // Candidate ID to number of votes\r\n    mapping (address => bool) public voters; // Registered voters\r\n    mapping (address => bool) public hasVoted; // If a registered voter has voted or not\r\n    mapping(uint => Candidate) public candidates;  //GET ELECTION LIST\r\n\r\n    // Candidate[] public candidates;\r\n    /* MODIFIERS */\r\n        // Modifiers\r\n\r\n    // Ensures only owners can call a function\r\n    modifier only_election_authority() {\r\n        if (msg.sender != electionAuthority) revert();\r\n        _;\r\n    }\r\n\r\n    // // Ensures only registered voters can vote\r\n     modifier only_registered_voters() {\r\n        if (!voters[msg.sender]) revert();\r\n        _;\r\n    }\r\n\r\n    // // Ensures voters can vote just once!!! Their fada\r\n    modifier vote_only_once() {\r\n        if (hasVoted[msg.sender]) revert();\r\n        _;\r\n    }   \r\n\r\n    // // Only Vote during election time and We make cash\r\n\r\n      modifier only_during_election_time() {\r\n        if (electionEndTime == 0 || electionEndTime > block.timestamp) revert();\r\n        _;\r\n    }\r\n    constructor() public {\r\n        electionAuthority = 0x1A98cA9788077B83b6C6ffd56E4ECDEe00bdd2c7;\r\n    }\r\n\r\n\r\n    /*  CANDIDATE STRUCT */\r\n    struct Candidate {\r\n        uint id;\r\n        string name;\r\n        string department;\r\n        string level;\r\n        string post;\r\n        uint voteCount;\r\n    }\r\n    /* END CANDIDATE STRUCT */\r\n\r\n\r\n    /*  ELECTION STRUCT */\r\n    struct Election{\r\n        uint id;\r\n        string name_of_election;\r\n        string description_of_election;\r\n        uint duration; // in minutes\r\n        uint startTime; // \r\n        uint timestamp; \r\n        // mapping (uint => Candidate)  candidates; // Candidate ID to number of votes\r\n        // Candidate[] candidates;\r\n    }\r\n    /* END ELECTION STRUCT */\r\n\r\n\r\n    event NewElection(\r\n        uint id,\r\n        string name_of_election,\r\n        string description_of_election,\r\n        uint duration,\r\n        uint startTime,\r\n        uint timestamp\r\n        // Candidate candidates // Candidate ID to number of votes\r\n    );\r\n\r\n    event NewCandidate(\r\n        string election_name,\r\n        string election_description,\r\n        uint id,\r\n        string name,\r\n        string department,\r\n        string level,\r\n        string post,\r\n        uint voteCount\r\n    );\r\n\r\n    event Voted(\r\n        address voter,\r\n        bool voted\r\n    );\r\n\r\n\r\n\r\n\r\n    // methods\r\n\r\n    function createElection(\r\n                string memory _name_of_election, \r\n                string memory  _description_of_election,\r\n                 uint _duration,\r\n                 uint _startTime\r\n                 ) public only_election_authority {\r\n        \r\n        electionCount ++;\r\n        // Candidate memory new_candidate = Candidate(0,\"Not A Candidate\",\"Not A Candidate\", \"Not A Candidate\",\"NOT A CANDIDATE\",0);\r\n        elections[electionCount].id = electionCount;\r\n        elections[electionCount].name_of_election = _name_of_election;\r\n        elections[electionCount].description_of_election = _description_of_election;\r\n        elections[electionCount].duration = _duration;\r\n        elections[electionCount].startTime = _startTime;\r\n        elections[electionCount].timestamp = now;\r\n        // elections[electionCount].candidates.push(new_candidate);\r\n        emit NewElection(\r\n            electionCount,\r\n            _name_of_election,\r\n            _description_of_election,\r\n            _duration,\r\n            _startTime,\r\n            now\r\n            // new_candidate        \r\n        );\r\n    }\r\n\r\n\r\n    function createCandidate(\r\n                            uint _id,\r\n                            string memory  _name,\r\n                            string memory _department,\r\n                            string memory  _level,\r\n                            string memory _post\r\n                            ) public only_election_authority{\r\n        // Election memory e = elections[_id];\r\n        candidateCount++;\r\n        Candidate memory new_candidate = Candidate(candidateCount,_name,_department,_level,_post, 0);\r\n        // elections[_id].candidates.push(new_candidate);\r\n        candidates[candidateCount] = new_candidate;\r\n        // emit NewCandidate(\r\n        //         e.name_of_election,\r\n        //         e.description_of_election,\r\n        //         candidateCount,\r\n        //         _name,\r\n        //         _department,\r\n        //         _level, 0);\r\n    }\r\n\r\n// Register a voter for when we using the UJ API to register voters\r\n    function register_voter(address addr) public {\r\n        voters[addr] = true;\r\n    }\r\n\r\n      function start_election(uint duration) public only_election_authority{\r\n        electionEndTime =   block.timestamp + duration;\r\n    }\r\n  \r\n\r\n      function voteCandidate(uint _candidateId) public only_registered_voters\r\n\r\n        // Remember to check why time fails in tests!!\r\n        // only_during_election_time\r\n        vote_only_once\r\n        {\r\n        // // require that they haven't voted before\r\n        // require(!voters[msg.sender]);\r\n\r\n            // Ensures the candidate exists\r\n        require(_candidateId > 0 && _candidateId <= candidateCount);\r\n        // require(_electionId > 0 && _electionId <= electionCount);\r\n\r\n        // record that voter has voted\r\n        hasVoted[msg.sender] = true;\r\n\r\n        // update candidate vote Count\r\n        // elections[_electionId].candidates[_candidateId].voteCount ++;\r\n        candidates[_candidateId].voteCount ++;\r\n        emit Voted(msg.sender,true);\r\n    }\r\n\r\n    function getElectionCandidates(uint _id) public view returns(\r\n                                string memory,\r\n                                string memory\r\n                                // Candidate[] memory\r\n                                ){\r\n        // return elections[_id].candidates;  \r\n        Election memory e = elections[_id];\r\n\r\n        // return elections[_id];\r\n        return(\r\n            e.name_of_election,\r\n            e.description_of_election\r\n            // e.candidates\r\n        );\r\n\r\n    }\r\n\r\n}\r\n\r\n\r\n\r\n    ",
  "sourcePath": "C:/Users/ALEX PC/Desktop/Univote/uniVote-2/client/src/contracts/Voting.sol",
  "compiler": {
    "name": "solc",
    "version": "0.5.0+commit.1d4f565a.Emscripten.clang"
  },
  "schemaVersion": "3.0.2",
  "updatedAt": "2020-01-12T15:32:09.923Z",
  "devdoc": {
    "methods": {}
  },
  "userdoc": {
    "methods": {}
  }
}