{
  "contractName": "Voting",
  "abi": [
    {
      "inputs": [],
      "payable": false,
      "stateMutability": "nonpayable",
      "type": "constructor"
    },
    {
      "anonymous": false,
      "inputs": [
        {
          "indexed": false,
          "internalType": "string",
          "name": "election_name",
          "type": "string"
        },
        {
          "indexed": false,
          "internalType": "string",
          "name": "election_description",
          "type": "string"
        },
        {
          "indexed": false,
          "internalType": "uint256",
          "name": "id",
          "type": "uint256"
        },
        {
          "indexed": false,
          "internalType": "string",
          "name": "name",
          "type": "string"
        },
        {
          "indexed": false,
          "internalType": "string",
          "name": "department",
          "type": "string"
        },
        {
          "indexed": false,
          "internalType": "string",
          "name": "level",
          "type": "string"
        },
        {
          "indexed": false,
          "internalType": "uint256",
          "name": "voteCount",
          "type": "uint256"
        }
      ],
      "name": "NewCandidate",
      "type": "event"
    },
    {
      "anonymous": false,
      "inputs": [
        {
          "indexed": false,
          "internalType": "uint256",
          "name": "id",
          "type": "uint256"
        },
        {
          "indexed": false,
          "internalType": "string",
          "name": "name_of_election",
          "type": "string"
        },
        {
          "indexed": false,
          "internalType": "string",
          "name": "description_of_election",
          "type": "string"
        },
        {
          "indexed": false,
          "internalType": "uint256",
          "name": "duration",
          "type": "uint256"
        },
        {
          "indexed": false,
          "internalType": "uint256",
          "name": "startTime",
          "type": "uint256"
        },
        {
          "indexed": false,
          "internalType": "uint256",
          "name": "timestamp",
          "type": "uint256"
        }
      ],
      "name": "NewElection",
      "type": "event"
    },
    {
      "anonymous": false,
      "inputs": [
        {
          "indexed": false,
          "internalType": "address",
          "name": "voter",
          "type": "address"
        },
        {
          "indexed": false,
          "internalType": "bool",
          "name": "voted",
          "type": "bool"
        },
        {
          "indexed": false,
          "internalType": "uint256",
          "name": "timestamp",
          "type": "uint256"
        }
      ],
      "name": "Voted",
      "type": "event"
    },
    {
      "constant": true,
      "inputs": [],
      "name": "candidateCount",
      "outputs": [
        {
          "internalType": "uint256",
          "name": "",
          "type": "uint256"
        }
      ],
      "payable": false,
      "stateMutability": "view",
      "type": "function"
    },
    {
      "constant": true,
      "inputs": [],
      "name": "dapp_developer",
      "outputs": [
        {
          "internalType": "string",
          "name": "",
          "type": "string"
        }
      ],
      "payable": false,
      "stateMutability": "view",
      "type": "function"
    },
    {
      "constant": true,
      "inputs": [],
      "name": "dapp_name",
      "outputs": [
        {
          "internalType": "string",
          "name": "",
          "type": "string"
        }
      ],
      "payable": false,
      "stateMutability": "view",
      "type": "function"
    },
    {
      "constant": true,
      "inputs": [],
      "name": "electionAuthority",
      "outputs": [
        {
          "internalType": "address",
          "name": "",
          "type": "address"
        }
      ],
      "payable": false,
      "stateMutability": "view",
      "type": "function"
    },
    {
      "constant": true,
      "inputs": [],
      "name": "electionCount",
      "outputs": [
        {
          "internalType": "uint256",
          "name": "",
          "type": "uint256"
        }
      ],
      "payable": false,
      "stateMutability": "view",
      "type": "function"
    },
    {
      "constant": true,
      "inputs": [],
      "name": "electionEndTime",
      "outputs": [
        {
          "internalType": "uint256",
          "name": "",
          "type": "uint256"
        }
      ],
      "payable": false,
      "stateMutability": "view",
      "type": "function"
    },
    {
      "constant": true,
      "inputs": [
        {
          "internalType": "uint256",
          "name": "",
          "type": "uint256"
        }
      ],
      "name": "elections",
      "outputs": [
        {
          "internalType": "uint256",
          "name": "id",
          "type": "uint256"
        },
        {
          "internalType": "string",
          "name": "name_of_election",
          "type": "string"
        },
        {
          "internalType": "string",
          "name": "description_of_election",
          "type": "string"
        },
        {
          "internalType": "uint256",
          "name": "duration",
          "type": "uint256"
        },
        {
          "internalType": "uint256",
          "name": "startTime",
          "type": "uint256"
        },
        {
          "internalType": "uint256",
          "name": "timestamp",
          "type": "uint256"
        }
      ],
      "payable": false,
      "stateMutability": "view",
      "type": "function"
    },
    {
      "constant": true,
      "inputs": [],
      "name": "liveScoreCandidateCount",
      "outputs": [
        {
          "internalType": "uint256",
          "name": "",
          "type": "uint256"
        }
      ],
      "payable": false,
      "stateMutability": "view",
      "type": "function"
    },
    {
      "constant": true,
      "inputs": [
        {
          "internalType": "uint256",
          "name": "",
          "type": "uint256"
        }
      ],
      "name": "liveScoreCandidates",
      "outputs": [
        {
          "internalType": "uint256",
          "name": "id",
          "type": "uint256"
        },
        {
          "internalType": "string",
          "name": "name",
          "type": "string"
        },
        {
          "internalType": "string",
          "name": "department",
          "type": "string"
        },
        {
          "internalType": "string",
          "name": "level",
          "type": "string"
        },
        {
          "internalType": "string",
          "name": "post",
          "type": "string"
        },
        {
          "internalType": "uint256",
          "name": "voteCount",
          "type": "uint256"
        }
      ],
      "payable": false,
      "stateMutability": "view",
      "type": "function"
    },
    {
      "constant": true,
      "inputs": [],
      "name": "registerVoterCount",
      "outputs": [
        {
          "internalType": "uint256",
          "name": "",
          "type": "uint256"
        }
      ],
      "payable": false,
      "stateMutability": "view",
      "type": "function"
    },
    {
      "constant": true,
      "inputs": [
        {
          "internalType": "address",
          "name": "",
          "type": "address"
        }
      ],
      "name": "votedStruct",
      "outputs": [
        {
          "internalType": "uint256",
          "name": "id",
          "type": "uint256"
        }
      ],
      "payable": false,
      "stateMutability": "view",
      "type": "function"
    },
    {
      "constant": true,
      "inputs": [
        {
          "internalType": "address",
          "name": "",
          "type": "address"
        }
      ],
      "name": "voters",
      "outputs": [
        {
          "internalType": "bool",
          "name": "",
          "type": "bool"
        }
      ],
      "payable": false,
      "stateMutability": "view",
      "type": "function"
    },
    {
      "constant": false,
      "inputs": [
        {
          "internalType": "string",
          "name": "_name_of_election",
          "type": "string"
        },
        {
          "internalType": "string",
          "name": "_description_of_election",
          "type": "string"
        },
        {
          "internalType": "uint256",
          "name": "_duration",
          "type": "uint256"
        },
        {
          "internalType": "uint256",
          "name": "_startTime",
          "type": "uint256"
        }
      ],
      "name": "createElection",
      "outputs": [],
      "payable": false,
      "stateMutability": "nonpayable",
      "type": "function"
    },
    {
      "constant": false,
      "inputs": [
        {
          "internalType": "uint256",
          "name": "_electionId",
          "type": "uint256"
        },
        {
          "internalType": "string",
          "name": "_name",
          "type": "string"
        },
        {
          "internalType": "string",
          "name": "_department",
          "type": "string"
        },
        {
          "internalType": "string",
          "name": "_level",
          "type": "string"
        },
        {
          "internalType": "string",
          "name": "_post",
          "type": "string"
        }
      ],
      "name": "createCandidate",
      "outputs": [],
      "payable": false,
      "stateMutability": "nonpayable",
      "type": "function"
    },
    {
      "constant": false,
      "inputs": [
        {
          "internalType": "address",
          "name": "addr",
          "type": "address"
        }
      ],
      "name": "register_voter",
      "outputs": [],
      "payable": false,
      "stateMutability": "nonpayable",
      "type": "function"
    },
    {
      "constant": false,
      "inputs": [
        {
          "internalType": "uint256",
          "name": "duration",
          "type": "uint256"
        }
      ],
      "name": "start_election",
      "outputs": [],
      "payable": false,
      "stateMutability": "nonpayable",
      "type": "function"
    },
    {
      "constant": false,
      "inputs": [
        {
          "internalType": "uint256",
          "name": "_electionId",
          "type": "uint256"
        },
        {
          "internalType": "uint256",
          "name": "_candidateId",
          "type": "uint256"
        }
      ],
      "name": "voteCandidate",
      "outputs": [],
      "payable": false,
      "stateMutability": "nonpayable",
      "type": "function"
    },
    {
      "constant": true,
      "inputs": [
        {
          "internalType": "uint256",
          "name": "_id",
          "type": "uint256"
        }
      ],
      "name": "getElectionCandidates",
      "outputs": [
        {
          "components": [
            {
              "internalType": "uint256",
              "name": "id",
              "type": "uint256"
            },
            {
              "internalType": "string",
              "name": "name",
              "type": "string"
            },
            {
              "internalType": "string",
              "name": "department",
              "type": "string"
            },
            {
              "internalType": "string",
              "name": "level",
              "type": "string"
            },
            {
              "internalType": "string",
              "name": "post",
              "type": "string"
            },
            {
              "internalType": "uint256",
              "name": "voteCount",
              "type": "uint256"
            }
          ],
          "internalType": "struct Voting.Candidate[]",
          "name": "",
          "type": "tuple[]"
        }
      ],
      "payable": false,
      "stateMutability": "view",
      "type": "function"
    }
  ],
  "bytecode": "0x60806040526040518060400160405280600781526020017f556e69566f7465000000000000000000000000000000000000000000000000008152506000908051906020019062000051929190620000d9565b50604051806060016040528060248152602001620027d8602491396001908051906020019062000083929190620000d9565b503480156200009157600080fd5b5033600860006101000a81548173ffffffffffffffffffffffffffffffffffffffff021916908373ffffffffffffffffffffffffffffffffffffffff16021790555062000188565b828054600181600116156101000203166002900490600052602060002090601f016020900481019282601f106200011c57805160ff19168380011785556200014d565b828001600101855582156200014d579182015b828111156200014c5782518255916020019190600101906200012f565b5b5090506200015c919062000160565b5090565b6200018591905b808211156200018157600081600090555060010162000167565b5090565b90565b61264080620001986000396000f3fe608060405234801561001057600080fd5b50600436106101165760003560e01c8063a3ec138d116100a2578063cdb822fe11610071578063cdb822fe146102ff578063d546c74a1461031d578063dc46d6ea1461033b578063eb1e627014610359578063f2504a6a1461037557610116565b8063a3ec138d14610275578063a9a981a3146102a5578063b3ea346b146102c3578063c9559252146102e157610116565b80635e6fef01116100e95780635e6fef01146101b35780637548d639146101e85780637ad36e841461021d578063997d2830146102395780639e136e641461025757610116565b80630a466e5a1461011b5780632de096ff1461014b5780634f2c51b9146101675780635e12845e14610183575b600080fd5b61013560048036036101309190810190611d45565b610391565b60405161014291906122ac565b60405180910390f35b61016560048036036101609190810190611e01565b6103af565b005b610181600480360361017c9190810190611d45565b610415565b005b61019d60048036036101989190810190611e01565b610482565b6040516101aa91906121bb565b60405180910390f35b6101cd60048036036101c89190810190611e01565b610920565b6040516101df969594939291906123b3565b60405180910390f35b61020260048036036101fd9190810190611e01565b610a8c565b60405161021496959493929190612336565b60405180910390f35b61023760048036036102329190810190611d6e565b610d28565b005b610241610ead565b60405161024e91906122ac565b60405180910390f35b61025f610eb3565b60405161026c91906122ac565b60405180910390f35b61028f600480360361028a9190810190611d45565b610eb9565b60405161029c91906121dd565b60405180910390f35b6102ad610ed9565b6040516102ba91906122ac565b60405180910390f35b6102cb610edf565b6040516102d891906121f8565b60405180910390f35b6102e9610f7d565b6040516102f691906121f8565b60405180910390f35b61030761101b565b60405161031491906122ac565b60405180910390f35b610325611021565b60405161033291906122ac565b60405180910390f35b610343611027565b6040516103509190612169565b60405180910390f35b610373600480360361036e9190810190611f01565b61104d565b005b61038f600480360361038a9190810190611e2a565b6113f4565b005b600a6020528060005260406000206000915090508060000154905081565b600860009054906101000a900473ffffffffffffffffffffffffffffffffffffffff1673ffffffffffffffffffffffffffffffffffffffff163373ffffffffffffffffffffffffffffffffffffffff161461040957600080fd5b80420160028190555050565b6001600b60008373ffffffffffffffffffffffffffffffffffffffff1673ffffffffffffffffffffffffffffffffffffffff16815260200190815260200160002060006101000a81548160ff02191690831515021790555060076000815480929190600101919050555050565b606061048c611b2f565b600960008481526020019081526020016000206040518060e001604052908160008201548152602001600182018054600181600116156101000203166002900480601f01602080910402602001604051908101604052809291908181526020018280546001816001161561010002031660029004801561054d5780601f106105225761010080835404028352916020019161054d565b820191906000526020600020905b81548152906001019060200180831161053057829003601f168201915b50505050508152602001600282018054600181600116156101000203166002900480601f0160208091040260200160405190810160405280929190818152602001828054600181600116156101000203166002900480156105ef5780601f106105c4576101008083540402835291602001916105ef565b820191906000526020600020905b8154815290600101906020018083116105d257829003601f168201915b5050505050815260200160038201548152602001600482015481526020016005820154815260200160068201805480602002602001604051908101604052809291908181526020016000905b8282101561090957838290600052602060002090600602016040518060c001604052908160008201548152602001600182018054600181600116156101000203166002900480601f0160208091040260200160405190810160405280929190818152602001828054600181600116156101000203166002900480156107015780601f106106d657610100808354040283529160200191610701565b820191906000526020600020905b8154815290600101906020018083116106e457829003601f168201915b50505050508152602001600282018054600181600116156101000203166002900480601f0160208091040260200160405190810160405280929190818152602001828054600181600116156101000203166002900480156107a35780601f10610778576101008083540402835291602001916107a3565b820191906000526020600020905b81548152906001019060200180831161078657829003601f168201915b50505050508152602001600382018054600181600116156101000203166002900480601f0160208091040260200160405190810160405280929190818152602001828054600181600116156101000203166002900480156108455780601f1061081a57610100808354040283529160200191610845565b820191906000526020600020905b81548152906001019060200180831161082857829003601f168201915b50505050508152602001600482018054600181600116156101000203166002900480601f0160208091040260200160405190810160405280929190818152602001828054600181600116156101000203166002900480156108e75780601f106108bc576101008083540402835291602001916108e7565b820191906000526020600020905b8154815290600101906020018083116108ca57829003601f168201915b505050505081526020016005820154815250508152602001906001019061063b565b505050508152505090508060c00151915050919050565b6009602052806000526040600020600091509050806000015490806001018054600181600116156101000203166002900480601f0160208091040260200160405190810160405280929190818152602001828054600181600116156101000203166002900480156109d25780601f106109a7576101008083540402835291602001916109d2565b820191906000526020600020905b8154815290600101906020018083116109b557829003601f168201915b505050505090806002018054600181600116156101000203166002900480601f016020809104026020016040519081016040528092919081815260200182805460018160011615610100020316600290048015610a705780601f10610a4557610100808354040283529160200191610a70565b820191906000526020600020905b815481529060010190602001808311610a5357829003601f168201915b5050505050908060030154908060040154908060050154905086565b6006602052806000526040600020600091509050806000015490806001018054600181600116156101000203166002900480601f016020809104026020016040519081016040528092919081815260200182805460018160011615610100020316600290048015610b3e5780601f10610b1357610100808354040283529160200191610b3e565b820191906000526020600020905b815481529060010190602001808311610b2157829003601f168201915b505050505090806002018054600181600116156101000203166002900480601f016020809104026020016040519081016040528092919081815260200182805460018160011615610100020316600290048015610bdc5780601f10610bb157610100808354040283529160200191610bdc565b820191906000526020600020905b815481529060010190602001808311610bbf57829003601f168201915b505050505090806003018054600181600116156101000203166002900480601f016020809104026020016040519081016040528092919081815260200182805460018160011615610100020316600290048015610c7a5780601f10610c4f57610100808354040283529160200191610c7a565b820191906000526020600020905b815481529060010190602001808311610c5d57829003601f168201915b505050505090806004018054600181600116156101000203166002900480601f016020809104026020016040519081016040528092919081815260200182805460018160011615610100020316600290048015610d185780601f10610ced57610100808354040283529160200191610d18565b820191906000526020600020905b815481529060010190602001808311610cfb57829003601f168201915b5050505050908060050154905086565b600860009054906101000a900473ffffffffffffffffffffffffffffffffffffffff1673ffffffffffffffffffffffffffffffffffffffff163373ffffffffffffffffffffffffffffffffffffffff1614610d8257600080fd5b60036000815480929190600101919050555060035460096000600354815260200190815260200160002060000181905550836009600060035481526020019081526020016000206001019080519060200190610ddf929190611b6c565b50826009600060035481526020019081526020016000206002019080519060200190610e0c929190611b6c565b508160096000600354815260200190815260200160002060030181905550806009600060035481526020019081526020016000206004018190555042600960006003548152602001908152602001600020600501819055507f8b59edb9f4e30a463afccefae6a372c4cee3648e91466f14caca75ba52d9bb1e6003548585858542604051610e9f969594939291906122c7565b60405180910390a150505050565b60035481565b60025481565b600b6020528060005260406000206000915054906101000a900460ff1681565b60045481565b60008054600181600116156101000203166002900480601f016020809104026020016040519081016040528092919081815260200182805460018160011615610100020316600290048015610f755780601f10610f4a57610100808354040283529160200191610f75565b820191906000526020600020905b815481529060010190602001808311610f5857829003601f168201915b505050505081565b60018054600181600116156101000203166002900480601f0160208091040260200160405190810160405280929190818152602001828054600181600116156101000203166002900480156110135780601f10610fe857610100808354040283529160200191611013565b820191906000526020600020905b815481529060010190602001808311610ff657829003601f168201915b505050505081565b60075481565b60055481565b600860009054906101000a900473ffffffffffffffffffffffffffffffffffffffff1681565b600b60003373ffffffffffffffffffffffffffffffffffffffff1673ffffffffffffffffffffffffffffffffffffffff16815260200190815260200160002060009054906101000a900460ff166110a357600080fd5b6000811180156110b557506004548111155b6110be57600080fd5b6060600a60003373ffffffffffffffffffffffffffffffffffffffff1673ffffffffffffffffffffffffffffffffffffffff16815260200190815260200160002060010180548060200260200160405190810160405280929190818152602001828054801561114c57602002820191906000526020600020905b815481526020019060010190808311611138575b50505050509050600081519050600081141561127a5760096000858152602001908152602001600020600601600184038154811061118657fe5b906000526020600020906006020160050160008154809291906001019190505550600a60003373ffffffffffffffffffffffffffffffffffffffff1673ffffffffffffffffffffffffffffffffffffffff16815260200190815260200160002060010184908060018154018082558091505090600182039060005260206000200160009091929091909150555060066000848152602001908152602001600020600501600081548092919060010191905055507f591a89b27b3057021df052ec15caa0a817c1894bcb52243ed0c8cdaa83f322be3360014260405161126d93929190612184565b60405180910390a16113ee565b600081146113ed5760008090505b818110156113eb578483828151811061129d57fe5b602002602001015114156112cb576001600c60006101000a81548160ff021916908315150217905550600080fd5b6009600086815260200190815260200160002060060160018503815481106112ef57fe5b906000526020600020906006020160050160008154809291906001019190505550600a60003373ffffffffffffffffffffffffffffffffffffffff1673ffffffffffffffffffffffffffffffffffffffff16815260200190815260200160002060010185908060018154018082558091505090600182039060005260206000200160009091929091909150555060066000858152602001908152602001600020600501600081548092919060010191905055507f591a89b27b3057021df052ec15caa0a817c1894bcb52243ed0c8cdaa83f322be336001426040516113d693929190612184565b60405180910390a18080600101915050611288565b505b5b50505050565b600860009054906101000a900473ffffffffffffffffffffffffffffffffffffffff1673ffffffffffffffffffffffffffffffffffffffff163373ffffffffffffffffffffffffffffffffffffffff161461144e57600080fd5b611456611b2f565b600960008781526020019081526020016000206040518060e001604052908160008201548152602001600182018054600181600116156101000203166002900480601f0160208091040260200160405190810160405280929190818152602001828054600181600116156101000203166002900480156115175780601f106114ec57610100808354040283529160200191611517565b820191906000526020600020905b8154815290600101906020018083116114fa57829003601f168201915b50505050508152602001600282018054600181600116156101000203166002900480601f0160208091040260200160405190810160405280929190818152602001828054600181600116156101000203166002900480156115b95780601f1061158e576101008083540402835291602001916115b9565b820191906000526020600020905b81548152906001019060200180831161159c57829003601f168201915b5050505050815260200160038201548152602001600482015481526020016005820154815260200160068201805480602002602001604051908101604052809291908181526020016000905b828210156118d357838290600052602060002090600602016040518060c001604052908160008201548152602001600182018054600181600116156101000203166002900480601f0160208091040260200160405190810160405280929190818152602001828054600181600116156101000203166002900480156116cb5780601f106116a0576101008083540402835291602001916116cb565b820191906000526020600020905b8154815290600101906020018083116116ae57829003601f168201915b50505050508152602001600282018054600181600116156101000203166002900480601f01602080910402602001604051908101604052809291908181526020018280546001816001161561010002031660029004801561176d5780601f106117425761010080835404028352916020019161176d565b820191906000526020600020905b81548152906001019060200180831161175057829003601f168201915b50505050508152602001600382018054600181600116156101000203166002900480601f01602080910402602001604051908101604052809291908181526020018280546001816001161561010002031660029004801561180f5780601f106117e45761010080835404028352916020019161180f565b820191906000526020600020905b8154815290600101906020018083116117f257829003601f168201915b50505050508152602001600482018054600181600116156101000203166002900480601f0160208091040260200160405190810160405280929190818152602001828054600181600116156101000203166002900480156118b15780601f10611886576101008083540402835291602001916118b1565b820191906000526020600020905b81548152906001019060200180831161189457829003601f168201915b5050505050815260200160058201548152505081526020019060010190611605565b50505050815250509050600460008154809291906001019190505550600560008154809291906001019190505550611909611bec565b6040518060c001604052806004548152602001878152602001868152602001858152602001848152602001600081525090506009600088815260200190815260200160002060060181908060018154018082558091505090600182039060005260206000209060060201600090919290919091506000820151816000015560208201518160010190805190602001906119a3929190611c22565b5060408201518160020190805190602001906119c0929190611c22565b5060608201518160030190805190602001906119dd929190611c22565b5060808201518160040190805190602001906119fa929190611c22565b5060a082015181600501555050506040518060c0016040528060055481526020018781526020018681526020018581526020018481526020016000815250600660006005548152602001908152602001600020600082015181600001556020820151816001019080519060200190611a73929190611c22565b506040820151816002019080519060200190611a90929190611c22565b506060820151816003019080519060200190611aad929190611c22565b506080820151816004019080519060200190611aca929190611c22565b5060a082015181600501559050507f24107f57307d59c1340861409bb1693828565458d05804c1040dfd8f9dd9eb19826020015183604001516004548989896000604051611b1e979695949392919061221a565b60405180910390a150505050505050565b6040518060e00160405280600081526020016060815260200160608152602001600081526020016000815260200160008152602001606081525090565b828054600181600116156101000203166002900490600052602060002090601f016020900481019282601f10611bad57805160ff1916838001178555611bdb565b82800160010185558215611bdb579182015b82811115611bda578251825591602001919060010190611bbf565b5b509050611be89190611ca2565b5090565b6040518060c001604052806000815260200160608152602001606081526020016060815260200160608152602001600081525090565b828054600181600116156101000203166002900490600052602060002090601f016020900481019282601f10611c6357805160ff1916838001178555611c91565b82800160010185558215611c91579182015b82811115611c90578251825591602001919060010190611c75565b5b509050611c9e9190611ca2565b5090565b611cc491905b80821115611cc0576000816000905550600101611ca8565b5090565b90565b600081359050611cd6816125cf565b92915050565b600082601f830112611ced57600080fd5b8135611d00611cfb8261244f565b612422565b91508082526020830160208301858383011115611d1c57600080fd5b611d2783828461257c565b50505092915050565b600081359050611d3f816125e6565b92915050565b600060208284031215611d5757600080fd5b6000611d6584828501611cc7565b91505092915050565b60008060008060808587031215611d8457600080fd5b600085013567ffffffffffffffff811115611d9e57600080fd5b611daa87828801611cdc565b945050602085013567ffffffffffffffff811115611dc757600080fd5b611dd387828801611cdc565b9350506040611de487828801611d30565b9250506060611df587828801611d30565b91505092959194509250565b600060208284031215611e1357600080fd5b6000611e2184828501611d30565b91505092915050565b600080600080600060a08688031215611e4257600080fd5b6000611e5088828901611d30565b955050602086013567ffffffffffffffff811115611e6d57600080fd5b611e7988828901611cdc565b945050604086013567ffffffffffffffff811115611e9657600080fd5b611ea288828901611cdc565b935050606086013567ffffffffffffffff811115611ebf57600080fd5b611ecb88828901611cdc565b925050608086013567ffffffffffffffff811115611ee857600080fd5b611ef488828901611cdc565b9150509295509295909350565b60008060408385031215611f1457600080fd5b6000611f2285828601611d30565b9250506020611f3385828601611d30565b9150509250929050565b6000611f4983836120ad565b905092915050565b611f5a81612534565b82525050565b611f69816124ec565b82525050565b6000611f7a8261248b565b611f8481856124b9565b935083602082028501611f968561247b565b8060005b85811015611fd25784840389528151611fb38582611f3d565b9450611fbe836124ac565b925060208a01995050600181019050611f9a565b50829750879550505050505092915050565b611fed816124fe565b82525050565b611ffc81612546565b82525050565b600061200d826124a1565b61201781856124db565b935061202781856020860161258b565b612030816125be565b840191505092915050565b600061204682612496565b61205081856124ca565b935061206081856020860161258b565b612069816125be565b840191505092915050565b600061207f82612496565b61208981856124db565b935061209981856020860161258b565b6120a2816125be565b840191505092915050565b600060c0830160008301516120c5600086018261214b565b50602083015184820360208601526120dd828261203b565b915050604083015184820360408601526120f7828261203b565b91505060608301518482036060860152612111828261203b565b9150506080830151848203608086015261212b828261203b565b91505060a083015161214060a086018261214b565b508091505092915050565b6121548161252a565b82525050565b6121638161252a565b82525050565b600060208201905061217e6000830184611f60565b92915050565b60006060820190506121996000830186611f51565b6121a66020830185611fe4565b6121b3604083018461215a565b949350505050565b600060208201905081810360008301526121d58184611f6f565b905092915050565b60006020820190506121f26000830184611fe4565b92915050565b600060208201905081810360008301526122128184612074565b905092915050565b600060e0820190508181036000830152612234818a612074565b905081810360208301526122488189612074565b9050612257604083018861215a565b81810360608301526122698187612002565b9050818103608083015261227d8186612002565b905081810360a08301526122918185612002565b90506122a060c0830184611ff3565b98975050505050505050565b60006020820190506122c1600083018461215a565b92915050565b600060c0820190506122dc600083018961215a565b81810360208301526122ee8188612002565b905081810360408301526123028187612002565b9050612311606083018661215a565b61231e608083018561215a565b61232b60a083018461215a565b979650505050505050565b600060c08201905061234b600083018961215a565b818103602083015261235d8188612074565b905081810360408301526123718187612074565b905081810360608301526123858186612074565b905081810360808301526123998185612074565b90506123a860a083018461215a565b979650505050505050565b600060c0820190506123c8600083018961215a565b81810360208301526123da8188612074565b905081810360408301526123ee8187612074565b90506123fd606083018661215a565b61240a608083018561215a565b61241760a083018461215a565b979650505050505050565b6000604051905081810181811067ffffffffffffffff8211171561244557600080fd5b8060405250919050565b600067ffffffffffffffff82111561246657600080fd5b601f19601f8301169050602081019050919050565b6000819050602082019050919050565b600081519050919050565b600081519050919050565b600081519050919050565b6000602082019050919050565b600082825260208201905092915050565b600082825260208201905092915050565b600082825260208201905092915050565b60006124f78261250a565b9050919050565b60008115159050919050565b600073ffffffffffffffffffffffffffffffffffffffff82169050919050565b6000819050919050565b600061253f82612558565b9050919050565b60006125518261252a565b9050919050565b60006125638261256a565b9050919050565b60006125758261250a565b9050919050565b82818337600083830152505050565b60005b838110156125a957808201518184015260208101905061258e565b838111156125b8576000848401525b50505050565b6000601f19601f8301169050919050565b6125d8816124ec565b81146125e357600080fd5b50565b6125ef8161252a565b81146125fa57600080fd5b5056fea365627a7a72315820d83c34f5a77b1a3ef6be2e41187d311dfd0fabaadd3f3f2fbce61fbc890375ec6c6578706572696d656e74616cf564736f6c634300050c004040476f6f646e657373457a656f6b61666f7220616e642040456d6d616e75656c556d6568",
  "source": "pragma solidity ^0.5.0;\npragma experimental ABIEncoderV2;\n\n\ncontract Voting{\n    string public dapp_name=\"UniVote\";  // name of dapp\n    string public dapp_developer=\"@GoodnessEzeokafor and @EmmanuelUmeh\"; // smart contract developer\n    uint public electionEndTime; // electionENdTIme\n    uint public electionCount; //total number of election\n    uint public candidateCount; // totalnumber of candidates\n\n    // Live Score\n    uint public liveScoreCandidateCount; // totalnumber of candidates\n    mapping(uint => LiveScoreCandidate) public liveScoreCandidates;  //GET ELECTION LIST\n    \n    uint public registerVoterCount; // totalnumber of candidates\n    \n    address public electionAuthority;  // election creator\n    mapping(uint => Election) public elections;  //GET ELECTION LIST\n    // mapping (uint => Candidate) public candidates; // Candidate ID to number of votes\n     mapping (address => Voter) public votedStruct; // Elections one has Voted on\n    mapping (address => bool) public voters; // Registered voters\n    // mapping (address => []) public hasVoted; // If a registered voter has voted or not\n    // mapping(uint => Candidate) public candidates;  //GET ELECTION LIST\n\n    bool found;\n\n    // Candidate[] public candidates;\n    /* MODIFIERS */\n        // Modifiers\n\n    // Ensures only owners can call a function\n    modifier only_election_authority() {\n        if (msg.sender != electionAuthority) revert();\n        _;\n    }\n\n    // // Ensures only registered voters can vote\n     modifier only_registered_voters() {\n        if (!voters[msg.sender]) revert();\n        _;\n    }\n\n    // // Ensures voters can vote just once!!! Their fada\n    // modifier vote_only_once() {\n    //     if (hasVoted[msg.sender]) revert();\n    //     _;\n    // }   \n\n    // // Only Vote during election time and We make cash\n\n      modifier only_during_election_time() {\n        if (electionEndTime == 0 || electionEndTime > block.timestamp) revert();\n        _;\n    }\n    constructor() public {\n        \n        electionAuthority =  msg.sender;\n        \n        // electionAuthority =  0x6415d68373647F99270E24eB145be4d6E0141Ab2;\n\n    }\n\n\n    /*  CANDIDATE STRUCT */\n    struct Candidate {\n        uint id;\n        string name;\n        string department;\n        string level;\n        string post;\n        uint voteCount;\n    }\n\nstruct LiveScoreCandidate {\n        uint id;\n        string name;\n        string department;\n        string level;\n        string post;\n        uint voteCount;\n    }\n\n\n    /* END CANDIDATE STRUCT */\n\n\n    // Voter Struct\n\n    struct Voter{\n        uint id;\n        uint[] votedElections;\n        // mapping (uint => Candidate)  candidates; // Candidate ID to number of votes\n        // Candidate[] candidates;\n    }\n\n\n    /*  ELECTION STRUCT */\n    struct Election{\n        uint id;\n        string name_of_election;\n        string description_of_election;\n        uint duration; // in minutes\n        uint startTime; // \n        uint timestamp; \n        // mapping (uint => Candidate)  candidates; // Candidate ID to number of votes\n        Candidate[] candidates;\n    }\n    /* END ELECTION STRUCT */\n\n\n    event NewElection(\n        uint id,\n        string name_of_election,\n        string description_of_election,\n        uint duration,\n        uint startTime,\n        uint timestamp\n        // Candidate candidates // Candidate ID to number of votes\n    );\n\n    event NewCandidate(\n        string election_name,\n        string election_description,\n        uint id,\n        string name,\n        string department,\n        string level,\n        uint voteCount\n    );\n\n    event Voted(\n        address voter,\n        bool voted,\n        uint timestamp\n    );\n\n\n\n\n    // methods\n\n    function createElection(\n                string memory _name_of_election, \n                string memory  _description_of_election,\n                 uint _duration,\n                 uint _startTime\n                 ) public only_election_authority {\n        \n        electionCount ++;\n        // Candidate memory new_candidate = Candidate(0,\"Not A Candidate\",\"Not A Candidate\", \"Not A Candidate\",\"NOT A CANDIDATE\",0);\n        elections[electionCount].id = electionCount;\n        elections[electionCount].name_of_election = _name_of_election;\n        elections[electionCount].description_of_election = _description_of_election;\n        elections[electionCount].duration = _duration;\n        elections[electionCount].startTime = _startTime;\n        elections[electionCount].timestamp = now;\n        // elections[electionCount].candidates.push(new_candidate);\n        emit NewElection(\n            electionCount,\n            _name_of_election,\n            _description_of_election,\n            _duration,\n            _startTime,\n            now\n            // new_candidate        \n        );\n    }\n\n\n    function createCandidate(\n                        \n                            uint _electionId,\n                            string memory  _name,\n                            string memory _department,\n                            string memory  _level,\n                            string memory _post\n                            ) public only_election_authority{\n        Election memory e = elections[_electionId];\n        \n        candidateCount++;\n        liveScoreCandidateCount++;\n        Candidate memory new_candidate = Candidate(candidateCount,_name,_department,_level,_post, 0);\n        elections[_electionId].candidates.push(new_candidate);\n        liveScoreCandidates[liveScoreCandidateCount] = LiveScoreCandidate(liveScoreCandidateCount,_name,_department,_level,_post, 0);\n        // elections[_id].candidates.push(new_candidate);\n        // candidates[candidateCount] = new_candidate;\n        emit NewCandidate(\n                e.name_of_election,\n                e.description_of_election,\n                candidateCount,\n                _name,\n                _department,\n                _level,\n                0);\n    }\n\n// Register a voter for when we using the UJ API to register voters\n    function register_voter(address addr) public {\n        voters[addr] = true;\n        registerVoterCount++;\n    }\n\n      function start_election(uint duration) public only_election_authority{\n        electionEndTime =   block.timestamp + duration; \n    }\n  \n\n      function voteCandidate(uint _electionId, uint _candidateId) public only_registered_voters\n\n        // Remember to check why time fails in tests!!\n        // only_during_election_time\n        // vote_only_once\n        {\n        // // require that they haven't voted before\n        // require(!voters[msg.sender]);\n\n            // Ensures the candidate exists\n        require(_candidateId > 0 && _candidateId <= candidateCount);\n        // require(_electionId > 0 && _electionId <= electionCount);\n\n        // record that voter has voted\n\n        // require(hasVoted[])\n        // hasVoted[msg.sender] = _electionId;\n\n        // update candidate vote Count\n        // elections[_electionId].candidates[_candidateId].voteCount ++;\n         uint[] memory votersElections = votedStruct[msg.sender].votedElections;\n\n        uint arrayLength = votersElections.length;\n        if(arrayLength == 0){\n            elections[_electionId].candidates[_candidateId - 1].voteCount ++;\n            votedStruct[msg.sender].votedElections.push(_electionId);\n            liveScoreCandidates[_candidateId].voteCount ++;\n            emit Voted(msg.sender,true,now);\n        }\n        else if(arrayLength !=0 ){\n        for(uint i=0; i<arrayLength; i++){\n            if(votersElections[i]==_electionId){\n                found=true;\n                // break;\n                revert();\n            }\n            else {\n\n                elections[_electionId].candidates[_candidateId - 1].voteCount ++;\n                votedStruct[msg.sender].votedElections.push(_electionId);\n                liveScoreCandidates[_candidateId].voteCount ++;\n                emit Voted(msg.sender,true,now);\n            }\n         \n            \n        }\n        // if(!found){\n           \n        //     elections[_electionId].candidates[_candidateId - 1].voteCount ++;\n        //      votedStruct[msg.sender].votedElections.push(_electionId);\n        //     emit Voted(msg.sender,true);\n        // }\n\n\n        }\n\n        \n        \n        \n\n\n         \n        \n        // singleElection.voteCount ++;\n        // emit Voted(msg.sender,true);\n    }\n\n    function getElectionCandidates(uint _id) public view returns(\n                                // string memory,\n                                // // string memory,\n                                Candidate[] memory\n                                ){\n        // return elections[_id].candidates;  \n        Election memory e = elections[_id];\n\n        // return elections[_id];\n        return(\n            // e.name_of_election,\n            // e.description_of_election,\n            e.candidates\n        );\n\n    }\n\n}\n\n\n\n    ",
  "sourcePath": "/home/goodness/Development/ethereum/UniVote2/client/src/contracts/Voting.sol",
  "compiler": {
    "name": "solc",
    "version": "0.5.12+commit.7709ece9.Emscripten.clang"
  },
  "schemaVersion": "3.0.19",
  "updatedAt": "2020-01-20T15:56:08.508Z",
  "networkType": "ethereum",
  "devdoc": {
    "methods": {}
  },
  "userdoc": {
    "methods": {}
  }
}