{
  "contractName": "Voting",
  "abi": [
    {
      "inputs": [],
      "payable": false,
      "stateMutability": "nonpayable",
      "type": "constructor"
    },
    {
      "anonymous": false,
      "inputs": [
        {
          "indexed": false,
          "internalType": "string",
          "name": "election_name",
          "type": "string"
        },
        {
          "indexed": false,
          "internalType": "string",
          "name": "election_description",
          "type": "string"
        },
        {
          "indexed": false,
          "internalType": "uint256",
          "name": "id",
          "type": "uint256"
        },
        {
          "indexed": false,
          "internalType": "string",
          "name": "name",
          "type": "string"
        },
        {
          "indexed": false,
          "internalType": "string",
          "name": "department",
          "type": "string"
        },
        {
          "indexed": false,
          "internalType": "string",
          "name": "level",
          "type": "string"
        },
        {
          "indexed": false,
          "internalType": "uint256",
          "name": "voteCount",
          "type": "uint256"
        }
      ],
      "name": "NewCandidate",
      "type": "event"
    },
    {
      "anonymous": false,
      "inputs": [
        {
          "indexed": false,
          "internalType": "uint256",
          "name": "id",
          "type": "uint256"
        },
        {
          "indexed": false,
          "internalType": "string",
          "name": "name_of_election",
          "type": "string"
        },
        {
          "indexed": false,
          "internalType": "string",
          "name": "description_of_election",
          "type": "string"
        },
        {
          "indexed": false,
          "internalType": "uint256",
          "name": "duration",
          "type": "uint256"
        },
        {
          "indexed": false,
          "internalType": "uint256",
          "name": "startTime",
          "type": "uint256"
        },
        {
          "indexed": false,
          "internalType": "uint256",
          "name": "timestamp",
          "type": "uint256"
        }
      ],
      "name": "NewElection",
      "type": "event"
    },
    {
      "anonymous": false,
      "inputs": [
        {
          "indexed": false,
          "internalType": "address",
          "name": "voter",
          "type": "address"
        },
        {
          "indexed": false,
          "internalType": "bool",
          "name": "voted",
          "type": "bool"
        }
      ],
      "name": "Voted",
      "type": "event"
    },
    {
      "constant": true,
      "inputs": [],
      "name": "candidateCount",
      "outputs": [
        {
          "internalType": "uint256",
          "name": "",
          "type": "uint256"
        }
      ],
      "payable": false,
      "stateMutability": "view",
      "type": "function"
    },
    {
      "constant": true,
      "inputs": [],
      "name": "dapp_developer",
      "outputs": [
        {
          "internalType": "string",
          "name": "",
          "type": "string"
        }
      ],
      "payable": false,
      "stateMutability": "view",
      "type": "function"
    },
    {
      "constant": true,
      "inputs": [],
      "name": "dapp_name",
      "outputs": [
        {
          "internalType": "string",
          "name": "",
          "type": "string"
        }
      ],
      "payable": false,
      "stateMutability": "view",
      "type": "function"
    },
    {
      "constant": true,
      "inputs": [],
      "name": "electionAuthority",
      "outputs": [
        {
          "internalType": "address",
          "name": "",
          "type": "address"
        }
      ],
      "payable": false,
      "stateMutability": "view",
      "type": "function"
    },
    {
      "constant": true,
      "inputs": [],
      "name": "electionCount",
      "outputs": [
        {
          "internalType": "uint256",
          "name": "",
          "type": "uint256"
        }
      ],
      "payable": false,
      "stateMutability": "view",
      "type": "function"
    },
    {
      "constant": true,
      "inputs": [],
      "name": "electionEndTime",
      "outputs": [
        {
          "internalType": "uint256",
          "name": "",
          "type": "uint256"
        }
      ],
      "payable": false,
      "stateMutability": "view",
      "type": "function"
    },
    {
      "constant": true,
      "inputs": [
        {
          "internalType": "uint256",
          "name": "",
          "type": "uint256"
        }
      ],
      "name": "elections",
      "outputs": [
        {
          "internalType": "uint256",
          "name": "id",
          "type": "uint256"
        },
        {
          "internalType": "string",
          "name": "name_of_election",
          "type": "string"
        },
        {
          "internalType": "string",
          "name": "description_of_election",
          "type": "string"
        },
        {
          "internalType": "uint256",
          "name": "duration",
          "type": "uint256"
        },
        {
          "internalType": "uint256",
          "name": "startTime",
          "type": "uint256"
        },
        {
          "internalType": "uint256",
          "name": "timestamp",
          "type": "uint256"
        }
      ],
      "payable": false,
      "stateMutability": "view",
      "type": "function"
    },
    {
      "constant": true,
      "inputs": [
        {
          "internalType": "address",
          "name": "",
          "type": "address"
        }
      ],
      "name": "votedStruct",
      "outputs": [
        {
          "internalType": "uint256",
          "name": "id",
          "type": "uint256"
        }
      ],
      "payable": false,
      "stateMutability": "view",
      "type": "function"
    },
    {
      "constant": true,
      "inputs": [
        {
          "internalType": "address",
          "name": "",
          "type": "address"
        }
      ],
      "name": "voters",
      "outputs": [
        {
          "internalType": "bool",
          "name": "",
          "type": "bool"
        }
      ],
      "payable": false,
      "stateMutability": "view",
      "type": "function"
    },
    {
      "constant": false,
      "inputs": [
        {
          "internalType": "string",
          "name": "_name_of_election",
          "type": "string"
        },
        {
          "internalType": "string",
          "name": "_description_of_election",
          "type": "string"
        },
        {
          "internalType": "uint256",
          "name": "_duration",
          "type": "uint256"
        },
        {
          "internalType": "uint256",
          "name": "_startTime",
          "type": "uint256"
        }
      ],
      "name": "createElection",
      "outputs": [],
      "payable": false,
      "stateMutability": "nonpayable",
      "type": "function"
    },
    {
      "constant": false,
      "inputs": [
        {
          "internalType": "uint256",
          "name": "_electionId",
          "type": "uint256"
        },
        {
          "internalType": "string",
          "name": "_name",
          "type": "string"
        },
        {
          "internalType": "string",
          "name": "_department",
          "type": "string"
        },
        {
          "internalType": "string",
          "name": "_level",
          "type": "string"
        },
        {
          "internalType": "string",
          "name": "_post",
          "type": "string"
        }
      ],
      "name": "createCandidate",
      "outputs": [],
      "payable": false,
      "stateMutability": "nonpayable",
      "type": "function"
    },
    {
      "constant": false,
      "inputs": [
        {
          "internalType": "address",
          "name": "addr",
          "type": "address"
        }
      ],
      "name": "register_voter",
      "outputs": [],
      "payable": false,
      "stateMutability": "nonpayable",
      "type": "function"
    },
    {
      "constant": false,
      "inputs": [
        {
          "internalType": "uint256",
          "name": "duration",
          "type": "uint256"
        }
      ],
      "name": "start_election",
      "outputs": [],
      "payable": false,
      "stateMutability": "nonpayable",
      "type": "function"
    },
    {
      "constant": false,
      "inputs": [
        {
          "internalType": "uint256",
          "name": "_electionId",
          "type": "uint256"
        },
        {
          "internalType": "uint256",
          "name": "_candidateId",
          "type": "uint256"
        }
      ],
      "name": "voteCandidate",
      "outputs": [],
      "payable": false,
      "stateMutability": "nonpayable",
      "type": "function"
    },
    {
      "constant": true,
      "inputs": [
        {
          "internalType": "uint256",
          "name": "_id",
          "type": "uint256"
        }
      ],
      "name": "getElectionCandidates",
      "outputs": [
        {
          "components": [
            {
              "internalType": "uint256",
              "name": "id",
              "type": "uint256"
            },
            {
              "internalType": "string",
              "name": "name",
              "type": "string"
            },
            {
              "internalType": "string",
              "name": "department",
              "type": "string"
            },
            {
              "internalType": "string",
              "name": "level",
              "type": "string"
            },
            {
              "internalType": "string",
              "name": "post",
              "type": "string"
            },
            {
              "internalType": "uint256",
              "name": "voteCount",
              "type": "uint256"
            }
          ],
          "internalType": "struct Voting.Candidate[]",
          "name": "",
          "type": "tuple[]"
        }
      ],
      "payable": false,
      "stateMutability": "view",
      "type": "function"
    }
  ],
  "bytecode": "0x60806040526040518060400160405280600781526020017f556e69566f7465000000000000000000000000000000000000000000000000008152506000908051906020019062000051929190620000ed565b506040518060600160405280602481526020016200231d602491396001908051906020019062000083929190620000ed565b503480156200009157600080fd5b50734516df95e7f7985ff2806ab06cef1a9930662711600560006101000a81548173ffffffffffffffffffffffffffffffffffffffff021916908373ffffffffffffffffffffffffffffffffffffffff1602179055506200019c565b828054600181600116156101000203166002900490600052602060002090601f016020900481019282601f106200013057805160ff191683800117855562000161565b8280016001018555821562000161579182015b828111156200016057825182559160200191906001019062000143565b5b50905062000170919062000174565b5090565b6200019991905b80821115620001955760008160009055506001016200017b565b5090565b90565b61217180620001ac6000396000f3fe608060405234801561001057600080fd5b50600436106100f55760003560e01c80639e136e6411610097578063c955925211610066578063c95592521461028b578063dc46d6ea146102a9578063eb1e6270146102c7578063f2504a6a146102e3576100f5565b80639e136e6414610201578063a3ec138d1461021f578063a9a981a31461024f578063b3ea346b1461026d576100f5565b80635e12845e116100d35780635e12845e146101625780635e6fef01146101925780637ad36e84146101c7578063997d2830146101e3576100f5565b80630a466e5a146100fa5780632de096ff1461012a5780634f2c51b914610146575b600080fd5b610114600480360361010f9190810190611901565b6102ff565b6040516101219190611e5a565b60405180910390f35b610144600480360361013f91908101906119bd565b61031d565b005b610160600480360361015b9190810190611901565b610383565b005b61017c600480360361017791908101906119bd565b6103de565b6040516101899190611d69565b60405180910390f35b6101ac60048036036101a791908101906119bd565b61087c565b6040516101be96959493929190611ee4565b60405180910390f35b6101e160048036036101dc919081019061192a565b6109e8565b005b6101eb610b6d565b6040516101f89190611e5a565b60405180910390f35b610209610b73565b6040516102169190611e5a565b60405180910390f35b61023960048036036102349190810190611901565b610b79565b6040516102469190611d8b565b60405180910390f35b610257610b99565b6040516102649190611e5a565b60405180910390f35b610275610b9f565b6040516102829190611da6565b60405180910390f35b610293610c3d565b6040516102a09190611da6565b60405180910390f35b6102b1610cdb565b6040516102be9190611d25565b60405180910390f35b6102e160048036036102dc9190810190611abd565b610d01565b005b6102fd60048036036102f891908101906119e6565b611092565b005b60076020528060005260406000206000915090508060000154905081565b600560009054906101000a900473ffffffffffffffffffffffffffffffffffffffff1673ffffffffffffffffffffffffffffffffffffffff163373ffffffffffffffffffffffffffffffffffffffff161461037757600080fd5b80420160028190555050565b6001600860008373ffffffffffffffffffffffffffffffffffffffff1673ffffffffffffffffffffffffffffffffffffffff16815260200190815260200160002060006101000a81548160ff02191690831515021790555050565b60606103e86116eb565b600660008481526020019081526020016000206040518060e001604052908160008201548152602001600182018054600181600116156101000203166002900480601f0160208091040260200160405190810160405280929190818152602001828054600181600116156101000203166002900480156104a95780601f1061047e576101008083540402835291602001916104a9565b820191906000526020600020905b81548152906001019060200180831161048c57829003601f168201915b50505050508152602001600282018054600181600116156101000203166002900480601f01602080910402602001604051908101604052809291908181526020018280546001816001161561010002031660029004801561054b5780601f106105205761010080835404028352916020019161054b565b820191906000526020600020905b81548152906001019060200180831161052e57829003601f168201915b5050505050815260200160038201548152602001600482015481526020016005820154815260200160068201805480602002602001604051908101604052809291908181526020016000905b8282101561086557838290600052602060002090600602016040518060c001604052908160008201548152602001600182018054600181600116156101000203166002900480601f01602080910402602001604051908101604052809291908181526020018280546001816001161561010002031660029004801561065d5780601f106106325761010080835404028352916020019161065d565b820191906000526020600020905b81548152906001019060200180831161064057829003601f168201915b50505050508152602001600282018054600181600116156101000203166002900480601f0160208091040260200160405190810160405280929190818152602001828054600181600116156101000203166002900480156106ff5780601f106106d4576101008083540402835291602001916106ff565b820191906000526020600020905b8154815290600101906020018083116106e257829003601f168201915b50505050508152602001600382018054600181600116156101000203166002900480601f0160208091040260200160405190810160405280929190818152602001828054600181600116156101000203166002900480156107a15780601f10610776576101008083540402835291602001916107a1565b820191906000526020600020905b81548152906001019060200180831161078457829003601f168201915b50505050508152602001600482018054600181600116156101000203166002900480601f0160208091040260200160405190810160405280929190818152602001828054600181600116156101000203166002900480156108435780601f1061081857610100808354040283529160200191610843565b820191906000526020600020905b81548152906001019060200180831161082657829003601f168201915b5050505050815260200160058201548152505081526020019060010190610597565b505050508152505090508060c00151915050919050565b6006602052806000526040600020600091509050806000015490806001018054600181600116156101000203166002900480601f01602080910402602001604051908101604052809291908181526020018280546001816001161561010002031660029004801561092e5780601f106109035761010080835404028352916020019161092e565b820191906000526020600020905b81548152906001019060200180831161091157829003601f168201915b505050505090806002018054600181600116156101000203166002900480601f0160208091040260200160405190810160405280929190818152602001828054600181600116156101000203166002900480156109cc5780601f106109a1576101008083540402835291602001916109cc565b820191906000526020600020905b8154815290600101906020018083116109af57829003601f168201915b5050505050908060030154908060040154908060050154905086565b600560009054906101000a900473ffffffffffffffffffffffffffffffffffffffff1673ffffffffffffffffffffffffffffffffffffffff163373ffffffffffffffffffffffffffffffffffffffff1614610a4257600080fd5b60036000815480929190600101919050555060035460066000600354815260200190815260200160002060000181905550836006600060035481526020019081526020016000206001019080519060200190610a9f929190611728565b50826006600060035481526020019081526020016000206002019080519060200190610acc929190611728565b508160066000600354815260200190815260200160002060030181905550806006600060035481526020019081526020016000206004018190555042600660006003548152602001908152602001600020600501819055507f8b59edb9f4e30a463afccefae6a372c4cee3648e91466f14caca75ba52d9bb1e6003548585858542604051610b5f96959493929190611e75565b60405180910390a150505050565b60035481565b60025481565b60086020528060005260406000206000915054906101000a900460ff1681565b60045481565b60008054600181600116156101000203166002900480601f016020809104026020016040519081016040528092919081815260200182805460018160011615610100020316600290048015610c355780601f10610c0a57610100808354040283529160200191610c35565b820191906000526020600020905b815481529060010190602001808311610c1857829003601f168201915b505050505081565b60018054600181600116156101000203166002900480601f016020809104026020016040519081016040528092919081815260200182805460018160011615610100020316600290048015610cd35780601f10610ca857610100808354040283529160200191610cd3565b820191906000526020600020905b815481529060010190602001808311610cb657829003601f168201915b505050505081565b600560009054906101000a900473ffffffffffffffffffffffffffffffffffffffff1681565b600860003373ffffffffffffffffffffffffffffffffffffffff1673ffffffffffffffffffffffffffffffffffffffff16815260200190815260200160002060009054906101000a900460ff16610d5757600080fd5b600081118015610d6957506004548111155b610d7257600080fd5b6060600760003373ffffffffffffffffffffffffffffffffffffffff1673ffffffffffffffffffffffffffffffffffffffff168152602001908152602001600020600101805480602002602001604051908101604052809291908181526020018280548015610e0057602002820191906000526020600020905b815481526020019060010190808311610dec575b505050505090506000815190506000811415610f0657600660008581526020019081526020016000206006016001840381548110610e3a57fe5b906000526020600020906006020160050160008154809291906001019190505550600760003373ffffffffffffffffffffffffffffffffffffffff1673ffffffffffffffffffffffffffffffffffffffff1681526020019081526020016000206001018490806001815401808255809150509060018203906000526020600020016000909192909190915055507f8eb81cb806dbb3d8a2f94981614331a55dfd90e06a42fdc362ca3ca96981d92f336001604051610ef9929190611d40565b60405180910390a1611052565b600081146110515760008090505b8181101561104f5784838281518110610f2957fe5b60200260200101511415610f57576001600960006101000a81548160ff021916908315150217905550600080fd5b600660008681526020019081526020016000206006016001850381548110610f7b57fe5b906000526020600020906006020160050160008154809291906001019190505550600760003373ffffffffffffffffffffffffffffffffffffffff1673ffffffffffffffffffffffffffffffffffffffff1681526020019081526020016000206001018590806001815401808255809150509060018203906000526020600020016000909192909190915055507f8eb81cb806dbb3d8a2f94981614331a55dfd90e06a42fdc362ca3ca96981d92f33600160405161103a929190611d40565b60405180910390a18080600101915050610f14565b505b5b7f8eb81cb806dbb3d8a2f94981614331a55dfd90e06a42fdc362ca3ca96981d92f336001604051611084929190611d40565b60405180910390a150505050565b600560009054906101000a900473ffffffffffffffffffffffffffffffffffffffff1673ffffffffffffffffffffffffffffffffffffffff163373ffffffffffffffffffffffffffffffffffffffff16146110ec57600080fd5b6110f46116eb565b600660008781526020019081526020016000206040518060e001604052908160008201548152602001600182018054600181600116156101000203166002900480601f0160208091040260200160405190810160405280929190818152602001828054600181600116156101000203166002900480156111b55780601f1061118a576101008083540402835291602001916111b5565b820191906000526020600020905b81548152906001019060200180831161119857829003601f168201915b50505050508152602001600282018054600181600116156101000203166002900480601f0160208091040260200160405190810160405280929190818152602001828054600181600116156101000203166002900480156112575780601f1061122c57610100808354040283529160200191611257565b820191906000526020600020905b81548152906001019060200180831161123a57829003601f168201915b5050505050815260200160038201548152602001600482015481526020016005820154815260200160068201805480602002602001604051908101604052809291908181526020016000905b8282101561157157838290600052602060002090600602016040518060c001604052908160008201548152602001600182018054600181600116156101000203166002900480601f0160208091040260200160405190810160405280929190818152602001828054600181600116156101000203166002900480156113695780601f1061133e57610100808354040283529160200191611369565b820191906000526020600020905b81548152906001019060200180831161134c57829003601f168201915b50505050508152602001600282018054600181600116156101000203166002900480601f01602080910402602001604051908101604052809291908181526020018280546001816001161561010002031660029004801561140b5780601f106113e05761010080835404028352916020019161140b565b820191906000526020600020905b8154815290600101906020018083116113ee57829003601f168201915b50505050508152602001600382018054600181600116156101000203166002900480601f0160208091040260200160405190810160405280929190818152602001828054600181600116156101000203166002900480156114ad5780601f10611482576101008083540402835291602001916114ad565b820191906000526020600020905b81548152906001019060200180831161149057829003601f168201915b50505050508152602001600482018054600181600116156101000203166002900480601f01602080910402602001604051908101604052809291908181526020018280546001816001161561010002031660029004801561154f5780601f106115245761010080835404028352916020019161154f565b820191906000526020600020905b81548152906001019060200180831161153257829003601f168201915b50505050508152602001600582015481525050815260200190600101906112a3565b505050508152505090506004600081548092919060010191905055506115956117a8565b6040518060c0016040528060045481526020018781526020018681526020018581526020018481526020016000815250905060066000888152602001908152602001600020600601819080600181540180825580915050906001820390600052602060002090600602016000909192909190915060008201518160000155602082015181600101908051906020019061162f9291906117de565b50604082015181600201908051906020019061164c9291906117de565b5060608201518160030190805190602001906116699291906117de565b5060808201518160040190805190602001906116869291906117de565b5060a082015181600501555050507f24107f57307d59c1340861409bb1693828565458d05804c1040dfd8f9dd9eb198260200151836040015160045489898960006040516116da9796959493929190611dc8565b60405180910390a150505050505050565b6040518060e00160405280600081526020016060815260200160608152602001600081526020016000815260200160008152602001606081525090565b828054600181600116156101000203166002900490600052602060002090601f016020900481019282601f1061176957805160ff1916838001178555611797565b82800160010185558215611797579182015b8281111561179657825182559160200191906001019061177b565b5b5090506117a4919061185e565b5090565b6040518060c001604052806000815260200160608152602001606081526020016060815260200160608152602001600081525090565b828054600181600116156101000203166002900490600052602060002090601f016020900481019282601f1061181f57805160ff191683800117855561184d565b8280016001018555821561184d579182015b8281111561184c578251825591602001919060010190611831565b5b50905061185a919061185e565b5090565b61188091905b8082111561187c576000816000905550600101611864565b5090565b90565b60008135905061189281612100565b92915050565b600082601f8301126118a957600080fd5b81356118bc6118b782611f80565b611f53565b915080825260208301602083018583830111156118d857600080fd5b6118e38382846120ad565b50505092915050565b6000813590506118fb81612117565b92915050565b60006020828403121561191357600080fd5b600061192184828501611883565b91505092915050565b6000806000806080858703121561194057600080fd5b600085013567ffffffffffffffff81111561195a57600080fd5b61196687828801611898565b945050602085013567ffffffffffffffff81111561198357600080fd5b61198f87828801611898565b93505060406119a0878288016118ec565b92505060606119b1878288016118ec565b91505092959194509250565b6000602082840312156119cf57600080fd5b60006119dd848285016118ec565b91505092915050565b600080600080600060a086880312156119fe57600080fd5b6000611a0c888289016118ec565b955050602086013567ffffffffffffffff811115611a2957600080fd5b611a3588828901611898565b945050604086013567ffffffffffffffff811115611a5257600080fd5b611a5e88828901611898565b935050606086013567ffffffffffffffff811115611a7b57600080fd5b611a8788828901611898565b925050608086013567ffffffffffffffff811115611aa457600080fd5b611ab088828901611898565b9150509295509295909350565b60008060408385031215611ad057600080fd5b6000611ade858286016118ec565b9250506020611aef858286016118ec565b9150509250929050565b6000611b058383611c69565b905092915050565b611b1681612065565b82525050565b611b258161201d565b82525050565b6000611b3682611fbc565b611b408185611fea565b935083602082028501611b5285611fac565b8060005b85811015611b8e5784840389528151611b6f8582611af9565b9450611b7a83611fdd565b925060208a01995050600181019050611b56565b50829750879550505050505092915050565b611ba98161202f565b82525050565b611bb881612077565b82525050565b6000611bc982611fd2565b611bd3818561200c565b9350611be38185602086016120bc565b611bec816120ef565b840191505092915050565b6000611c0282611fc7565b611c0c8185611ffb565b9350611c1c8185602086016120bc565b611c25816120ef565b840191505092915050565b6000611c3b82611fc7565b611c45818561200c565b9350611c558185602086016120bc565b611c5e816120ef565b840191505092915050565b600060c083016000830151611c816000860182611d07565b5060208301518482036020860152611c998282611bf7565b91505060408301518482036040860152611cb38282611bf7565b91505060608301518482036060860152611ccd8282611bf7565b91505060808301518482036080860152611ce78282611bf7565b91505060a0830151611cfc60a0860182611d07565b508091505092915050565b611d108161205b565b82525050565b611d1f8161205b565b82525050565b6000602082019050611d3a6000830184611b1c565b92915050565b6000604082019050611d556000830185611b0d565b611d626020830184611ba0565b9392505050565b60006020820190508181036000830152611d838184611b2b565b905092915050565b6000602082019050611da06000830184611ba0565b92915050565b60006020820190508181036000830152611dc08184611c30565b905092915050565b600060e0820190508181036000830152611de2818a611c30565b90508181036020830152611df68189611c30565b9050611e056040830188611d16565b8181036060830152611e178187611bbe565b90508181036080830152611e2b8186611bbe565b905081810360a0830152611e3f8185611bbe565b9050611e4e60c0830184611baf565b98975050505050505050565b6000602082019050611e6f6000830184611d16565b92915050565b600060c082019050611e8a6000830189611d16565b8181036020830152611e9c8188611bbe565b90508181036040830152611eb08187611bbe565b9050611ebf6060830186611d16565b611ecc6080830185611d16565b611ed960a0830184611d16565b979650505050505050565b600060c082019050611ef96000830189611d16565b8181036020830152611f0b8188611c30565b90508181036040830152611f1f8187611c30565b9050611f2e6060830186611d16565b611f3b6080830185611d16565b611f4860a0830184611d16565b979650505050505050565b6000604051905081810181811067ffffffffffffffff82111715611f7657600080fd5b8060405250919050565b600067ffffffffffffffff821115611f9757600080fd5b601f19601f8301169050602081019050919050565b6000819050602082019050919050565b600081519050919050565b600081519050919050565b600081519050919050565b6000602082019050919050565b600082825260208201905092915050565b600082825260208201905092915050565b600082825260208201905092915050565b60006120288261203b565b9050919050565b60008115159050919050565b600073ffffffffffffffffffffffffffffffffffffffff82169050919050565b6000819050919050565b600061207082612089565b9050919050565b60006120828261205b565b9050919050565b60006120948261209b565b9050919050565b60006120a68261203b565b9050919050565b82818337600083830152505050565b60005b838110156120da5780820151818401526020810190506120bf565b838111156120e9576000848401525b50505050565b6000601f19601f8301169050919050565b6121098161201d565b811461211457600080fd5b50565b6121208161205b565b811461212b57600080fd5b5056fea365627a7a723158206e821a35847e077f4496b9a8e6ef4edf3e94448e0dc681c3cc23b654632b450e6c6578706572696d656e74616cf564736f6c634300050c004040476f6f646e657373457a656f6b61666f7220616e642040456d6d616e75656c556d6568",
  "source": "pragma solidity ^0.5.0;\npragma experimental ABIEncoderV2;\n\n\ncontract Voting{\n    string public dapp_name=\"UniVote\";  // name of dapp\n    string public dapp_developer=\"@GoodnessEzeokafor and @EmmanuelUmeh\"; // smart contract developer\n    uint public electionEndTime; // electionENdTIme\n    uint public electionCount; //total number of election\n    uint public candidateCount; // totalnumber of candidates\n    address public electionAuthority;  // election creator\n    mapping(uint => Election) public elections;  //GET ELECTION LIST\n    // mapping (uint => Candidate) public candidates; // Candidate ID to number of votes\n     mapping (address => Voter) public votedStruct; // Elections one has Voted on\n    mapping (address => bool) public voters; // Registered voters\n    // mapping (address => []) public hasVoted; // If a registered voter has voted or not\n\n    \n    // mapping(uint => Candidate) public candidates;  //GET ELECTION LIST\n\n    bool found;\n\n    // Candidate[] public candidates;\n    /* MODIFIERS */\n        // Modifiers\n\n    // Ensures only owners can call a function\n    modifier only_election_authority() {\n        if (msg.sender != electionAuthority) revert();\n        _;\n    }\n\n    // // Ensures only registered voters can vote\n     modifier only_registered_voters() {\n        if (!voters[msg.sender]) revert();\n        _;\n    }\n\n    // // Ensures voters can vote just once!!! Their fada\n    // modifier vote_only_once() {\n    //     if (hasVoted[msg.sender]) revert();\n    //     _;\n    // }   \n\n    // // Only Vote during election time and We make cash\n\n      modifier only_during_election_time() {\n        if (electionEndTime == 0 || electionEndTime > block.timestamp) revert();\n        _;\n    }\n    constructor() public {\n        electionAuthority =  0x4516dF95e7f7985FF2806AB06cEf1A9930662711;\n    }\n\n\n    /*  CANDIDATE STRUCT */\n    struct Candidate {\n        uint id;\n        string name;\n        string department;\n        string level;\n        string post;\n        uint voteCount;\n    }\n\n\n    /* END CANDIDATE STRUCT */\n\n\n    // Voter Struct\n\n    struct Voter{\n        uint id;\n        uint[] votedElections;\n        // mapping (uint => Candidate)  candidates; // Candidate ID to number of votes\n        // Candidate[] candidates;\n    }\n\n\n    /*  ELECTION STRUCT */\n    struct Election{\n        uint id;\n        string name_of_election;\n        string description_of_election;\n        uint duration; // in minutes\n        uint startTime; // \n        uint timestamp; \n        // mapping (uint => Candidate)  candidates; // Candidate ID to number of votes\n        Candidate[] candidates;\n    }\n    /* END ELECTION STRUCT */\n\n\n    event NewElection(\n        uint id,\n        string name_of_election,\n        string description_of_election,\n        uint duration,\n        uint startTime,\n        uint timestamp\n        // Candidate candidates // Candidate ID to number of votes\n    );\n\n    event NewCandidate(\n        string election_name,\n        string election_description,\n        uint id,\n        string name,\n        string department,\n        string level,\n        uint voteCount\n    );\n\n    event Voted(\n        address voter,\n        bool voted\n    );\n\n\n\n\n    // methods\n\n    function createElection(\n                string memory _name_of_election, \n                string memory  _description_of_election,\n                 uint _duration,\n                 uint _startTime\n                 ) public only_election_authority {\n        \n        electionCount ++;\n        // Candidate memory new_candidate = Candidate(0,\"Not A Candidate\",\"Not A Candidate\", \"Not A Candidate\",\"NOT A CANDIDATE\",0);\n        elections[electionCount].id = electionCount;\n        elections[electionCount].name_of_election = _name_of_election;\n        elections[electionCount].description_of_election = _description_of_election;\n        elections[electionCount].duration = _duration;\n        elections[electionCount].startTime = _startTime;\n        elections[electionCount].timestamp = now;\n        // elections[electionCount].candidates.push(new_candidate);\n        emit NewElection(\n            electionCount,\n            _name_of_election,\n            _description_of_election,\n            _duration,\n            _startTime,\n            now\n            // new_candidate        \n        );\n    }\n\n\n    function createCandidate(\n                        \n                            uint _electionId,\n                            string memory  _name,\n                            string memory _department,\n                            string memory  _level,\n                            string memory _post\n                            ) public only_election_authority{\n        Election memory e = elections[_electionId];\n        \n        candidateCount++;\n        Candidate memory new_candidate = Candidate(candidateCount,_name,_department,_level,_post, 0);\n        elections[_electionId].candidates.push(new_candidate);\n        // elections[_id].candidates.push(new_candidate);\n        // candidates[candidateCount] = new_candidate;\n\n\n\n\n        emit NewCandidate(\n                e.name_of_election,\n                e.description_of_election,\n                candidateCount,\n                _name,\n                _department,\n                _level,\n                0);\n    }\n\n// Register a voter for when we using the UJ API to register voters\n    function register_voter(address addr) public {\n        voters[addr] = true;\n    }\n\n      function start_election(uint duration) public only_election_authority{\n        electionEndTime =   block.timestamp + duration; \n    }\n  \n\n      function voteCandidate(uint _electionId, uint _candidateId) public only_registered_voters\n\n        // Remember to check why time fails in tests!!\n        // only_during_election_time\n        // vote_only_once\n        {\n        // // require that they haven't voted before\n        // require(!voters[msg.sender]);\n\n            // Ensures the candidate exists\n        require(_candidateId > 0 && _candidateId <= candidateCount);\n        // require(_electionId > 0 && _electionId <= electionCount);\n\n        // record that voter has voted\n\n        // require(hasVoted[])\n        // hasVoted[msg.sender] = _electionId;\n\n        // update candidate vote Count\n        // elections[_electionId].candidates[_candidateId].voteCount ++;\n         uint[] memory votersElections = votedStruct[msg.sender].votedElections;\n\n        uint arrayLength = votersElections.length;\n        if(arrayLength == 0){\n            elections[_electionId].candidates[_candidateId - 1].voteCount ++;\n            votedStruct[msg.sender].votedElections.push(_electionId);\n             \n            emit Voted(msg.sender,true);\n        }\n        else if(arrayLength !=0 ){\n        for(uint i=0; i<arrayLength; i++){\n            if(votersElections[i]==_electionId){\n                found=true;\n                // break;\n                revert();\n            }\n            else {\n\n                elections[_electionId].candidates[_candidateId - 1].voteCount ++;\n                votedStruct[msg.sender].votedElections.push(_electionId);\n                \n                emit Voted(msg.sender,true);\n            }\n         \n            \n        }\n        // if(!found){\n           \n        //     elections[_electionId].candidates[_candidateId - 1].voteCount ++;\n        //      votedStruct[msg.sender].votedElections.push(_electionId);\n        //     emit Voted(msg.sender,true);\n        // }\n\n\n        }\n\n        \n        \n        \n\n\n         \n        \n        // singleElection.voteCount ++;\n        emit Voted(msg.sender,true);\n    }\n\n    function getElectionCandidates(uint _id) public view returns(\n                                // string memory,\n                                // string memory,\n                                Candidate[] memory\n                                ){\n        // return elections[_id].candidates;  \n        Election memory e = elections[_id];\n\n        // return elections[_id];\n        return(\n            // e.name_of_election,\n            // e.description_of_election,\n            e.candidates\n        );\n\n    }\n\n}\n\n\n\n    ",
  "sourcePath": "/home/goodness/Development/ethereum/UniVote/client/src/contracts/Voting.sol",
  "compiler": {
    "name": "solc",
    "version": "0.5.12+commit.7709ece9.Emscripten.clang"
  },
  "schemaVersion": "3.0.19",
  "updatedAt": "2020-01-14T22:15:14.044Z",
  "networkType": "ethereum",
  "devdoc": {
    "methods": {}
  },
  "userdoc": {
    "methods": {}
  }
}