{
  "contractName": "Voting",
  "abi": [
    {
      "constant": true,
      "inputs": [
        {
          "name": "",
          "type": "address"
        }
      ],
      "name": "votedStruct",
      "outputs": [
        {
          "name": "id",
          "type": "uint256"
        }
      ],
      "payable": false,
      "stateMutability": "view",
      "type": "function",
      "signature": "0x0a466e5a"
    },
    {
      "constant": true,
      "inputs": [
        {
          "name": "",
          "type": "uint256"
        }
      ],
      "name": "elections",
      "outputs": [
        {
          "name": "id",
          "type": "uint256"
        },
        {
          "name": "name_of_election",
          "type": "string"
        },
        {
          "name": "description_of_election",
          "type": "string"
        },
        {
          "name": "duration",
          "type": "uint256"
        },
        {
          "name": "startTime",
          "type": "uint256"
        },
        {
          "name": "timestamp",
          "type": "uint256"
        }
      ],
      "payable": false,
      "stateMutability": "view",
      "type": "function",
      "signature": "0x5e6fef01"
    },
    {
      "constant": true,
      "inputs": [
        {
          "name": "",
          "type": "uint256"
        }
      ],
      "name": "liveScoreCandidates",
      "outputs": [
        {
          "name": "id",
          "type": "uint256"
        },
        {
          "name": "name",
          "type": "string"
        },
        {
          "name": "department",
          "type": "string"
        },
        {
          "name": "level",
          "type": "string"
        },
        {
          "name": "post",
          "type": "string"
        },
        {
          "name": "voteCount",
          "type": "uint256"
        }
      ],
      "payable": false,
      "stateMutability": "view",
      "type": "function",
      "signature": "0x7548d639"
    },
    {
      "constant": true,
      "inputs": [],
      "name": "electionCount",
      "outputs": [
        {
          "name": "",
          "type": "uint256"
        }
      ],
      "payable": false,
      "stateMutability": "view",
      "type": "function",
      "signature": "0x997d2830"
    },
    {
      "constant": true,
      "inputs": [],
      "name": "electionEndTime",
      "outputs": [
        {
          "name": "",
          "type": "uint256"
        }
      ],
      "payable": false,
      "stateMutability": "view",
      "type": "function",
      "signature": "0x9e136e64"
    },
    {
      "constant": true,
      "inputs": [
        {
          "name": "",
          "type": "address"
        }
      ],
      "name": "voters",
      "outputs": [
        {
          "name": "",
          "type": "bool"
        }
      ],
      "payable": false,
      "stateMutability": "view",
      "type": "function",
      "signature": "0xa3ec138d"
    },
    {
      "constant": true,
      "inputs": [],
      "name": "candidateCount",
      "outputs": [
        {
          "name": "",
          "type": "uint256"
        }
      ],
      "payable": false,
      "stateMutability": "view",
      "type": "function",
      "signature": "0xa9a981a3"
    },
    {
      "constant": true,
      "inputs": [],
      "name": "dapp_name",
      "outputs": [
        {
          "name": "",
          "type": "string"
        }
      ],
      "payable": false,
      "stateMutability": "view",
      "type": "function",
      "signature": "0xb3ea346b"
    },
    {
      "constant": true,
      "inputs": [],
      "name": "dapp_developer",
      "outputs": [
        {
          "name": "",
          "type": "string"
        }
      ],
      "payable": false,
      "stateMutability": "view",
      "type": "function",
      "signature": "0xc9559252"
    },
    {
      "constant": true,
      "inputs": [],
      "name": "registerVoterCount",
      "outputs": [
        {
          "name": "",
          "type": "uint256"
        }
      ],
      "payable": false,
      "stateMutability": "view",
      "type": "function",
      "signature": "0xcdb822fe"
    },
    {
      "constant": true,
      "inputs": [],
      "name": "liveScoreCandidateCount",
      "outputs": [
        {
          "name": "",
          "type": "uint256"
        }
      ],
      "payable": false,
      "stateMutability": "view",
      "type": "function",
      "signature": "0xd546c74a"
    },
    {
      "constant": true,
      "inputs": [],
      "name": "electionAuthority",
      "outputs": [
        {
          "name": "",
          "type": "address"
        }
      ],
      "payable": false,
      "stateMutability": "view",
      "type": "function",
      "signature": "0xdc46d6ea"
    },
    {
      "inputs": [],
      "payable": false,
      "stateMutability": "nonpayable",
      "type": "constructor",
      "signature": "constructor"
    },
    {
      "anonymous": false,
      "inputs": [
        {
          "indexed": false,
          "name": "id",
          "type": "uint256"
        },
        {
          "indexed": false,
          "name": "name_of_election",
          "type": "string"
        },
        {
          "indexed": false,
          "name": "description_of_election",
          "type": "string"
        },
        {
          "indexed": false,
          "name": "duration",
          "type": "uint256"
        },
        {
          "indexed": false,
          "name": "startTime",
          "type": "uint256"
        },
        {
          "indexed": false,
          "name": "timestamp",
          "type": "uint256"
        }
      ],
      "name": "NewElection",
      "type": "event",
      "signature": "0x8b59edb9f4e30a463afccefae6a372c4cee3648e91466f14caca75ba52d9bb1e"
    },
    {
      "anonymous": false,
      "inputs": [
        {
          "indexed": false,
          "name": "election_name",
          "type": "string"
        },
        {
          "indexed": false,
          "name": "election_description",
          "type": "string"
        },
        {
          "indexed": false,
          "name": "id",
          "type": "uint256"
        },
        {
          "indexed": false,
          "name": "name",
          "type": "string"
        },
        {
          "indexed": false,
          "name": "department",
          "type": "string"
        },
        {
          "indexed": false,
          "name": "level",
          "type": "string"
        },
        {
          "indexed": false,
          "name": "voteCount",
          "type": "uint256"
        }
      ],
      "name": "NewCandidate",
      "type": "event",
      "signature": "0x24107f57307d59c1340861409bb1693828565458d05804c1040dfd8f9dd9eb19"
    },
    {
      "anonymous": false,
      "inputs": [
        {
          "indexed": false,
          "name": "voter",
          "type": "address"
        },
        {
          "indexed": false,
          "name": "voted",
          "type": "bool"
        },
        {
          "indexed": false,
          "name": "timestamp",
          "type": "uint256"
        }
      ],
      "name": "Voted",
      "type": "event",
      "signature": "0x591a89b27b3057021df052ec15caa0a817c1894bcb52243ed0c8cdaa83f322be"
    },
    {
      "constant": false,
      "inputs": [
        {
          "name": "_name_of_election",
          "type": "string"
        },
        {
          "name": "_description_of_election",
          "type": "string"
        },
        {
          "name": "_duration",
          "type": "uint256"
        },
        {
          "name": "_startTime",
          "type": "uint256"
        }
      ],
      "name": "createElection",
      "outputs": [],
      "payable": false,
      "stateMutability": "nonpayable",
      "type": "function",
      "signature": "0x7ad36e84"
    },
    {
      "constant": false,
      "inputs": [
        {
          "name": "_electionId",
          "type": "uint256"
        },
        {
          "name": "_name",
          "type": "string"
        },
        {
          "name": "_department",
          "type": "string"
        },
        {
          "name": "_level",
          "type": "string"
        },
        {
          "name": "_post",
          "type": "string"
        }
      ],
      "name": "createCandidate",
      "outputs": [],
      "payable": false,
      "stateMutability": "nonpayable",
      "type": "function",
      "signature": "0xf2504a6a"
    },
    {
      "constant": false,
      "inputs": [
        {
          "name": "addr",
          "type": "address"
        }
      ],
      "name": "register_voter",
      "outputs": [],
      "payable": false,
      "stateMutability": "nonpayable",
      "type": "function",
      "signature": "0x4f2c51b9"
    },
    {
      "constant": false,
      "inputs": [
        {
          "name": "duration",
          "type": "uint256"
        }
      ],
      "name": "start_election",
      "outputs": [],
      "payable": false,
      "stateMutability": "nonpayable",
      "type": "function",
      "signature": "0x2de096ff"
    },
    {
      "constant": false,
      "inputs": [
        {
          "name": "_electionId",
          "type": "uint256"
        },
        {
          "name": "_candidateId",
          "type": "uint256"
        }
      ],
      "name": "voteCandidate",
      "outputs": [],
      "payable": false,
      "stateMutability": "nonpayable",
      "type": "function",
      "signature": "0xeb1e6270"
    },
    {
      "constant": true,
      "inputs": [
        {
          "name": "_id",
          "type": "uint256"
        }
      ],
      "name": "getElectionCandidates",
      "outputs": [
        {
          "name": "",
          "type": "uint256"
        },
        {
          "components": [
            {
              "name": "id",
              "type": "uint256"
            },
            {
              "name": "name",
              "type": "string"
            },
            {
              "name": "department",
              "type": "string"
            },
            {
              "name": "level",
              "type": "string"
            },
            {
              "name": "post",
              "type": "string"
            },
            {
              "name": "voteCount",
              "type": "uint256"
            }
          ],
          "name": "",
          "type": "tuple[]"
        }
      ],
      "payable": false,
      "stateMutability": "view",
      "type": "function",
      "signature": "0x5e12845e"
    }
  ],
  "bytecode": "0x60806040526040805190810160405280600781526020017f556e69566f746500000000000000000000000000000000000000000000000000815250600090805190602001906200005192919062000130565b50606060405190810160405280602481526020017f40476f6f646e657373457a656f6b61666f7220616e642040456d6d616e75656c81526020017f556d65680000000000000000000000000000000000000000000000000000000081525060019080519060200190620000c692919062000130565b50348015620000d457600080fd5b50736415d68373647f99270e24eb145be4d6e0141ab2600860006101000a81548173ffffffffffffffffffffffffffffffffffffffff021916908373ffffffffffffffffffffffffffffffffffffffff160217905550620001df565b828054600181600116156101000203166002900490600052602060002090601f016020900481019282601f106200017357805160ff1916838001178555620001a4565b82800160010185558215620001a4579182015b82811115620001a357825182559160200191906001019062000186565b5b509050620001b39190620001b7565b5090565b620001dc91905b80821115620001d8576000816000905550600101620001be565b5090565b90565b61257880620001ef6000396000f3fe6080604052600436106100fc576000357c0100000000000000000000000000000000000000000000000000000000900463ffffffff1680630a466e5a146101015780632de096ff1461013e5780634f2c51b9146101675780635e12845e146101905780635e6fef01146101ce5780637548d639146102105780637ad36e8414610252578063997d28301461027b5780639e136e64146102a6578063a3ec138d146102d1578063a9a981a31461030e578063b3ea346b14610339578063c955925214610364578063cdb822fe1461038f578063d546c74a146103ba578063dc46d6ea146103e5578063eb1e627014610410578063f2504a6a14610439575b600080fd5b34801561010d57600080fd5b5061012860048036036101239190810190611d29565b610462565b6040516101359190612205565b60405180910390f35b34801561014a57600080fd5b5061016560048036036101609190810190611de5565b610480565b005b34801561017357600080fd5b5061018e60048036036101899190810190611d29565b6104e8565b005b34801561019c57600080fd5b506101b760048036036101b29190810190611de5565b610555565b6040516101c5929190612220565b60405180910390f35b3480156101da57600080fd5b506101f560048036036101f09190810190611de5565b610a01565b6040516102079695949392919061233c565b60405180910390f35b34801561021c57600080fd5b5061023760048036036102329190810190611de5565b610b6d565b604051610249969594939291906122bf565b60405180910390f35b34801561025e57600080fd5b5061027960048036036102749190810190611d52565b610e09565b005b34801561028757600080fd5b50610290610f90565b60405161029d9190612205565b60405180910390f35b3480156102b257600080fd5b506102bb610f96565b6040516102c89190612205565b60405180910390f35b3480156102dd57600080fd5b506102f860048036036102f39190810190611d29565b610f9c565b6040516103059190612136565b60405180910390f35b34801561031a57600080fd5b50610323610fbc565b6040516103309190612205565b60405180910390f35b34801561034557600080fd5b5061034e610fc2565b60405161035b9190612151565b60405180910390f35b34801561037057600080fd5b50610379611060565b6040516103869190612151565b60405180910390f35b34801561039b57600080fd5b506103a46110fe565b6040516103b19190612205565b60405180910390f35b3480156103c657600080fd5b506103cf611104565b6040516103dc9190612205565b60405180910390f35b3480156103f157600080fd5b506103fa61110a565b60405161040791906120e4565b60405180910390f35b34801561041c57600080fd5b5061043760048036036104329190810190611ee5565b611130565b005b34801561044557600080fd5b50610460600480360361045b9190810190611e0e565b611499565b005b600a6020528060005260406000206000915090508060000154905081565b600860009054906101000a900473ffffffffffffffffffffffffffffffffffffffff1673ffffffffffffffffffffffffffffffffffffffff163373ffffffffffffffffffffffffffffffffffffffff161415156104dc57600080fd5b80420160028190555050565b6001600b60008373ffffffffffffffffffffffffffffffffffffffff1673ffffffffffffffffffffffffffffffffffffffff16815260200190815260200160002060006101000a81548160ff02191690831515021790555060076000815480929190600101919050555050565b60006060610561611b11565b6009600085815260200190815260200160002060e0604051908101604052908160008201548152602001600182018054600181600116156101000203166002900480601f0160208091040260200160405190810160405280929190818152602001828054600181600116156101000203166002900480156106235780601f106105f857610100808354040283529160200191610623565b820191906000526020600020905b81548152906001019060200180831161060657829003601f168201915b50505050508152602001600282018054600181600116156101000203166002900480601f0160208091040260200160405190810160405280929190818152602001828054600181600116156101000203166002900480156106c55780601f1061069a576101008083540402835291602001916106c5565b820191906000526020600020905b8154815290600101906020018083116106a857829003601f168201915b5050505050815260200160038201548152602001600482015481526020016005820154815260200160068201805480602002602001604051908101604052809291908181526020016000905b828210156109e0578382906000526020600020906006020160c0604051908101604052908160008201548152602001600182018054600181600116156101000203166002900480601f0160208091040260200160405190810160405280929190818152602001828054600181600116156101000203166002900480156107d85780601f106107ad576101008083540402835291602001916107d8565b820191906000526020600020905b8154815290600101906020018083116107bb57829003601f168201915b50505050508152602001600282018054600181600116156101000203166002900480601f01602080910402602001604051908101604052809291908181526020018280546001816001161561010002031660029004801561087a5780601f1061084f5761010080835404028352916020019161087a565b820191906000526020600020905b81548152906001019060200180831161085d57829003601f168201915b50505050508152602001600382018054600181600116156101000203166002900480601f01602080910402602001604051908101604052809291908181526020018280546001816001161561010002031660029004801561091c5780601f106108f15761010080835404028352916020019161091c565b820191906000526020600020905b8154815290600101906020018083116108ff57829003601f168201915b50505050508152602001600482018054600181600116156101000203166002900480601f0160208091040260200160405190810160405280929190818152602001828054600181600116156101000203166002900480156109be5780601f10610993576101008083540402835291602001916109be565b820191906000526020600020905b8154815290600101906020018083116109a157829003601f168201915b5050505050815260200160058201548152505081526020019060010190610711565b5050505081525050905080600001518160c001518090509250925050915091565b6009602052806000526040600020600091509050806000015490806001018054600181600116156101000203166002900480601f016020809104026020016040519081016040528092919081815260200182805460018160011615610100020316600290048015610ab35780601f10610a8857610100808354040283529160200191610ab3565b820191906000526020600020905b815481529060010190602001808311610a9657829003601f168201915b505050505090806002018054600181600116156101000203166002900480601f016020809104026020016040519081016040528092919081815260200182805460018160011615610100020316600290048015610b515780601f10610b2657610100808354040283529160200191610b51565b820191906000526020600020905b815481529060010190602001808311610b3457829003601f168201915b5050505050908060030154908060040154908060050154905086565b6006602052806000526040600020600091509050806000015490806001018054600181600116156101000203166002900480601f016020809104026020016040519081016040528092919081815260200182805460018160011615610100020316600290048015610c1f5780601f10610bf457610100808354040283529160200191610c1f565b820191906000526020600020905b815481529060010190602001808311610c0257829003601f168201915b505050505090806002018054600181600116156101000203166002900480601f016020809104026020016040519081016040528092919081815260200182805460018160011615610100020316600290048015610cbd5780601f10610c9257610100808354040283529160200191610cbd565b820191906000526020600020905b815481529060010190602001808311610ca057829003601f168201915b505050505090806003018054600181600116156101000203166002900480601f016020809104026020016040519081016040528092919081815260200182805460018160011615610100020316600290048015610d5b5780601f10610d3057610100808354040283529160200191610d5b565b820191906000526020600020905b815481529060010190602001808311610d3e57829003601f168201915b505050505090806004018054600181600116156101000203166002900480601f016020809104026020016040519081016040528092919081815260200182805460018160011615610100020316600290048015610df95780601f10610dce57610100808354040283529160200191610df9565b820191906000526020600020905b815481529060010190602001808311610ddc57829003601f168201915b5050505050908060050154905086565b600860009054906101000a900473ffffffffffffffffffffffffffffffffffffffff1673ffffffffffffffffffffffffffffffffffffffff163373ffffffffffffffffffffffffffffffffffffffff16141515610e6557600080fd5b60036000815480929190600101919050555060035460096000600354815260200190815260200160002060000181905550836009600060035481526020019081526020016000206001019080519060200190610ec2929190611b4f565b50826009600060035481526020019081526020016000206002019080519060200190610eef929190611b4f565b508160096000600354815260200190815260200160002060030181905550806009600060035481526020019081526020016000206004018190555042600960006003548152602001908152602001600020600501819055507f8b59edb9f4e30a463afccefae6a372c4cee3648e91466f14caca75ba52d9bb1e6003548585858542604051610f8296959493929190612250565b60405180910390a150505050565b60035481565b60025481565b600b6020528060005260406000206000915054906101000a900460ff1681565b60045481565b60008054600181600116156101000203166002900480601f0160208091040260200160405190810160405280929190818152602001828054600181600116156101000203166002900480156110585780601f1061102d57610100808354040283529160200191611058565b820191906000526020600020905b81548152906001019060200180831161103b57829003601f168201915b505050505081565b60018054600181600116156101000203166002900480601f0160208091040260200160405190810160405280929190818152602001828054600181600116156101000203166002900480156110f65780601f106110cb576101008083540402835291602001916110f6565b820191906000526020600020905b8154815290600101906020018083116110d957829003601f168201915b505050505081565b60075481565b60055481565b600860009054906101000a900473ffffffffffffffffffffffffffffffffffffffff1681565b600b60003373ffffffffffffffffffffffffffffffffffffffff1673ffffffffffffffffffffffffffffffffffffffff16815260200190815260200160002060009054906101000a900460ff16151561118857600080fd5b60008111801561119a57506004548111155b15156111a557600080fd5b6060600a60003373ffffffffffffffffffffffffffffffffffffffff1673ffffffffffffffffffffffffffffffffffffffff16815260200190815260200160002060010180548060200260200160405190810160405280929190818152602001828054801561123357602002820191906000526020600020905b81548152602001906001019080831161121f575b50505050509050600081519050600081141561133d57600960008581526020019081526020016000206006016001840381548110151561126f57fe5b906000526020600020906006020160050160008154809291906001019190505550600a60003373ffffffffffffffffffffffffffffffffffffffff1673ffffffffffffffffffffffffffffffffffffffff1681526020019081526020016000206001018490806001815401808255809150509060018203906000526020600020016000909192909190915055507f591a89b27b3057021df052ec15caa0a817c1894bcb52243ed0c8cdaa83f322be33600142604051611330939291906120ff565b60405180910390a1611493565b6000811415156114925760008090505b818110156114905784838281518110151561136457fe5b906020019060200201511415611394576001600c60006101000a81548160ff021916908315150217905550600080fd5b60096000868152602001908152602001600020600601600185038154811015156113ba57fe5b906000526020600020906006020160050160008154809291906001019190505550600a60003373ffffffffffffffffffffffffffffffffffffffff1673ffffffffffffffffffffffffffffffffffffffff1681526020019081526020016000206001018590806001815401808255809150509060018203906000526020600020016000909192909190915055507f591a89b27b3057021df052ec15caa0a817c1894bcb52243ed0c8cdaa83f322be3360014260405161147b939291906120ff565b60405180910390a1808060010191505061134d565b505b5b50505050565b600860009054906101000a900473ffffffffffffffffffffffffffffffffffffffff1673ffffffffffffffffffffffffffffffffffffffff163373ffffffffffffffffffffffffffffffffffffffff161415156114f557600080fd5b6114fd611b11565b6009600087815260200190815260200160002060e0604051908101604052908160008201548152602001600182018054600181600116156101000203166002900480601f0160208091040260200160405190810160405280929190818152602001828054600181600116156101000203166002900480156115bf5780601f10611594576101008083540402835291602001916115bf565b820191906000526020600020905b8154815290600101906020018083116115a257829003601f168201915b50505050508152602001600282018054600181600116156101000203166002900480601f0160208091040260200160405190810160405280929190818152602001828054600181600116156101000203166002900480156116615780601f1061163657610100808354040283529160200191611661565b820191906000526020600020905b81548152906001019060200180831161164457829003601f168201915b5050505050815260200160038201548152602001600482015481526020016005820154815260200160068201805480602002602001604051908101604052809291908181526020016000905b8282101561197c578382906000526020600020906006020160c0604051908101604052908160008201548152602001600182018054600181600116156101000203166002900480601f0160208091040260200160405190810160405280929190818152602001828054600181600116156101000203166002900480156117745780601f1061174957610100808354040283529160200191611774565b820191906000526020600020905b81548152906001019060200180831161175757829003601f168201915b50505050508152602001600282018054600181600116156101000203166002900480601f0160208091040260200160405190810160405280929190818152602001828054600181600116156101000203166002900480156118165780601f106117eb57610100808354040283529160200191611816565b820191906000526020600020905b8154815290600101906020018083116117f957829003601f168201915b50505050508152602001600382018054600181600116156101000203166002900480601f0160208091040260200160405190810160405280929190818152602001828054600181600116156101000203166002900480156118b85780601f1061188d576101008083540402835291602001916118b8565b820191906000526020600020905b81548152906001019060200180831161189b57829003601f168201915b50505050508152602001600482018054600181600116156101000203166002900480601f01602080910402602001604051908101604052809291908181526020018280546001816001161561010002031660029004801561195a5780601f1061192f5761010080835404028352916020019161195a565b820191906000526020600020905b81548152906001019060200180831161193d57829003601f168201915b50505050508152602001600582015481525050815260200190600101906116ad565b505050508152505090506004600081548092919060010191905055506119a0611bcf565b60c0604051908101604052806001600960008b81526020019081526020016000206006018054905001815260200187815260200186815260200185815260200184815260200160008152509050600960008881526020019081526020016000206006018190806001815401808255809150509060018203906000526020600020906006020160009091929091909150600082015181600001556020820151816001019080519060200190611a55929190611c06565b506040820151816002019080519060200190611a72929190611c06565b506060820151816003019080519060200190611a8f929190611c06565b506080820151816004019080519060200190611aac929190611c06565b5060a082015181600501555050507f24107f57307d59c1340861409bb1693828565458d05804c1040dfd8f9dd9eb19826020015183604001516004548989896000604051611b009796959493929190612173565b60405180910390a150505050505050565b60e060405190810160405280600081526020016060815260200160608152602001600081526020016000815260200160008152602001606081525090565b828054600181600116156101000203166002900490600052602060002090601f016020900481019282601f10611b9057805160ff1916838001178555611bbe565b82800160010185558215611bbe579182015b82811115611bbd578251825591602001919060010190611ba2565b5b509050611bcb9190611c86565b5090565b60c0604051908101604052806000815260200160608152602001606081526020016060815260200160608152602001600081525090565b828054600181600116156101000203166002900490600052602060002090601f016020900481019282601f10611c4757805160ff1916838001178555611c75565b82800160010185558215611c75579182015b82811115611c74578251825591602001919060010190611c59565b5b509050611c829190611c86565b5090565b611ca891905b80821115611ca4576000816000905550600101611c8c565b5090565b90565b6000611cb78235612487565b905092915050565b600082601f8301121515611cd257600080fd5b8135611ce5611ce0826123d8565b6123ab565b91508082526020830160208301858383011115611d0157600080fd5b611d0c8382846124eb565b50505092915050565b6000611d218235612499565b905092915050565b600060208284031215611d3b57600080fd5b6000611d4984828501611cab565b91505092915050565b60008060008060808587031215611d6857600080fd5b600085013567ffffffffffffffff811115611d8257600080fd5b611d8e87828801611cbf565b945050602085013567ffffffffffffffff811115611dab57600080fd5b611db787828801611cbf565b9350506040611dc887828801611d15565b9250506060611dd987828801611d15565b91505092959194509250565b600060208284031215611df757600080fd5b6000611e0584828501611d15565b91505092915050565b600080600080600060a08688031215611e2657600080fd5b6000611e3488828901611d15565b955050602086013567ffffffffffffffff811115611e5157600080fd5b611e5d88828901611cbf565b945050604086013567ffffffffffffffff811115611e7a57600080fd5b611e8688828901611cbf565b935050606086013567ffffffffffffffff811115611ea357600080fd5b611eaf88828901611cbf565b925050608086013567ffffffffffffffff811115611ecc57600080fd5b611ed888828901611cbf565b9150509295509295909350565b60008060408385031215611ef857600080fd5b6000611f0685828601611d15565b9250506020611f1785828601611d15565b9150509250929050565b611f2a816124a3565b82525050565b611f398161243f565b82525050565b6000611f4a82612411565b80845260208401935083602082028501611f6385612404565b60005b84811015611f9c578383038852611f7e838351612037565b9250611f8982612432565b9150602088019750600181019050611f66565b508196508694505050505092915050565b611fb681612451565b82525050565b611fc5816124b5565b82525050565b6000611fd682612427565b808452611fea8160208601602086016124fa565b611ff38161252d565b602085010191505092915050565b600061200c8261241c565b8084526120208160208601602086016124fa565b6120298161252d565b602085010191505092915050565b600060c08301600083015161204f60008601826120d5565b50602083015184820360208601526120678282612001565b915050604083015184820360408601526120818282612001565b9150506060830151848203606086015261209b8282612001565b915050608083015184820360808601526120b58282612001565b91505060a08301516120ca60a08601826120d5565b508091505092915050565b6120de8161247d565b82525050565b60006020820190506120f96000830184611f30565b92915050565b60006060820190506121146000830186611f21565b6121216020830185611fad565b61212e60408301846120d5565b949350505050565b600060208201905061214b6000830184611fad565b92915050565b6000602082019050818103600083015261216b8184612001565b905092915050565b600060e082019050818103600083015261218d818a612001565b905081810360208301526121a18189612001565b90506121b060408301886120d5565b81810360608301526121c28187611fcb565b905081810360808301526121d68186611fcb565b905081810360a08301526121ea8185611fcb565b90506121f960c0830184611fbc565b98975050505050505050565b600060208201905061221a60008301846120d5565b92915050565b600060408201905061223560008301856120d5565b81810360208301526122478184611f3f565b90509392505050565b600060c08201905061226560008301896120d5565b81810360208301526122778188611fcb565b9050818103604083015261228b8187611fcb565b905061229a60608301866120d5565b6122a760808301856120d5565b6122b460a08301846120d5565b979650505050505050565b600060c0820190506122d460008301896120d5565b81810360208301526122e68188612001565b905081810360408301526122fa8187612001565b9050818103606083015261230e8186612001565b905081810360808301526123228185612001565b905061233160a08301846120d5565b979650505050505050565b600060c08201905061235160008301896120d5565b81810360208301526123638188612001565b905081810360408301526123778187612001565b905061238660608301866120d5565b61239360808301856120d5565b6123a060a08301846120d5565b979650505050505050565b6000604051905081810181811067ffffffffffffffff821117156123ce57600080fd5b8060405250919050565b600067ffffffffffffffff8211156123ef57600080fd5b601f19601f8301169050602081019050919050565b6000602082019050919050565b600081519050919050565b600081519050919050565b600081519050919050565b6000602082019050919050565b600061244a8261245d565b9050919050565b60008115159050919050565b600073ffffffffffffffffffffffffffffffffffffffff82169050919050565b6000819050919050565b60006124928261245d565b9050919050565b6000819050919050565b60006124ae826124c7565b9050919050565b60006124c08261247d565b9050919050565b60006124d2826124d9565b9050919050565b60006124e48261245d565b9050919050565b82818337600083830152505050565b60005b838110156125185780820151818401526020810190506124fd565b83811115612527576000848401525b50505050565b6000601f19601f830116905091905056fea265627a7a723058204dfe8b30fe911f6adf324124edf7d5fc617a2e16fe36dea41bd74081f88a4b906c6578706572696d656e74616cf50037",
  "source": "pragma solidity ^0.5.0;\r\npragma experimental ABIEncoderV2;\r\n\r\n\r\ncontract Voting{\r\n    string public dapp_name=\"UniVote\";  // name of dapp\r\n    string public dapp_developer=\"@GoodnessEzeokafor and @EmmanuelUmeh\"; // smart contract developer\r\n    uint public electionEndTime; // electionENdTIme\r\n    uint public electionCount; //total number of election\r\n    uint public candidateCount; // totalnumber of candidates\r\n\r\n    // Live Score\r\n    uint public liveScoreCandidateCount; // totalnumber of candidates\r\n    mapping(uint => LiveScoreCandidate) public liveScoreCandidates;  //GET ELECTION LIST\r\n    \r\n    uint public registerVoterCount; // totalnumber of candidates\r\n    \r\n    address public electionAuthority;  // election creator\r\n    mapping(uint => Election) public elections;  //GET ELECTION LIST\r\n    // mapping (uint => Candidate) public candidates; // Candidate ID to number of votes\r\n     mapping (address => Voter) public votedStruct; // Elections one has Voted on\r\n    mapping (address => bool) public voters; // Registered voters\r\n    // mapping (address => []) public hasVoted; // If a registered voter has voted or not\r\n    // mapping(uint => Candidate) public candidates;  //GET ELECTION LIST\r\n\r\n    bool found;\r\n\r\n    // Candidate[] public candidates;\r\n    /* MODIFIERS */\r\n        // Modifiers\r\n\r\n    // Ensures only owners can call a function\r\n    modifier only_election_authority() {\r\n        if (msg.sender != electionAuthority) revert();\r\n        _;\r\n    }\r\n\r\n    // // Ensures only registered voters can vote\r\n     modifier only_registered_voters() {\r\n        if (!voters[msg.sender]) revert();\r\n        _;\r\n    }\r\n\r\n    // // Ensures voters can vote just once!!! Their fada\r\n    // modifier vote_only_once() {\r\n    //     if (hasVoted[msg.sender]) revert();\r\n    //     _;\r\n    // }   \r\n\r\n    // // Only Vote during election time and We make cash\r\n\r\n      modifier only_during_election_time() {\r\n        if (electionEndTime == 0 || electionEndTime > block.timestamp) revert();\r\n        _;\r\n    }\r\n    constructor() public {\r\n        \r\n        // electionAuthority =  msg.sender;\r\n        \r\n        electionAuthority =  0x6415d68373647F99270E24eB145be4d6E0141Ab2;\r\n\r\n    }\r\n\r\n\r\n    /*  CANDIDATE STRUCT */\r\n    struct Candidate {\r\n        uint id;\r\n        string name;\r\n        string department;\r\n        string level;\r\n        string post;\r\n        uint voteCount;\r\n    }\r\n\r\nstruct LiveScoreCandidate {\r\n        uint id;\r\n        string name;\r\n        string department;\r\n        string level;\r\n        string post;\r\n        uint voteCount;\r\n    }\r\n\r\n\r\n    /* END CANDIDATE STRUCT */\r\n\r\n\r\n    // Voter Struct\r\n\r\n    struct Voter{\r\n        uint id;\r\n        uint[] votedElections;\r\n        // mapping (uint => Candidate)  candidates; // Candidate ID to number of votes\r\n        // Candidate[] candidates;\r\n    }\r\n\r\n\r\n    /*  ELECTION STRUCT */\r\n    struct Election{\r\n        uint id;\r\n        string name_of_election;\r\n        string description_of_election;\r\n        uint duration; // in minutes\r\n        uint startTime; // \r\n        uint timestamp; \r\n        // mapping (uint => Candidate)  candidates; // Candidate ID to number of votes\r\n        Candidate[] candidates;\r\n    }\r\n    /* END ELECTION STRUCT */\r\n\r\n\r\n    event NewElection(\r\n        uint id,\r\n        string name_of_election,\r\n        string description_of_election,\r\n        uint duration,\r\n        uint startTime,\r\n        uint timestamp\r\n        // Candidate candidates // Candidate ID to number of votes\r\n    );\r\n\r\n    event NewCandidate(\r\n        string election_name,\r\n        string election_description,\r\n        uint id,\r\n        string name,\r\n        string department,\r\n        string level,\r\n        uint voteCount\r\n    );\r\n\r\n    event Voted(\r\n        address voter,\r\n        bool voted,\r\n        uint timestamp\r\n    );\r\n\r\n\r\n\r\n\r\n    // methods\r\n\r\n    function createElection(\r\n                string memory _name_of_election, \r\n                string memory  _description_of_election,\r\n                 uint _duration,\r\n                 uint _startTime\r\n                 ) public only_election_authority {\r\n        \r\n        electionCount ++;\r\n        // Candidate memory new_candidate = Candidate(0,\"Not A Candidate\",\"Not A Candidate\", \"Not A Candidate\",\"NOT A CANDIDATE\",0);\r\n        elections[electionCount].id = electionCount;\r\n        elections[electionCount].name_of_election = _name_of_election;\r\n        elections[electionCount].description_of_election = _description_of_election;\r\n        elections[electionCount].duration = _duration;\r\n        elections[electionCount].startTime = _startTime;\r\n        elections[electionCount].timestamp = now;\r\n        // elections[electionCount].candidates.push(new_candidate);\r\n        emit NewElection(\r\n            electionCount,\r\n            _name_of_election,\r\n            _description_of_election,\r\n            _duration,\r\n            _startTime,\r\n            now\r\n            // new_candidate        \r\n        );\r\n    }\r\n\r\n\r\n    function createCandidate(\r\n                        \r\n                            uint _electionId,\r\n                            string memory  _name,\r\n                            string memory _department,\r\n                            string memory  _level,\r\n                            string memory _post\r\n                            ) public only_election_authority{\r\n        Election memory e = elections[_electionId];\r\n        \r\n        candidateCount++;\r\n        // // liveScoreCandidateCount++;\r\n        // uint _id = 0;\r\n        // uint _id = elections[_electionId].candidates.length ++;\r\n        Candidate memory new_candidate = Candidate(elections[_electionId].candidates.length + 1,_name,_department,_level,_post, 0);\r\n        elections[_electionId].candidates.push(new_candidate);\r\n        // liveScoreCandidates[liveScoreCandidateCount] = LiveScoreCandidate(liveScoreCandidateCount,_name,_department,_level,_post, 0);\r\n        // elections[_id].candidates.push(new_candidate);\r\n        // candidates[candidateCount] = new_candidate;\r\n        emit NewCandidate(\r\n                e.name_of_election,\r\n                e.description_of_election,\r\n                candidateCount,\r\n                _name,\r\n                _department,\r\n                _level,\r\n                0);\r\n    }\r\n\r\n// Register a voter for when we using the UJ API to register voters\r\n    function register_voter(address addr) public {\r\n        voters[addr] = true;\r\n        registerVoterCount++;\r\n    }\r\n\r\n      function start_election(uint duration) public only_election_authority{\r\n        electionEndTime =   block.timestamp + duration; \r\n    }\r\n  \r\n\r\n      function voteCandidate(uint _electionId, uint _candidateId) public only_registered_voters\r\n\r\n        // Remember to check why time fails in tests!!\r\n        // only_during_election_time\r\n        // vote_only_once\r\n        {\r\n        // // require that they haven't voted before\r\n        // require(!voters[msg.sender]);\r\n\r\n            // Ensures the candidate exists\r\n        require(_candidateId > 0 && _candidateId <= candidateCount);\r\n        // require(_electionId > 0 && _electionId <= electionCount);\r\n\r\n        // record that voter has voted\r\n\r\n        // require(hasVoted[])\r\n        // hasVoted[msg.sender] = _electionId;\r\n\r\n        // update candidate vote Count\r\n        // elections[_electionId].candidates[_candidateId].voteCount ++;\r\n         uint[] memory votersElections = votedStruct[msg.sender].votedElections;\r\n\r\n        uint arrayLength = votersElections.length;\r\n        if(arrayLength == 0){\r\n            elections[_electionId].candidates[_candidateId - 1].voteCount ++;\r\n            // liveScoreCandidates[_candidateId].voteCount ++;\r\n            votedStruct[msg.sender].votedElections.push(_electionId);\r\n            emit Voted(msg.sender,true,now);\r\n        }\r\n        else if(arrayLength !=0 ){\r\n        for(uint i=0; i<arrayLength; i++){\r\n            if(votersElections[i]==_electionId){\r\n                found=true;\r\n                // break;\r\n                revert();\r\n            }\r\n            else {\r\n\r\n                elections[_electionId].candidates[_candidateId - 1].voteCount ++;\r\n                votedStruct[msg.sender].votedElections.push(_electionId);\r\n                // liveScoreCandidates[_candidateId].voteCount ++;\r\n                emit Voted(msg.sender,true,now);\r\n            }\r\n         \r\n            \r\n        }\r\n        // if(!found){\r\n           \r\n        //     elections[_electionId].candidates[_candidateId - 1].voteCount ++;\r\n        //      votedStruct[msg.sender].votedElections.push(_electionId);\r\n        //     emit Voted(msg.sender,true);\r\n        // }\r\n\r\n\r\n        }\r\n\r\n        \r\n        \r\n        \r\n\r\n\r\n         \r\n        \r\n        // singleElection.voteCount ++;\r\n        // emit Voted(msg.sender,true);\r\n    }\r\n\r\n    function getElectionCandidates(uint _id) public view returns(\r\n                                uint,\r\n                                // // string memory,\r\n                                Candidate[] memory\r\n                                ){\r\n        // return elections[_id].candidates;  \r\n        Election memory e = elections[_id];\r\n\r\n        // return elections[_id];\r\n        return(\r\n            e.id,\r\n            // e.description_of_election,\r\n            e.candidates\r\n        );\r\n\r\n    }\r\n\r\n}\r\n\r\n\r\n\r\n    ",
  "sourcePath": "C:/Users/ALEX PC/Desktop/Univote/Univote3/client/src/contracts/Voting.sol",
  "compiler": {
    "name": "solc",
    "version": "0.5.0+commit.1d4f565a.Emscripten.clang"
  },
  "schemaVersion": "3.0.2",
  "updatedAt": "2020-01-20T21:21:12.963Z",
  "devdoc": {
    "methods": {}
  },
  "userdoc": {
    "methods": {}
  }
}